:020000040800F2
:10000000000002202D610108831C0108851C0108E5
:10001000871C0108891C01088B1C010800000000D6
:10002000000000000000000000000000417B00080C
:100030008D1C010800000000E17B000885650008B8
:100040007D6101087D6101087D6101087D61010814
:100050007D6101087D6101087D6101087D61010804
:100060007D6101087D6101087D610108911C010825
:10007000A11C0108B11C0108C11C0108D11C010808
:10008000E11C0108F11C01087D610108011D010846
:10009000111D01087D6101087D6101087D61010874
:1000A000211D01087D6101087D6101087D61010854
:1000B0007D610108311D01087D610108411D0108B4
:1000C000511D01087D6101087D6101087D61010804
:1000D0007D610108611D0108711D0108811D010874
:1000E0007D6101087D6101087D6101087D61010874
:1000F0007D6101087D6101087D6101087D61010864
:100100007D6101087D610108911D0108A11D0108A3
:100110007D6101087D6101087D6101087D61010843
:100120007D6101087D6101087D6101087D61010833
:100130007D6101087D6101087D6101087D61010823
:100140007D6101087D6101087D6101087D61010813
:100150007D6101087D6101087D6101087D61010803
:100160007D6101087D6101087D6101087D610108F3
:100170007D6101087D610108B11D01087D610108F3
:100180007D6101087D6101087D6101087D610108D3
:100190007D61010800000000C11D0108D11D01089A
:1001A0007D6101087D6101087D6101087D610108B3
:1001B0007D6101087D6101087D6101087D610108A3
:1001C0007D6101087D6101087D6101087D61010893
:0801D000E11D01087D61010839
:1001E000F8B50F4616461D460024632C0CD8002394
:1001F00032463946284603F0A7FF28B9012013F0FC
:1002000093F90134E4B2F0E7F8BD08B513460A46A5
:1002100001460020FFF7E4FF08BD10B50446E06A80
:1002200006F0A4FFA0894FF47A7303FB00F0034BA0
:10023000A3FB0030800913F077F9F0E7D34D62108B
:1002400000296AD02DE9F04188B004461646884658
:1002500000F10E070522384616F0F0FF384604F08C
:1002600025FA034639182F4A1068F85013790B7194
:1002700004F1180509224146284616F0DFFF2846FA
:1002800004F014FA034605EB000C274A03CAE850B1
:10029000CCF804100A2E38BF0A26A68103A8002332
:1002A000039343608360C36003618023ADF8103023
:1002B000ADF812304FF48073ADF814302023ADF850
:1002C000163001238DF81E30039506F0AFFCE06276
:1002D00028B3164B0360E36A154A5A6004F13403ED
:1002E00001931823009323464FF4007239461148B6
:1002F00012F0E5FE012803D0002008B0BDE8F0812F
:10030000606B13F083F90C4B1A68511C196003EBF6
:1003100082035C6001202070EFE70020704700201E
:10032000EBE700BFC49E0108CC9E01080D04000845
:100330002B0400081B020008E003002010B504781D
:100340000CB9204610BD406B12F048FFF9E719B117
:1003500041608260012070470020704729B101632D
:100360008160034B4360012070470020704700BF4D
:100370000B02000818B108B506F00CFC08BD704768
:100380002DE9F041A9B1064615460F46A2B190F8F5
:100390000080B8F1000F09D0002405E0395DF06A53
:1003A000FFF7E8FF0134A4B2AC42F7D34046BDE802
:1003B000F0814FF00008F9E74FF00008F6E7002859
:1003C00008DB064B1B68834206DD044B03EB80030E
:1003D000586870470020704700207047E0030020F5
:1003E000014680B10023084A1268934209DA064A9E
:1003F00002EB83025068C26A8A4204D00133DBB246
:10040000F1E7002070477047E003002010B582B08C
:100410008DF80710FFF7E4FF28B1446882680121D6
:100420000DF10700A04702B010BD70B50C46FFF7F4
:10043000D7FF48B105464668C821204616F011FF8F
:10044000AA6881B22046B04770BD014680B1002342
:10045000084A1268934209DA064A02EB830250689E
:10046000026B8A4204D00133DBB2F1E7002070470F
:10047000704700BFE003002038B50024012508E0E4
:10048000074B03EB84035868FFF758FF054001341E
:10049000E4B2034B1B689C42F2DB284638BD00BF28
:1004A000E00300207047F8B505460E46084606F002
:1004B000B7FE0746094B2B60092801DC012408E040
:1004C0000A27FBE7A1B2304606F04CFC45F82400B1
:1004D0000134A742F6DA3846F8BD00BF90A1010802
:1004E0000EB470B583B04368D3B10446C82007F09A
:1004F000B5F80646B8B108AB0193079AC82108F0D1
:1005000057FD05466368A26881B230469847304679
:1005100007F026F9284603B0BDE8704003B07047E5
:100520004FF0FF35F6E74FF0FF35F3E784B000B545
:1005300083B0844605A880E80E009CF8000068B1EE
:1005400089B1099B8BB108AB93E803008DE80300E8
:1005500005AB0ECBDCF82C0006F02AFB03B05DF8EF
:1005600004EB04B070470020F8E70020F6E784B001
:1005700070B582B006AC84E80F000024012510E0BD
:100580000D4B03EB84035E6809AB93E803008DE831
:10059000030006AB0ECB3046FFF7C8FF0540013421
:1005A000E4B2054B1B689C42EADB284602B0BDE87A
:1005B000704004B0704700BFE003002010B588B061
:1005C0000A9C039004918DF81420069307940094DC
:1005D00003AB0FCBFFF7CBFF08B010BD000000004E
:1005E0002DE9F041EA4B0021198000225A609A60FF
:1005F000DFF8C483C3F8108099829A61DA61E54E0E
:100600005E621985DA621A63E348986399871A640F
:100610005A64E24DDD641A655A659A65DFEDE04A79
:10062000C3ED174A9FEDDF5A83ED185ADFEDDE5A0E
:10063000C3ED195ADA669A661A675A679A67DA67D3
:100640009FEDDA6A83ED206AF3EE006AC3ED216A5A
:10065000B3EE047A83ED227AFBEE047AC3ED237ABB
:10066000C3F89020C3F89420C3F89820C3F89C20C6
:10067000C3F8A020C3F8A42083F8A8104FF0804E40
:10068000C3F8ACE0CA4FC3F8B0704FF07E54C3F863
:10069000B440DFF828C3C3F8B8C0C3F8BC20C3F81F
:1006A000C020C3F8C420C3F8C820C3ED334A83ED8B
:1006B000345AC3ED355AC3F8DC20C3F8D820C3F848
:1006C000E020C3F8E420C3F8E820C3F8EC2083ED71
:1006D0003C6AC3ED3D6A83ED3E7AC3ED3F7AC3F8D1
:1006E0000021C3F80421C3F80821C3F80C21C3F882
:1006F0001021C3F8142183F81811C3F81CE1C3F8C2
:100700002071C3F82441C3F828C1C3F82C21C3F8D1
:100710003021C3F83421C3F83821C3ED4F4A83EDAB
:10072000505AC3ED515AC3F84C21C3F84821C3F8BD
:100730005021C3F85421C3F85821C3F85C2183ED3C
:10074000586AC3ED596A83ED5A7AC3ED5B7AC3F8F0
:100750007021C3F87421C3F87821C3F87C21C3F851
:100760008021C3F8842183F88811C3F88CE1C3F891
:100770009071C3F89441C3F898C1C3F89C21C3F8A1
:10078000A021C3F8A421C3F8A821C3ED6B4A83EDCF
:100790006C5AC3ED6D5AC3F8BC21C3F8B821C3F835
:1007A000C021C3F8C421C3F8C821C3F8CC2183ED0C
:1007B000746AC3ED756A83ED767AC3ED777AC3F810
:1007C000E021C3F8E421C3F8E821C3F8EC21C3F821
:1007D000F021C3F8F42183F8F811C3F8FCE1C3F861
:1007E0000072C3F80442C3F808C2C3F80C2283F8AD
:1007F00010124FF0010E83F811E283F81212DFEDB0
:100800006D5AC3ED855AC3F81822C3F81C22C3F8E9
:100810002022C3F83822C3F83C22C3F8483203F13F
:100820005004C3F84C4203F17404C3F8504203F17E
:10083000AC04C3F85442FF24A3F85C42C3F860C27E
:10084000C3F864C283F86812C3F8B88283F8BCE2C4
:10085000C3F8D822C3F8DC229FED496B83EDB86B57
:100860009FED497B83EDBA7B83F8F01283F8F1E2C8
:1008700083F8F212C3EDBD5AC3F8F822C3F8FC2284
:10088000C3F80023C3F81823C3F81C2303F114078B
:10089000C3F8287303F1C007C3F82C7303F1E4070E
:1008A000C3F8307303F58E77C3F83473A3F83C4371
:1008B000C3F840C3C3F844C383F84813C3F898632C
:1008C00083F89CE3C3F8B823C3F8BC2383EDF06B33
:1008D00083EDF27B83F8D01383F8D1E383F8D2134E
:1008E000C3EDF55AC3F8D823C3F8DC23C3F8E023DB
:1008F000C3F8F823C3F8FC2303F12806C3F80864FF
:1009000003F59876C3F80C6403F5AA76C3F810646F
:1009100003F5C676C3F81464A3F81C4403F5846693
:10092000C6F800C003F22446C6F800C083F82814B5
:10093000C3F8780483F87CE403F59360026003F263
:100940009C40026003F5946080ED006B03F59660B7
:1009500000ED027B83F8B01483F8B1E483F8B2149D
:10096000C0ED015A8260C26002618262C26203F11C
:100970003C06C3F8E86403F5D076C3F8EC641FE0E6
:100980000000000000004E4075DF86D02C229C4005
:10099000F8030020289D0108049D0108E09C01083F
:1009A0006F128339CDCC4C3FCDCC4CBF6F12833A04
:1009B000CDCC4C3E00401C464C9D0108000080BF41
:1009C00003F5E276C3F8F06403F5FE76C3F8F46449
:1009D000A3F8FC44C0F850C0C0F854C083F8081510
:1009E000C3F8585583F85CE5C0F8C820C0F8CC209F
:1009F00080ED346B80ED367BBDE8F08110B50C4C9A
:100A000022686423D362E36053639363002120462A
:100A10000FF066F8002120460FF05EFA0421204610
:100A20000FF05EF8042120460FF056FA10BD00BF0B
:100A3000B426012090F858308B4236D010B50446C9
:100A400080F85810C1B1D0F8A830996818680FF034
:100A500047F8D4F8A830996818680FF03DFAD4F830
:100A6000A830D96818680FF03BF8D4F8A830D968D6
:100A700018680FF031FA10BDD0F8A83099681868DE
:100A80000FF0E4F8D4F8A830996818680FF0A2FACB
:100A9000D4F8A830D96818680FF0D8F8D4F8A8307E
:100AA000D96818680FF096FAE5E7704738B52DED6C
:100AB000028B0446D0ED017AFCEEE77A17EE903A0D
:100AC0009DB290ED028AB5EEC08AF1EE10FA09D41B
:100AD000F7EE007AB4EEE78AF1EE10FA04DDB0EE3C
:100AE000678A01E09FED898AD4ED038AF5EEC08A1A
:100AF000F1EE10FA09D4F7EE007AF4EEE78AF1EE9F
:100B000010FA04DDF0EE678A01E0DFED808AB4F8C8
:100B10004C30AB4215D0A4F84C5084ED148AC4ED8F
:100B2000158AEDB101212046FFF784FFE36DB3FB89
:100B3000F5F34FF6FE72934217D8012B17D8012315
:100B400015E0D4ED147AF4EE487AF1EE10FAE2D121
:100B5000D4ED157AF4EE687AF1EE10FADBD1D1E03B
:100B600000212046FFF766FFCCE04FF6FF73D4F874
:100B7000A82012681268002151625A1E92B2D4F85D
:100B8000A81009680968CA62D4F8A8100968CA6080
:100B9000D4F8A8108A68102A4BD8DFE802F0094A76
:100BA0004A4A164A4A4A234A4A4A304A4A4A3D0071
:100BB00007EE903AF8EE677A67EE887A0A6812686C
:100BC000FCEEE77AC2ED0D7A3FE007EE903AF8EEE0
:100BD000677A67EE887A0A681268FCEEE77AC2EDF7
:100BE0000E7A32E007EE903AF8EE677A67EE887A8E
:100BF0000A681268FCEEE77AC2ED0F7A25E007EE8C
:100C0000903AF8EE677A67EE887A0A681268FCEE26
:100C1000E77AC2ED107A18E007EE903AF8EE677ABC
:100C200067EE887A0A681268FCEEE77AC2ED127AFB
:100C30000BE007EE903AF8EE677A67EE887A0A687A
:100C40001268FCEEE77AC2ED137AD4F8A810CA68ED
:100C5000102A4BD8DFE802F0094A4A4A164A4A4AA3
:100C6000234A4A4A304A4A4A3D0007EE903AF8EE93
:100C7000677A67EEA87A0B681B68FCEEE77AC3ED2B
:100C80000D7A3FE007EE903AF8EE677A67EEA87AC1
:100C90000B681B68FCEEE77AC3ED0E7A32E007EED4
:100CA000903AF8EE677A67EEA87A0B681B68FCEE5C
:100CB000E77AC3ED0F7A25E007EE903AF8EE677A0F
:100CC00067EEA87A0B681B68FCEEE77AC3ED107A32
:100CD00018E007EE903AF8EE677A67EEA87A0B68AC
:100CE0001B68FCEEE77AC3ED127A0BE007EE903A50
:100CF000F8EE677A67EEA87A0B681B68FCEEE77A75
:100D0000C3ED137ABDEC028B38BD00BF00000000BC
:100D100010B50446D0ED047ABFEE007AF4EEC77A3F
:100D2000F1EE10FA0FD4B7EE007AF4EEC77AF1EED6
:100D300010FA02DDF7EE007A07E0F5EE407AF1EE08
:100D400010FA0BD001E0FFEE007AB0EEE77ADFEDAB
:100D5000186AB4EEE67AF1EE10FA0AD50023E360E1
:100D6000A36000212046FFF765FE2046FFF79EFEA8
:100D700010BDF5EEC07AF1EE10FA0FDCF5EEC07A98
:100D8000F1EE10FAF1D50023A360F1EE677AC4ED1D
:100D9000037A01212046FFF74DFEE6E7C4ED027A13
:100DA0000023E36001212046FFF744FEDDE700BF9A
:100DB000BD37863510B52DED028B04460CF05EFF75
:100DC000D4F8A8301B681B689B6A0133B0FBF3F0B2
:100DD000E0659FED178AB0EE480A04F1600002F06A
:100DE00033F9B0EE480A04F1680002F02DF905214C
:100DF00004F1700001F0CCFC642104F18C0001F0DE
:100E0000C7FC2046FFF784FF01212046FFF712FEB2
:100E1000012012F089FB00212046FFF70BFE6178CC
:100E2000A06B02F020F80123A370BDEC028B10BD73
:100E30003333333F38B50446806B01F0CFFEA06BEF
:100E400001F01CFF584B83ED000A84ED050A94F86D
:100E5000AC30002B40F0848010EE100A03F0E4FD6B
:100E60004DA3D3E9002303F081FC04F02DF9DFED5D
:100E70004F0A00EE100A18F0A5FAB5EEC00AF1EE1E
:100E800010FA63D410EE100A03F0CEFD42A3D3E9AA
:100E9000002303F069FC04F017F907EE900A606183
:100EA00094ED2C7A37EEC77A414B83ED007AC4F883
:100EB000B00017EE100A03F0B7FD37A3D3E9002303
:100EC00003F054FC04F000F9DFED380A00EE100ADC
:100ED00018F078FAB5EEC00AF1EE10FA3BD410EE35
:100EE000100A03F0A1FD2CA3D3E9002303F03CFC7E
:100EF00004F0EAF800EE100AC4F8B40004F1680047
:100F000002F0BAF884ED2E0ADFED2A7A20EE270AE5
:100F100084ED2F0A04F1700001F054FC84ED300AD6
:100F200004F1600002F0A8F810EE105A84ED310AC6
:100F30006069A06103F078FD19A3D3E9002303F0F1
:100F4000CBFD04F0C1F8E061256238BDDFED177A12
:100F500030EE270A96E7DFED157A30EE270ABEE776
:100F600004F1D00204F1CC0104F1C800DFED120A53
:100F700002F05EFCD4F8C800A06103F055FD08A3A0
:100F8000D3E9002303F0A8FD04F09EF8E061D4F853
:100F9000CC302362D9E700BF182D4454FB2109400F
:100FA000F8C1631ADCA54C4088090020DB0FC9405A
:100FB0008C09002000007A456F12833910B5044671
:100FC00090ED0A0AD0ED087A30EE670AC06B14F093
:100FD0003BFFD4ED047A77EE807AC4ED047A2046A4
:100FE000FFF796FE10BDD0B50446C06A03F01CFDA5
:100FF0000FA3D3E9002303F06FFD06460F46A06957
:1010000003F012FD02460B463046394603F0ACFBB6
:1010100004F05AF800EE100A206C14F0BFFE84EDC4
:101020000A0A2046FFF7CAFFD0BD00BFAFF3008019
:10103000399D52A246DF913FD0B52DED028B04467B
:10104000D0F8A83093F82220394B03EB4203B3F8D1
:10105000983500EE103AB8EE400A8C3001F0B2FB41
:10106000F2EE047AB4EEE70AF1EE10FA08D4B0EE2C
:10107000408ADFED307AB4EEE70AF1EE10FA02DDD5
:10108000BDEC028BD0BDDFED2C7A77EEC07A17EE87
:10109000900A03F0C9FC0022284B03F01DFD064610
:1010A0000F4618EE100A03F0BFFC02460B4630460E
:1010B000394603F03BFE04F007F8206303F0B4FC6C
:1010C00000221E4B03F032FE41EC100B18F038F9F1
:1010D00051EC100B10A3D3E9002303F027FE10A35B
:1010E000D3E9002303F042FB03F0EEFF07EE900A82
:1010F000B7EE007AC7EE277A17EE900A03F094FC59
:1011000009A3D3E9002303F02FFB03F0DDFF6063A5
:10111000B6E700BFAFF300800000000000DCAE4087
:10112000AA9D755E034B6B3F6666666666327140CC
:10113000F803002000607F45000080450000244047
:1011400008B5FFF74DFA08BD024A536801335360F2
:10115000704700BFA809002010B5044C20460EF0CF
:101160005BF8034BC4F8843010BD00BF1C25012080
:1011700049110008034B1B68586A034B18605968F3
:10118000704700BF1C250120A809002008B5FFF703
:10119000F1FF4FF47A72002303F0E6FF014B9860F1
:1011A00008BD00BFA809002038B50546FFF7EEFFCF
:1011B0000446FFF7EBFF001BA842FAD338BD00BF7F
:1011C00010B504460448FFF740F918B1A288216819
:1011D000FFF7D6F810BD00BFB409002010B50446D3
:1011E0000448FFF732F918B1A2882168FFF7C8F860
:1011F00010BD00BFB409002010B5044C04F19C00E0
:1012000014F060FE204614F05DFE10BDB40900200D
:1012100038B50C4C04F19C050B4A0C49284602F0E9
:10122000DDFD00220A49284602F023FE094A0A4948
:10123000204602F0D3FD00220849204602F019FEA4
:1012400038BD00BFB4090020B82B0120D49E01088E
:10125000DD110008842C0120DC9E0108C11100086A
:101260000FB4F0B583B0C82006F0F8F928B3002712
:10127000064609AB0193089AC82107F099FE054676
:101280003C46632C0DD80023AAB231460C4802F02C
:101290005BFF074628B9012012F046F90134E4B299
:1012A000EFE70FB94FF0FF35304606F059FA284600
:1012B00003B0BDE8F04004B070474FF0FF35F6E7EB
:1012C000B40900200FB4F0B583B0C82006F0C6F909
:1012D00070B30027064609AB0193089AC82107F0AE
:1012E00067FE05463C46632C0DD80023AAB2314662
:1012F000114802F029FF074628B9012012F014F91D
:101300000134E4B2EFE7002302220C490A4802F05C
:101310001BFF02354FB140B1304606F021FA284696
:1013200003B0BDE8F04004B070474FF0FF35F3E77D
:101330004FF0FF35F3E700BFB4090020FCA401081B
:1013400008B5FFF759FF08BD0138800180B2203091
:1013500080B270470138032809D8DFE800F0020A9C
:101360000406054870470548704705487047002047
:1013700070470448704700BF08060020C8070020D7
:10138000A8080020E8060020013803280CD8DFE870
:1013900000F0020D050841F21110704743F233309E
:1013A000704744F2444070470020704742F22220C8
:1013B00070470138400080B2704710B58AB00446CB
:1013C000FFF7C8FF48B3C26B1168029151680391DF
:1013D00092680492026C11680591516806919268B6
:1013E0000792426A0892436809932046FFF7ACFFD0
:1013F000202202A901F096F908B90AB010BD2046D2
:10140000FFF7C2FFADF806002046FFF7D2FF022229
:101410000DF1060101F086F9EFE70020EDE730B5A8
:101420008BB00446FFF796FF002834D00546002312
:10143000ADF826302046FFF7BCFF02220DF1260151
:1014400001F01AF940B32046FFF79EFFBDF82630A1
:10145000984201D000201FE02046FFF775FF2022B0
:1014600001A901F009F9B8B1EB6B019A1A60EB6BB5
:10147000029A5A60EB6B039A9A602B6C049A1A607A
:101480002B6C059A5A602B6C069A9A60079B6B62CC
:10149000089B6B6000E000200BB030BD30B583B01E
:1014A0000023ADF80630642817D0431EDBB2032BAF
:1014B00016D90025284603B030BD0134E4B2042C0F
:1014C000F8D82046FFF775FF02220DF1060101F062
:1014D00029F90028F1D10546EFE701242546EEE77A
:1014E000FFF767FF02220DF1060101F01BF9054627
:1014F000E0E700BF38B500290FDD1546406814F05D
:1015000041FE0446431E032B0CD82C60013C032CE7
:1015100013D8DFE804F00C140E100A48FFF7A0FE01
:10152000002005E001460848FFF79AFEEDE707486E
:1015300038BD0748FCE70748FAE70020F8E7064807
:10154000F6E700BFE49E0108009F0108080600209E
:10155000C8070020A8080020E806002030B58DB09C
:101560000C4600230B93FEF73BFF88B101AD2146EB
:101570002846FEF798FF01460BAA2846FFF7BAFF58
:1015800030B10121FFF756FA0B990248FFF768FEC8
:101590000DB030BD189F010830B58DB00C4600234A
:1015A0000B93FEF71DFF88B101AD21462846FEF7DB
:1015B0007AFF01460BAA2846FFF79CFF30B10021B5
:1015C000FFF738FA0B990248FFF74AFE0DB030BD1D
:1015D0002C9F010810B58AB00C46FEF701FF40B100
:1015E00021466846FEF75FFF09F010F90248FFF751
:1015F00037FE0AB010BD00BF409F010830B58DB066
:101600000C4600230B93FEF7EBFE90B101AD214693
:101610002846FEF748FF01460BAA2846FFF76AFF57
:101620009DF82C00FFF73AFF28B10B990448FFF70B
:1016300017FE0DB030BD0B990248FFF711FEF8E719
:10164000549F0108789F010830B58DB00C460023E7
:101650000B93FEF7C5FE98B101AD21462846FEF773
:1016600022FF01460BAA2846FFF744FF40B19DF830
:101670002C00FFF7A2FE28B10B990548FFF7F0FDFB
:101680000DB030BD0B990348FFF7EAFDF8E700BF46
:101690009C9F0108BC9F010830B58DB00C4600230B
:1016A0000B93FEF79DFEF0B121466846FEF7FBFE68
:1016B00001460BAA6846FFF71DFF044698B10AA928
:1016C000029815F069FB10EE100A029A0A9B9A42E2
:1016D0000BD084ED010A03F0A7F902460B460B99E3
:1016E0000448FFF7BDFD0DB030BD0348FFF7B8FD5E
:1016F000F9E700BFF49F0108DC9F010830B58DB009
:101700000C4600230B93FEF76BFEF0B121466846B2
:10171000FEF7C9FE01460BAA6846FFF7EBFE04463A
:1017200098B10AA9029815F037FB10EE100A029A38
:101730000A9B9A420BD084ED040A03F075F9024625
:101740000B460B990448FFF78BFD0DB030BD0348E5
:10175000FFF786FDF9E700BF14A00108DC9F010830
:1017600030B58DB00C4600230B93FEF739FEF0B177
:1017700021466846FEF797FE01460BAA6846FFF72A
:10178000B9FE044698B10AA9029815F005FB10EEBF
:10179000100A029A0A9B9A420BD084ED0B0A03F0BE
:1017A00043F902460B460B990448FFF759FD0DB06B
:1017B00030BD0348FFF754FDF9E700BF34A001082E
:1017C000DC9F010830B58DB00C4600230B93FEF76B
:1017D00007FEF0B121466846FEF765FE01460BAAFA
:1017E0006846FFF787FE044698B10AA9029815F0EB
:1017F000D3FA10EE100A029A0A9B9A420BD084ED9B
:101800000A0A03F011F902460B460B990448FFF748
:1018100027FD0DB030BD0348FFF722FDF9E700BFFB
:1018200034A00108DC9F010870B58CB00C46002381
:101830000B93FEF7D5FD88B301AD21462846FEF790
:1018400032FE01460BAA2846FFF754FE054628B390
:10185000039C2849204602F01FFFA0B126492046DC
:1018600002F01AFF88B12549204602F015FFB8B1F1
:101870002349204602F010FF08B9632406E02148FE
:10188000FFF7EEFC0AE0012400E002242C70039A2A
:101890000B991D48FFF7E4FC632C03D00CB070BD1E
:1018A0000024F3E70B991948FFF7DAFC4FF4FA70BC
:1018B00011F03AFE0B991648FFF7D2FC3C21A86BB9
:1018C00001F05AFB044600262E700A2011F02CFE6F
:1018D00031462846FFF7AEF800232B6124B10B995F
:1018E0000C48FFF7BDFCD9E70B990B48FFF7B8FC94
:1018F000D4E700BF8CA301085CA3010858A001082D
:1019000064A001086CA001087CA00108A0A0010847
:10191000D0A0010804A101083CA10108F0B593B0D2
:101920000C4600231193FEF75BFD002846D004AD62
:1019300021462846FEF7B7FD014611AA2846FFF7C3
:10194000D9FD0746002839D010A9069815F024FAC9
:1019500010EE106A0FA9079815F01EFA10EE104A43
:101960000EA9089815F018FA10EE105A069A109B56
:101970009A4225D0079A0F9B9A4221D0089A0E9B33
:101980009A421DD0FB6B1E60FB6B5C60FB6B83EDB2
:10199000020A304603F048F806460F46284603F090
:1019A00043F8CDE90201204603F03EF8CDE90001FD
:1019B00032463B4611990448FFF752FC13B0F0BD84
:1019C0000248FFF74DFCF9E75CA10108DC9F010824
:1019D000F0B593B00C4600231193FEF701FD0028EB
:1019E00046D004AD21462846FEF75DFD014611AA0A
:1019F0002846FFF77FFD0746002839D010A9069832
:101A000015F0CAF910EE106A0FA9079815F0C4F97D
:101A100010EE104A0EA9089815F0BEF910EE105AF3
:101A2000069A109B9A4225D0079A0F9B9A4221D082
:101A3000089A0E9B9A421DD03B6C1E603B6C5C600A
:101A40003B6C83ED020A304602F0EEFF06460F467D
:101A5000284602F0E9FFCDE90201204602F0E4FF4A
:101A6000CDE9000132463B4611990448FFF7F8FBE7
:101A700013B0F0BD0248FFF7F3FBF9E794A10108AA
:101A8000DC9F010830B58DB00C4600230B93FEF7A8
:101A9000A7FCA0B101AD21462846FEF704FD014692
:101AA0000BAA2846FFF726FD48B10378012B08D082
:101AB000022B0BD07BB90B990948FFF7D1FB0DB076
:101AC00030BD0B990748FFF7CBFBF8E70B990648A9
:101AD000FFF7C6FBF3E70B990448FFF7C1FBEEE7FE
:101AE000CCA10108FCA101082CA201085CA20108FC
:101AF000014B1860704700BFEC0A002008B5024B8C
:101B00001B6803B1984708BDEC0A002038B58CB2B9
:101B1000802C00D98024064D22460146284615F027
:101B200020FCA5F88040012385F8823038BD00BF35
:101B3000F00A0020F1B170B58C00A4B2261DB6B237
:101B40000D4B93F8B8359BB90C4DB3FA83F35B0991
:101B5000094A82F8B83522460146284615F001FCAC
:101B6000074B186828513146284613F0F3F970BD29
:101B7000044DEAE7704700BFF00A0020B00F0020D4
:101B8000DC9C01082C1000200FB430B5A1B0BDF8CA
:101B900090501E2D00D91E2525AB0193002411E085
:101BA000019B073323F0070303F108020192D3E9F5
:101BB000000103F089FA20AB03EB840343F8780CAF
:101BC0000134A4B2A542EBD80022294602A8FFF7AF
:101BD000B1FF21B0BDE8304004B0704708B50248FD
:101BE000FFF786FF08BD00BF0D1B0008034B002256
:101BF0001A705A609A60DA621A637047AC1000205B
:101C000010B582B03F4C0A223F492046FEF718FB30
:101C10003E492046FEF7A2FB3D4B009300230122E4
:101C20003C493D48FEF7CAFC3C4B0093002301228F
:101C30003B493C48FEF7C2FC3B483C4B0093002329
:101C400001220146FEF7BAFC394B00930023012222
:101C500038493948FEF7B2FC384B00930023012283
:101C600037493848FEF7AAFC374B0093002301227E
:101C700036493748FEF7A2FC364B00930023012279
:101C800035493648FEF79AFC354B00930023012274
:101C900034493548FEF792FC344B0093002301226F
:101CA00033493448FEF78AFC334B0093002301226A
:101CB00032493348FEF782FC324B00930023012265
:101CC00031493248FEF77AFC314B00930023012260
:101CD00030493148FEF772FC304B0093002301225B
:101CE0002F493048FEF76AFCFEF7C6FB002011F0D2
:101CF000BDFD01462C48FFF7B3FA002011F012FA9F
:101D000002B010BDAC10002078A20108B409002078
:101D10005D15000880A201088CA201089915000831
:101D200094A20108A0A20108A8A20108D5150008E4
:101D3000FD150008B0A20108C4A201084916000858
:101D4000D4A20108E0A2010899160008E8A201083F
:101D5000FCA20108FD16000804A301082CA3010839
:101D60006117000838A3010858A30108C517000827
:101D700060A3010888A301082918000894A301089A
:101D8000C4A301081D190008D0A30108F0A301088D
:101D9000D1190008FCA301081CA40108851A000839
:101DA00028A4010838A4010844A4010808B5FFF7D5
:101DB0001DFF08BD30B583B0322011F0B5FB2EE019
:101DC0001E48FFF74DFA00240EE01D4B03EBC40341
:101DD0001D79986802F028FE02460B4629461948EC
:101DE000FFF73EFA0134A4B2154B1B78A342ECD89E
:101DF0001548FFF735FA124B002283F87C2018E0D3
:101E0000124C22890193009263792279216810484B
:101E1000FFF726FA0023A372012011F085FB0D487D
:101E200010F8041B01F044F9054B93F87C30002BAB
:101E3000C6D1064B9B7A002BE2D1EDE758A40108EE
:101E40007416002068A40108FCA4010820170020D3
:101E500078A401080000002030B583B0274C01941D
:101E60002823009300234FF480722549254811F060
:101E700026F9231D01931825009500234FF4807245
:101E80002149224811F01BF904F108030193009540
:101E900000234FF480721E491E4811F010F904F11E
:101EA0000C030193009500234FF480721A491B48DC
:101EB00011F005F904F1100301930C25009500239E
:101EC0004FF480721649174811F0F9F804F1140321
:101ED0000193009500234FF480721349134811F0C9
:101EE000EEF8183401940823009300234FF4807215
:101EF0000F49104811F0E3F803B030BDE4100020A2
:101F00008CA40108C91F000898A40108E722000852
:101F1000A4A40108011C0008B0A40108B51D000814
:101F2000C0A40108631F0008CCA40108F92400081C
:101F3000D4A40108E120000808B5FFF78DFF08BD13
:101F40004B690360CB6943608B6983600B6AC36034
:101F5000CB6A03618B6A43614B6B83610B69C3611D
:101F6000704730B5A1B08021124802F0A3FA0546AF
:101F700003226B4604E000219961D961013A2033C4
:101F8000002AF8DA0C496846FFF7DAFF0B4908A87F
:101F9000FFF7D6FF0A4910A8FFF7D2FF094918A892
:101FA000FFF7CEFF6946284602F0B8FA0A2011F082
:101FB000BBFAE7E7DCA4010808060020E8060020D9
:101FC000C8070020A808002008B512F0A5FD02F0FF
:101FD00061FA01F06DFBFFF7BFF8FFF719F9FFF7A2
:101FE000FDFD0F490F4801F055FA0F48FEF7E2FEDC
:101FF0000E48FEF7DFFE0E48FEF7DCFE0D48FEF74A
:10200000D9FE0120FFF70BFA002011F02FFC01464A
:102010000948FFF725F9002011F084F808BD00BF3A
:102020001C2B0020E825012008060020E8060020DF
:10203000C8070020A8080020E8A40108014B024AB4
:102040001A607047701600207C1D01202DE9F047B2
:1020500086B01C4B186811F009FC04461A4B18682E
:1020600011F004FC0546194B186811F0FFFB0646F9
:10207000174B186811F0FAFB0746164B186811F059
:10208000F5FB8046144B186811F0F0FB81460020E8
:1020900011F0ECFB824605F0A1FB4EF660230593A0
:1020A0000490CDF80CA0CDF80890CDF804800097EE
:1020B00033462A4621460948FFF7D2F806B0BDE864
:1020C000F08700BFE4100020E8100020EC10002092
:1020D000F0100020F4100020F810002000A50108E6
:1020E00008B50548FFF7BCF8C82011F01DFA4FF4F9
:1020F0007A7011F019FAFAE764A5010808B5FFF73C
:102100009DFF08BD0000000000230DE000EB8302EE
:10211000516803F11E0200EB82025160C2180021D7
:1021200082F8F4100133DBB202789A42EED870479D
:102130002DE9F04782B02E4C04222270032384F84C
:102140001431052184F8281284F83C3384F8503483
:10215000284E294D0092A31832462946284613F0EE
:10216000FCFE04F58A7A94F81431009304F58C731C
:1021700006F110022946284613F0EFFE04F50A790D
:1021800094F82832009304F50B7306F11C022946DB
:10219000284613F0E2FE04F54F7894F83C330093A0
:1021A00004F5507306F130022946284613F0D5FE97
:1021B00004F58A6794F85034009304F2544306F10E
:1021C0003C022946284613F0C8FE2046FFF79CFF34
:1021D0005046FFF799FF4846FFF796FF4046FFF746
:1021E00093FF3846FFF790FF02B0BDE8F08700BFCD
:1021F0000011002048000020F00A002030B583B014
:10220000054600EE101A1446B8EE400A1349144869
:1022100013F075FEFDEEC07ACDED017A9DF8043025
:10222000104A92F864259A4215D02B700D4A82F814
:10223000643584B10025256100212046FEF7FAFBB4
:10224000E36B9D61DD611D62236C1D62DD611D63B9
:10225000DD629D625D6203B030BD00BF78A50108FC
:10226000F00A00200011002010B4441894F8F44043
:10227000D4B100EB81046468146001F11E0200EB2C
:10228000820254600844002280F8F42063B1D96BC4
:1022900000228A61CA610A62196C0A62CA610A6311
:1022A000CA628A624A621A615DF8044B7047002371
:1022B00015E000EB830292ED017A03F11E0200EBC0
:1022C0008202D2ED017AB4EE677AF1EE10FA14BF11
:1022D00001210021C21882F8F4100133DBB2027828
:1022E0009A42E6D870472DE9F04784B0FFF720FF07
:1022F0007DE02046FFF708FF5046FFF705FF484600
:10230000FFF702FF4046FFF7FFFE3846FFF7FCFEEF
:1023100084F86C55D4E0013D032D03D8DFE805F0C7
:102320001E041A1C002400E06A4C2378012B17D0ED
:10233000022B35D0002B52D1674D221D012128469A
:10234000FFF792FF002304F1100202212846FFF755
:102350008BFF44E0614CE8E7614CE6E7614CE4E761
:10236000614E06F58A752346E26B00212846FFF789
:102370007BFFE26B2346043201212846FFF774FFFE
:10238000E26B2346083202212846FFF76DFF002347
:1023900004F12802022106F50A70FFF765FF1EE02E
:1023A000514E06F54F752346226C00212846FFF753
:1023B0005BFF226C2346043201212846FFF754FFBD
:1023C000226C2346083202212846FFF74DFF0023E6
:1023D00004F12C02042106F50A70FFF745FF22469E
:1023E00000212046FFF70AFF0A2011F09DF83F4D1B
:1023F000284613F02EFE3C4C23463D4E13F8042B8A
:10240000009232462946284613F0A7FD04F58A7A41
:1024100094F81431009304F58C7306F110022946E8
:10242000284613F09AFD04F50A7994F828320093AF
:1024300004F50B7306F11C022946284613F08DFDA6
:1024400004F54F7894F83C33009304F5507306F18B
:1024500030022946284613F080FD04F58A6794F877
:102460005034009304F2544306F13C0229462846B6
:1024700013F073FD2046FFF71AFF5046FFF717FFD2
:102480004846FFF714FF4046FFF711FF3846FFF7B5
:102490000EFF04F5AD6500232A4619463846FFF7BE
:1024A000E3FED5ED007AFCEEE77ACDED037A9DF8F8
:1024B0000C50104B1D7094F86C35AB427FF419AF83
:1024C0006B1EDBB2032B7FF626AF0A2011F02CF82F
:1024D0008DE700BFE806002050150020C807002047
:1024E000A80800200806002000110020F00A0020A3
:1024F00048000020A00900202DE9F041CEB0464858
:1025000002F032F8804603222EAB04E000219961EC
:10251000D961013A2033002AF8DA2EA9404602F0A8
:1025200085F82E9802F080FA06460F4638A5D5E9C0
:102530000045CDE92C454B9802F076FACDE92A0109
:102540004A9802F071FACDE92801499802F06CFA34
:10255000CDE92601479802F067FACDE924014698B3
:1025600002F062FACDE92201CDE92045439802F05C
:102570005BFACDE91E01429802F056FACDE91C0142
:10258000419802F051FACDE91A013F9802F04CFA55
:10259000CDE918013E9802F047FACDE91601CDE9E0
:1025A00014453B9802F040FACDE912013A9802F046
:1025B0003BFACDE91001399802F036FACDE90E0167
:1025C000379802F031FACDE90C01369802F02CFA76
:1025D000CDE90A01CDE90845339802F025FACDE9A5
:1025E0000601329802F020FACDE90401319802F098
:1025F0001BFACDE902012F9802F016FACDE900018D
:1026000032463B461520FFF7BFFA86E7AFF300805E
:102610000000000000388F40DCA4010808B56423E6
:102620000322A0210448006809F05CFB08B10020E7
:1026300008BD0120FCE700BF7016002000B587B080
:102640000246FF238DF81730642302930123019380
:102650000DF1170300930223A0210648006809F03A
:102660006BFA20B99DF8170007B05DF804FBFF2056
:10267000FAE700BF70160020C9B10B46CAB1811835
:10268000B1F5005F01DD0020704700B585B0642121
:1026900002910192009302230246A021074800689C
:1026A00009F04AFA38B9012005B05DF804FB0020B2
:1026B0007047002070470020F6E700BF701600202A
:1026C00038B5FEF763FD054601231A46A021054CE7
:1026D000206809F007FB20B1FEF758FD401B0428D5
:1026E000F2D938BD7016002000B587B002468DF8CB
:1026F000171064230293012301930DF11703009334
:102700000223A0210648006809F043F918B100200F
:1027100007B05DF804FBFFF7D3FF0120F8E700BF27
:102720007016002041B3F0B585B0054616460F4639
:1027300022B38318B3F5005F23DCDEB105F01F047C
:10274000C4F12004E4B2B44228BF344664230293A7
:102750000194009702232A46A0210C48006809F042
:1027600018F980B9FFF7ACFF2544ADB22744341BFC
:10277000A6B2E2E7012002E000207047002005B089
:10278000F0BD0020FBE70020F9E700BF7016002035
:10279000012913D910B504460023C360017000233A
:1027A00003724372880004F059FF606040B12278E0
:1027B0009200002114F01BFD012010BD0020704785
:1027C0000020FAE7427A03789A4201D20132D3B26A
:1027D0004372D0ED037A4368027A03EB820393EDF0
:1027E000007A77EEC77A77EE807AC0ED037A83EDD0
:1027F000000A037A0133017893FBF1F201FB1233F3
:10280000037280ED060A80ED050A437A994229D0C9
:10281000D0ED036A07EE903AF8EEE77A86EEA77AF3
:1028200080ED047A90ED040A7047013291421BDD7D
:10283000436803EB8203D3ED007A90ED057AF4EE62
:10284000C77AF1EE10FA01DDC0ED057AD3ED007A1A
:1028500090ED067AF4EEC77AF1EE10FAE5D5C0ED08
:10286000067AE2E70022E1E790ED037AD0ED057AFF
:1028700037EE677AD0ED067A37EE677A023907EEDF
:10288000901AF8EEE77AC7EE276AC0ED046AC9E746
:102890000023037243720023C36043618361704766
:1028A00030B5A1B0044601AD7C220021284614F0C9
:1028B0009EFC2946204611F087FEE8B99DF804C029
:1028C0000E4B83F800C0002310E020AA02EBC301E6
:1028D00011F8780C094A02EBC302107111F8770C59
:1028E000507151F8741C91600133DBB29C45ECD8F7
:1028F000024B012283F87C2021B030BD74160020E9
:10290000838A9B00114AA2FB0323C3F387030B7046
:10291000142B18D8F0B583B007460E460024254680
:102920000BE006EB44030233009301230E222946F9
:10293000384603F027FA0E3501343378A342F0D835
:10294000002003B0F0BD0120704700BF93244992DE
:1029500030B58DB0044601AD2A220021284614F07E
:1029600046FC29462046FFF7CBFFC0B99DF804007E
:102970000C4B83F8800000230BE00CAA02EB43020F
:1029800032F92A1C074A02EB4302A2F882100133F3
:10299000DBB29842F1D8034B012283F8AA200DB094
:1029A00030BD00BF7416002000B585B001A900231A
:1029B00001934B608B6011F096FE90B90A4B019A1F
:1029C000C3F8AC209DF8082083F8B0209DF80920BA
:1029D00083F8B120BDF80C20A3F8B420012283F8BD
:1029E000B62005B05DF804FB7416002070B584B005
:1029F00005460C46009100232022194603F0C2F937
:102A00000DF10E060096012310222021284603F026
:102A1000B9F9BDF80E0003F045FB84ED010A0096FC
:102A2000012310223021284603F0ACF9BDF80E0036
:102A300003F038FB84ED020A0096012310224021A6
:102A4000284603F09FF9BDF80E0003F02BFB84ED40
:102A5000030A04F110030093012312225021284697
:102A600003F090F904F1140300930023072262217C
:102A7000284603F087F915340094002305226921C4
:102A8000284603F07FF9002004B070BD00B587B080
:102A900069460023009301930293039304930593E3
:102AA000FFF7A4FFB8B90D4B019AC3F8B820029AFA
:102AB000C3F8BC20039AC3F8C020049AC3F8C4200A
:102AC0009DF8142083F8C8209DF8152083F8C920AC
:102AD000012283F8CA2007B05DF804FB74160020B9
:102AE00008B5C38A40F20642934212D00AD840F297
:102AF0005512934210D040F2F232934201D1FFF7C7
:102B0000CFFE08BD40F20A429342FAD1FFF7BEFF62
:102B1000F7E7FFF71DFFF4E7FFF746FFF1E700BF18
:102B200008B5036958691B8B21B10122194608F0C9
:102B3000BFFC08BD0022F9E703691B691A68136826
:102B400023F04003136003691B691A68136843F498
:102B50008043136003691B691A68136843F04003DC
:102B60001360704703691B691A68136823F04003F8
:102B7000136003691B691A68136823F480431360A8
:102B800003691B691A68136843F0400313607047B8
:102B900000B54FF0000E704615E04FEA4C0C8CF07B
:102BA000070C5FFA8CF00133DBB2072B07D84FFA22
:102BB00080FCBCF1000FF0DB4000C0B2F3E70EF187
:102BC000010E5FFA8EFE964504D211F80E30584081
:102BD0000023EAE780F055005DF804FB10B582B0F1
:102BE000044600218DF80710ADF804108DF806108A
:102BF000FFF796FF206901231A460DF107010069CE
:102C00000BF040FD08B102B010BD2046FFF7AAFF4F
:102C100020690123032201A900690BF0B6FF0028F7
:102C2000F1D12046FFF788FF01212046FFF778FF0A
:102C3000022201A92046FFF7ABFF9DF80630834230
:102C4000E1D19DF804209DF8053043EA022323805A
:102C500007EE903AF8EEE77A9FED067A67EE877A0C
:102C6000C4ED017A9FED047A67EE877AC4ED027AAB
:102C7000C9E700BFA410C938E02E654290ED010AF3
:102C8000704790ED020A704770B584B00446002387
:102C9000ADF80C3011228DF80C208DF80D10ADF828
:102CA00008301946FFF73CFF20690A23022203A9D6
:102CB00000690BF0E7FC30B906462046FFF752FFEB
:102CC000002300930BE001212046FFF729FF002598
:102CD000284604B070BD00BF009B01330093009BE9
:102CE0001B2BF8D920690A23022202A900690BF0E4
:102CF0004CFF054610B9002301930CE0012120464A
:102D0000FFF70EFF2046FFF717FF3546E0E700BF4D
:102D1000019B01330193019B1B2BF8D92046FFF740
:102D20000BFF01212046FFF7FBFE012202A92046EE
:102D3000FFF72EFF9DF809308342C9D19DF8085056
:102D4000C6E770B586B004461546304B059300269D
:102D5000ADF810608DF8126033238DF810308DF8C7
:102D600011108DF812208DF80F603146FFF7D8FE54
:102D700020690A23042205A900690BF083FC0121C4
:102D80002046FFF7CDFE31462046FFF7C9FE0096EC
:102D900003E000BF009B01330093009B1B2BF8D97D
:102DA00020690A23032204A900690BF06BFC0023AD
:102DB000019303E000BF019B01330193019B1B2B97
:102DC000F8D92046FFF7CEFE20690A2301220DF133
:102DD0000F0100690BF0D9FE01212046FFF7A0FE8C
:102DE0000023029303E000BF029B01330293029B86
:102DF0001B2BF8D92046FFF79FFE9DF80F00A84235
:102E000014BF0020012006B070BD00BF20240101C6
:102E100038B504460D46A1B90221FFF735FF60F031
:102E20007F02D2B202212046FFF78BFF022120460B
:102E3000FFF72AFF10F0800F01D1284638BD012589
:102E4000FBE70221FFF720FF00F07F02022120466E
:102E5000FFF777FF02212046FFF716FF10F0800FE3
:102E6000EBD00025E9E738B504460173FFF7D0FF42
:102E7000054688220D212046FFF763FF01212046E9
:102E8000FFF74EFE284638BD30B583B00446104BE0
:102E90001B68ADF804301B0C8DF80630FFF762FE9E
:102EA00000212046FFF73CFE20690A23032201A9E6
:102EB00000690BF0E7FB054601212046FFF730FED5
:102EC0004FF4FA7010F030FB284603B030BD00BF5D
:102ED00058A601082DE9F04180460F4616461D46CA
:102EE000002406E0395D4046FFF7CEFE3055013440
:102EF000E4B2AC42F6D3BDE8F0812DE9F8430646D2
:102F0000884617461D469DF82090002407E03A5D4C
:102F100018F804103046FFF714FF0134E4B2AC4255
:102F2000F5D3B9F1000F01D1BDE8F8833046FFF7C2
:102F3000ABFFF9E7704710B504460221FFF7A4FE86
:102F400040F04002D2B202212046FFF7FAFE3220C2
:102F500010F0EAFA02212046FFF796FE10F0400F2B
:102F600001D0012010BD0020FCE708B57221FFF759
:102F70008BFEC0F3011008BDF8B504460E461621BD
:102F8000FFF782FE054640F00802D2B21621204625
:102F9000FFF7D7FE45F01802D2B216212046FFF700
:102FA000D0FE0A2010F0C0FA2046FFF7DEFF01280D
:102FB0000BD025F0100242F0080202F0EF021621B9
:102FC0002046FFF7BEFE0020F8BDFEF7DFF80746FB
:102FD00011E025F0100242F0080202F0EF02162183
:102FE0002046FFF7AEFE2046FFF74EFF0120EBE73D
:102FF0000A2010F099FAFEF7C9F8C01B4FF47A7353
:1030000006FB03F3984212D22046FFF7AEFF0328D7
:10301000DFD00228ECD125F0100242F0080202F0C5
:10302000EF0216212046FFF78CFE0020CCE725F0AA
:10303000100242F0080202F0EF0216212046FFF7CC
:1030400080FE0020C0E700BFB5EEC00AF1EE10FA26
:1030500009D4F7EE007AB4EEE70AF1EE10FA04DDD7
:10306000B0EE670A01E09FED030A80ED000A00233D
:103070004360704700000000D0ED017A90ED007AC7
:1030800030EE670A27EE007A37EE870A80ED010AF4
:103090007047D0ED017A30EE670A20EE200A37EE55
:1030A000800A80ED010A704700234360704700BF2B
:1030B00070B5BAB08DF86C10002310E03AAA02EB9C
:1030C000C30202F8783C4FF0010C02F877CC00EB19
:1030D000830CDCF800C042F874CC0133DBB28B42C5
:1030E000ECD30BAE31461BA811F059FA0446282246
:1030F0000021684614F07BF802238DF8003010A3FD
:10310000D3E90023CDE9022340F2F233ADF81030C9
:10311000094B059310238DF818300796ADF8204021
:103120006946064802F088FD002801DB00F030FB0C
:103130003AB070BDAFF30080401700204817002060
:10314000F33AEC386248A7D8F0B591B0FEF71EF814
:103150001F4BA3FB003080090D904E230D930024DC
:103160008DF838408DF839408DF83A40ADF83C4044
:103170000BAF39460DA811F0A3FA054628222146C7
:10318000684614F034F802238DF800300EA3D3E91A
:103190000023CDE9022340F25513ADF810300D4B5A
:1031A000059310238DF818300797ADF82050694625
:1031B000094802F041FDA04201DB00F0E9FA11B03C
:1031C000F0BD00BFAFF30080F1C6A7C1D068080F03
:1031D000D34D6210411700204817002000B587B07A
:1031E000002300930193022202920122039204938E
:1031F00005936946104807F075FEB0B94FF080435B
:1032000000930023019302930222039204936FF030
:10321000604305936946084807F064FE40B90648D4
:1032200007F093FE07B05DF804FB04F0CFFBE5E781
:1032300004F0CCFBF3E700BF9832002008B5FFF79D
:10324000CDFF08BD70B58AB006460D461C46242247
:10325000002101A813F0CBFF019694B14FF08043F9
:103260000293082304930024092C0CDC2A4601A9AC
:10327000074807F080FE48B1012010F055F90134ED
:10328000F2E70023ECE700200AB070BD0120FBE765
:103290009832002010B58AB0044640211A4807F041
:1032A00039FF30B1231D6A464021174807F08CFED4
:1032B00038B14121144807F02DFF78B900200AB039
:1032C00010BD009B2360039B2373019BB3F1804FD0
:1032D00014BF0023012363730120F0E7231D6A4616
:1032E0004121094807F070FE08B10020E7E7009B84
:1032F0002360039B2373019BB3F1804F14BF002312
:10330000012363730120DAE79832002008B5194BD6
:103310009B78DBB1184B9B78C3B1184B9B78ABB152
:10332000174B9B7893B1174B1B8803F00F03012BAE
:103330000DD014490B88144AA2FB0302920A4FF4E1
:103340007A5000FB12339BB201330B8008BD04227C
:103350000E490F4807F0D2F80648FDF76DFE064803
:10336000FDF76AFE0548FDF767FE0548FDF764FEB8
:10337000DFE700BF08060020E8060020C80700209D
:10338000A808002042170020D34D621090090020A9
:103390001C2B002003681B6813F0100F6ED130B592
:1033A00085B0374B0FCB04AC04E90F0000241FE0BD
:1033B0002846FDF73FFD32E0632B18D1314B5A8888
:1033C000314BA3FB0213DB0903EB8303A2EB431294
:1033D00092B2012A0BD12D4B2B612846FDF798FCA8
:1033E00005E0284B5B8803F00303012B29D001344F
:1033F000032C34DC04AB03EB840353F8105CAB7890
:10340000002BF4D01F4B5A881F4BA3FB02135B0900
:1034100003EB8303A2EBC30292B2012AC8D02B783C
:10342000022B12D0C8D8002BDBD0012BDFD1154BDB
:103430005B8803F00303012BD9D12846FDF7BEFDBD
:10344000D5E72846FDF764FCD1E70E4B5B8803F017
:103450000F03012BCBD12846FDF7C5FDC7E709496E
:103460004B880B4AA2FB0302920A4FF47A5000FBEE
:1034700012339BB201334B8005B030BD704700BFA3
:10348000709D010842170020CDCCCCCC3333733F64
:10349000D34D621010B504460268D2ED0B7AF8EEF7
:1034A000677AB6EE007A67EE877AFCEEE77A17EE77
:1034B000903A9BB253630BF0AFFE002120460CF014
:1034C00023FA034BC4F88430024BC4F8A03010BD7B
:1034D000953300080D330008022B26D19DF80030EB
:1034E0005B2B24D040F2F2339A4209D041F26F4371
:1034F0009A420CD040F255139A420FD000207047E8
:103500000DA3D3E90023C1E90023012070470CA3D8
:10351000D3E90023C1E90023012070470AA3D3E9BE
:103520000023C1E9002301207047002070470020DC
:10353000704700BFAFF30080F33AEC386248A7D879
:103540002589351200000000F1C6A7C1D068080F18
:1035500070B5C0B005460C464FF480720021684635
:1035600013F045FEA28AA168684613F0FAFE2046D1
:10357000FFF7B6FA2146284602F053FD40B070BD71
:10358000037B082B2AD830B58BB0054624220021B6
:1035900001A813F02CFE2B68002B06DBC3F30A03F3
:1035A00001932B7B049300240AE023F060430193F2
:1035B0004FF080430293F4E701200FF0B5FF013490
:1035C000092C08DC2A1D01A9054807F0D4FC0028B5
:1035D000F2D1012000E000200BB030BD0020704788
:1035E0009832002010B58CB004464121174807F0EE
:1035F00091FD30B94021154807F08CFD08B34021FA
:1036000000E041216B4602AA104807F0DDFCD0B96A
:10361000039BB3F1804F0DD0029BC3F30A032360D9
:10362000059A2273D2B26946201D13F09AFE01203A
:103630000CB010BD029B23F0604343F000432360B5
:10364000EEE70020F4E70020F2E700BF9832002008
:1036500010B588B004A80024049444608460C46059
:10366000124B049306238DF81C3011238DF814306F
:1036700022238DF8153033238DF8163044238DF82E
:10368000173055238DF8183066238DF81930FFF761
:1036900077FF05200FF048FF6846009401940294DC
:1036A0000394FFF79FFF08B010BD00BF2103008007
:1036B00010B582B0FFF7C2FD084C00230193084B00
:1036C0000093084B4FF480520749204602F08FFACE
:1036D0005B21204602F0A6FA02B010BD4817002078
:1036E000D9340008513500088017002008B502E0E1
:1036F000064802F0F7FA054802F0F0FA034620B156
:103700001846FFF73DFF0128F2D008BD48170020FA
:1037100000B585B007E0FDF72DFD02460B46694672
:10372000054802F0FFFC6846FFF75CFF0128F2D075
:1037300005B05DF804FB00BF4817002038B504E071
:10374000124802F0CFFAFFF7E3FF104802F0C6FA82
:10375000034620B11846FFF713FF0128F0D0FFF70A
:10376000D7FFFDF713FD0446084BDB6AC31AB3F518
:103770007A7F00D838BD054D4FF47A7200FB02F213
:103780000023284602F0B6FAEC62F3E7481700205F
:1037900038B5FFF7ABFFFFF7BBFFFDF7F7FC094BB1
:1037A0001B6BC31AB3F57A7F00D838BD0446054DAC
:1037B0004FF47A7200FB02F20023284602F09AFAD4
:1037C0002C63F2E74817002030B58DB0164B0AACD9
:1037D00093E8030084E8030028220021684613F0E0
:1037E00006FD02238DF800300DA3D3E90023CDE9B7
:1037F000022341F26F43ADF810300C4800F134035E
:10380000059307940823ADF82030694602F014FAB6
:1038100008B90DB030BDFFF7BBFFFAE7AFF300808A
:1038200025893512000000005CA601084817002019
:103830002DE9F04F87B010EE90BA82460C4615463F
:10384000D0ED007AF4EE677AF1EE10FA08D6F0EED9
:10385000E77A9FED637AF4EE477AF1EE10FA02DD33
:103860000023CAF80030DAED007A70EE677A17EEBE
:10387000900A01F0D9F858A3D3E9002300F076FFAD
:1038800001F022FCDFED570A00EE100A15F09AFD58
:10389000B5EEC00AF1EE10FA00F1918010EE100AB8
:1038A00001F0C2F84CA3D3E9002300F05DFF01F062
:1038B0000BFC8046D4ED007AF4EE677AF1EE10FA54
:1038C00008D6F0EEE77A9FED467AF4EE477AF1EE0D
:1038D00010FA01DD00232360DAF8000001F0A4F8FB
:1038E000CDE90001206801F09FF8CDE90201D5E99A
:1038F0000067404601F098F802460B46CDE90423E4
:103900003046394601F0E8F802460B46DDE902018F
:1039100000F02CFF80468946584601F085F806469F
:103920000F4602460B464046494601F0D5F802468E
:103930000B46DDE9000100F019FF01F0C5FBCAF8F4
:10394000000001F071F824A3D3E9002300F00EFF7A
:1039500001F0BAFBDFED230A00EE100A15F032FD8C
:10396000B5EEC00AF1EE10FA2ED410EE100A01F0F6
:103970005BF819A3D3E9002300F0F6FE01F0A4FBE5
:10398000CAF80000206801F04FF880468946D5E962
:103990000223DDE9040101F09FF802460B463046A0
:1039A000394601F099F802460B464046494600F078
:1039B000DDFE01F089FB206007B0BDE8F08FDFED90
:1039C000097A30EE270A69E7DFED067A30EE270A3A
:1039D000CBE700BFAFF30080182D4454FB21094012
:1039E000FFFF7F7FDB0FC9400146002301E0013369
:1039F000DBB2074A92F820209A4206D9044A52F8CC
:103A0000230042698A42F2D100E00020704700BFE3
:103A10008027002078B10222027042704FF4806249
:103A2000428082804FF48072C2800281642242818F
:103A30008281012070470020704738B50446B0F8F5
:103A4000780003F00BFEA0612062B4F87830A38305
:103A50000025A577A584B4F87A0003F0FFFDA062E5
:103A60002063B4F87A30A38584F82E50A586A36924
:103A700013B118B1012038BD0020FCE70020FAE79F
:103A800010B5044600220C21B0F8800005F0E3FBDD
:103A9000A06300220C21B4F8820005F0DCFBE06397
:103AA000A36B13B118B1012010BD0020FCE700206A
:103AB000FAE710B5044603220021012005F0CBFBF4
:103AC000206403220021012005F0C5FB0346606449
:103AD000206C68B173B100231A46194605F0DFFB6C
:103AE00000231A461946606C05F0D9FB012010BD71
:103AF0000020FCE70020FAE7F0B583B0044600F1AF
:103B000050050346164A1321284605F03DFA04F1F4
:103B1000480301931827009723464FF480722946E3
:103B200010480FF0CCFA00F0010504F163062346BB
:103B30000D4A1321304605F027FA04F14C03019396
:103B4000009723464FF48072314608480FF0B7FAC9
:103B5000054202D0012003B0F0BD0020FBE700BF0A
:103B600068A60108D943000870A6010807440008A8
:103B700038B505460C4940690DF08BF804460B4AF0
:103B8000012168690DF00EF80443E4B2084A0421EB
:103B900068690DF007F8044314F0FF0F01D101200C
:103BA00038BD0020FCE700BF2F3F00088B3F000816
:103BB000D53F0008F8B504460D46B0F8920000F075
:103BC00021FF06460F46B4F87A0000F01BFF10A351
:103BD000D3E9002300F080FF02460B463046394609
:103BE00001F00AFA70B94DB1E06B05F0DFFEB4F8F0
:103BF0008230181A012807D90020F8BDE06B05F0C3
:103C0000C2FEF4E70120F8E70120F6E7AFF30080F9
:103C10009A9999999999E93F002904DDD0F888305B
:103C20000B44C0F88830002A04DDD0F88C301344EF
:103C3000C0F88C30B0F890300B44A0F89030B0F859
:103C400092301344A0F89230704710B5044690F8B3
:103C50007630012B03D0022B19D0002010BDB0F814
:103C60007C20016A40690DF0BDFF022817D163690D
:103C7000002283F88420B4F87C20216A60690DF06A
:103C8000B1FFB4F884300133A4F8843007E0B0F811
:103C90007C20016A40690DF0CCFF022803D0002887
:103CA000DBD10120DAE76369002283F88420B4F8CD
:103CB0007C20216A60690DF0BCFFB4F884300133C8
:103CC000A4F88430EBE72DE9F0410646D9B114465B
:103CD0001D460F46BAB1B3B12021384613F0C1FAE0
:103CE0000F280BD823784BB163783BB1E3882BB115
:103CF00023891BB163890BB1A38943B90123737471
:103D00000020BDE8F081012373740020F9E700234F
:103D100033607360B360F360C6F87630C6F87A300B
:103D2000C6F87E30A6F88230C6F88430C6F88830EF
:103D3000C6F88C30C6F8903010223946304613F061
:103D40007DFA21686268A368C6F87610C6F87A2002
:103D5000C6F87E30A389A6F8823075612846FFF741
:103D600043FE18B1012373740020CAE71A4A92F87F
:103D7000203042F82360013382F820303046FFF7CC
:103D80005CFE10B901237374BBE73046FFF778FE81
:103D900010B901237374B4E73046FFF78AFE10B9F7
:103DA00001237374ADE73046FFF7A6FE10B9012377
:103DB0007374A6E73046FFF7DBFE10B90123737476
:103DC0009FE73046FFF741FF10B10123337498E7B6
:103DD0000223737495E700BF80270020F0B585B0FB
:103DE00004460D4616466846FFF714FE33466A46FB
:103DF00029462046FFF767FF05B0F0BD38B50446F9
:103E00000D4690F87730012B03D0022B17D00020FD
:103E100038BD8A88096840690CF054FF022815D122
:103E20006369002283F88420AA88296860690CF0FD
:103E300049FFB4F884300133A4F8843006E08A885E
:103E4000096840690CF094FF022803D00028DED1F5
:103E50000120DDE76369002283F88420AA882968AD
:103E600060690CF085FFB4F884300133A4F8843025
:103E7000ECE729B1C0F89410C0F8982001207047F1
:103E80000020704730B585B004460D4600230393EB
:103E900090F87630022B07D14369B3F85C30B1EB70
:103EA000530F34D00023A374002229B22046FFF719
:103EB000B3FEFDF76BF90290A38C2B449BB2A38455
:103EC000226A0092ADF80450A28BD31AB4F87C2079
:103ED000934201DA0023A384A369A28C13442362D2
:103EE0002046FFF7B2FE002303AA6946A06B05F047
:103EF000B1FA039B4BB14FF0E0234FF08052C3F86F
:103F0000042DBFF34F8FBFF36F8F05B030BD837C9F
:103F1000002BC7D101238374F7E710B51446084678
:103F2000FFF762FD10B12146FFF7ACFF10BD08B5E9
:103F30000A4601460020FFF7F0FF08BD10B582B029
:103F400004464369B3F85420524212B20021FFF7ED
:103F500063FE0023019301A9206C05F0E2FA019BA6
:103F60004BB14FF0E0234FF08052C3F8042DBFF364
:103F70004F8FBFF36F8F02B010BD08B50846FFF733
:103F800033FD08B1FFF7DAFF08BD08B50146002090
:103F9000FFF7F3FF08BD08B54369D3F8902072B16D
:103FA0001B68DA6912F0040F01D004221A62436917
:103FB0001B68DA6912F0020F01D002221A62FFF7C1
:103FC00044FE08BD08B50846FFF70EFD08B1FFF72F
:103FD000E2FF08BD08B501460020FFF7F3FF08BD6A
:103FE0002DE9F04784B0002900F09F800446174671
:103FF0000D460B68002B00F09A808888002800F09E
:104000009880267C002E00F0958000F0FBFC804616
:104010008946B4F87A0000F0F5FC49A3D3E90023FF
:1040200000F05AFD02460B464046494600F0E4FFC8
:1040300008B100267EE000212046FFF7BBFD08B155
:10404000002677E04FF0FF31606C05F072FB002F27
:1040500037D1B4F82C80B4F83490A8EB0907BFB27C
:10406000AA88BA4231D82968206B13F07AF9236BF9
:104070000193AB88ADF8083000234FF0FF3201A95F
:10408000E06B05F00CF9A38EAA8813449BB2A386BB
:10409000A28DD31AB4F87E20934201DA0023A386BE
:1040A000A36AA28E13442363B5F90420002120469D
:1040B000FFF7B2FD00231A461946606C05F0EFF8D1
:1040C00038E0FDF763F80390C3E73A462968206BB0
:1040D00013F047F9236B0193ADF808700DF1040A52
:1040E00000234FF0FF325146E06B05F0D8F8AB8863
:1040F000A9EB080903EB09081FFA88F8296842466A
:104100003944A06A13F02DF9A36A0193ADF8088031
:1041100000234FF0FF325146E06B05F0C0F8A4F8E1
:104120003480A36A43442363BEE7002602E00026EE
:1041300000E00026304604B0BDE8F087AFF3008011
:104140009A9999999999E93F00B585B00191ADF88F
:1041500008200393B3FA83F2520901A9FFF740FF45
:1041600005B05DF804FB2DE9F04F85B0002A00F0A2
:104170009F8004460D469A461746067C002E00F0A6
:104180009880104600F03EFC80468946B4F87A00DC
:1041900000F038FC4AA3D3E9002300F09DFC02465E
:1041A0000B464046494600F027FF08B1002680E054
:1041B00001212046FFF7FEFC804608B1002678E08A
:1041C0006A460021606C05F087FB012875D1BAF1C1
:1041D000000F3FD0B4F82CA0B4F83480AAEB080943
:1041E0001FFA89F94F4539D83A462946206B13F012
:1041F000B8F8236B0193ADF8087000236A4601A953
:10420000E06B05F027F9A38E3B449BB2A386A28DF9
:10421000D31AB4F87E20934201DA0023A386A36A5E
:10422000A28E134423633AB200212046FFF7F4FC28
:104230006946606C05F075F9009B002B39D04FF092
:10424000E0234FF08052C3F8042DBFF34F8FBFF32C
:104250006F8F2EE0FCF79AFF0390BBE74A46294692
:10426000206B13F07EF8236B0193ADF808900023C8
:104270006A4601A9E06B05F0EDF8A8EB0A08B8441E
:104280001FFA88F8424605EB0901A06A13F069F8A5
:10429000A36A0193ADF8088000236A4601A9E06B88
:1042A00005F0D8F8A4F83480A36A43442363BAE73E
:1042B0000026304605B0BDE8F08F4646F9E700BF5E
:1042C0009A9999999999E93F10B599B10B469AB184
:1042D000047C94B190F87710012906D002290CD102
:1042E000194640690CF044FD07E0194640690CF09E
:1042F000E9FC02E0002400E00024204610BD0EB4DA
:104300002DE9F04183B00646C82003F0A7F940B379
:104310004FF0000807460AAB0193099AC82104F040
:1043200047FE05464446632C0DD80023AAB2394601
:104330003046FFF709FF804628B901200FF0F4F856
:104340000134E4B2EFE7B8F1000F01D14FF0FF35CF
:10435000384603F005FA284603B0BDE8F04103B043
:1043600070474FF0FF35F6E70EB470B583B00546E1
:10437000C82003F073F9C8B1064608AB0193079A49
:10438000C82104F015FE0446002382B231462846B7
:10439000FFF7E9FE08B94FF0FF34304603F0E0F9CB
:1043A000204603B0BDE8704003B070474FF0FF34C3
:1043B000F6E700B585B004464FF0FF3201A9A06BC7
:1043C00005F008F9D4F89430002BF5D0D4F89820F3
:1043D000214601A89847EFE708B5FFF7EAFF00B5C7
:1043E00085B0044601AD4FF0FF322946E06B05F081
:1043F000F1F84FF0FF31206C05F09BF9294620467B
:10440000FFF7FCFCEEE708B5FFF7E9FF704700BFD8
:1044100038B50546002400E00134092C14DC1C4B9F
:104420004C2202FB043393F84930002BF4D0294688
:10443000174B02FB043000F02FF90028ECD1144890
:104440004C2303FB040021E00023092B1DDC104A50
:104450004C2101FB032292F849200AB10133F4E711
:104460000B4C01FB03440F222946204612F0E6FEC6
:10447000012004F0E4FFE061012384F849300023C7
:10448000A36184F84830204600E0002038BD00BF1A
:10449000A427002010B5064C4FF43E7200212046A0
:1044A00012F0A5FE012004F0CAFFC4F8F80210BD06
:1044B000A427002038B504460D464FF0FF31154BB8
:1044C000D3F8F80205F035F92046FFF7A1FFB0B1A7
:1044D000044603699BB9284603F0C0F82061656172
:1044E0000C48241AA4100C4B03FB04F400231A46B6
:1044F0001946D0F8F80204F0D2FE204638BD002359
:104500001A4619460348D0F8F80204F0C8FE4FF0E6
:10451000FF34F2E7A42700201BCA6B28092820D803
:1045200038B50D460F4B4C2202FB003393F849304F
:1045300003B938BD0B4C02FB00444FF0FF31E0697A
:1045400005F0F7F862692946206912F00AFFA369AD
:104550000133A36100231A461946E06904F09FFE67
:10456000E7E77047A427002070B504464FF0FF31FD
:104570001B4BD3F8F80205F0DCF82046FFF748FFA4
:1045800018B3044690F84850042D1ED80FF07AF95D
:10459000043544F8350094F84850A2692B1D04EB0B
:1045A000C3035A606B1C84F848300D4E00231A4632
:1045B0001946D6F8F80204F072FEA01B8010094BD1
:1045C00003FB00F040EA054070BD00231A4619467F
:1045D0000348D0F8F80204F062FE4FF0FF30F3E732
:1045E000A42700201BCA6B2883B2000C092B16D805
:1045F0000D4A4C2101FB032292F84820824210DD33
:10460000094A043001FB03F303EBC0001044406887
:104610001A44936998422CBF002001207047002063
:1046200070470020704700BFA42700202DE9F0410B
:104630000E4685B2040C02E001200EF075FF154A0B
:10464000231D4C2105FB01F101EBC3031344586802
:104650000A4493699842EFD0DFF838800D46174638
:104660004FF0FF31D06905F064F87A693969304656
:1046700012F077FEBE6900231A461946F86904F065
:104680000EFE043405EBC405A844C8F804600120FC
:10469000BDE8F081A427002010F8012B11F8013BA0
:1046A000012A28BF9A42F7D0D01A7047034613F860
:1046B000012B002AFBD1181A0138704700000000B6
:1046C00001F0FF01102A2BDB10F0070F08D010F8C3
:1046D000013B013A8B422DD010F0070F42B3F6D1C7
:1046E000F0B441EA012141EA014122F007047FF0E0
:1046F00000070023F0E80256083C85EA010586EA37
:10470000010685FA47F5A3FA87F586FA47F6A5FA72
:1047100087F68EB9EED1F0BC01F0FF0102F007027E
:1047200032B110F8013B013A83EA010313B1F8D129
:104730000020704701387047002D06BF354603380A
:10474000073815F0010F07D1013015F4807F02BF43
:10475000013015F4C03F0130F0BC0138704700BF94
:1047600081F0004102E000BF83F0004330B54FEA22
:1047700041044FEA430594EA050F08BF90EA020F8F
:104780001FBF54EA000C55EA020C7FEA645C7FEA22
:10479000655C00F0E2804FEA5454D4EB5555B8BF45
:1047A0006D420CDD2C4480EA020281EA030382EAB6
:1047B000000083EA010180EA020281EA0303362D48
:1047C00088BF30BD11F0004F4FEA01314FF4801C1B
:1047D0004CEA113102D0404261EB410113F0004F2D
:1047E0004FEA03334CEA133302D0524263EB4303E4
:1047F00094EA050F00F0A780A4F10104D5F1200E82
:104800000DDB02FA0EFC22FA05F2801841F10001DC
:1048100003FA0EF2801843FA05F359410EE0A5F1B0
:1048200020050EF1200E012A03FA0EFC28BF4CF0E1
:10483000020C43FA05F3C01851EBE37101F0004597
:1048400007D54FF0000EDCF1000C7EEB00006EEBA4
:104850000101B1F5801F1BD3B1F5001F0CD349082E
:104860005FEA30004FEA3C0C04F101044FEA445285
:1048700012F5800F80F09A80BCF1004F08BF5FEA0C
:10488000500C50F1000041EB045141EA050130BDEC
:104890005FEA4C0C404141EB0101013C28BFB1F5FE
:1048A000801FE9D291F0000F04BF01460020B1FA49
:1048B00081F308BF2033A3F10B03B3F120020CDA1C
:1048C0000C3208DD02F1140CC2F10C0201FA0CF0FA
:1048D00021FA02F10CE002F11402D8BFC2F1200C5F
:1048E00001FA02F120FA0CFCDCBF41EA0C01904015
:1048F000E41AA2BF01EB0451294330BD6FEA04045E
:104900001F3C1CDA0C340EDC04F11404C4F1200248
:1049100020FA04F001FA02F340EA030021FA04F35A
:1049200045EA030130BDC4F10C04C4F1200220FAB1
:1049300002F001FA04F340EA0300294630BD21FAEF
:1049400004F0294630BD94F0000F83F4801306BFB5
:1049500081F480110134013D4EE77FEA645C18BFA9
:104960007FEA655C29D094EA050F08BF90EA020F40
:1049700005D054EA000C04BF1946104630BD91EA38
:10498000030F1EBF0021002030BD5FEA545C05D13B
:104990004000494128BF41F0004130BD14F580047A
:1049A0003CBF01F5801130BD01F0004545F0FE41EE
:1049B00041F470014FF0000030BD7FEA645C1ABF23
:1049C000194610467FEA655C1CBF0B46024650EA5A
:1049D000013406BF52EA033591EA030F41F4002186
:1049E00030BD00BF90F0000F04BF0021704730B50C
:1049F0004FF4806404F132044FF000054FF00001E1
:104A000050E700BF90F0000F04BF0021704730B5A1
:104A10004FF4806404F1320410F0004548BF404276
:104A20004FF000013EE700BF42004FEAE2014FEACB
:104A300031014FEA02701FBF12F07F4393F07F4FA6
:104A400081F06051704732F07F4208BF704793F0A9
:104A50007F4F04BF41F40021704730B54FF46074BC
:104A600001F0004521F000411CE700BF50EA0102BF
:104A700008BF704730B54FF000050AE050EA010268
:104A800008BF704730B511F0004502D5404261EBD8
:104A900041014FF4806404F132045FEA915C3FF419
:104AA000D8AE4FF003025FEADC0C18BF03325FEAB6
:104AB000DC0C18BF033202EBDC02C2F1200300FA67
:104AC00003FC20FA02F001FA03FE40EA0E0021FA8C
:104AD00002F11444BDE600BF70B54FF0FF0C4CF47A
:104AE000E06C1CEA11541DBF1CEA135594EA0C0F2C
:104AF00095EA0C0F00F0DEF82C4481EA030621EA67
:104B00004C5123EA4C5350EA013518BF52EA0335A1
:104B100041F4801143F4801338D0A0FB02CE4FF053
:104B20000005E1FB02E506F00042E0FB03E54FF083
:104B30000006E1FB03569CF0000F18BF4EF0010E7B
:104B4000A4F1FF04B6F5007F64F5407404D25FEA77
:104B50004E0E6D4146EB060642EAC62141EA55512A
:104B60004FEAC52040EA5E504FEACE2EB4F1FD0C6C
:104B700088BFBCF5E06F1ED8BEF1004F08BF5FEAEA
:104B8000500E50F1000041EB045170BD06F000469C
:104B900046EA010140EA020081EA0301B4EB5C0449
:104BA000C2BFD4EB0C0541EA045170BD41F4801141
:104BB0004FF0000E013C00F3AB8014F1360FDEBF66
:104BC000002001F0004170BDC4F10004203C35DA42
:104BD0000C341BDC04F11404C4F1200500FA05F3C5
:104BE00020FA04F001FA05F240EA020001F0004266
:104BF00021F0004110EBD37021FA04F642EB0601DC
:104C00005EEA430E08BF20EAD37070BDC4F10C0405
:104C1000C4F1200500FA04F320FA05F001FA04F2C9
:104C200040EA020001F0004110EBD37041F10001B5
:104C30005EEA430E08BF20EAD37070BDC4F12005C0
:104C400000FA05F24EEA020E20FA04F301FA05F228
:104C500043EA020321FA04F001F0004121FA04F2D0
:104C600020EA020000EBD3705EEA430E08BF20EAA0
:104C7000D37070BD94F0000F0FD101F000464000DA
:104C800041EB010111F4801F08BF013CF7D041EA5C
:104C9000060195F0000F18BF704703F00046520060
:104CA00043EB030313F4801F08BF013DF7D043EA31
:104CB0000603704794EA0C0F0CEA135518BF95EAE7
:104CC0000C0F0CD050EA410618BF52EA4306D1D16E
:104CD00081EA030101F000414FF0000070BD50EA8D
:104CE000410606BF1046194652EA430619D094EA17
:104CF0000C0F02D150EA013613D195EA0C0F05D101
:104D000052EA03361CBF104619460AD181EA030154
:104D100001F0004141F0FE4141F470014FF000000C
:104D200070BD41F0FE4141F4780170BD70B54FF0A7
:104D3000FF0C4CF4E06C1CEA11541DBF1CEA135527
:104D400094EA0C0F95EA0C0F00F0A7F8A4EB050409
:104D500081EA030E52EA03354FEA013100F0888000
:104D60004FEA03334FF0805545EA131343EA1263C9
:104D70004FEA022245EA111545EA10654FEA00267E
:104D80000EF000419D4208BF964244F1FD0404F537
:104D9000407402D25B084FEA3202B61A65EB030593
:104DA0005B084FEA32024FF480104FF4002CB6EB50
:104DB000020E75EB030E22BFB61A754640EA0C00D0
:104DC0005B084FEA3202B6EB020E75EB030E22BF10
:104DD000B61A754640EA5C005B084FEA3202B6EB51
:104DE000020E75EB030E22BFB61A754640EA9C0010
:104DF0005B084FEA3202B6EB020E75EB030E22BFE0
:104E0000B61A754640EADC0055EA060E18D04FEA9D
:104E1000051545EA16754FEA06164FEAC30343EA3D
:104E200052734FEAC2025FEA1C1CC0D111F4801F0A
:104E30000BD141EA00014FF000004FF0004CB6E703
:104E400011F4801F04BF01430020B4F1FD0C88BFA2
:104E5000BCF5E06F3FF6AFAEB5EB030C04BFB6EBAD
:104E6000020C5FEA500C50F1000041EB045170BDA0
:104E70000EF0004E4EEA113114EB5C04C2BFD4EBCD
:104E80000C0541EA045170BD41F480114FF0000E51
:104E9000013C90E645EA060E8DE60CEA135594EACD
:104EA0000C0F08BF95EA0C0F3FF43BAF94EA0C0FD0
:104EB0000AD150EA01347FF434AF95EA0C0F7FF445
:104EC00025AF104619462CE795EA0C0F06D152EA99
:104ED00003353FF4FDAE1046194622E750EA41067D
:104EE00018BF52EA43067FF4C5AE50EA41047FF48E
:104EF0000DAF52EA43057FF4EBAE12E74FF0FF3CF3
:104F000006E000BF4FF0010C02E000BF4FF0010CC3
:104F10004DF804CD4FEA410C7FEA6C5C4FEA430C3C
:104F200018BF7FEA6C5C1BD001B050EA410C0CBF8B
:104F300052EA430C91EA030F02BF90EA020F0020ED
:104F4000704710F1000F91EA030F58BF994208BF54
:104F500090422CBFD8176FEAE37040F00100704711
:104F60004FEA410C7FEA6C5C02D150EA013C07D168
:104F70004FEA430C7FEA6C5CD6D152EA033CD3D0B3
:104F80005DF8040B704700BF8446104662468C46AD
:104F90001946634600E000BF01B5FFF7B7FF0028E0
:104FA00048BF10F1000F01BD4DF808EDFFF7F4FF09
:104FB0000CBF012000205DF808FB00BF4DF808ED94
:104FC000FFF7EAFF34BF012000205DF808FB00BFB7
:104FD0004DF808EDFFF7E0FF94BF012000205DF8D9
:104FE00008FB00BF4DF808EDFFF7CEFF94BF01208E
:104FF00000205DF808FB00BF4DF808EDFFF7C4FF87
:1050000034BF012000205DF808FB00BF4FEA410CCF
:105010007FEA6C5C02D150EA013C0AD14FEA430CB2
:105020007FEA6C5C02D152EA033C02D14FF00000EF
:1050300070474FF0010070474FEA410212F500122D
:1050400015D211D56FF47873B3EB625212D94FEACF
:10505000C12343F0004343EA505311F0004F23FAB9
:1050600002F018BF404270474FF00000704750EA0E
:10507000013005D111F0004008BF6FF000407047CB
:105080004FF00000704700BF4A0011D212F5001225
:1050900011D20DD56FF47873B3EB62520ED44FEA90
:1050A000C12343F0004343EA505323FA02F0704710
:1050B0004FF00000704750EA013002D14FF0FF304E
:1050C00070474FF0000070474FEA4102B2F1E043F1
:1050D00024BFB3F5001CDCF1FE5C0DD901F0004CDF
:1050E0004FEAC0024CEA5070B2F1004F40EB83002F
:1050F00008BF20F00100704711F0804F21D113F15B
:105100003872BCBF01F00040704741F480114FEA93
:105110005252C2F11802C2F1200C10FA0CF320FA1C
:1051200002F018BF40F001004FEAC1234FEAD32339
:1051300003FA0CFC40EA0C0023FA02F34FEA4303A3
:10514000CCE77FEA625307D150EA01331EBF4FF02C
:10515000FE4040F44000704701F0004040F0FE4047
:1051600040F40000704700BF53B94AB9002908BF96
:1051700000281CBF4FF0FF314FF0FF3000F00CB89B
:10518000ADF1080C6DE904CE14F016FCDDF804E076
:10519000DDE9022304B07047704700BF0348044BA9
:1051A000834202D0034B03B118477047E00300204D
:1051B000E0030020000000000548064B1B1AD90F31
:1051C00001EBA301491002D0034B03B1184770470C
:1051D000E0030020E00300200000000010B5064CB2
:1051E000237843B9FFF7DAFF044B13B10448AFF358
:1051F00000800123237010BDA02A002000000000C1
:10520000B09C010808B5054B1BB105490548AFF333
:105210000080BDE80840FFF7CFBF00BF00000000DE
:10522000A42A0020B09C010800B589B020220021EA
:10523000684611F0DCFF2F482F4B03604FF44033DA
:10524000436000238360C360036101224261042242
:10525000826103774377026280F82430C36203637C
:1052600080F83830C36380F8403004F0F5FC002843
:1052700030D1224B009306230193022302937F2314
:10528000039304230493002305936946194804F00B
:1052900059FE10BB1A4B00930C2301930023029379
:1052A0006946144804F04EFED0B9164B0093122301
:1052B000019369460F4804F045FEA0B9124B0093D4
:1052C0001823019369460B4804F03CFE70B909B0FD
:1052D0005DF804FB02F07AFBCBE702F077FBD9E73D
:1052E00002F074FBE1E702F071FBE7E702F06EFB0E
:1052F000EDE700BF1C2B002000010050002090367D
:105300000800900C2000F01400106032F0B59FB03F
:105310000446002119911A911B911C911D91542250
:1053200004A811F064FF2268374B9A4201D01FB0E5
:10533000F0BD4FF4004304934FF00053159304A8BD
:1053400008F022FE002859D1304BDA6C42F40052AA
:10535000DA64DA6C02F400520092009ADA6C42F0DD
:105360000102DA64DA6C02F001020192019ADA6C4D
:1053700042F00402DA64DA6C02F004020292029A49
:10538000DA6C42F00202DA64DB6C03F0020303938E
:10539000039B6023199303271A9700251B9519AEC9
:1053A00031464FF0904005F093FF102319931A9760
:1053B0001B953146164805F08BFF042319931A9765
:1053C0001B953146134805F083FF1348134B0360C8
:1053D000242343608560C560802303614FF480739C
:1053E00043614FF4806383612023C361056205F04C
:1053F00073FA30B9084B63659C6298E702F0E6FAED
:10540000A2E702F0E3FAF5E70001005000100240C5
:105410000008004800040048BC2A00208000024028
:1054200008B5FCF789FD08BD084670470846704777
:105430000846704708467047401A83B2002800DBD0
:105440007047203318B2FBE703780133DBB20370F7
:105450001F2B01D90023037070470E2809D8DFE8FD
:1054600000F01515151515151515150A0C0E101249
:105470001400402070470C20704710207047142003
:105480007047182070472020704730207047082848
:1054900018D90C280BD910280BD914280BD9182887
:1054A0000BD920280BD930280BD90F2070470920A1
:1054B00070470A2070470B2070470C2070470D2062
:1054C00070470E207047034621F0604C20F0604288
:1054D000C00F91EA030F0AD4C1F38071C3F3807047
:1054E000944514D094452CBF00200120704700291A
:1054F00008DB002B09DB9445F8D094452CBF002035
:10550000012070474FEA9C4CF3E7920CF3E781428D
:10551000ECD1E7E72DE9F04107460D46D0F82480AD
:10552000B8F1000F0CD046464446A4B169686068E3
:10553000FFF7C9FF30B9236826465BB11C46F4E784
:10554000796208E0A04502D035602C6003E02C6051
:105550007D6200E02560BDE8F081C37DC3F3840275
:10556000013262F38603C375C38A6FF30903C382F2
:10557000C37D23F08003C375704738B504460D46DC
:10558000006A04E0016804F10C00FFF751FF10B15C
:105590000369AB42F6D138BD2DE9F043079ECD0833
:1055A00003EBD60401F0070E06F0070372442AE06D
:1055B0000EF0070803F00706C446B04538BFB446EE
:1055C000CCF1080CA2EB0E018C4528BF8C464FF4A1
:1055D0007F4121FA0CF1C9B241FA06F74FEADE0128
:1055E00000EB050919F8011001FA08F1F140C9B200
:1055F0004FEAD30814F80860714039404E4004F86F
:105600000860E64463449645D2D1BDE8F0832DE9B5
:10561000F04F87B00393838AB1EBC30F80F087808C
:1056200082460E461546DA0069188A4203D2D3B282
:10563000F2B29B1ADDB2DAF80C3043B3272E36D81B
:10564000C6F128039D4230D35FFA86FBCBF1280BCD
:105650005FFA8BFB00230093039B5A463146DAF82E
:105660000800FFF799FF5E44A5EB0B04E4B2BAF81B
:10567000147007F10057053FFF00DAF80C9028215D
:105680004B46B946CDF810A005951F4626E0DAF83E
:105690001030002BD2D100230093039B2A463146C1
:1056A000DAF80800FFF778FF35E0AB46D2E72C4682
:1056B0004FF0000BDBE72546CDF800B0039B2A46F0
:1056C000711A381DFFF768FF2E44AB445FFA8BFB5D
:1056D000651BECB2A9EB0A093F684146A7B19CB132
:1056E000CA46B9F1E00F28BF4FF0E00A0AEB010803
:1056F0004645EFD2A8EB06039C42DCD35FFA88F55F
:10570000F3B2ED1AEDB2D7E7DDF810A0059DDAF897
:10571000100000B11CB928B207B0BDE8F08FCDF879
:1057200000B0039B2246711AFFF736FFF3E7002013
:10573000F2E7002070470139002307E0C25C10F84F
:1057400001C000F803C04254013301398B42F5D344
:10575000704780EA0120002307E0400080B280F417
:10576000815080F001000133DBB2072B05D810F423
:10577000004FF2D1400080B2F5E7704770B5164691
:105780001D46002411E0C4F12003A4F1200C26FAE8
:1057900004F105FA03F3194325FA0CFC41EA0C0164
:1057A000C9B2FFF7D6FF0834A4B23F2CEBD970BDC5
:1057B00038B50C4604E014F8011BFFF7CAFF2A466F
:1057C000551E002AF7D138BD38B5058C072D0BD9E9
:1057D0000446D0E902234FF6FF70FFF7CFFF2A46B9
:1057E000E169FFF7E5FF38BD4FF6FF70FBE710B446
:1057F000016100F1040C002305E001EB4314CCF837
:105800000040A44601339A42F7D80023CCF8003078
:1058100002814381838103605DF8044B7047034636
:10582000406848B102685A605A89013292B25A817E
:1058300099898A4200D99A81704708B5FFF7EFFF2E
:1058400008B10023036008BD2DE9F84F8246894660
:1058500017461D46CB8AC3F30903052B32D01846E1
:105860000024042B0AD8A54208D9395D09EB0302AC
:10587000D17601339BB20134A4B2F2E7A54218D924
:10588000B9F816B0CBF3090BABF1050293083D490B
:10589000A1FB0313C3EBC303A2EB83021FFA82F83D
:1058A000D9F8041081B15046FFF7BEFD064601232A
:1058B0001CE02844B9F8163060F30903A9F8163043
:1058C000012054E00024DBE75046FFF7B6FF064610
:1058D00001465046FFF7AAFDC9F80400002E48D043
:1058E0004FF000082CE001339BB216463268002AC4
:1058F000F9D105EB0B02053A92082249A1FB0212ED
:1059000092B2013292B293421AD2B8F1000F17D17B
:105910005046FFF792FF306070B3064610E03A5DE4
:1059200006EB0C031A710CF1010C1FFA8CFC01340C
:10593000A4B2BCF11B0F01D8A542F0D8A54203D8F0
:10594000A5420AD9C446F4E75046FFF776FF306017
:10595000A8B106464FF00008F2E7B9F81630C3F3D5
:105960000902154465F30903A9F816300120BDE8C2
:10597000F88F6FF00200FAE76FF00200F7E76FF0C0
:105980000200F4E72549922443680B604160438993
:10599000013B43817047F8B506460D460EE006F11F
:1059A0000C042046FFF740FD014607682046FFF73C
:1059B000EBFF39462046FFF739FD6860696800292A
:1059C000EDD1EB8A6FF30903EB8200200021F8BDD3
:1059D00008B5FFF724FF034628B1002202604260A9
:1059E0008260C2600261184608BD00002DE9F04FD8
:1059F00083B001921D465B69002B00F099808146BF
:105A00008B462B8C1BB1EA69002A00F09480072B8F
:105A100018D902339BB206334D4A82FB031213445A
:105A2000C3F38F03B9F81420B9F81610521A92B2C2
:105A3000934200F286804FF0800A4FF000084446FF
:105A4000474654E009F10C00FFF7C2FF0446002866
:105A500074D02A8CE969083011F083FC288C01305D
:105A600080B2FFF714FDFFF7F8FC431E9BB22B84B6
:105A7000013323746B691B7803F01F032A8C43F0F6
:105A8000C003224413724BF0004363602146484632
:105A9000FFF740FD0127384603B0BDE8F08F002036
:105AA00035E02B8CA34240D0013080B2FFF7EFFCF1
:105AB000FFF7D3FC431E9BB24FEA4812D2B242EA30
:105AC0000A026969097801F01F010A43F1180A7294
:105AD0004BF0004272600133337431464846FFF7A1
