:020000040800F2
:1000000000000220712E01087FF8000881F8000826
:1000100083F8000885F8000887F800080000000051
:10002000000000000000000000000000615F000808
:1000300089F800080000000001600008A9490008D4
:10004000C12E0108C12E0108C12E0108C12E0108D0
:10005000C12E0108C12E0108C12E0108C12E0108C0
:10006000C12E0108C12E0108C12E01088DF800081B
:100070009DF80008ADF80008BDF80008CDF80008AC
:10008000DDF80008EDF80008C12E0108C12E0108B6
:10009000FDF80008C12E0108C12E0108C12E01087B
:1000A0000DF90008C12E0108C12E0108C12E01085A
:1000B000C12E01081DF90008C12E01082DF9000804
:1000C0003DF90008C12E0108C12E0108C12E01080A
:1000D000C12E01084DF900085DF900086DF900080E
:1000E000C12E0108C12E0108C12E0108C12E010830
:1000F000C12E0108C12E0108C12E0108C12E010820
:10010000C12E0108C12E01087DF90008C12E010889
:10011000C12E0108C12E0108C12E0108C12E0108FF
:10012000C12E0108C12E0108C12E0108C12E0108EF
:10013000C12E0108C12E0108C12E0108C12E0108DF
:10014000C12E0108C12E0108C12E0108C12E0108CF
:10015000C12E0108C12E0108C12E0108C12E0108BF
:10016000C12E0108C12E0108C12E0108C12E0108AF
:10017000C12E0108C12E01088DF90008C12E010809
:10018000C12E0108C12E0108C12E0108C12E01088F
:10019000C12E0108000000009DF90008ADF900081B
:1001A000C12E0108C12E0108C12E0108C12E01086F
:1001B000C12E0108C12E0108C12E0108C12E01085F
:1001C000C12E0108C12E0108C12E0108C12E01084F
:0801D000BDF90008C12E010871
:1001E000F8B50F4616461D460024632C0CD8002394
:1001F00032463946284602F033FA28B9012010F079
:100200005DFE0134E4B2F0E7F8BD08B513460A46D6
:1002100001460020FFF7E4FF08BD10B50446E06A80
:1002200005F0B6F9A0894FF47A7303FB00F0034B95
:10023000A3FB0030800910F041FEF0E7D34D6210BF
:1002400000296AD02DE9F04188B004461646884658
:1002500000F10E070522384613F0FCFD384602F087
:10026000B1FC034639182F4A1068F85013790B7106
:1002700004F1180509224146284613F0EBFD2846F3
:1002800002F0A0FC034605EB000C274A03CAE85025
:10029000CCF804100A2E38BF0A26A68103A8002332
:1002A000039343608360C36003618023ADF8103023
:1002B000ADF812304FF48073ADF814302023ADF850
:1002C000163001238DF81E30039504F0C1FEE06264
:1002D00028B3164B0360E36A154A5A6004F13403ED
:1002E00001931823009323464FF4007239461148B6
:1002F00010F0AFFB012803D0002008B0BDE8F0816A
:10030000606B10F04DFE0C4B1A68511C196003EB2A
:1003100082035C6001202070EFE70020704700201E
:10032000EBE700BF8C640108946401080D04000829
:100330002B0400081B020008DC01002010B5047823
:100340000CB9204610BD406B10F012FCF9E719B152
:1003500041608260012070470020704729B101632D
:100360008160034B4360012070470020704700BF4D
:100370000B02000818B108B504F01EFE08BD704756
:100380002DE9F041A9B1064615460F46A2B190F8F5
:100390000080B8F1000F09D0002405E0395DF06A53
:1003A000FFF7E8FF0134A4B2AC42F7D34046BDE802
:1003B000F0814FF00008F9E74FF00008F6E7002859
:1003C00008DB064B1B68834206DD044B03EB80030E
:1003D000586870470020704700207047DC010020FB
:1003E000014680B10023084A1268934209DA064A9E
:1003F00002EB83025068C26A8A4204D00133DBB246
:10040000F1E7002070477047DC01002010B582B092
:100410008DF80710FFF7E4FF28B1446882680121D6
:100420000DF10700A04702B010BD70B50C46FFF7F4
:10043000D7FF48B105464668C821204613F01DFD88
:10044000AA6881B22046B04770BD014680B1002342
:10045000084A1268934209DA064A02EB830250689E
:10046000026B8A4204D00133DBB2F1E7002070470F
:10047000704700BFDC01002038B50024012508E0EA
:10048000074B03EB84035868FFF758FF054001341E
:10049000E4B2034B1B689C42F2DB284638BD00BF28
:1004A000DC0100207047F8B505460E46084605F009
:1004B000C9F80746094B2B60092801DC012408E034
:1004C0000A27FBE7A1B2304604F05EFE45F824009F
:1004D0000134A742F6DA3846F8BD00BF0C650108C2
:1004E0000EB470B583B04368D3B10446C82005F09C
:1004F000C7FA0646B8B108AB0193079AC82106F0BF
:1005000067FF05466368A26881B230469847304667
:1005100005F038FB284603B0BDE8704003B07047D3
:100520004FF0FF35F6E74FF0FF35F3E784B000B545
:1005300083B0844605A880E80E009CF8000068B1EE
:1005400089B1099B8BB108AB93E803008DE80300E8
:1005500005AB0ECBDCF82C0004F03CFD03B05DF8DD
:1005600004EB04B070470020F8E70020F6E784B001
:1005700070B582B006AC84E80F000024012510E0BD
:100580000D4B03EB84035E6809AB93E803008DE831
:10059000030006AB0ECB3046FFF7C8FF0540013421
:1005A000E4B2054B1B689C42EADB284602B0BDE87A
:1005B000704004B0704700BFDC01002010B588B067
:1005C0000A9C039004918DF81420069307940094DC
:1005D00003AB0FCBFFF7CBFF08B010BD2DE9F04305
:1005E0003E4B0020188000225A609A60DFF8FC9091
:1005F000C3F8109098829A61DA61DFF8F480C3F84A
:1006000024801885DA621A63354F9F6398871A64CD
:100610005A64344EDE64032583F85050012483F875
:10062000514083F8520042F2107EA3F854E09A65DC
:10063000DA651B664FF0FF0CA3F868C02A49D9663B
:100640001967C3F8A49083F8A85083F8A94083F8E9
:10065000AA00A3F8ACE0C3F8B020C3F8B42003F1BB
:100660001409C3F8B890A3F8C0C0C3F8C410C3F805
:10067000C810C3F8FC8083F8005183F8014183F867
:100680000201A3F804E1C3F80821C3F80C2103F127
:100690002808C3F81081A3F818C1C3F81C11C3F8C7
:1006A0002011C3F8547183F8585183F8594183F8E5
:1006B0005A01A3F85CE1C3F86021C3F8642103F197
:1006C0003C02C3F86821A3F870C1C3F87411C3F8E1
:1006D0007811C3F8AC61BDE8F08300BFF4010020DD
:1006E0000C630108E8620108000080BF5463010840
:1006F0003063010810B50446A1B1436D99681868CC
:100700000CF022FF636D996818680DF019F9636D9C
:10071000D96818680CF018FF636DD96818680DF077
:100720000FF910BD436D996818680CF0C3FF636D35
:10073000996818680DF082F9636DD96818680CF033
:10074000B9FF636DD96818680DF078F9E9E708B565
:100750008288D0ED027AF5EEC07AF1EE10FA09D473
:10076000B7EE007AF4EEC77AF1EE10FA04DDF0EE9F
:10077000477A01E0DFED827A90ED037AB5EEC07A38
:10078000F1EE10FA09D4F7EE006AB4EEE67AF1EE73
:1007900010FA04DDB0EE667A01E09FED797A038B02
:1007A000934210D00283C0ED077A80ED087ACAB177
:1007B000436AB3FBF2F34FF6FE72934216D8012B55
:1007C00016D8012314E0D0ED076AF4EE676AF1EE63
:1007D00010FAE7D1D0ED086AF4EE476AF1EE10FAAC
:1007E000E0D1CBE00021FFF785FFC7E04FF6FF73B4
:1007F000426D12681268002151625A1E92B2416D18
:1008000009680968CA62416D0968CA60416D8A68F1
:10081000102A4BD8DFE802F0094A4A4A164A4A4AE7
:10082000234A4A4A304A4A4A3D0006EE903AF8EED8
:10083000666A66EEA77A0A681268FCEEE77AC2ED8D
:100840000D7A3FE006EE903AF8EE666A66EEA77A19
:100850000A681268FCEEE77AC2ED0E7A32E006EE24
:10086000903AF8EE666A66EEA77A0A681268FCEEBD
:10087000E77AC2ED0F7A25E006EE903AF8EE666A66
:1008800066EEA77A0A681268FCEEE77AC2ED107A83
:1008900018E006EE903AF8EE666A66EEA77A0A6805
:1008A0001268FCEEE77AC2ED127A0BE006EE903A9F
:1008B000F8EE666A66EEA77A0A681268FCEEE77AD6
:1008C000C2ED137A416DCA68102A4BD8DFE802F0F6
:1008D000094A4A4A164A4A4A234A4A4A304A4A4A2E
:1008E0003D0007EE903AF8EE677A67EE877A0B687C
:1008F0001B68FCEEE77AC3ED0D7A3FE007EE903A15
:10090000F8EE677A67EE877A0B681B68FCEEE77A89
:10091000C3ED0E7A32E007EE903AF8EE677A67EEB2
:10092000877A0B681B68FCEEE77AC3ED0F7A25E047
:1009300007EE903AF8EE677A67EE877A0B681B68E5
:10094000FCEEE77AC3ED107A18E007EE903AF8EE85
:10095000677A67EE877A0B681B68FCEEE77AC3ED6F
:10096000127A0BE007EE903AF8EE677A67EE877A34
:100970000B681B68FCEEE77AC3ED137A08BD00BF75
:100980000000000010B52DED028B04460AF07AFE3F
:10099000636D1B681B689B6A0133B0FBF3F06062F8
:1009A0009FED148AB0EE480A04F1280000F0BCFF65
:1009B000B0EE480A04F1300000F0B6FF052104F162
:1009C000380000F06FFB2046FFF7C1FE01212046F2
:1009D000FFF790FE012010F071FA00212046FFF78A
:1009E00089FE6178206900F0E9FE0123A370BDEC67
:1009F000028B10BD3333333F08B5FFF7EFFD08BD61
:100A0000024A536801335360704700BFA8030020B7
:100A100010B5054C20460CF067F8044A0E2120461C
:100A20000CF0B1F910BD00BFE4190120010A000863
:100A3000034B1B68586A034B18605968704700BF26
:100A4000E4190120A803002008B5FFF7F1FF4FF4D7
:100A50007A72002302F018FE014B986008BD00BFB7
:100A6000A803002008B54FF47A7303FB00F0034B92
:100A7000A3FB0030800910F021FA08BDD34D6210AD
:100A800010B504460448FFF7E0FC18B1A2882168BD
:100A9000FFF776FC10BD00BFB403002010B504467C
:100AA0000448FFF7D2FC18B1A2882168FFF768FC60
:100AB00010BD00BFB403002010B5044C04F19C002D
:100AC00012F0B8F9204612F0B5F910BDB4030020B9
:100AD00038B50C4C04F19C050B4A0C49284601F032
:100AE00009FC00220A49284601F04FFC094A0A493C
:100AF000204601F0FFFB00220849204601F045FC9A
:100B000038BD00BFB4030020802001209C64010890
:100B10009D0A00084C210120A4640108810A0008F4
:100B20000FB4F0B583B0C82004F0AAFF28B30027A3
:100B3000064609AB0193089AC82106F049FC054610
:100B40003C46632C0DD80023AAB231460C4801F074
:100B500087FD074628B9012010F0B0F90134E4B24E
:100B6000EFE70FB94FF0FF35304605F00BF8284698
:100B700003B0BDE8F04004B070474FF0FF35F6E732
:100B8000B40300200FB4F0B583B0C82004F078FFA0
:100B900070B30027064609AB0193089AC82106F0F6
:100BA00017FC05463C46632C0DD80023AAB23146FB
:100BB000114801F055FD074628B9012010F07EF9D3
:100BC0000134E4B2EFE7002302220C490A4801F0A5
:100BD00047FD02354FB140B1304604F0D3FF2846FF
:100BE00003B0BDE8F04004B070474FF0FF35F3E7C5
:100BF0004FF0FF35F3E700BFB4030020486501085C
:100C000008B5FFF759FF08BD10B58AB00C46FFF7CD
:100C1000E7FB50B121466846FFF745FC0121044837
:100C2000FFF768FD0348FFF77BFF0AB010BD00BF68
:100C300044020020AC64010810B58AB00C46FFF7EE
:100C4000CFFB50B121466846FFF72DFC0021044838
:100C5000FFF750FD0348FFF763FF0AB010BD00BF68
:100C600044020020BC64010810B58AB00C46FFF7AE
:100C7000B7FB40B121466846FFF715FC07F0CEFFF1
:100C80000248FFF74DFF0AB010BD00BFCC64010859
:100C900010B58EB00C46FFF7A3FBC0B1214603A8E8
:100CA000FFF701FC002814DD0DA9049812F004FFE1
:100CB000FCEEC07ACDED017A9DF80410049A0D9BEC
:100CC0009A4201D0012908D90648FFF729FF0EB042
:100CD00010BD0548FFF724FFF9E70448FFF720FFA0
:100CE000F5E700BFF8640108E06401081065010839
:100CF00010B58CB00C46FFF773FBB0B1214601A8CC
:100D0000FFF7D1FB002812DD0BA9029812F0D4FEE8
:100D100010EE100A029A0B9B9A420CD002F014F9C2
:100D200002460B460648FFF7FBFE0CB010BD054817
:100D3000FFF7F6FEF9E70448FFF7F2FEF5E700BF1C
:100D400030650108E0640108F864010810B58CB052
:100D50000C46FFF745FBE0B1214601A8FFF7A3FBD6
:100D6000002818DD0BA9029812F0A6FE029A0B9B30
:100D70009A4214D0B5EEC00AF1EE10FA06D4F7EE9E
:100D8000007AB4EEE70AF1EE10FA0CDD0D48FFF739
:100D9000C7FE0CB010BD0C48FFF7C2FEF9E70B48C8
:100DA000FFF7BEFEF5E70A4B83ED020A0022DA6088
:100DB00010EE100A02F0C8F802460B460548FFF78D
:100DC000AFFEE6E74C650108E0640108F86401083D
:100DD000440200206465010870B506460C46802276
:100DE0000C490EF024FD802C00D98024094D2246A8
:100DF000294605F1800013F0C0F8A5F80041012351
:100E000085F80231D6F880301A68136823F004039D
:100E1000136070BDEC04002072B32DE9F04105466B
:100E20001E469400A4B204F104081FFA88F8134B7C
:100E300093F8E825BAB903F5A867B2FA82FC4FEA3D
:100E40005C1C0E4B83F8E8C52246384613F095F833
:100E50000B4B1868385146B94246394628460DF0C2
:100E6000BBFCBDE8F081074FE7E733464246394611
:100E700028460EF0C7F9F4E7704700BFEC040020E5
:100E8000E4620108800A00200EB470B597B00646EF
:100E9000BDF86C50142D00D914251CAB019300240F
:100EA00011E0019B073323F0070303F108020192CD
:100EB000D3E9000102F098FB16AB03EB840343F87F
:100EC000500C0134A4B2A542EBD800232A4602A953
:100ED0003046FFF7A1FF17B0BDE8704003B0704780
:100EE00010B50446084BC0F8C0300DF0C5FC802298
:100EF000064920460EF09BFCD4F880301A6813682F
:100F000023F00403136010BDD90D0008EC04002089
:100F1000034B00221A705A609A60DA621A637047B3
:100F2000D80A002010B582B0184C0A221849204671
:100F3000FFF786F917492046FFF710FA1648174BB6
:100F40000093002301220146FFF738FB1448154B9C
:100F50000093002301220146FFF730FB1248134B98
:100F60000093002301220146FFF728FB104B00935A
:100F7000002301220F491048FFF720FBFFF77CFAFE
:100F800000200FF099FD02B010BD00BFD80A00206C
:100F900080650108B403002088650108090C000879
:100FA00090650108390C000898650108690C000873
:100FB0004D0D0008A0650108C065010808B5FFF7E0
:100FC000A7FF08BD10B582B0104C019428230093F0
:100FD00000234FF400720E490E480FF03AFD04341E
:100FE00001941824009400234FF400720A490B481E
:100FF0000FF02FFD0023019300944FF40072084975
:1010000008480FF026FD02B010BD00BF100B0020F5
:10101000CC65010831100008D8650108811000086E
:10102000E0650108250F000808B5FFF7CBFF08BDF4
:1010300008B501F0BBFC00F0A3FEFFF7E9FCFFF7E9
:1010400047FD0748FFF74CFF0649074800F08AFDB7
:101050000648FFF797FC00200FF02EFD08BD00BFEB
:1010600080200120E41F0020B01A0120440200204B
:10107000014B024A1A607047D80100204412012037
:1010800008B50548FFF74CFD32200FF017FF4FF46D
:101090007A700FF013FFFAE7EC65010808B5FFF767
:1010A000E7FF08BD01290ED910B504460023C3602F
:1010B0000170002303724372880004F0E1FC606059
:1010C00018B1012010BD002070470020FAE7427AD5
:1010D00003789A4201D20132D3B24372D0ED037A3F
:1010E0004368027A03EB820393ED007A77EEC77AC6
:1010F00077EE807AC0ED037A83ED000A037A01333C
:10110000017893FBF1F201FB1233037280ED060AC2
:1011100080ED050A437A994229D0D0ED036A07EEA3
:10112000903AF8EEE77A86EEA77A80ED047A90EDB1
:10113000040A7047013291421BDD436803EB8203CE
:10114000D3ED007A90ED057AF4EEC77AF1EE10FA5D
:1011500001DDC0ED057AD3ED007A90ED067AF4EE6C
:10116000C77AF1EE10FAE5D5C0ED067AE2E7002283
:10117000E1E790ED037AD0ED057A37EE677AD0EDAE
:10118000067A37EE677A023907EE901AF8EEE77AB8
:10119000C7EE276AC0ED046AC9E7002303724372F1
:1011A0000023C360436183617047000030B5A1B084
:1011B000044601AD7C220021284612F024FE294677
:1011C000204610F05CFEE8B99DF804C00E4B83F891
:1011D00000C0002310E020AA02EBC30111F8780C34
:1011E000094A02EBC302107111F8770C507151F8E3
:1011F000741C91600133DBB29C45ECD8024B012298
:1012000083F87C2021B030BD1C0B0020838A9B001A
:10121000114AA2FB0323C3F387030B70142B18D8C6
:10122000F0B583B007460E46002425460BE006EBDA
:1012300044030233009301230E222946384603F06B
:1012400031F80E3501343378A342F0D8002003B0D2
:10125000F0BD0120704700BF9324499230B58DB096
:10126000044601AD2A220021284612F0CCFD294671
:101270002046FFF7CBFFC0B99DF804000C4B83F864
:10128000800000230BE00CAA02EB430232F92A1C77
:10129000074A02EB4302A2F882100133DBB2984204
:1012A000F1D8034B012283F8AA200DB030BD00BF56
:1012B0001C0B002000B585B001A9002301934B60F1
:1012C0008B6010F02AFE90B90A4B019AC3F8AC204B
:1012D0009DF8082083F8B0209DF8092083F8B120FC
:1012E000BDF80C20A3F8B420012283F8B62005B085
:1012F0005DF804FB1C0B002070B584B005460C465D
:10130000009100232022194602F0CCFF0DF10E06B9
:101310000096012310222021284602F0C3FFBDF8C9
:101320000E0003F0D1F884ED010A0096012310228B
:101330003021284602F0B6FFBDF80E0003F0C4F8D5
:1013400084ED020A0096012310224021284602F073
:10135000A9FFBDF80E0003F0B7F884ED030A04F10D
:1013600010030093012312225021284602F09AFF15
:1013700004F114030093002307226221284602F09F
:1013800091FF15340094002305226921284602F0BC
:1013900089FF002004B070BD00B587B06946002306
:1013A000009301930293039304930593FFF7A4FF23
:1013B000B8B90D4B019AC3F8B820029AC3F8BC2003
:1013C000039AC3F8C020049AC3F8C4209DF81420DF
:1013D00083F8C8209DF8152083F8C920012283F8DE
:1013E000CA2007B05DF804FB1C0B002008B5C38AB7
:1013F00040F20642934212D00AD840F2551293426C
:1014000010D040F2F232934201D1FFF7CFFE08BD77
:1014100040F20A429342FAD1FFF7BEFFF7E7FFF727
:101420001DFFF4E7FFF746FFF1E700BF08B50369CA
:1014300058691B8B21B10122194608F043FA08BDF7
:101440000022F9E703691B691A68136823F0400357
:10145000136003691B691A68136843F480431360BF
:1014600003691B691A68136843F0400313607047EF
:1014700003691B691A68136823F04003136003694A
:101480001B691A68136823F48043136003691B699E
:101490001A68136843F040031360704700B54FF0BB
:1014A000000E704615E04FEA4C0C8CF0070C5FFA0A
:1014B0008CF00133DBB2072B07D84FFA80FCBCF16C
:1014C000000FF0DB4000C0B2F3E70EF1010E5FFA4F
:1014D0008EFE964504D211F80E3058400023EAE7FC
:1014E00080F055005DF804FB10B582B00446002181
:1014F0008DF80710ADF804108DF80610FFF796FF71
:10150000206901231A460DF1070100690AF0BEFDAA
:1015100008B102B010BD2046FFF7AAFF20690123E1
:10152000032201A900690BF034F80028F1D120460C
:10153000FFF788FF01212046FFF778FF022201A96B
:101540002046FFF7ABFF9DF806308342E1D19DF8BE
:1015500004209DF8053043EA0223238007EE903AE9
:10156000F8EEE77A9FED067A67EE877AC4ED017AA6
:101570009FED047A67EE877AC4ED027AC9E700BF6F
:10158000A410C938E02E654290ED010A704790ED35
:10159000020A704770B584B004460023ADF80C30E1
:1015A00011228DF80C208DF80D10ADF80830194679
:1015B000FFF73CFF20690A23022203A900690AF011
:1015C00065FD30B906462046FFF752FF0023009321
:1015D0000BE001212046FFF729FF0025284604B033
:1015E00070BD00BF009B01330093009B1B2BF8D9FB
:1015F00020690A23022202A900690AF0CAFF0546EF
:1016000010B9002301930CE001212046FFF70EFFE3
:101610002046FFF717FF3546E0E700BF019B013387
:101620000193019B1B2BF8D92046FFF70BFF0121EB
:101630002046FFF7FBFE012202A92046FFF72EFFFE
:101640009DF809308342C9D19DF80850C6E770B5AE
:1016500086B004461546304B05930026ADF8106061
:101660008DF8126033238DF810308DF811108DF83D
:1016700012208DF80F603146FFF7D8FE20690A234B
:10168000042205A900690AF001FD01212046FFF7A7
:10169000CDFE31462046FFF7C9FE009603E000BFAD
:1016A000009B01330093009B1B2BF8D920690A2370
:1016B000032204A900690AF0E9FC0023019303E076
:1016C00000BF019B01330193019B1B2BF8D92046DE
:1016D000FFF7CEFE20690A2301220DF10F010069F8
:1016E0000AF057FF01212046FFF7A0FE00230293D6
:1016F00003E000BF029B01330293029B1B2BF8D92E
:101700002046FFF79FFE9DF80F00A84214BF00205F
:10171000012006B070BD00BF2024010138B5044689
:101720000D46A1B90221FFF735FF60F07F02D2B26A
:1017300002212046FFF78BFF02212046FFF72AFFF8
:1017400010F0800F01D1284638BD0125FBE70221AA
:10175000FFF720FF00F07F0202212046FFF777FF0E
:1017600002212046FFF716FF10F0800FEBD0002576
:10177000E9E730B583B004460F4B1B68ADF8043081
:101780001B0C8DF80630FFF773FE00212046FFF793
:101790004DFE20690A23032201A900690AF076FCA4
:1017A000054601212046FFF741FE4FF4FA700FF085
:1017B00085FB284603B030BD0066010838B50446F5
:1017C0000173FFF7ABFF054688220D212046FFF786
:1017D0003EFF2046FFF7CDFF284638BD2DE9F041FA
:1017E00080460F4616461D46002406E0395D4046F9
:1017F000FFF7D0FE30550134E4B2AC42F6D3BDE879
:10180000F0812DE9F8430646884617461D469DF8A7
:101810002090002407E03A5D18F804103046FFF7E6
:1018200016FF0134E4B2AC42F5D3B9F1000F01D197
:10183000BDE8F8833046FFF79CFFF9E708B5722151
:10184000FFF7A8FEC0F3011008BD2DE9F0410546E1
:101850000F461621FFF79EFE804640F00802D2B2E6
:1018600016212846FFF7F3FE05200FF027FB48F06E
:101870001802D2B216212846FFF7E9FE0FF010FA3F
:1018800006460A200FF01AFB2846FFF7D7FF04464A
:1018900002281CD00FF004FA801B134B07FB03F344
:1018A000124AA2FB0323B0EB931F10D8012CE8D0FF
:1018B00028F0100242F0080202F0EF02162128463A
:1018C000FFF7C5FE2846FFF754FF01200AE028F085
:1018D000100242F0080202F0EF0216212846FFF73C
:1018E000B6FE0020BDE8F08140420F00D34D6210EB
:1018F000704710B504460221FFF74CFE40F040024D
:10190000D2B202212046FFF7A2FE32200FF0D6FA13
:1019100002212046FFF73EFE10F0400F01D00120CB
:1019200010BD0020FCE700BFB5EEC00AF1EE10FAD2
:1019300009D4F7EE007AB4EEE70AF1EE10FA04DD0E
:10194000B0EE670A01E09FED030A80ED000A002374
:101950004360704700000000D0ED017A90ED007AFE
:1019600030EE670A27EE007A37EE870A80ED010A2B
:101970007047D0ED017A30EE670A20EE200A37EE8C
:10198000800A80ED010A704700234360704700BF62
:1019900000B587B000230093019302220292012236
:1019A0000392049305936946104807F0A5FCB0B96B
:1019B0004FF080430093002301930293022203928D
:1019C00004936FF0604305936946084807F094FC60
:1019D00040B9064807F0C3FC07B05DF804FB04F00B
:1019E00001FAE5E704F0FEF9F3E700BF6027002005
:1019F00008B5FFF7CDFF08BD70B58AB006460D46A5
:101A00001C462422002101A812F0FDF9019694B190
:101A10004FF080430293082304930024092C0CDC2C
:101A20002A4601A9074807F0B0FC48B101200FF091
:101A300045FA0134F2E70023ECE700200AB070BD5C
:101A40000120FBE76027002010B58AB00446402142
:101A50001A4807F069FD30B1231D6A464021174836
:101A600007F0BCFC38B14121144807F05DFD78B99E
:101A700000200AB010BD009B2360039B2373019BD1
:101A8000B3F1804F14BF0023012363730120F0E7FB
:101A9000231D6A464121094807F0A0FC08B1002037
:101AA000E7E7009B2360039B2373019BB3F1804F07
:101AB00014BF0023012363730120DAE760270020AD
:101AC00008B5144B9B78F3B103681B6813F0100F33
:101AD00019D1114B1A88114BA3FB0213DB0903EB3D
:101AE0008303A2EB431292B2012A0DD00A490B885C
:101AF0000B4AA2FB0302520B42F2107000FB12339E
:101B00009BB201330B8008BD04220649064806F04B
:101B1000FDFEEBE744020020E80B0020CDCCCCCC4E
:101B20005917B7D1EC0B0020E41F002008B50A4B71
:101B30009B7803B908BD0848FEF709FE07498B8C5E
:101B4000074AA2FB0302520B42F2107000FB123351
:101B50009BB201338B84EDE744020020E80B0020A8
:101B60005917B7D110B504460268D2ED0B7AF8EEDA
:101B7000677AB6EE007A67EE877AFCEEE77A17EEC0
:101B8000903A9BB253630AF0AFFF002120460BF05E
:101B9000EFFB034BC4F88430024BC4F8A03010BDF7
:101BA000C11A00082D1B0008022B26D19DF8003019
:101BB0005B2B24D040F2F2339A4209D041F26F43BA
:101BC0009A420CD040F255139A420FD00020704731
:101BD0000DA3D3E90023C1E90023012070470CA322
:101BE000D3E90023C1E90023012070470AA3D3E908
:101BF0000023C1E900230120704700207047002026
:101C0000704700BFAFF30080F33AEC386248A7D8C2
:101C10002589351200000000F1C6A7C1D068080F61
:101C200070B5C0B005460C464FF48072002168467E
:101C300012F0E9F8A28AA168684612F09EF92046DF
:101C4000FFF7D4FB2146284602F02AFC40B070BDC5
:101C5000037B082B2AD830B58BB0054624220021FF
:101C600001A812F0D0F82B68002B06DBC3F30A039F
:101C700001932B7B049300240AE023F0604301933B
:101C80004FF080430293F4E701200FF017F901347D
:101C9000092C08DC2A1D01A9054807F076FB00285D
:101CA000F2D1012000E000200BB030BD00207047D1
:101CB0006027002010B58CB004464121174807F07A
:101CC00033FC30B94021154807F02EFC08B3402101
:101CD00000E041216B4602AA104807F07FFBD0B913
:101CE000039BB3F1804F0DD0029BC3F30A03236023
:101CF000059A2273D2B26946201D12F03EF90120E6
:101D00000CB010BD029B23F0604343F000432360FE
:101D1000EEE70020F4E70020F2E700BF6027002094
:101D200010B588B004A80024049444608460C460A2
:101D3000124B049306238DF81C3011238DF81430B8
:101D400022238DF8153033238DF8163044238DF877
:101D5000173055238DF8183066238DF81930FFF7AA
:101D600077FF05200FF0AAF86846009401940294CA
:101D70000394FFF79FFF08B010BD00BF2103008050
:101D800010B582B0FFF734FE084C00230193084BD6
:101D90000093084B4FF480520749204602F0B7F9F0
:101DA0005B21204602F0CEF902B010BD100C0020DD
:101DB000A91B0008211C0008480C002008B502E0FF
:101DC000064802F01FFA054802F018FA034620B14F
:101DD0001846FFF73DFF0128F2D008BD100C002087
:101DE00000B585B007E0FEF723FE02460B466946C4
:101DF000054802F0A9FB6846FFF75CFF0128F2D016
:101E000005B05DF804FB00BF100C002038B504E0FD
:101E1000124802F0F7F9FFF7E3FF104802F0EEF97D
:101E2000034620B11846FFF713FF0128F0D0FFF753
:101E3000D7FFFEF709FE0446084BDB6AC31AB3F569
:101E40007A7F00D838BD054D4FF47A7200FB02F25C
:101E50000023284602F0DEF9EC62F3E7100C0020C4
:101E600038B5FFF7ABFFFFF7BBFFFEF7EDFD094B02
:101E70001B6BC31AB3F57A7F00D838BD0446054DF5
:101E80004FF47A7200FB02F20023284602F0C2F9F6
:101E90002C63F2E7100C002030B58DB0164B0AAC65
:101EA00093E8030084E8030028220021684611F02B
:101EB000AAFF02238DF800300DA3D3E90023CDE95A
:101EC000022341F26F43ADF810300C4800F13403A7
:101ED000059307940823ADF82030694602F03CF9D9
:101EE00008B90DB030BDFFF7BBFFFAE7AFF30080D4
:101EF000258935120000000004660108100C00203E
:101F00000146002301E00133DBB2074A92F82020AA
:101F10009A4206D9044A52F8230042698A42F2D111
:101F200000E00020704700BF481C002078B102226A
:101F3000027042704FF48062428082804FF480725F
:101F4000C280028164224281828101207047002088
:101F5000704738B50446B0F8780003F091FDA061F1
:101F60002062B4F87830A3830025A577A584B4F85F
:101F70007A0003F085FDA0622063B4F87A30A3856F
:101F800084F82E50A586A36913B118B1012038BD7D
:101F90000020FCE70020FAE710B5044600220C21DF
:101FA000B0F8800005F067FBA06300220C21B4F8B4
:101FB000820005F060FBE063A36B13B118B1012050
:101FC00010BD0020FCE70020FAE710B5044603220C
:101FD0000021012005F04FFB206403220021012095
:101FE00005F049FB03466064206C68B173B10023BF
:101FF0001A46194605F063FB00231A461946606C21
:1020000005F05DFB012010BD0020FCE70020FAE791
:10201000F0B583B0044600F150050346164A13217B
:10202000284605F0C1F904F14803019318270097E9
:1020300023464FF48072294610480EF00AFD00F046
:10204000010504F1630623460D4A1321304605F0CD
:10205000ABF904F14C030193009723464FF48072CF
:10206000314608480EF0F5FC054202D0012003B0CD
:10207000F0BD0020FBE700BF10660108F128000852
:10208000186601081F29000838B505460C49406943
:102090000CF033FB04460B4A012168690CF0B6FAD8
:1020A0000443E4B2084A042168690CF0AFFA04431F
:1020B00014F0FF0F01D1012038BD0020FCE700BF64
:1020C00047240008A3240008ED240008F8B50446BE
:1020D0000D46B0F8920000F025FF06460F46B4F812
:1020E0007A0000F01FFF10A3D3E9002300F084FF63
:1020F00002460B463046394601F00EFA70B94DB132
:10210000E06B05F063FEB4F88230181A012807D995
:102110000020F8BDE06B05F046FEF4E70120F8E78B
:102120000120F6E7AFF300809A9999999999E93FD0
:10213000002904DDD0F888300B44C0F88830002A2C
:1021400004DDD0F88C301344C0F88C30B0F89030F7
:102150000B44A0F89030B0F892301344A0F89230BD
:10216000704710B5044690F87630012B03D0022B4F
:1021700019D0002010BDB0F87C20016A40690DF034
:102180002FFB022817D16369002283F88420B4F85A
:102190007C20216A60690DF023FBB4F884300133A0
:1021A000A4F8843007E0B0F87C20016A40690DF0A3
:1021B0003EFB022803D00028DBD10120DAE7636967
:1021C000002283F88420B4F87C20216A60690DF035
:1021D0002EFBB4F884300133A4F88430EBE72DE90A
:1021E000F0410646D9B114461D460F46BAB1B3B107
:1021F0002021384611F041FE0F280BD823784BB12F
:1022000063783BB1E3882BB123891BB163890BB1A0
:10221000A38943B9012373740020BDE8F081012331
:1022200073740020F9E7002333607360B360F360D8
:10223000C6F87630C6F87A30C6F87E30A6F8823016
:10224000C6F88430C6F88830C6F88C30C6F89030AE
:1022500010223946304611F0FDFD21686268A368FE
:10226000C6F87610C6F87A20C6F87E30A389A6F89C
:10227000823075612846FFF743FE18B1012373745D
:102280000020CAE71A4A92F8203042F8236001334E
:1022900082F820303046FFF75CFE10B901237374DA
:1022A000BBE73046FFF778FE10B901237374B4E73B
:1022B0003046FFF78AFE10B901237374ADE730464C
:1022C000FFF7A6FE10B901237374A6E73046FFF7A7
:1022D000DBFE10B9012373749FE73046FFF741FF1F
:1022E00010B10123337498E70223737495E700BF9C
:1022F000481C0020F0B585B004460D4616466846D9
:10230000FFF714FE33466A4629462046FFF767FF6B
:1023100005B0F0BD38B504460D4690F87730012B76
:1023200003D0022B17D0002038BD8A880968406985
:102330000CF0FCF9022815D16369002283F884208F
:10234000AA88296860690CF0F1F9B4F88430013387
:10235000A4F8843006E08A88096840690CF03CFAE9
:10236000022803D00028DED10120DDE763690022C6
:1023700083F88420AA88296860690CF02DFAB4F8E3
:1023800084300133A4F88430ECE729B1C0F894100C
:10239000C0F89820012070470020704730B585B004
:1023A00004460D460023039390F87630022B07D1A4
:1023B0004369B3F85C30B1EB530F34D00023A374FE
:1023C000002229B22046FFF7B3FEFEF73DFB029044
:1023D000A38C2B449BB2A384226A0092ADF80450D4
:1023E000A28BD31AB4F87C20934201DA0023A38491
:1023F000A369A28C134423622046FFF7B2FE002398
:1024000003AA6946A06B05F035FA039B4BB14FF068
:10241000E0234FF08052C3F8042DBFF34F8FBFF37A
:102420006F8F05B030BD837C002BC7D1012383742F
:10243000F7E710B514460846FFF762FD10B12146D4
:10244000FFF7ACFF10BD08B50A4601460020FFF7B4
:10245000F0FF08BD10B582B004464369B3F85420BC
:10246000524212B20021FFF763FE0023019301A93B
:10247000206C05F066FA019B4BB14FF0E0234FF062
:102480008052C3F8042DBFF34F8FBFF36F8F02B09C
:1024900010BD08B50846FFF733FD08B1FFF7DAFFB6
:1024A00008BD08B501460020FFF7F3FF08BD08B5D9
:1024B0004369D3F8902072B11B68DA6912F0040FF7
:1024C00001D004221A6243691B68DA6912F0020F14
:1024D00001D002221A62FFF744FE08BD08B5084683
:1024E000FFF70EFD08B1FFF7E2FF08BD08B5014692
:1024F0000020FFF7F3FF08BD2DE9F04784B0002965
:1025000000F09F80044617460D460B68002B00F034
:102510009A808888002800F09880267C002E00F0A1
:10252000958000F0FFFC80468946B4F87A0000F000
:10253000F9FC49A3D3E9002300F05EFD02460B46F7
:102540004046494600F0E8FF08B100267EE0002141
:102550002046FFF7BBFD08B1002677E04FF0FF31C2
:10256000606C05F0F6FA002F37D1B4F82C80B4F87F
:102570003490A8EB0907BFB2AA88BA4231D82968BB
:10258000206B11F0FAFC236B0193AB88ADF8083097
:1025900000234FF0FF3201A9E06B05F090F8A38E05
:1025A000AA8813449BB2A386A28DD31AB4F87E20C6
:1025B000934201DA0023A386A36AA28E1344236305
:1025C000B5F9042000212046FFF7B2FD00231A468A
:1025D0001946606C05F073F838E0FEF735FA0390A1
:1025E000C3E73A462968206B11F0C7FC236B0193BF
:1025F000ADF808700DF1040A00234FF0FF32514688
:10260000E06B05F05CF8AB88A9EB080903EB09085F
:102610001FFA88F8296842463944A06A11F0ADFCD7
:10262000A36A0193ADF8088000234FF0FF325146B2
:10263000E06B05F044F8A4F83480A36A43442363B4
:10264000BEE7002602E0002600E00026304604B087
:10265000BDE8F087AFF300809A9999999999E93F7D
:1026600000B585B00191ADF808200393B3FA83F269
:10267000520901A9FFF740FF05B05DF804FB2DE901
:10268000F04F85B0002A00F09F8004460D469A4620
:102690001746067C002E00F09880104600F042FCA1
:1026A00080468946B4F87A0000F03CFC4AA3D3E99E
:1026B000002300F0A1FC02460B464046494600F0CC
:1026C0002BFF08B1002680E001212046FFF7FEFC29
:1026D000804608B1002678E06A460021606C05F06B
:1026E0000BFB012875D1BAF1000F3FD0B4F82CA034
:1026F000B4F83480AAEB08091FFA89F94F4539D894
:102700003A462946206B11F038FC236B0193ADF853
:10271000087000236A4601A9E06B05F0ABF8A38EB0
:102720003B449BB2A386A28DD31AB4F87E20934279
:1027300001DA0023A386A36AA28E134423633AB26C
:1027400000212046FFF7F4FC6946606C05F0F9F8BB
:10275000009B002B39D04FF0E0234FF08052C3F89C
:10276000042DBFF34F8FBFF36F8F2EE0FEF76CF990
:102770000390BBE74A462946206B11F0FEFB236B12
:102780000193ADF8089000236A4601A9E06B05F0BB
:1027900071F8A8EB0A08B8441FFA88F8424605EB1E
:1027A0000901A06A11F0E9FBA36A0193ADF8088062
:1027B00000236A4601A9E06B05F05CF8A4F83480B8
:1027C000A36A43442363BAE70026304605B0BDE858
:1027D000F08F4646F9E700BF9A9999999999E93F90
:1027E00010B599B10B469AB1047C94B190F877106A
:1027F000012906D002290CD1194640690BF0ECFFE3
:1028000007E0194640690BF091FF02E0002400E068
:102810000024204610BD0EB42DE9F04183B00646D9
:10282000C82003F02DF940B34FF0000807460AAB6B
:102830000193099AC82104F0CBFD05464446632C58
:102840000DD80023AAB239463046FFF709FF80466B
:1028500028B901200EF032FB0134E4B2EFE7B8F101
:10286000000F01D14FF0FF35384603F08BF92846B1
:1028700003B0BDE8F04103B070474FF0FF35F6E715
:102880000EB470B583B00546C82003F0F9F8C8B19E
:10289000064608AB0193079AC82104F099FD044647
:1028A000002382B231462846FFF7E9FE08B94FF00F
:1028B000FF34304603F066F9204603B0BDE87040AF
:1028C00003B070474FF0FF34F6E700B585B004461B
:1028D0004FF0FF3201A9A06B05F08CF8D4F89430CA
:1028E000002BF5D0D4F89820214601A89847EFE7AF
:1028F00008B5FFF7EAFF00B585B0044601AD4FF01B
:10290000FF322946E06B05F075F84FF0FF31206C7F
:1029100005F01FF929462046FFF7FCFCEEE708B555
:10292000FFF7E9FF704700BF38B50546002400E017
:102930000134092C14DC1C4B4C2202FB043393F8A9
:102940004930002BF4D02946174B02FB043000F02D
:102950002FF90028ECD114484C2303FB040021E09C
:102960000023092B1DDC104A4C2101FB032292F8A5
:1029700049200AB10133F4E70B4C01FB03440F2259
:102980002946204611F066FA012004F068FFE06154
:10299000012384F849300023A36184F8483020469D
:1029A00000E0002038BD00BF6C1C002010B5064CB4
:1029B0004FF43E720021204611F025FA012004F068
:1029C0004EFFC4F8F80210BD6C1C002038B5044658
:1029D0000D464FF0FF31154BD3F8F80205F0B9F86A
:1029E0002046FFF7A1FFB0B1044603699BB9284612
:1029F00003F046F8206165610C48241AA4100C4BC2
:102A000003FB04F400231A461946D0F8F80204F038
:102A100056FE204638BD00231A4619460348D0F812
:102A2000F80204F04CFE4FF0FF34F2E76C1C00207B
:102A30001BCA6B28092820D838B50D460F4B4C22ED
:102A400002FB003393F8493003B938BD0B4C02FB4D
:102A500000444FF0FF31E06905F07BF862692946D8
:102A6000206911F08AFAA3690133A36100231A4691
:102A70001946E06904F023FEE7E770476C1C00206C
:102A800070B504464FF0FF311B4BD3F8F80205F048
:102A900060F82046FFF748FF18B3044690F8485006
:102AA000042D1ED80EF0ACFB043544F8350094F824
:102AB0004850A2692B1D04EBC3035A606B1C84F8B9
:102AC00048300D4E00231A461946D6F8F80204F095
:102AD000F6FDA01B8010094B03FB00F040EA054007
:102AE00070BD00231A4619460348D0F8F80204F0D6
:102AF000E6FD4FF0FF30F3E76C1C00201BCA6B288B
:102B000083B2000C092B16D80D4A4C2101FB03227D
:102B100092F84820824210DD094A043001FB03F399
:102B200003EBC000104440681A44936998422CBFDC
:102B3000002001207047002070470020704700BF30
:102B40006C1C00202DE9F0410E4685B2040C02E019
:102B500001200EF0B3F9154A231D4C2105FB01F1AC
:102B600001EBC303134458680A4493699842EFD0B9
:102B7000DFF838800D4617464FF0FF31D06904F07A
:102B8000E8FF7A693969304611F0F7F9BE69002328
:102B90001A461946F86904F092FD043405EBC405A1
:102BA000A844C8F804600120BDE8F0816C1C002036
:102BB00010F8012B11F8013B012A28BF9A42F7D0E7
:102BC000D01A7047034613F8012B002AFBD1181ABC
:102BD0000138704700000000000000000000000005
:102BE00001F0FF01102A2BDB10F0070F08D010F8BE
:102BF000013B013A8B422DD010F0070F42B3F6D1C2
:102C0000F0B441EA012141EA014122F007047FF0DA
:102C100000070023F0E80256083C85EA010586EA31
:102C2000010685FA47F5A3FA87F586FA47F6A5FA6D
:102C300087F68EB9EED1F0BC01F0FF0102F0070279
:102C400032B110F8013B013A83EA010313B1F8D124
:102C50000020704701387047002D06BF3546033805
:102C6000073815F0010F07D1013015F4807F02BF3E
:102C7000013015F4C03F0130F0BC0138704700BF8F
:102C800081F0004102E000BF83F0004330B54FEA1D
:102C900041044FEA430594EA050F08BF90EA020F8A
:102CA0001FBF54EA000C55EA020C7FEA645C7FEA1D
:102CB000655C00F0E2804FEA5454D4EB5555B8BF40
:102CC0006D420CDD2C4480EA020281EA030382EAB1
:102CD000000083EA010180EA020281EA0303362D43
:102CE00088BF30BD11F0004F4FEA01314FF4801C16
:102CF0004CEA113102D0404261EB410113F0004F28
:102D00004FEA03334CEA133302D0524263EB4303DE
:102D100094EA050F00F0A780A4F10104D5F1200E7C
:102D20000DDB02FA0EFC22FA05F2801841F10001D7
:102D300003FA0EF2801843FA05F359410EE0A5F1AB
:102D400020050EF1200E012A03FA0EFC28BF4CF0DC
:102D5000020C43FA05F3C01851EBE37101F0004592
:102D600007D54FF0000EDCF1000C7EEB00006EEB9F
:102D70000101B1F5801F1BD3B1F5001F0CD3490829
:102D80005FEA30004FEA3C0C04F101044FEA445280
:102D900012F5800F80F09A80BCF1004F08BF5FEA07
:102DA000500C50F1000041EB045141EA050130BDE7
:102DB0005FEA4C0C404141EB0101013C28BFB1F5F9
:102DC000801FE9D291F0000F04BF01460020B1FA44
:102DD00081F308BF2033A3F10B03B3F120020CDA17
:102DE0000C3208DD02F1140CC2F10C0201FA0CF0F5
:102DF00021FA02F10CE002F11402D8BFC2F1200C5A
:102E000001FA02F120FA0CFCDCBF41EA0C0190400F
:102E1000E41AA2BF01EB0451294330BD6FEA040458
:102E20001F3C1CDA0C340EDC04F11404C4F1200243
:102E300020FA04F001FA02F340EA030021FA04F355
:102E400045EA030130BDC4F10C04C4F1200220FAAC
:102E500002F001FA04F340EA0300294630BD21FAEA
:102E600004F0294630BD94F0000F83F4801306BFB0
:102E700081F480110134013D4EE77FEA645C18BFA4
:102E80007FEA655C29D094EA050F08BF90EA020F3B
:102E900005D054EA000C04BF1946104630BD91EA33
:102EA000030F1EBF0021002030BD5FEA545C05D136
:102EB0004000494128BF41F0004130BD14F5800475
:102EC0003CBF01F5801130BD01F0004545F0FE41E9
:102ED00041F470014FF0000030BD7FEA645C1ABF1E
:102EE000194610467FEA655C1CBF0B46024650EA55
:102EF000013406BF52EA033591EA030F41F4002181
:102F000030BD00BF90F0000F04BF0021704730B506
:102F10004FF4806404F132044FF000054FF00001DB
:102F200050E700BF90F0000F04BF0021704730B59C
:102F30004FF4806404F1320410F0004548BF404271
:102F40004FF000013EE700BF42004FEAE2014FEAC6
:102F500031014FEA02701FBF12F07F4393F07F4FA1
:102F600081F06051704732F07F4208BF704793F0A4
:102F70007F4F04BF41F40021704730B54FF46074B7
:102F800001F0004521F000411CE700BF50EA0102BA
:102F900008BF704730B54FF000050AE050EA010263
:102FA00008BF704730B511F0004502D5404261EBD3
:102FB00041014FF4806404F132045FEA915C3FF414
:102FC000D8AE4FF003025FEADC0C18BF03325FEAB1
:102FD000DC0C18BF033202EBDC02C2F1200300FA62
:102FE00003FC20FA02F001FA03FE40EA0E0021FA87
:102FF00002F11444BDE600BF70B54FF0FF0C4CF475
:10300000E06C1CEA11541DBF1CEA135594EA0C0F26
:1030100095EA0C0F00F0DEF82C4481EA030621EA61
:103020004C5123EA4C5350EA013518BF52EA03359C
:1030300041F4801143F4801338D0A0FB02CE4FF04E
:103040000005E1FB02E506F00042E0FB03E54FF07E
:103050000006E1FB03569CF0000F18BF4EF0010E76
:10306000A4F1FF04B6F5007F64F5407404D25FEA72
:103070004E0E6D4146EB060642EAC62141EA555125
:103080004FEAC52040EA5E504FEACE2EB4F1FD0C67
:1030900088BFBCF5E06F1ED8BEF1004F08BF5FEAE5
:1030A000500E50F1000041EB045170BD06F0004697
:1030B00046EA010140EA020081EA0301B4EB5C0444
:1030C000C2BFD4EB0C0541EA045170BD41F480113C
:1030D0004FF0000E013C00F3AB8014F1360FDEBF61
:1030E000002001F0004170BDC4F10004203C35DA3D
:1030F0000C341BDC04F11404C4F1200500FA05F3C0
:1031000020FA04F001FA05F240EA020001F0004260
:1031100021F0004110EBD37021FA04F642EB0601D6
:103120005EEA430E08BF20EAD37070BDC4F10C0400
:10313000C4F1200500FA04F320FA05F001FA04F2C4
:1031400040EA020001F0004110EBD37041F10001B0
:103150005EEA430E08BF20EAD37070BDC4F12005BB
:1031600000FA05F24EEA020E20FA04F301FA05F223
:1031700043EA020321FA04F001F0004121FA04F2CB
:1031800020EA020000EBD3705EEA430E08BF20EA9B
:10319000D37070BD94F0000F0FD101F000464000D5
:1031A00041EB010111F4801F08BF013CF7D041EA57
:1031B000060195F0000F18BF704703F0004652005B
:1031C00043EB030313F4801F08BF013DF7D043EA2C
:1031D0000603704794EA0C0F0CEA135518BF95EAE2
:1031E0000C0F0CD050EA410618BF52EA4306D1D169
:1031F00081EA030101F000414FF0000070BD50EA88
:10320000410606BF1046194652EA430619D094EA11
:103210000C0F02D150EA013613D195EA0C0F05D1FB
:1032200052EA03361CBF104619460AD181EA03014F
:1032300001F0004141F0FE4141F470014FF0000007
:1032400070BD41F0FE4141F4780170BD70B54FF0A2
:10325000FF0C4CF4E06C1CEA11541DBF1CEA135522
:1032600094EA0C0F95EA0C0F00F0A7F8A4EB050404
:1032700081EA030E52EA03354FEA013100F08880FB
:103280004FEA03334FF0805545EA131343EA1263C4
:103290004FEA022245EA111545EA10654FEA002679
:1032A0000EF000419D4208BF964244F1FD0404F532
:1032B000407402D25B084FEA3202B61A65EB03058E
:1032C0005B084FEA32024FF480104FF4002CB6EB4B
:1032D000020E75EB030E22BFB61A754640EA0C00CB
:1032E0005B084FEA3202B6EB020E75EB030E22BF0B
:1032F000B61A754640EA5C005B084FEA3202B6EB4C
:10330000020E75EB030E22BFB61A754640EA9C000A
:103310005B084FEA3202B6EB020E75EB030E22BFDA
:10332000B61A754640EADC0055EA060E18D04FEA98
:10333000051545EA16754FEA06164FEAC30343EA38
:1033400052734FEAC2025FEA1C1CC0D111F4801F05
:103350000BD141EA00014FF000004FF0004CB6E7FE
:1033600011F4801F04BF01430020B4F1FD0C88BF9D
:10337000BCF5E06F3FF6AFAEB5EB030C04BFB6EBA8
:10338000020C5FEA500C50F1000041EB045170BD9B
:103390000EF0004E4EEA113114EB5C04C2BFD4EBC8
:1033A0000C0541EA045170BD41F480114FF0000E4C
:1033B000013C90E645EA060E8DE60CEA135594EAC8
:1033C0000C0F08BF95EA0C0F3FF43BAF94EA0C0FCB
:1033D0000AD150EA01347FF434AF95EA0C0F7FF440
:1033E00025AF104619462CE795EA0C0F06D152EA94
:1033F00003353FF4FDAE1046194622E750EA410678
:1034000018BF52EA43067FF4C5AE50EA41047FF488
:103410000DAF52EA43057FF4EBAE12E74FF0FF3CED
:1034200006E000BF4FF0010C02E000BF4FF0010CBE
:103430004DF804CD4FEA410C7FEA6C5C4FEA430C37
:1034400018BF7FEA6C5C1BD001B050EA410C0CBF86
:1034500052EA430C91EA030F02BF90EA020F0020E8
:10346000704710F1000F91EA030F58BF994208BF4F
:1034700090422CBFD8176FEAE37040F0010070470C
:103480004FEA410C7FEA6C5C02D150EA013C07D163
:103490004FEA430C7FEA6C5CD6D152EA033CD3D0AE
:1034A0005DF8040B704700BF8446104662468C46A8
:1034B0001946634600E000BF01B5FFF7B7FF0028DB
:1034C00048BF10F1000F01BD4DF808EDFFF7F4FF04
:1034D0000CBF012000205DF808FB00BF4DF808ED8F
:1034E000FFF7EAFF34BF012000205DF808FB00BFB2
:1034F0004DF808EDFFF7E0FF94BF012000205DF8D4
:1035000008FB00BF4DF808EDFFF7CEFF94BF012088
:1035100000205DF808FB00BF4DF808EDFFF7C4FF81
:1035200034BF012000205DF808FB00BF4FEA410CCA
:103530007FEA6C5C02D150EA013C0AD14FEA430CAD
:103540007FEA6C5C02D152EA033C02D14FF00000EA
:1035500070474FF0010070474FEA410212F5001228
:1035600015D211D56FF47873B3EB625212D94FEACA
:10357000C12343F0004343EA505311F0004F23FAB4
:1035800002F018BF404270474FF00000704750EA09
:10359000013005D111F0004008BF6FF000407047C6
:1035A0004FF00000704700BF4A0011D212F5001220
:1035B00011D20DD56FF47873B3EB62520ED44FEA8B
:1035C000C12343F0004343EA505323FA02F070470B
:1035D0004FF00000704750EA013002D14FF0FF3049
:1035E00070474FF0000070474FEA4102B2F1E043EC
:1035F00024BFB3F5001CDCF1FE5C0DD901F0004CDA
:103600004FEAC0024CEA5070B2F1004F40EB830029
:1036100008BF20F00100704711F0804F21D113F155
:103620003872BCBF01F00040704741F480114FEA8E
:103630005252C2F11802C2F1200C10FA0CF320FA17
:1036400002F018BF40F001004FEAC1234FEAD32334
:1036500003FA0CFC40EA0C0023FA02F34FEA43039E
:10366000CCE77FEA625307D150EA01331EBF4FF027
:10367000FE4040F44000704701F0004040F0FE4042
:1036800040F40000704700BF53B94AB9002908BF91
:1036900000281CBF4FF0FF314FF0FF3000F00CB896
:1036A000ADF1080C6DE904CE12F08AFCDDF804E0FF
:1036B000DDE9022304B07047704700BF0348044BA4
:1036C000834202D0034B03B118477047D801002052
:1036D000D8010020000000000548064B1B1AD90F36
:1036E00001EBA301491002D0034B03B11847704707
:1036F000D8010020D80100200000000010B5064CC1
:10370000237843B9FFF7DAFF044B13B10448AFF352
:1037100000800123237010BD681F002000000000FE
:10372000B862010808B5054B1BB105490548AFF360
:103730000080BDE80840FFF7CFBF00BF00000000D9
:103740006C1F0020B862010800B589B0202200215A
:10375000684610F058FB2F482F4B03604FF440335E
:10376000436000238360C36003610122426104223D
:10377000826103774377026280F82430C362036377
:1037800080F83830C36380F8403004F06DFC0028C6
:1037900030D1224B009306230193022302937F230F
:1037A000039304230493002305936946194804F006
:1037B000D1FD10BB1A4B00930C23019300230293FD
:1037C0006946144804F0C6FDD0B9164B0093122385
:1037D000019369460F4804F0BDFDA0B9124B009358
:1037E0001823019369460B4804F0B4FD70B909B081
:1037F0005DF804FB02F0F6FACBE702F0F3FAD9E742
:1038000002F0F0FAE1E702F0EDFAE7E702F0EAFA97
:10381000EDE700BFE41F00200001005000209036BB
:103820000800900C2000F01400106032F0B59FB03A
:103830000446002119911A911B911C911D9154224B
:1038400004A810F0E0FA2268374B9A4201D01FB06A
:10385000F0BD4FF4004304934FF00053159304A8B8
:1038600008F096F8002859D1304BDA6C42F4005237
:10387000DA64DA6C02F400520092009ADA6C42F0D8
:103880000102DA64DA6C02F001020192019ADA6C48
:1038900042F00402DA64DA6C02F004020292029A44
:1038A000DA6C42F00202DA64DB6C03F00203039389
:1038B000039B6023199303271A9700251B9519AEC4
:1038C00031464FF0904005F00DFF102319931A97E1
:1038D0001B953146164805F005FF042319931A97E6
:1038E0001B953146134805F0FDFE1348134B03604A
:1038F000242343608560C560802303614FF4807397
:1039000043614FF4806383612023C361056205F046
:10391000EBF930B9084B63659C6298E702F062FAF4
:10392000A2E702F05FFAF5E7000100500010024044
:103930000008004800040048841F00208000024066
:1039400008B5FDF771FB08BD08467047084670478B
:103950000846704708467047401A83B2002800DBCB
:103960007047203318B2FBE703780133DBB20370F2
:103970001F2B01D90023037070470E2809D8DFE8F8
:1039800000F01515151515151515150A0C0E101244
:103990001400402070470C207047102070471420FE
:1039A0007047182070472020704730207047082843
:1039B00018D90C280BD910280BD914280BD9182882
:1039C0000BD920280BD930280BD90F20704709209C
:1039D00070470A2070470B2070470C2070470D205D
:1039E00070470E207047034621F0604C20F0604283
:1039F000C00F91EA030F0AD4C1F38071C3F3807042
:103A0000944514D094452CBF002001207047002914
:103A100008DB002B09DB9445F8D094452CBF00202F
:103A2000012070474FEA9C4CF3E7920CF3E7814288
:103A3000ECD1E7E72DE9F04107460D46D0F82480A8
:103A4000B8F1000F0CD046464446A4B169686068DE
:103A5000FFF7C9FF30B9236826465BB11C46F4E77F
:103A6000796208E0A04502D035602C6003E02C604C
:103A70007D6200E02560BDE8F081C37DC3F3840270
:103A8000013262F38603C375C38A6FF30903C382ED
:103A9000C37D23F08003C375704738B504460D46D7
:103AA000006A04E0016804F10C00FFF751FF10B157
:103AB0000369AB42F6D138BD2DE9F043079ECD082E
:103AC00003EBD60401F0070E06F0070372442AE068
:103AD0000EF0070803F00706C446B04538BFB446E9
:103AE000CCF1080CA2EB0E018C4528BF8C464FF49C
:103AF0007F4121FA0CF1C9B241FA06F74FEADE0123
:103B000000EB050919F8011001FA08F1F140C9B2FA
:103B10004FEAD30814F80860714039404E4004F869
:103B20000860E64463449645D2D1BDE8F0832DE9B0
:103B3000F04F87B00393838AB1EBC30F80F0878087
:103B400082460E461546DA0069188A4203D2D3B27D
:103B5000F2B29B1ADDB2DAF80C3043B3272E36D816
:103B6000C6F128039D4230D35FFA86FBCBF1280BC8
:103B70005FFA8BFB00230093039B5A463146DAF829
:103B80000800FFF799FF5E44A5EB0B04E4B2BAF816
:103B9000147007F10057053FFF00DAF80C90282158
:103BA0004B46B946CDF810A005951F4626E0DAF839
:103BB0001030002BD2D100230093039B2A463146BC
:103BC000DAF80800FFF778FF35E0AB46D2E72C467D
:103BD0004FF0000BDBE72546CDF800B0039B2A46EB
:103BE000711A381DFFF768FF2E44AB445FFA8BFB58
:103BF000651BECB2A9EB0A093F684146A7B19CB12D
:103C0000CA46B9F1E00F28BF4FF0E00A0AEB0108FD
:103C10004645EFD2A8EB06039C42DCD35FFA88F559
:103C2000F3B2ED1AEDB2D7E7DDF810A0059DDAF892
:103C3000100000B11CB928B207B0BDE8F08FCDF874
:103C400000B0039B2246711AFFF736FFF3E700200E
:103C5000F2E7002070470139002307E0C25C10F84A
:103C600001C000F803C04254013301398B42F5D33F
:103C7000704780EA0120002307E0400080B280F412
:103C8000815080F001000133DBB2072B05D810F41E
:103C9000004FF2D1400080B2F5E7704770B516468C
:103CA0001D46002411E0C4F12003A4F1200C26FAE3
:103CB00004F105FA03F3194325FA0CFC41EA0C015F
:103CC000C9B2FFF7D6FF0834A4B23F2CEBD970BDC0
:103CD00038B50C4604E014F8011BFFF7CAFF2A466A
:103CE000551E002AF7D138BD38B5058C072D0BD9E4
:103CF0000446D0E902234FF6FF70FFF7CFFF2A46B4
:103D0000E169FFF7E5FF38BD4FF6FF70FBE710B440
:103D1000016100F1040C002305E001EB4314CCF831
:103D20000040A44601339A42F7D80023CCF8003073
:103D300002814381838103605DF8044B7047034631
:103D4000406848B102685A605A89013292B25A8179
:103D500099898A4200D99A81704708B5FFF7EFFF29
:103D600008B10023036008BD2DE9F84F824689465B
:103D700017461D46CB8AC3F30903052B32D01846DC
:103D80000024042B0AD8A54208D9395D09EB0302A7
:103D9000D17601339BB20134A4B2F2E7A54218D91F
:103DA000B9F816B0CBF3090BABF1050293083D4906
:103DB000A1FB0313C3EBC303A2EB83021FFA82F838
:103DC000D9F8041081B15046FFF7BEFD0646012325
:103DD0001CE02844B9F8163060F30903A9F816303E
:103DE000012054E00024DBE75046FFF7B6FF06460B
:103DF00001465046FFF7AAFDC9F80400002E48D03E
:103E00004FF000082CE001339BB216463268002ABE
:103E1000F9D105EB0B02053A92082249A1FB0212E7
:103E200092B2013292B293421AD2B8F1000F17D176
:103E30005046FFF792FF306070B3064610E03A5DDF
:103E400006EB0C031A710CF1010C1FFA8CFC013407
:103E5000A4B2BCF11B0F01D8A542F0D8A54203D8EB
:103E6000A5420AD9C446F4E75046FFF776FF306012
:103E7000A8B106464FF00008F2E7B9F81630C3F3D0
:103E80000902154465F30903A9F816300120BDE8BD
:103E9000F88F6FF00200FAE76FF00200F7E76FF0BB
:103EA0000200F4E72549922443680B60416043898E
:103EB000013B43817047F8B506460D460EE006F11A
:103EC0000C042046FFF740FD014607682046FFF737
:103ED000EBFF39462046FFF739FD68606968002925
:103EE000EDD1EB8A6FF30903EB8200200021F8BDCE
:103EF00008B5FFF724FF034628B1002202604260A4
:103F00008260C2600261184608BD00002DE9F04FD2
:103F100083B001921D465B69002B00F099808146B9
:103F20008B462B8C1BB1EA69002A00F09480072B8A
:103F300018D902339BB206334D4A82FB0312134455
:103F4000C3F38F03B9F81420B9F81610521A92B2BD
:103F5000934200F286804FF0800A4FF000084446FA
:103F6000474654E009F10C00FFF7C2FF0446002861
:103F700074D02A8CE96908300FF0FFFF288C0130DB
:103F800080B2FFF714FDFFF7F8FC431E9BB22B84B1
:103F9000013323746B691B7803F01F032A8C43F0F1
:103FA000C003224413724BF000436360214648462D
:103FB000FFF740FD0127384603B0BDE8F08F002031
:103FC00035E02B8CA34240D0013080B2FFF7EFFCEC
:103FD000FFF7D3FC431E9BB24FEA4812D2B242EA2B
:103FE0000A026969097801F01F010A43F1180A728F
:103FF0004BF0004272600133337431464846FFF79C
:1040000019FD01373FB288F001084FF0000A2B8CF0
:10401000A342D0D009F10C00FFF76AFF064618B39F
:10402000002CCCD1019B03721B0A4372022006288C
:10403000C7D82B8CA342C4D9EB691A5D33181A7206
:10404000013080B20134A4B2F1E74FF0400ABBE77F
:104050006FF00107AFE76FF00107ACE76FF0020701
:10406000A9E76FF00207A6E76FF00207A3E700BF1A
:104070009324499230B589B004460D462022002190
:1040800068460FF0C0FE04952046FFF758FE8646AE
:10409000A0B1EC46BCE80F00CEF80000CEF804104A
:1040A000CEF80820CEF80C30BCE80F00CEF8100097
:1040B000CEF81410CEF81820CEF81C30704609B097
:1040C00030BD70B5044600F10C063046FFF7D2FF54
:1040D000054628B1216A3046FFF73CFC286025627E
:1040E000284670BD38B504460D46036A1BB1FFF77C
:1040F000D4FC38B138BD0C30FFF7BCFF0028F9D034
:104100002062F7E729462046FFF7DBFFF2E7F8B524
:1041100004460E4615461F462C2200210FF073FE62
:10412000A760069B6360079BA3626A09B5F5001F41
:1041300001D34FF6FF7292B2314604F10C00FFF743
:10414000E6FDF8BD037823B919B111F0800F00D155
:1041500001707047007870472DE9F84305460C461A
:10416000D1F81C90B9F1000F22D094F81880B8F162
:104170001F0F3AD82846FFF7EDFF0646F0B9228C0C
:10418000072A35D8278A032F35D849464FF6FF70BE
:10419000FFF79EFD47F6FE7303405B0243EA0863A8
:1041A0003F0207F440773B431E434FF6FF720EE099
:1041B0000B8C002BD9D06FF001050FE0238A1B0276
:1041C00043EA08631E432046FFF78EFD024623465E
:1041D00031462846FFF79AFE051E02DC2846BDE858
:1041E000F8836069FFF7C0FBF8E76FF00105F5E7BA
:1041F0006FF00305F2E76FF00105EFE7406A00B1E9
:104200000430704708B5416A0B6843620C30FFF711
:104210004BFE08BD2DE9F041054616469846076A53
:104220003C4619E021462846FFF745FE05F10C07FC
:104230002B6A19683846FFF78BFB286221463846FF
:10424000FFF732FE2C6A274606E0216805F10C00D4
:10425000FFF77EFB2746044604B3A168E368711AA2
:1042600068EB03030E4A8A424FF000029A41ECD2F7
:104270002B6AA342D6D021462846FFF71CFE2368AE
:104280003B6005F10C0321461C461846FFF70CFE67
:1042900039682046FFF75CFB0446DDE7BDE8F081A6
:1042A00080841E002DE9F04182B0089E002800F0B5
:1042B000DF8014461D460746002E00F0DC80013AE0
:1042C000D2B23F2A00F2DA80012C02D1002B40F05A
:1042D000D8806B4600220092019222463846FFF7B2
:1042E00026FC071E3DDD14F0070F0CD002AB03EBDC
:1042F000D40111F8083C624202F00702134101F8B0
:10430000083C012C0BD0082C0BD9102C2DD9202CBB
:104310002ED9402C00F2B8804FF0080803E0A046E8
:1043200001E04FF00108FFF794FC20BB002D6FD097
:10433000B4EBC80F10D0082C22D89DF80020631EC3
:1043400022FA03F313F0010F06D00123A3405B42CE
:10435000DBB21A438DF80020082C61D89DF900309B
:104360003370384602B0BDE8F0814FF00208DAE75A
:104370004FF00408D7E741466846FFF76CFCD5E7E5
:10438000102C0FD8BDF80020631E22FA03F313F09F
:10439000010FE1D00123A3405B429BB21A43ADF869
:1043A0000020D9E7202C0CD8009A631E22FA03F3D0
:1043B00013F0010FD0D00123A3405B421A430092B7
:1043C000CAE73F2C63D8009D019A631EC4F1210007
:1043D000A4F1210125FA03F302FA00F0034322FAC3
:1043E00001F10B4313F0010FB6D00123A4F120011A
:1043F000C4F1200003FA01F123FA00F00143A340C5
:104400005B4261EB41011D430A4300950192A3E722
:10441000012C17D0082C19D89DF800303370A0E774
:10442000102C03D8BDF9003033809AE7202C02D835
:10443000009B336095E7402C2CD8DDE90023C6E9CA
:1044400000238EE79DF8003033708AE7102C03D8E4
:10445000BDF80030338084E7202C02D8009B336005
:104460007FE7402C19D8DDE90023C6E9002378E76F
:104470006FF0010775E76FF0010772E76FF0010752
:104480006FE76FF001076CE76FF0080769E76FF0FF
:10449000080766E76FF0080763E76FF0080760E753
:1044A00070B506460C4605E00D6806F10C00FFF7F6
:1044B000FBFCE560E1680029F6D10023E360A3601E
:1044C0002361A38270BD00000D4B03EA4033DFED92
:1044D0000D7A07EE103A67EE277A17EE903A9FEDC5
:1044E0000A7AF4EEC77AF1EE10FA01DB43F0FF43EB
:1044F000000400F00040034300EE103A704700BF94
:1045000000E0FF0F000080770000804710F0800F70
:1045100004D010F4004F03D00120704702207047F0
:104520000020704710B50446FFF7F0FF022802D0C4
:10453000C4F3074010BDC4F30F2014F07F0FF9D16E
:1045400000F00300F6E700002DE9F04F99B00646B1
:104550000D4605920693D1F800904846FFF7D6FF26
:104560000746022800F0E580C9F30628B9F1000FDC
:1045700080F2F78119F0C04F40F0F6812C7B002CBF
:1045800000F0F581022F05D03046FFF7E3FD4045EE
:1045900040F0F081C9F304630A9309F07F010491AC
:1045A0004846FFF7BFFF099040EA0749049949EAE6
:1045B000814949EA4869013C2C4494F8048000226E
:1045C0000023CDE916235FEAD813029300F0B480EC
:1045D000746800913B46024616A93046A047002861
:1045E00000F0CB8149463046FFF77CFD04460028A9
:1045F00000F0C681A368D4F80CA0059A0393D21AE0
:104600000792069860EB0A0008906A7B0B92A07EE6
:104610000C9094F81790C9F3840908F01F0B5946C1
:104620004846FFF799F90D9049465846FFF794F927
:104630006268039B53EA0A0A18D0B14B07998B4270
:104640004FF0000308998B4110D30B9B0C998B42C0
:1046500000F08880AB4B079A93424FF00003089A12
:10466000934114D2029B93B10F2810DCE37D68F3D1
:104670008603E375DBB223F08003E3752146304601
:10468000FFF719FC6B7BA376029B002B76D06A7B2D
:10469000A37E9A4240F07A81029B13B118F0400F3A
:1046A00076D1E27DC8F34013B3EBD21F40F07281A4
:1046B000C2F384039B4540F07081029B002B00F005
:1046C0009D8018F0400F40F09C802B7B032B40F224
:1046D0006781059BA360069BE360E38A6FF3090390
:1046E000E382AF1D2B7B033BDBB23A46214606F14A
:1046F0000C00FFF739FB002876DB2B796A7943EA57
:1047000002232383DDE916234FF6FF70FFF7C6FA75
:10471000A0822A7B033AD2B23946FFF7D9FAA082A7
:10472000E37DDA43C2F3C01262F3C713E3750020DE
:104730002DE14FF0000819E749463046FFF7ADF983
:10474000044600287FF456AF7468049B00933B46F0
:10475000099A16A93046A047002840F014816FF04E
:104760000B0014E1029B002B3FF474AF0D9B012B57
:104770003FF77CAF002A7FF479AF6BE7E37DC3F3AB
:104780008402013262F38603E3756FF00C00FEE0F1
:10479000059BA360069AE2600DF1380820220021F3
:1047A00040460FF030FB059B0E93069A0F922B1D8F
:1047B00010932B7B013BDBB2ADF84C30099BADF87D
:1047C0004E308DF850708DF851B00A9B8DF85230F4
:1047D000049B8DF85330B3684146304698472046D5
:1047E000FFF74BF90020D2E021463046FFF763FB8C
:1047F0002046FFF742F96FF00200C8E018F0400FC2
:1048000010D095F80C9009F1FF395FFA89F9B4F8E6
:104810001680C8F30908B8F1040F75D843464FF065
:10482000000828E02F1D2B7B013BDBB23A462146D6
:1048300006F10C00FFF798FA002808DB2A7B013A02
:10484000D2B23946A08AFFF743FAA08268E7214630
:104850003046FFF730FB2046FFF70FF96FF00200FC
:1048600095E005EB08021179E218D176013308F1E1
:1048700001085FFA88F8042B01D8C845F1D3059BDD
:104880000E93069B0F9304F11B031093616806F1CE
:104890000C00FFF759F81190C84559D2A84408F107
:1048A00004031293E38AC3F309039944ADF84C90CF
:1048B000099BADF84E308DF850708DF851B00A9BC1
:1048C0008DF85230049B8DF85330002363602A7BAF
:1048D000013A291DA08AFFF7FBF9A082238B984299
:1048E00038D00EA93046FFF7DBFD2046FFF7C5F8AC
:1048F000A28A238B9A4232D06FF0100047E000BFAB
:1049000080841E0040420F00616806F10C00FFF732
:104910001BF8024608B1052104E04FF00008AEE79D
:104920001C311A461368002BFAD1A8EB01034FF093
:1049300000081B2BA3D8C845A1D205EB08010879B4
:10494000D1180871013308F101085FFA88F8F0E71F
:104950000023A6E7B3680EA930469847C1E70020B8
:1049600015E06FF0090012E06FF009000FE06FF042
:1049700009000CE06FF00A0009E06FF00B0006E0A0
:104980006FF0020003E06FF00C0000E0002019B0AF
:10499000BDE8F08F6FF00D00F9E76FF00E00F6E75D
:1049A0006FF00F00F3E700BF08B54FF0E0231B697D
:1049B0000CF02CFC012800D108BD01F053FBFBE7F3
:1049C000EFF305832BB9064B186828B901221A604A
:1049D00070476FF0050070474FF0FF30704700BF21
:1049E00034270020EFF3058373B90A4B1B68012BB2
:1049F0000DD110B50024084BDC77064B02221A605B
:104A00000CF0FAF8204610BD6FF0050070474FF02B
:104A1000FF3070473427002000ED00E0034B0360B7
:104A2000034B0B6080231360704700BFD826002023
:104A3000D8240020034B0360034B0B604FF48073BA
:104A4000136070477C2400207C20002008B50548B6
:104A5000054B036004F023F800B908BD01F0C2F96A
:104A6000FBE700BF38270020000C024002680E4B15
:104A70009A4200D0704700B583B003F580639A6C0A
:104A800042F008029A649B6C03F008030193019BB7
:104A900000220521642004F0ADF8642004F0BAF887
:104AA00003B05DF804FB00BF000C024000B583B00A
:104AB000264B9A6C42F004029A649A6C02F004024B
:104AC0000092009A9A6C42F001029A649B6C03F087
:104AD00001030193019B002205210B2004F08AF8B9
:104AE0000B2004F097F8002205210C2004F082F836
:104AF0000C2004F08FF8002205210D2004F07AF834
:104B00000D2004F087F8002205210E2004F072F831
:104B10000E2004F07FF8002205210F2004F06AF82F
:104B20000F2004F077F800220521102004F062F82D
:104B3000102004F06FF800220521112004F05AF82B
:104B4000112004F067F803B05DF804FB0010024088
:104B500008B54368984708BD38B54B6863B104464B
:104B60000D4603680921984769682046FFF7F0FF62
:104B700002492046FFF7ECFF38BD00BF4865010839
:104B800038B504460D460849FFF7E2FF294620469E
:104B9000FFF7DEFF05492046FFF7DAFF044920460C
:104BA000FFF7D6FF38BD00BF786301088C630108AA
:104BB000486501080D280BD808280DD308380528AA
:104BC00004D8DFE800F00B0B0B03030B0020704749
:104BD0007F2805D1012070470020704701207047D1
:104BE000002070472038C0B25E288CBF0020012012
:104BF0007047C3888288934202D39B1A98B2704749
:104C00000089801A13FA80F080B2704702468388C8
:104C1000C1888B420AD00168C85C01339BB21189FC
:104C2000B3FBF1FC01FB1C339380704700207047FD
:104C300000B5B0F806C00CF101039BB20289B3FBCA
:104C4000F2FE02FB1E339BB282889A4206D00268B3
:104C500002F80C10C38001205DF804FB0020FBE784
:104C60008446B0B1C1B10123002001E0013080B21F
:104C70008B420AD01CF80020002AF7D101339BB2E6
:104C80000CEB00025278002AF0D11CF8003033B14E
:104C900070474FF6FF7070474FF6FF7070474FF642
:104CA000FF70F5E7F8B5054607693E8E3868FDF7F1
:104CB00089FF06442B680D2128469847002404E00C
:104CC0002B682021284698470134B442F8D32B683A
:104CD0000D212846984700233B86BB86F8BD2DE969
:104CE000F04706460C469046002303608380C3804D
:104CF0001046FDF767FFD4F81090B9F82C30002B60
:104D00004BD00746002848D000241BE00123C3B144
:104D1000D9F8282012F80A3043F0010302F80A30CB
:104D2000F38813B1B288824200D9B08001339BB2BC
:104D3000F380012B04D0B9F8203024E00023E6E70B
:104D400035600134B9F82C30A34226DDD9F824307F
:104D5000A24604EB840253F822502846FDF732FFA6
:104D6000D9F82820135D23F0010313558742E8D8B2
:104D70000023BB42CAD218F80310EA5C9142DDD18D
:104D80000133F6E70133B2889A42DAD93268D15C4E
:104D9000EA5C9142F6D0B380D3E73046BDE8F087B5
:104DA000F0B583B006460469E26901466846FFF73C
:104DB00096FFBDF80650FDB1012D04D0BDF80420CA
:104DC000238C9A4221D9BDF804703A460099E069D3
:104DD0000FF0D3F8012D11D0E369BDF8045000277E
:104DE0005F55E169238CA28E9B1A19443046FFF768
:104DF000AFFE25842586A78603B0F0BDE369202297
:104E0000DA550137ADF80470E6E73046FFF74AFFA0
:104E1000002500E00135A38DAB4211DDA36A5B5D87
:104E200013F0010FF6D0636A05EB850253F82210E8
:104E30003046FFF78DFE08493046FFF789FEE9E767
:104E400021683046FFF784FEE1693046FFF780FEB7
:104E5000238C2386D0E700BF486501082DE9F04187
:104E60000469238C0233628C934201DBBDE8F0813C
:104E700005460F46D4F81C804046FDF7A3FEA28EDF
:104E8000861A701C013208EB060140440EF0A2FFA6
:104E9000238C01332384238E01332386E3699F55BA
:104EA000A38E23B92B68394628469847DEE7024986
:104EB0002846FFF74DFEF5E7C0630108C1B130B5E4
:104EC00085B0044613460A460021019102918DF8EF
:104ED0000C105BB1432301AD064928460EF014FFC8
:104EE00029462046FFF734FE05B030BD4423F2E7E3
:104EF000704700BFC46301082DE9F04182B0D0F8CB
:104F0000108098F8333013F0200F02D102B0BDE8C2
:104F1000F0810446D8F81C2001466846FFF7DFFE02
:104F2000BDF806301BB9B8F82030ADF8043014498C
:104F30002046FFF70DFE0122B8F834102046FFF797
:104F4000BDFFB8F8206005E02368009A915D204617
:104F500098470136BDF804703D46B742F4D804E0E6
:104F600023682021204698470135B8F83030AB42FD
:104F7000F6D8A8F8307003492046FFF7E9FDC5E7E9
:104F8000CC630108D06301084289013292B2818862
:104F90000331C38803339B0803EB91030189033179
:104FA00003EB910002EB82031844033200EB920002
:104FB0001330800080B2704710B5046904F110000E
:104FC000FFF736FE28B994F8333043F0010384F834
:104FD000333010BD84B010B503AC84E80E00046912
:104FE000A28DE38D9A4216D0636A02EB820203EB34
:104FF000820C0DF10C0EBEE80F00ACE80F00DEF8DD
:105000000030CCF80030A38D0133A3850120BDE82A
:10501000104004B070470020F9E7000010B588B0D8
:1050200086460DF10C0C094C0FCCACE80F00236840
:10503000CCF8003008AB13E903008DE8030003ABA4
:105040000ECB7046FFF7C6FF08B010BDD062010856
:105050002DE9F041044645890135ADB2FFF794FFD3
:105060008046E368002B4CD0238A984251D8002711
:10507000E6684246002130460EF0C5FE06F11403F4
:10508000336106F14C021A61A188033121F003015A
:105090000A44DA61E188033121F003010A445A62CB
:1050A00005EB850102EB81029A62033525F00305C9
:1050B0002A445A6022891A812FB193F8332042F092
:1050C000040283F83320A27C2AB193F8332042F003
:1050D000200283F83320A2881A8300229A82DA827F
:1050E000E18859849A8561890131D98583F8322014
:1050F000216819609A863046FFF790FF3046BDE878
:10510000F08100F0BDFC0646E0600028F6D00127E3
:10511000AEE70026F2E7000098B32DE9F843074612
:1051200000252E46A846A9460DE089F00109002E6B
:1051300009DDBB1913F8013C2BB1002401E04FF04D
:105140000008BC5501367C5DACB10135B8F1000FEB
:10515000F5D15C2C0CD0222CE7D0B9F1000FF0D1A6
:10516000214608480EF057FE0028E0D1C846E8E77F
:105170004FF00108E7E70023BB550136BB55BDE8FA
:10518000F8837047D463010810B50446FFF768FD43
:105190004FF6FF73984201D0204410BD0020FCE779
:1051A00039B108B502898A4205D30068FFF7ECFFE0
:1051B00008BD002070470020FAE70000F8B5046938
:1051C000A3896BB305460E4659B36289934227D033
:1051D0002846FFF767FD21682846FFF7B9FC26B38C
:1051E0006389013363816189201DFFF7D9FF074679
:1051F000F8B13846FDF7E6FC86B232463946E0693A
:105200000EF0BBFEE36900279F552684E16928461E
:10521000FFF79EFC238C2386A7862846FFF76CFEAB
:10522000F8BD6389002BD3D1FAE76389013B638121
:10523000D9E7014FDDE700BF0C65010870B50669CD
:10524000A1F14003DBB23E2B10D805460C4696F880
:10525000333023F0080386F83330A1F14103DBB289
:10526000012B04D9432C09D0442C11D070BD412905
:1052700014BF00210121FFF7A1FFF3E7B38E002B3C
:10528000F2D0013BB38609492846FFF761FCEBE702
:10529000B48EF069FDF796FC8442E7D20134B486FF
:1052A00003492846FFF754FCE0E700BFD863010834
:1052B000DC63010810B50446FFF7D2FC4FF6FF731C
:1052C000984201D0204410BD0020FCE761B32DE9D5
:1052D000F04106468846058925B3012401E00134E2
:1052E000A4B2A5420AD321463068FFF7E3FF074680
:1052F0004146FDF75DFC0028F1D100E000278FB1A9
:10530000013DADB235810135AC420BD03846FDF7D9
:1053100059FCB288411C39443368CB1AD21A38463A
:105320000EF058FDBDE8F08170472DE9F0410546CB
:1053300088460846FDF746FCAB88471CBB4202D2B4
:105340000020BDE8F08141462846FFF7BFFF2E89C7
:105350008EB131462846FFF723FF0446FDF732FCA5
:105360002B68E41A04440134AB881B1B9F4202D90A
:10537000013E2E81EBE74EB93A46414628680EF0D1
:10538000FCFD2B8901332B810120DAE729682246B5
:10539000C8190EF01FFDEFE72DE9F04782B0064671
:1053A0000469002300E00133228C9A4205DDE269A2
:1053B000D25C202AF7D0002500E0012515B102B00B
:1053C000BDE8F087E169201DFFF7AFFF0023984695
:1053D0001F4605E0B8F1000F12D007B101250133D7
:1053E000228C9A4211DDE269D118D25C202AF1D0D8
:1053F0004FB1B8F1000FF2D1002DF0D08846EEE7A2
:1054000000220A70E9E70F46E9E7E369013200216B
:105410009954002FD3D00D46A38DAB423FDD636A74
:1054200005EB85024FEA820903EB820A53F8091063
:105430003846FDF7BDFB08B10135EDE7DAF810306D
:105440006BB39AF80830C3B994F8333043F01003C3
:1054500084F83330B8F1000F13D01E494046FDF7F1
:10546000A7FB20B11C494046FDF7A2FB48B9616A81
:1054700049443046FFF770FB0AE04046FFF74CFE18
:10548000E2E7636A4B441D69DA6841463046A84743
:1054900094F8333023F0100384F833308FE7B36887
:1054A0009BB10097CDF8048094F8333043F010039B
:1054B00084F83330B36869463046984794F83330FF
:1054C00023F0100384F8333079E739463046FFF78C
:1054D00057FB74E7E0630108E463010838B505464B
:1054E000046994F832300D2B0FD00A2B10D00D29FF
:1054F00011D00A290FD0082926D07F2924D00929C4
:105500001DD12846FFF74CFC19E00A29EDD116E021
:105510000D29EED113E02846FFF742FC1949284631
:10552000FFF716FB238C5BB900232384E269137019
:1055300023866381A38621682846FFF709FB38BDCF
:105540002846FFF729FFEFE7238CA28E9B1A002B3A
:10555000D5DD0D492846FFF7FBFA0C492846FFF731
:10556000F7FAE5692846FDF72DFBA28E811A481E41
:105570000132294428440EF02DFC238C013B238466
:10558000DDE700BF48650108DC630108EC63010842
:105590000368002B55D070B50646056995F8333081
:1055A00013F0020F10D143F0020385F8333029685D
:1055B000FFF7CEFA08E001463046FFF73FFE3046DF
:1055C000FFF79AFC85F8324005F110042046FFF7FA
:1055D00010FB30B32046FFF719FB044695F8333033
:1055E00013F0080FE7D195F832201B2A0DD0204682
:1055F000FFF7E0FA80B92046FFF7F4FA0028DED082
:1056000021463046FFF72AFCD9E75B28EFD143F06B
:10561000080385F83330D2E721463046FFF75EFFB6
:10562000CDE795F8333013F0010F09D000232B8418
:10563000EA69137095F8333023F0010385F83330AD
:1056400070BD7047014670B1037873B1012000232B
:1056500000E00133CA5C002AFBD1CA1852782AB193
:10566000013080B2F5E7002070470020704700004D
:105670002DE9F84304460769BE8D7EB10D46084604
:10568000FFF7E0FF68B301282DD037492046FFF728
:105690005FFA36492046FFF75BFA20E03449FFF70E
:1056A00057FA32492046FFF753FA18E031492046AD
:1056B000FFF74EFA7B6A05EB8506B600995920463E
:1056C000FFF746FA29492046FFF742FA796A314442
:1056D0002046FFF741FA0135BB8DAB42E6DCBDE861
:1056E000F8830025F8E701212846FFF74DFD8046A5
:1056F0000025AE4232DD7B6A05EB850203EB8209B1
:10570000414653F82200FDF753FA08B10135F0E79E
:10571000D9F80450CDB117492046FFF719FA414690
:105720002046FFF715FA114E31462046FFF710FAD2
:10573000236809212046984729462046FFF708FAA2
:1057400031462046FFF704FAC9E709492046FFF72A
:10575000FFF906492046FFF7FBF9C0E7414620461E
:10576000FFF70EFABBE700BF0C64010848650108AB
:10577000F06301080864010808B51048104B036085
:10578000002343608360C360037443748374062200
:105790004261012282610D21C1610E2101624262DA
:1057A0008262C262026342638263C36303F0BAFC33
:1057B00000B908BD00F016FBFBE700BF6027002022
:1057C0000068004010B59CB0044600211791189164
:1057D00019911A911B91542202A80EF014FB226811
:1057E000224B9A4201D01CB010BD4FF4805302935B
:1057F0004FF00073109302A806F0CAF8002831D1C8
:105800001B4B9A6D42F000729A659A6D02F000721D
:105810000092009ADA6C42F00202DA64DB6C03F068
:1058200002030193019B4FF44053179302231893F3
:10583000002419941A9409231B9317A90D4803F007
:1058400051FF22460521562003F0D4F9562003F0DB
:10585000E1F922460521572003F0CCF9572003F047
:10586000D9F9C0E700F0BEFACAE700BF00680040FF
:1058700000100240000400482DE9F0478AB005AD51
:10588000002405940694079408940994454BDA6C17
:1058900042F00402DA64DA6C02F004020092009A28
:1058A000DA6C42F02002DA64DA6C02F02002019233
:1058B000019ADA6C42F00102DA64DA6C02F0010259
:1058C0000292029ADA6C42F00202DA64DA6C02F0B6
:1058D00002020392039ADA6C42F00802DA64DB6C8B
:1058E00003F008030493049BDFF8C0A022464FF4A2
:1058F0004041504603F0E6FF2B4F22464FF4004153
:10590000384603F0DFFF22464FF480714FF090409D
:1059100003F0D8FFDFF8989001220421484603F0F5
:10592000D1FF01224FF41471384603F0CBFF4FF43E
:1059300040430593012606964FF00208CDF81C80DF
:1059400008942946504603F0CDFE4FF400430593DA
:105950000696CDF81C8008942946384603F0C2FE0E
:105960004FF4807305930696CDF81C800894294661
:105970004FF0904003F0B6FE042305930696079679
:1059800008942946484603F0ADFE4FF4147305937E
:105990000696079608942946384603F0A3FE0AB0F7
:1059A000BDE8F087001002400004004800080048ED
:1059B000000C0048134A12F0070F1FD0D11D21F030
:1059C0000701C1F56A43603313440A460E4802607A
:1059D000002141601344083B23F007030B48036098
:1059E00059601960991A51601360094B1960094B8D
:1059F0001960094B4FF000421A6070474EF6602361
:105A0000E4E700BFE4270020DC270020D82700209F
:105A1000D0270020D4270020C4270020164B1A4688
:105A20001B688342FBD3516802EB010C844509D00B
:105A3000416800EB010C634509D00360904219D026
:105A4000106070474068014451601046F0E710B4A0
:105A50000A4C2468A3420BD05B6819444160136868
:105A60001B680360904200D010605DF8044B7047E3
:105A70000460F7E7704700BFDC270020D82700202C
:105A800038B504460BF004F9384B1B68B3B1384BFA
:105A90001B681C4250D1002C50D004F1080214F0B5
:105AA000070F02D022F007020832002A55D0314BEE
:105AB0001B68934253D330490C6804E0FFF77AFF28
:105AC000E5E721461C466368934202D22368002B17
:105AD000F7D1264B1B68A34243D00D6808352368D5
