:020000040800F2
:10000000000002207D6D01081B1D01081D1D010857
:100010001F1D0108211D0108231D0108000000000B
:10002000000000000000000000000000D17B00087C
:10003000251D010800000000717C000815660008FD
:10004000CD6D0108CD6D0108CD6D0108CD6D0108A4
:10005000CD6D0108CD6D0108CD6D0108CD6D010894
:10006000CD6D0108CD6D0108CD6D0108291D010878
:10007000391D0108491D0108591D0108691D0108A4
:10008000791D0108891D0108CD6D0108991D010820
:10009000A91D0108CD6D0108CD6D0108CD6D0108C8
:1000A000B91D0108CD6D0108CD6D0108CD6D0108A8
:1000B000CD6D0108C91D0108CD6D0108D91D0108CC
:1000C000E91D0108CD6D0108CD6D0108CD6D010858
:1000D000CD6D0108F91D0108091E0108191E01084E
:1000E000CD6D0108CD6D0108CD6D0108CD6D010804
:1000F000CD6D0108CD6D0108CD6D0108CD6D0108F4
:10010000CD6D0108CD6D0108291E0108391E0108B9
:10011000CD6D0108CD6D0108CD6D0108CD6D0108D3
:10012000CD6D0108CD6D0108CD6D0108CD6D0108C3
:10013000CD6D0108CD6D0108CD6D0108CD6D0108B3
:10014000CD6D0108CD6D0108CD6D0108CD6D0108A3
:10015000CD6D0108CD6D0108CD6D0108CD6D010893
:10016000CD6D0108CD6D0108CD6D0108CD6D010883
:10017000CD6D0108CD6D0108491E0108CD6D010846
:10018000CD6D0108CD6D0108CD6D0108CD6D010863
:10019000CD6D010800000000591E0108691E01080C
:1001A000CD6D0108CD6D0108CD6D0108CD6D010843
:1001B000CD6D0108CD6D0108CD6D0108CD6D010833
:1001C000CD6D0108CD6D0108CD6D0108CD6D010823
:0801D000791E0108CD6D010844
:1001E000F8B50F4616461D460024632C0CD8002394
:1001F00032463946284603F0EBFF28B9012013F0B8
:10020000DFF90134E4B2F0E7F8BD08B513460A4659
:1002100001460020FFF7E4FF08BD10B50446E06A80
:1002200006F0ECFFA0894FF47A7303FB00F0034B58
:10023000A3FB0030800913F0C3F9F0E7D34D62103F
:1002400000296AD02DE9F04188B004461646884658
:1002500000F10E070522384617F04EFE384604F02E
:1002600069FA034639182F4A1068F85013790B7150
:1002700004F1180509224146284617F03DFE28469C
:1002800004F058FA034605EB000C274A03CAE8506D
:10029000CCF804100A2E38BF0A26A68103A8002332
:1002A000039343608360C36003618023ADF8103023
:1002B000ADF812304FF48073ADF814302023ADF850
:1002C000163001238DF81E30039506F0F7FCE0622E
:1002D00028B3164B0360E36A154A5A6004F13403ED
:1002E00001931823009323464FF4007239461148B6
:1002F00012F031FF012803D0002008B0BDE8F081E2
:10030000606B13F0CFF90C4B1A68511C196003EBAA
:1003100082035C6001202070EFE70020704700201E
:10032000EBE700BFD8AB0108E0AB01080D04000803
:100330002B0400081B0200084006002010B50478BA
:100340000CB9204610BD406B12F094FFF9E719B1CB
:1003500041608260012070470020704729B101632D
:100360008160034B4360012070470020704700BF4D
:100370000B02000818B108B506F054FC08BD704720
:100380002DE9F041A9B1064615460F46A2B190F8F5
:100390000080B8F1000F09D0002405E0395DF06A53
:1003A000FFF7E8FF0134A4B2AC42F7D34046BDE802
:1003B000F0814FF00008F9E74FF00008F6E7002859
:1003C00008DB064B1B68834206DD044B03EB80030E
:1003D0005868704700207047002070474006002092
:1003E000014680B10023084A1268934209DA064A9E
:1003F00002EB83025068C26A8A4204D00133DBB246
:10040000F1E70020704770474006002010B582B029
:100410008DF80710FFF7E4FF28B1446882680121D6
:100420000DF10700A04702B010BD70B50C46FFF7F4
:10043000D7FF48B105464668C821204617F06FFD32
:10044000AA6881B22046B04770BD014680B1002342
:10045000084A1268934209DA064A02EB830250689E
:10046000026B8A4204D00133DBB2F1E7002070470F
:10047000704700BF4006002038B50024012508E081
:10048000074B03EB84035868FFF758FF054001341E
:10049000E4B2034B1B689C42F2DB284638BD00BF28
:1004A000400600207047F8B505460E46084606F09F
:1004B000FFFE0746094B2B60092801DC012408E0F8
:1004C0000A27FBE7A1B2304606F094FC45F8240069
:1004D0000134A742F6DA3846F8BD00BFF4AE010891
:1004E0000EB470B583B04368D3B10446C82007F09A
:1004F000FDF80646B8B108AB0193079AC82108F089
:100500009FFD05466368A26881B230469847304631
:1005100007F06EF9284603B0BDE8704003B070479D
:100520004FF0FF35F6E74FF0FF35F3E784B000B545
:1005300083B0844605A880E80E009CF8000068B1EE
:1005400089B1099B8BB108AB93E803008DE80300E8
:1005500005AB0ECBDCF82C0006F072FB03B05DF8A7
:1005600004EB04B070470020F8E70020F6E784B001
:1005700070B582B006AC84E80F000024012510E0BD
:100580000D4B03EB84035E6809AB93E803008DE831
:10059000030006AB0ECB3046FFF7C8FF0540013421
:1005A000E4B2054B1B689C42EADB284602B0BDE87A
:1005B000704004B0704700BF4006002010B588B0FE
:1005C0000A9C039004918DF81420069307940094DC
:1005D00003AB0FCBFFF7CBFF08B010BD000000004E
:1005E000F0B583B0A34C4FF0000EA4F800E0002358
:1005F0006360A360A0492161A4F814E0A361E361F2
:100600009E4F6762A4F828E0E36223639C4EA663D2
:10061000A4F83CE0236463649A4DE564DFED9A3A04
:10062000C4ED143AB3EE094A84ED154ADFF87CC2F2
:10063000C4F858C0DFED954AC4ED174A94482066C7
:10064000944A6266E366A36623679FED935A84ED3E
:100650001D5AA367E367DFED915AC4ED205A9FED61
:10066000906A84ED216ADFED8F6AC4ED226A9FED06
:100670008E7A84ED237AC4F89030C4F89430C4F8AC
:100680009830C4F89C30C4F8A030C4F8A43084F882
:10069000A8E0F0EE0C7AC4ED2B7AC4F8B0C0C4F830
:1006A000B400C4F8B820C4F8C030C4ED313A84EDC9
:1006B000324AC4F8CCC0C4ED344AC4F8D400C4F8FB
:1006C000D820C4F8E030C4F8DC30C4F8E43084ED5D
:1006D0003A5AC4F8EC30C4F8F030C4ED3D5A84ED19
:1006E0003E6AC4ED3F6A84ED407AC4F80431C4F830
:1006F0000831C4F80C31C4F81031C4F81431C4F80E
:10070000183184F81CE1C4ED487AC4F824C1C4F857
:100710002801C4F82C21C4F83431C4ED4E3A84EDDC
:100720004F4AC4F840C1C4ED514AC4F84801C4F866
:100730004C21C4F85431C4F85031C4F8583184ED18
:10074000575AC4F86031C4F86431C4ED5A5A84ED84
:100750005B6AC4ED5C6A84ED5D7AC4F87831C4F8F4
:100760007C31C4F88031C4F88431C4F88831C4F8CD
:100770008C3184F890E1C4ED657AC4F898C1C4F86E
:100780009C01C4F8A021C4F8A831C4ED6B3A84EDF3
:100790006C4AC4F8B4C1C4ED6E4AC4F8BC01C4F8D4
:1007A000C021C4F8C831C4F8C431C4F8CC3184EDD8
:1007B000745AC4F8D431C4F8D831C4ED775A84EDF2
:1007C000786AC4ED796A84ED7A7AC4F8EC31C4F8B9
:1007D000F031C4F8F431C4F8F831C4F8FC31C4F88D
:1007E000003284F804E2C4ED827AC4F80CC2C4F882
:1007F0001002C4F81422C4F81C3204F1AC030193B3
:1008000004F17403009304F15003224604F50870C8
:1008100016F01EF904F59073019304F1E8030093B8
:1008200004F1C40304F11402394604F5427016F0D1
:100830000FF904F5CA73019304F5AE73009304F540
:100840009C7304F12802314604F57C7016F000F91F
:1008500004F50273019304F5E873009304F5D6736D
:1008600004F13C02294604F59B6016F0F1F803B050
:10087000F0BD00BF580600200CAA0108E8A9010835
:10088000C4A90108A0A9010852B81E3F6F128339FC
:10089000EC51783FEC5178BF9A99193F6F12833A27
:1008A000F4FD143F6666E63F6666E6BFCDCCCC3D00
:1008B00010B50C4C22686423D362E36053639363E6
:1008C000002120460FF058F9002120460FF050FB80
:1008D000042120460FF050F9042120460FF048FB78
:1008E00010BD00BF4829012090F860308B4236D0FF
:1008F00010B5044680F86010C1B1D0F8B4309968E2
:1009000018680FF039F9D4F8B430996818680FF006
:100910002FFBD4F8B430D96818680FF02DF9D4F84B
:10092000B430D96818680FF023FB10BDD0F8B4308C
:10093000996818680FF0D6F9D4F8B4309968186837
:100940000FF094FBD4F8B430D96818680FF0CAF9E6
:10095000D4F8B430D96818680FF088FBE5E7704721
:1009600038B50546006A04F0A7F80FA3D3E90023C1
:1009700004F0FAF804F0F0FB686300242C632C61A7
:1009800000212846FFF7B0FF6B6C9C61DC611C62A4
:10099000AB6C1C62DC611C63DC629C625C62EB6CB5
:1009A0005C611C6138BD00BFF8C1631ADCA54C4016
:1009B00038B52DED028B0446D0ED017AFCEEE77AD6
:1009C00017EE903A9DB290ED028AB5EEC08AF1EE34
:1009D00010FA09D4DFED8E7AB4EEE78AF1EE10FA60
:1009E00004DDB0EE678A01E09FED8A8AD4ED038AC8
:1009F000F5EEC08AF1EE10FA09D4DFED857AF4EE57
:100A0000E78AF1EE10FA04DDF0EE678A01E0DFED2F
:100A1000818AB4F85430AB4215D0A4F8545084ED18
:100A2000168AC4ED178AEDB101212046FFF75CFF5D
:100A3000A36EB3FBF5F34FF6FE72934217D8012B6A
:100A400017D8012315E0D4ED167AF4EE487AF1EECA
:100A500010FAE2D1D4ED177AF4EE687AF1EE10FADA
:100A6000DBD1D1E000212046FFF73EFFCCE04FF67E
:100A7000FF73D4F8B42012681268002151625A1E24
:100A800092B2D4F8B41009680968CA62D4F8B410F4
:100A90000968CA60D4F8B4108A68102A4BD8DFE815
:100AA00002F0094A4A4A164A4A4A234A4A4A304AFE
:100AB0004A4A3D0007EE903AF8EE677A67EE887A88
:100AC0000A681268FCEEE77AC2ED0D7A3FE007EEA5
:100AD000903AF8EE677A67EE887A0A681268FCEE58
:100AE000E77AC2ED0E7A32E007EE903AF8EE677AD6
:100AF00067EE887A0A681268FCEEE77AC2ED0F7A30
:100B000025E007EE903AF8EE677A67EE887A0A6891
:100B10001268FCEEE77AC2ED107A18E007EE903A20
:100B2000F8EE677A67EE887A0A681268FCEEE77A70
:100B3000C2ED127A0BE007EE903AF8EE677A67EEB4
:100B4000887A0A681268FCEEE77AC2ED137AD4F864
:100B5000B410CA68102A4BD8DFE802F0094A4A4AA2
:100B6000164A4A4A234A4A4A304A4A4A3D0007EE50
:100B7000903AF8EE677A67EEA87A0B681B68FCEE8D
:100B8000E77AC3ED0D7A3FE007EE903AF8EE677A28
:100B900067EEA87A0B681B68FCEEE77AC3ED0E7A65
:100BA00032E007EE903AF8EE677A67EEA87A0B68C3
:100BB0001B68FCEEE77AC3ED0F7A25E007EE903A6A
:100BC000F8EE677A67EEA87A0B681B68FCEEE77AA6
:100BD000C3ED107A18E007EE903AF8EE677A67EE08
:100BE000A87A0B681B68FCEEE77AC3ED127A0BE07B
:100BF00007EE903AF8EE677A67EEA87A0B681B6802
:100C0000FCEEE77AC3ED137ABDEC028B38BD00BF72
:100C1000EC51783F0000000010B50446D0ED047A96
:100C20009FED257AF4EEC77AF1EE10FA0CD49FED21
:100C3000237AF4EEC77AF1EE10FA1BDCF5EE407A77
:100C4000F1EE10FA0BD001E0DFED1B7AB0EEE77A9F
:100C5000DFED1B6AB4EEE67AF1EE10FA0DD5002353
:100C6000E360A36000212046FFF73EFE2046FFF729
:100C70009FFE10BDDFED117AE8E7F5EEC07AF1EEE8
:100C800010FA0FDCF5EEC07AF1EE10FAEED5002383
:100C9000A360F1EE677AC4ED037A01212046FFF7E5
:100CA00023FEE3E7C4ED027A0023E360012120463E
:100CB000FFF71AFEDAE700BFEC5178BFEC51783F3E
:100CC000BD37863510B52DED028B04460DF022F8A8
:100CD000D4F8B4301B681B689B6A0133B0FBF3F097
:100CE000A0669FED158AB0EE480A04F16C0002F090
:100CF000F5F9B0EE480A04F1740002F0EFF90521AD
:100D000004F17C0001F09CFD642104F1980001F0E5
:100D100097FD2046FFF780FF01212046FFF7E4FD05
:100D2000012012F04DFC00212046FFF7DDFD0123DC
:100D3000A370BDEC028B10BD3333333F10B52DEDE6
:100D4000028B0446006C01F09DFF206C01F0EAFF6D
:100D5000B0EE408A6E4B83ED000A10EE100A03F0ED
:100D6000ABFE67A3D3E9002303F048FD04F0F4F9D8
:100D7000DFED680A00EE100A19F084F9B5EEC00A3A
:100D8000F1EE10FA00F1918010EE100A03F094FEDB
:100D90005BA3D3E9002303F02FFD04F0DDF96061CC
:100DA000D4ED0B7A78EE677A17EE900A03F084FEA2
:100DB00053A3D3E9002303F021FD04F0CDF9DFEDC7
:100DC000550A00EE100A19F05DF9B5EEC00AF1EE11
:100DD00010FA6FD410EE100A03F06EFE48A3D3E9A8
:100DE000002303F009FD04F0B7F900EE100AA0613A
:100DF00094F8B830002B67D1D4ED2F7A70EE677A73
:100E0000454BC3ED007AC4F8BC0017EE900A03F01E
:100E100053FE3BA3D3E9002303F0F0FC04F09CF95C
:100E2000DFED3C0A00EE100A19F02CF9B5EEC00A0D
:100E3000F1EE10FA43D410EE100A03F03DFE30A399
:100E4000D3E9002303F0D8FC04F086F900EE100A81
:100E5000C4F8C00004F1740002F058F984ED310ABE
:100E6000DFED2E7A20EE270A84ED070A04F17C00DC
:100E700001F0FBFC84ED320A04F16C0002F046F94B
:100E8000B0EE408A84ED330AA069206203F014FEBC
:100E90001DA3D3E9002303F067FE04F05DF960624F
:100EA00084ED0A8ABDEC028B10BDDFED1A7A30EEBC
:100EB000270A69E7DFED177A30EE270A8AE7DFEDC8
:100EC000157A30EE270AB6E704F1D80204F1D4010E
:100ED00004F1D000DFED120A02F0EEFCD4F8D000ED
:100EE000206203F0E9FD08A3D3E9002303F03CFEF0
:100EF00004F032F96062D4F8D430A362D2E700BFC4
:100F0000182D4454FB210940F8C1631ADCA54C405C
:100F1000180C0020DB0FC9401C0C002000007A4593
:100F20006F12833910B5044690ED0C0AD0ED0A7AA1
:100F300030EE670A406C15F0D9FCD4ED047A77EEF8
:100F4000807AC4ED047A2046FFF766FE10BDD0B566
:100F50002DED028B0446406B03F0AEFD3BA3D3E9BD
:100F6000002303F001FE06460F46206A03F0A4FDAD
:100F700002460B463046394603F03EFC2CA3D3E92B
:100F8000002303F03BFC04F0E7F8DFED2D0A00EE50
:100F9000100A19F077F8B5EEC00AF1EE10FA3DD458
:100FA00010EE100A03F088FD21A3D3E9002303F01B
:100FB00023FC04F0D1F808EE100AD4ED0A0AF1EE91
:100FC000600AB0EE480AE06C15F0CEFCF0EE408A04
:100FD000F0EEC87A17EE900A03F06EFD16A3D3E97F
:100FE000002304F051F888B1F0EEE87A9FED157A0D
:100FF000F4EEC77AF1EE10FA08D5B5EEC08AF1EE3C
:1010000010FA10DDDFED107A78EEA78AC4ED048ABD
:101010002046FFF701FEBDEC028BD0BDDFED087A64
:1010200030EE270ABCE7DFED087A78EEE78AEDE7D5
:10103000182D4454FB210940367EDD0A71985C3F2F
:10104000DB0FC9408FC2753D8FC2F53C399D52A25E
:1010500046DF913FD0B52DED028B0446D0F8B43079
:1010600093F82220384B03EB4203B3F8C83500EE67
:10107000103AB8EE400A983001F0F7FBF2EE047A2D
:10108000B4EEE70AF1EE10FA08D4B0EE408ADFEDD4
:101090002F7AB4EEE70AF1EE10FA02DDBDEC028B16
:1010A000D0BDDFED2B7A77EEC07A17EE900A03F011
:1010B00003FD0022274B03F057FD06460F4618EEAE
:1010C000100A03F0F9FC02460B463046394603F09D
:1010D00075FE04F041F8A06303F0EEFC00221D4B06
:1010E00003F06CFE41EC100B18F08AFF51EC100B72
:1010F0000FA3D3E9002303F061FE0FA3D3E900237C
:1011000003F07CFB04F028F807EE900AB7EE007AB3
:10111000C7EE277A17EE900A03F0CEFC08A3D3E9B6
:10112000002303F069FB04F017F8E063B6E700BFA3
:101130000000000000DCAE40AA9D755E034B6B3FD3
:1011400066666666663271405806002000607F451C
:10115000000080450000244008B5FFF741FA08BDB3
:10116000024A536801335360704700BF380C0020B7
:1011700010B5044C20460EF09BF8034BC4F88430A5
:1011800010BD00BFB027012061110008034B1B6890
:10119000586A034B18605968704700BFB027012098
:1011A000380C002008B5FFF7F1FF4FF47A720023E6
:1011B00004F022F8014B986008BD00BF380C0020F5
:1011C00038B50546FFF7EEFF0446FFF7EBFF001BBF
:1011D000A842FAD338BD00BF10B504460448FFF753
:1011E00034F918B1A2882168FFF7CAF810BD00BF12
:1011F000440C002010B504460448FFF726F918B146
:10120000A2882168FFF7BCF810BD00BF440C002085
:1012100010B5044C04F19C0015F060FC204615F05C
:101220005DFC10BD440C002038B50C4C04F19C054D
:101230000B4A0C49284602F015FE00220A492846AE
:1012400002F05BFE094A0A49204602F00BFE00222A
:101250000849204602F051FE38BD00BF440C002072
:101260004C2E0120E8AB0108F5110008182F0120D1
:10127000F0AB0108D91100080FB4F0B583B0C82055
:1012800006F034FA28B30027064609AB0193089A02
:10129000C82107F0D5FE05463C46632C0DD8002337
:1012A000AAB231460C4802F093FF074628B9012044
:1012B00012F086F90134E4B2EFE70FB94FF0FF35D1
:1012C000304606F095FA284603B0BDE8F04004B079
:1012D00070474FF0FF35F6E7440C00200FB4F0B52F
:1012E00083B0C82006F002FA70B30027064609ABA7
:1012F0000193089AC82107F0A3FE05463C46632CDB
:101300000DD80023AAB23146114802F061FF07460A
:1013100028B9012012F054F90134E4B2EFE70023B8
:1013200002220C490A4802F053FF02354FB140B186
:10133000304606F05DFA284603B0BDE8F04004B040
:1013400070474FF0FF35F3E74FF0FF35F3E700BF8D
:10135000440C002084B2010808B5FFF759FF08BD0E
:101360000138800180B2203080B2704701380328F4
:1013700009D8DFE800F0020A04060548704705486E
:10138000704705487047002070470448704700BF09
:1013900078080020480A0020300B00206009002057
:1013A000013803280CD8DFE800F0020D050841F2EF
:1013B0001110704743F23330704744F24440704795
:1013C0000020704742F2222070470138400080B26E
:1013D000704710B58AB00446FFF7C8FF48B3426CA7
:1013E000116802915168039192680492826C1168AD
:1013F00005915168069192680792C26A0892436803
:1014000009932046FFF7ACFF202202A901F0E2F980
:1014100008B90AB010BD2046FFF7C2FFADF80600BC
:101420002046FFF7D2FF02220DF1060101F0D2F9AA
:10143000EFE70020EDE730B58BB00446FFF796FFED
:10144000002834D005460023ADF826302046FFF7AB
:10145000BCFF02220DF1260101F066F940B32046DF
:10146000FFF79EFFBDF82630984201D000201FE014
:101470002046FFF775FF202201A901F055F9B8B108
:101480006B6C019A1A606B6C029A5A606B6C039ACF
:101490009A60AB6C049A1A60AB6C059A5A60AB6C9C
:1014A000069A9A60079BEB62089B6B6000E0002045
:1014B0000BB030BD30B583B00023ADF806306428E2
:1014C00017D0431EDBB2032B16D90025284603B0E4
:1014D00030BD0134E4B2042CF8D82046FFF775FF84
:1014E00002220DF1060101F075F90028F1D105463F
:1014F000EFE701242546EEE7FFF767FF02220DF133
:10150000060101F067F90546E0E700BF00000000B2
:1015100038B500290FDD1546406815F05BFC044620
:10152000431E032B0CD82C60013C032C13D8DFE89E
:1015300004F00C140E100A48FFF79EFE002005E090
:1015400001460848FFF798FEEDE7074838BD074811
:10155000FCE70748FAE70020F8E70648F6E700BF8F
:10156000F8AB010814AC010878080020480A0020F4
:10157000300B00206009002030B58DB00C460023F0
:101580000B93FEF72DFF88B101AD21462846FEF7EB
:101590008AFF01460BAA2846FFF7BAFF30B10121A6
:1015A000FFF7A2F90B990248FFF766FE0DB030BDB8
:1015B0002CAC010830B58DB00C4600230B93FEF720
:1015C0000FFF88B101AD21462846FEF76CFF0146AA
:1015D0000BAA2846FFF79CFF30B10021FFF784F9E2
:1015E0000B990248FFF748FE0DB030BD40AC010832
:1015F00010B58AB00C46FEF7F3FE40B121466846AE
:10160000FEF751FF09F04CF90248FFF735FE0AB02A
:1016100010BD00BF54AC010830B58DB00C4600239E
:101620000B93FEF7DDFE90B101AD21462846FEF793
:101630003AFF01460BAA2846FFF76AFF9DF82C00E7
:10164000FFF738FF28B10B990448FFF715FE0DB0DE
:1016500030BD0B990248FFF70FFEF8E768AC0108B0
:101660008CAC010830B58DB00C4600230B93FEF70F
:10167000B7FE98B101AD21462846FEF714FF01469A
:101680000BAA2846FFF744FF40B19DF82C00FFF756
:10169000A0FE28B10B990548FFF7EEFD0DB030BD57
:1016A0000B990348FFF7E8FDF8E700BFB0AC01086D
:1016B000D0AC01082DE9F0418CB00C4600230B930F
:1016C000FEF78EFE002850D021466846FEF7EBFE5E
:1016D00001460BAA6846FFF71BFF8046002844D04E
:1016E0000AA9029816F080F910EE104A029A0A9B95
:1016F0009A423DD0D8F8140003F0DEF906460F46B2
:10170000204603F0D9F904460D4624A3D3E900236B
:1017100003F02AFA02460B463046394603F06CF8CD
:1017200019A3D3E9002303F069F803F015FDDFEDF9
:10173000180A00EE100A18F0A5FCB5EEC00AF1EE8A
:1017400010FA19D410EE100A03F0B6F90EA3D3E97B
:10175000002303F051F803F0FFFCC8F82C002246E8
:101760002B460B990B48FFF787FD0CB0BDE8F081C5
:101770000948FFF781FDF8E7DFED057A30EE270A2B
:10178000E0E700BFAFF30080182D4454FB2109406F
:10179000DB0FC94008AD0108F0AC0108399D52A229
:1017A00046DF913F30B58DB00C4600230B93FEF71A
:1017B00017FEF0B121466846FEF775FE01460BAAFA
:1017C0006846FFF7A5FE044698B10AA9029816F0EC
:1017D0000BF910EE100A029A0A9B9A420BD084ED84
:1017E000010A03F069F902460B460B990448FFF71A
:1017F00043FD0DB030BD0348FFF73EFDF9E700BFE4
:1018000034AD0108F0AC010830B58DB00C460023B2
:101810000B93FEF7E5FDF0B121466846FEF743FE67
:1018200001460BAA6846FFF773FE044698B10AA961
:10183000029816F0D9F810EE100A029A0A9B9A4202
:101840000BD084ED040A03F037F902460B460B99DE
:101850000448FFF711FD0DB030BD0348FFF70CFD44
:10186000F9E700BF54AD0108F0AC010830B58DB008
:101870000C4600230B93FEF7B3FDF0B121466846FA
:10188000FEF711FE01460BAA6846FFF741FE04462B
:1018900098B10AA9029816F0A7F810EE100A029A59
:1018A0000A9B9A420BD084ED0D0A03F005F902461B
:1018B0000B460B990448FFF7DFFC0DB030BD034821
:1018C000FFF7DAFCF9E700BF74AD0108F0AC0108DE
:1018D00030B58DB00C4600230B93FEF781FDF0B1BF
:1018E00021466846FEF7DFFD01460BAA6846FFF772
:1018F0000FFE044698B10AA9029816F075F810EE8A
:10190000100A029A0A9B9A420BD084ED0C0A03F04B
:10191000D3F802460B460B990448FFF7ADFC0DB017
:1019200030BD0348FFF7A8FCF9E700BF98AD0108F8
:10193000F0AC010870B58CB00C4600230B93FEF799
:101940004FFDA0B301AD21462846FEF7ACFD014690
:101950000BAA2846FFF7DCFD044640B3039D294946
:10196000284602F0DDFEA0B12749284602F0D8FE45
:1019700088B12649284602F0D3FED0B12449284632
:1019800002F0CEFE08B9632506E02248FFF774FC9A
:101990000DE0012500E0022525702046FEF7E0FF5E
:1019A000039A0B991C48FFF767FC632D03D00CB01A
:1019B00070BD0025F0E70B991848FFF75DFC4FF468
:1019C000FA6011F0FDFD0B991548FFF755FC3C211D
:1019D000206C01F01BFB0546002626700A2011F042
:1019E000EFFD31462046FEF77FFF0023236125B13E
:1019F0000B990C48FFF740FCD9E70B990A48FFF711
:101A00003BFCD4E714B10108E4B00108BCAD010807
:101A1000C8AD0108D0AD0108E0AD010804AE010871
:101A200034AE010868AE0108A0AE0108F0B593B06D
:101A30000C4600231193FEF7D3FC002849D004ADD7
:101A400021462846FEF72FFD014611AA2846FFF73A
:101A50005FFD074600283CD010A9069815F0C4FF8A
:101A600010EE106A0FA9079815F0BEFF10EE104A8D
:101A70000EA9089815F0B8FF10EE105A069A109BA0
:101A80009A4228D0079A0F9B9A4224D0089A0E9B1C
:101A90009A4220D07B6C1E607B6C5C607B6C83ED1B
:101AA000020A3846FEF75CFF304603F005F80646AA
:101AB0000F46284603F000F8CDE90201204602F067
:101AC000FBFFCDE9000132463B4611990448FFF780
:101AD000D3FB13B0F0BD0348FFF7CEFBF9E700BF1F
:101AE000C0AE0108F0AC0108F0B593B00C4600237D
:101AF0001193FEF775FC002849D004AD2146284615
:101B0000FEF7D1FC014611AA2846FFF701FD074662
:101B100000283CD010A9069815F066FF10EE106A58
:101B20000FA9079815F060FF10EE104A0EA908984B
:101B300015F05AFF10EE105A069A109B9A4228D0C0
:101B4000079A0F9B9A4224D0089A0E9B9A4220D063
:101B5000BB6C1E60BB6C5C60BB6C83ED020A3846DC
:101B6000FEF7FEFE304602F0A7FF06460F46284667
:101B700002F0A2FFCDE90201204602F09DFFCDE96F
:101B8000000132463B4611990448FFF775FB13B03C
:101B9000F0BD0348FFF770FBF9E700BFF8AE01089E
:101BA000F0AC010830B58DB00C4600230B93FEF766
:101BB00017FCA0B101AD21462846FEF774FC014692
:101BC0000BAA2846FFF7A4FC48B10378012B08D0E4
:101BD000022B0BD07BB90B990948FFF74DFB0DB0D9
:101BE00030BD0B990748FFF747FBF8E70B9906480C
:101BF000FFF742FBF3E70B990448FFF73DFBEEE7E5
:101C000030AF010860AF010890AF0108C0AF010814
:101C1000014B1860704700BF7C0D002008B5024BD7
:101C20001B6803B1984708BD7C0D002008B58AB237
:101C30000146024814F070FF08BD00BF800D00206F
:101C4000F9B170B58C00A4B2261DB6B20D4B93F855
:101C5000B835A3B90C4DB3FA83F35B09094A82F88E
:101C6000B83522460146284616F0D9F9074B1868C0
:101C7000285132462946002013F064FB70BD044D04
:101C8000E9E77047800D0020401200209CA9010860
:101C9000BC1200200FB430B5A1B0BDF890501E2D7D
:101CA00000D91E2525AB0193002411E0019B0733C9
:101CB00023F0070303F108020192D3E9000103F0C6
:101CC0004BFA20AB03EB840343F8780C0134A4B245
:101CD000A542EBD80022294602A8FFF7B1FF21B0A8
:101CE000BDE8304004B0704708B50248FFF790FFE8
:101CF00008BD00BF2D1C0008034B00221A705A605B
:101D00009A60DA621A6370473C13002010B582B003
:101D1000434C0A2243492046FEF792FA42492046A4
:101D2000FEF71CFB414B0093002301224049414830
:101D3000FEF744FC404B0093002301223F494048FA
:101D4000FEF73CFC3F48404B009300230122014634
:101D5000FEF734FC3D4B0093002301223C493D48F3
:101D6000FEF72CFC3C4B0093002301223B493C48EE
:101D7000FEF724FC3B4B0093002301223A493B48E9
:101D8000FEF71CFC3A4B00930023012239493A48E4
:101D9000FEF714FC394B00930023012238493948DF
:101DA000FEF70CFC384B00930023012237493848DA
:101DB000FEF704FC374B00930023012236493748D5
:101DC000FEF7FCFB364B00930023012235493648D1
:101DD000FEF7F4FB354B00930023012234493548CC
:101DE000FEF7ECFB344B00930023012233493448C7
:101DF000FEF7E4FB334B00930023012232493348C2
:101E0000FEF7DCFBFEF738FB002011F07BFD0146FE
:101E10002F48FFF731FA002011F0D0F902B010BDC1
:101E20003C130020DCAF0108440C002079150008A9
:101E3000E4AF0108F0AF0108B5150008F8AF0108DC
:101E400004B001080CB00108F115000819160008CB
:101E500014B0010828B001086516000838B0010860
:101E600044B00108B51600084CB0010864B0010880
:101E7000A517000870B0010884B00108091800080F
:101E80008CB00108B4B001086D180008C0B001089A
:101E9000E0B00108D1180008E8B0010810B101084D
:101EA000351900081CB101084CB101082D1A0008B1
:101EB00058B1010878B10108E91A000884B1010895
:101EC000A4B10108A51B0008B0B10108C0B1010808
:101ED000CCB1010808B5FFF70FFF08BD30B583B0DE
:101EE000322011F06DFB2EE01E48FFF7C5F90024EB
:101EF0000EE01D4B03EBC4031D79986802F0DCFD76
:101F000002460B4629461948FFF7B6F90134A4B238
:101F1000154B1B78A342ECD81548FFF7ADF9124BCF
:101F2000002283F87C2018E0124C22890193009251
:101F30006379227921681048FFF79EF90023A37284
:101F4000012011F03DFB0D4810F8041B01F0FCF8D6
:101F5000054B93F87C30002BC6D1064B9B7A002BA7
:101F6000E2D1EDE7E0B1010808190020F0B1010865
:101F700084B20108B419002000B20108000000205A
:101F800030B583B000228221082007F0ACF92A4C3A
:101F9000234643F8040B01932823009300234FF4B6
:101FA00080722649264811F0D6F804F108030193FF
:101FB0001825009500234FF480722249224811F021
:101FC000CAF804F10C030193009500234FF48072CA
:101FD0001E491F4811F0BFF804F11003019300954A
:101FE00000234FF480721B491B4811F0B4F804F130
:101FF000140301930C25009500234FF480721749B8
:10200000174811F0A8F804F1180301930095002374
:102010004FF480721349144811F09DF81C34019458
:102020000823009300234FF480721049104811F0E8
:1020300092F803B030BD00BF7413002014B2010841
:102040000921000820B20108F52300082CB201087C
:102050000D1D000838B20108DD1E000848B2010855
:10206000A320000854B201086D2600085CB20108E4
:102070001922000808B5FFF783FF08BD8B690360CC
:10208000CB6943604B6A83600B6AC3608B6A0361F0
:102090004B6B43610B6B8361CB6BC3610B69036259
:1020A000704730B5A5B09021124802F047FA0546B6
:1020B00003226B4604E00021D9611962013A2433FE
:1020C000002AF8DA0C496846FFF7D8FF0B4909A83F
:1020D000FFF7D4FF0A4912A8FFF7D0FF09491BA850
:1020E000FFF7CCFF6946284602F05CFA0A2011F09F
:1020F00067FAE7E764B20108780800206009002069
:10210000480A0020300B002008B512F0A3FD02F0B1
:1021100005FA01F011FBFFF72BF8FFF785F8FFF741
:10212000E3FD0D490D4801F0F9F90D48FEF7CAFD30
:102130000C48FEF7C7FD0C48FEF7C4FD0B48FEF740
:10214000C1FD002011F0DEFB01460948FFF794F8BD
:10215000002011F033F808BDB02D00207C280120AC
:102160007808002060090020480A0020300B002079
:1021700070B20108014B024A1A607047041900202E
:10218000102001202DE9F04786B01C4B186811F093
:10219000B9FB04461A4B186811F0B4FB0546194BFD
:1021A000186811F0AFFB0646174B186811F0AAFB30
:1021B0000746164B186811F0A5FB8046144B1868AB
:1021C00011F0A0FB8146002011F09CFB824605F037
:1021D0004DFB4EF6602305930490CDF80CA0CDF88E
:1021E0000890CDF80480009733462A4621460948D6
:1021F000FFF742F806B0BDE8F08700BF7813002073
:102200007C130020801300208413002088130020FA
:102210008C13002088B2010808B50648FFF72CF897
:102220004FF47A7011F0CCF94FF47A7011F0C8F9CC
:10223000FAE700BFECB2010808B5FFF79BFF08BD45
:1022400000230DE000EB8302516803F11E0200EB56
:1022500082025160C218002182F8F4100133DBB20F
:1022600002789A42EED870472DE9F04782B02E4CA2
:1022700004222270032384F81431052184F82812E3
:1022800084F83C3384F85034284E294D0092A3182A
:1022900032462946284614F091FC04F58A7A94F8CF
:1022A0001431009304F58C7306F110022946284678
:1022B00014F084FC04F50A7994F82832009304F5AC
:1022C0000B7306F11C022946284614F077FC04F52E
:1022D0004F7894F83C33009304F5507306F13002C4
:1022E0002946284614F06AFC04F58A6794F85034AD
:1022F000009304F2544306F13C022946284614F0A8
:102300005DFC2046FFF79CFF5046FFF799FF4846CB
:10231000FFF796FF4046FFF793FF3846FFF790FF21
:1023200002B0BDE8F08700BF9413002048000020F1
:10233000800D002030B583B0054600EE101A14461B
:10234000B8EE400A0C490D4814F00AFCFDEEC07AC4
:10235000CDED017A9DF80430094A92F864259A423D
:1023600007D02B70064A82F8643514B12046FEF778
:10237000F7FA03B030BD00BF00B30108800D0020A4
:102380009413002008B5844618460CEB010393F81B
:10239000F43093B10CEB8103D3F804E0C2F800E011
:1023A00001F11E030CEB8303C3F804E08C4400230B
:1023B0008CF8F43008B1FEF7D3FA08BD002315E01D
:1023C00000EB830292ED017A03F11E0200EB820220
:1023D000D2ED017AB4EE677AF1EE10FA14BF012162
:1023E0000021C21882F8F4100133DBB202789A425D
:1023F000E6D870472DE9F047A6B0FFF735FF9EE01D
:102400002046FFF71DFF5046FFF71AFF4846FFF72B
:1024100017FF4046FFF714FF3846FFF711FF84F817
:102420006C5506E1013D032D03D8DFE805F01E04DD
:102430001A1C002400E0834C2378012B17D0022BB8
:1024400035D0002B76D1804D221D01212846FFF783
:1024500099FF002304F1100202212846FFF792FFA2
:1024600068E07A4CE8E77A4CE6E77A4CE4E77A4EA3
:1024700006F58A752346626C00212846FFF782FF25
:10248000626C2346043201212846FFF77BFF626C11
:102490002346083202212846FFF774FF002304F187
:1024A0003002022106F50A70FFF76CFF42E06A4D28
:1024B00005F54F762346A26C00213046FFF762FFF8
:1024C000A26C2346043201213046FFF75BFFA26C69
:1024D0002346083202213046FFF754FF05F50A76FD
:1024E000002304F1340204213046FFF74BFF05F5C9
:1024F0008A752346626C00212846FFF743FF626C11
:102500002346043201212846FFF73CFF626C234634
:10251000083202212846FFF735FF0023E26C1946F6
:102520003046FFF72FFFE26C0023043201213046D2
:10253000FFF728FF224600212046FFF7FBFE4FF061
:10254000FF3205A9454B186807F08CF8BDF8144018
:10255000434D22460DF11601284615F060FDA5F801
:102560008040284614F0A6FB3B4C23463D4E13F812
:10257000042B009232462946284614F01FFB04F52E
:102580008A7A94F81431009304F58C7306F11002E2
:102590002946284614F012FB04F50A7994F82832EB
:1025A000009304F50B7306F11C022946284614F02B
:1025B00005FB04F54F7894F83C33009304F5507311
:1025C00006F130022946284614F0F8FA04F58A6725
:1025D00094F85034009304F2544306F13C02294627
:1025E000284614F0EBFA2046FFF7E8FE5046FFF7C6
:1025F000E5FE4846FFF7E2FE4046FFF7DFFE3846BD
:10260000FFF7DCFE04F5AD6500232A46194638467F
:10261000FFF7B8FED5ED007AFCEEE77ACDED037A50
:102620009DF80C50104B1D7094F86C35AB427FF444
:10263000E7AE6B1EDBB2032B7FF6F4AE0A2010F080
:10264000BFFF7CE760090020E4170020480A002053
:10265000300B002078080020941300207413002011
:10266000800D002048000020300C002070B5AAB07A
:10267000154801F0BDFF0646032206AB04E0002129
:10268000D9611962013A2433002AF8DA06A93046E2
:1026900002F010F80D9802F00FFA04460D46289843
:1026A00002F00AFACDE904011F9802F005FACDE91B
:1026B0000201169802F000FACDE9000122462B46ED
:1026C0000420FFF7E7FAE1E764B2010808B56423E4
:1026D0000322A0210448006809F04EFB08B1002045
:1026E00008BD0120FCE700BF0419002000B587B039
:1026F0000246FF238DF817306423029301230193D0
:102700000DF1170300930223A0210648006809F089
:102710005DFA20B99DF8170007B05DF804FBFF20B3
:10272000FAE700BF04190020C9B10B46CAB18118ED
:10273000B1F5005F01DD0020704700B585B0642170
:1027400002910192009302230246A02107480068EB
:1027500009F03CFA38B9012005B05DF804FB00200F
:102760007047002070470020F6E700BF04190020E2
:1027700038B5FEF717FD054601231A46A021054C82
:10278000206809F0F9FA20B1FEF70CFD401B04287F
:10279000F2D938BD0419002000B587B002468DF883
:1027A000171064230293012301930DF11703009383
:1027B0000223A0210648006809F035F918B100206D
:1027C00007B05DF804FBFFF7D3FF0120F8E700BF77
:1027D0000419002041B3F0B585B0054616460F46F2
:1027E00022B38318B3F5005F23DCDEB105F01F04CC
:1027F000C4F12004E4B2B44228BF344664230293F7
:102800000194009702232A46A0210C48006809F091
:102810000AF980B9FFF7ACFF2544ADB22744341B59
:10282000A6B2E2E7012002E000207047002005B0D8
:10283000F0BD0020FBE70020F9E700BF04190020ED
:1028400001290ED910B504460023C360017000238E
:1028500003724372880004F049FF606018B10120E0
:1028600010BD002070470020FAE7427A03789A42B0
:1028700001D20132D3B24372D0ED037A4368027AB7
:1028800003EB820393ED007A77EEC77A77EE807AD6
:10289000C0ED037A83ED000A037A0133017893FBDC
:1028A000F1F201FB1233037280ED060A80ED050A96
:1028B000437A994229D0D0ED036A07EE903AF8EEB8
:1028C000E77A86EEA77A80ED047A90ED040A7047E5
:1028D000013291421BDD436803EB8203D3ED007AA2
:1028E00090ED057AF4EEC77AF1EE10FA01DDC0ED55
:1028F000057AD3ED007A90ED067AF4EEC77AF1EE20
:1029000010FAE5D5C0ED067AE2E70022E1E790EDA6
:10291000037AD0ED057A37EE677AD0ED067A37EE96
:10292000677A023907EE901AF8EEE77AC7EE276A5F
:10293000C0ED046AC9E70023037243720023C36039
:10294000436183617047000030B5A1B0044601AD1A
:102950007C220021284615F0A8FA2946204611F0CD
:102960007FFEE8B99DF804C00E4B83F800C0002339
:1029700010E020AA02EBC30111F8780C094A02EB1F
:10298000C302107111F8770C507151F8741C9160EA
:102990000133DBB29C45ECD8024B012283F87C204A
:1029A00021B030BD08190020838A9B00114AA2FB88
:1029B0000323C3F387030B70142B18D8F0B583B02F
:1029C00007460E46002425460BE006EB440302337F
:1029D000009301230E222946384603F01BFA0E35D8
:1029E00001343378A342F0D8002003B0F0BD0120B9
:1029F000704700BF9324499230B58DB0044601ADB5
:102A00002A220021284615F050FA29462046FFF7D1
:102A1000CBFFC0B99DF804000C4B83F88000002365
:102A20000BE00CAA02EB430232F92A1C074A02EB24
:102A30004302A2F882100133DBB29842F1D8034B73
:102A4000012283F8AA200DB030BD00BF0819002074
:102A500000B585B001A9002301934B608B6011F094
:102A60008EFE90B90A4B019AC3F8AC209DF808205D
:102A700083F8B0209DF8092083F8B120BDF80C2020
:102A8000A3F8B420012283F8B62005B05DF804FB5A
:102A90000819002070B584B005460C46009100234B
:102AA0002022194603F0B6F90DF10E060096012317
:102AB00010222021284603F0ADF9BDF80E0003F0E6
:102AC00039FB84ED010A00960123102230212846AB
:102AD00003F0A0F9BDF80E0003F02CFB84ED020A10
:102AE0000096012310224021284603F093F9BDF8F7
:102AF0000E0003F01FFB84ED030A04F110030093A2
:102B0000012312225021284603F084F904F1140312
:102B10000093002307226221284603F07BF9153435
:102B20000094002305226921284603F073F9002050
:102B300004B070BD00B587B06946002300930193CF
:102B40000293039304930593FFF7A4FFB8B90D4BC9
:102B5000019AC3F8B820029AC3F8BC20039AC3F8BC
:102B6000C020049AC3F8C4209DF8142083F8C8201C
:102B70009DF8152083F8C920012283F8CA2007B0E8
:102B80005DF804FB0819002008B5C38A40F206422C
:102B9000934212D00AD840F25512934210D040F21C
:102BA000F232934201D1FFF7CFFE08BD40F20A4254
:102BB0009342FAD1FFF7BEFFF7E7FFF71DFFF4E7F7
:102BC000FFF746FFF1E700BF08B5036958691B8BA3
:102BD00021B10122194608F0B5FC08BD0022F9E731
:102BE00003691B691A68136823F0400313600369C3
:102BF0001B691A68136843F48043136003691B69F7
:102C00001A68136843F040031360704703691B6937
:102C10001A68136823F04003136003691B691A687C
:102C2000136823F48043136003691B691A681368EF
:102C300043F040031360704700B54FF0000E70463C
:102C400015E04FEA4C0C8CF0070C5FFA8CF0013366
:102C5000DBB2072B07D84FFA80FCBCF1000FF0DB8A
:102C60004000C0B2F3E70EF1010E5FFA8EFE96450A
:102C700004D211F80E3058400023EAE780F05500E6
:102C80005DF804FB10B582B0044600218DF80710F2
:102C9000ADF804108DF80610FFF796FF20690123A8
:102CA0001A460DF1070100690BF038FD08B102B0BA
:102CB00010BD2046FFF7AAFF20690123032201A9C6
:102CC00000690BF0AEFF0028F1D12046FFF788FF26
:102CD00001212046FFF778FF022201A92046FFF7D5
:102CE000ABFF9DF806308342E1D19DF804209DF8AA
:102CF000053043EA0223238007EE903AF8EEE77AA4
:102D00009FED067A67EE877AC4ED017A9FED047A2B
:102D100067EE877AC4ED027AC9E700BFA410C9380C
:102D2000E02E654290ED010A704790ED020A70476F
:102D300070B584B004460023ADF80C3011228DF834
:102D40000C208DF80D10ADF808301946FFF73CFF48
:102D500020690A23022203A900690BF0DFFC30B9C5
:102D600006462046FFF752FF002300930BE00121A7
:102D70002046FFF729FF0025284604B070BD00BF9C
:102D8000009B01330093009B092BF8D920690A238B
:102D9000022202A900690BF044FF054610B9002386
:102DA00001930CE001212046FFF70EFF2046FFF7BC
:102DB00017FF3546E0E700BF019B01330193019BFC
:102DC000092BF8D92046FFF70BFF01212046FFF71A
:102DD000FBFE012202A92046FFF72EFF9DF80930D5
:102DE0008342C9D19DF80850C6E770B586B0044645
:102DF0001546304B05930026ADF810608DF8126033
:102E000033238DF810308DF811108DF812208DF8C5
:102E10000F603146FFF7D8FE20690A23042205A976
:102E200000690BF07BFC01212046FFF7CDFE314607
:102E30002046FFF7C9FE009603E000BF009B013368
:102E40000093009B092BF8D920690A23032204A9C7
:102E500000690BF063FC0023019303E000BF019BBA
:102E600001330193019B092BF8D92046FFF7CEFED1
:102E700020690A2301220DF10F0100690BF0D1FE38
:102E80000023029303E000BF029B01330293029BE5
:102E9000092BF8D92046FFF7A3FE01212046FFF7B2
:102EA00093FE9DF80F00A84214BF0020012006B039
:102EB00070BD00BF2024010138B504460D46A1B104
:102EC0000221FFF735FF60F07F02D2B202212046D7
:102ED000FFF78BFF02212046FFF72AFF10F0800F3B
:102EE00001D1002038BD2846FCE70221FFF720FF72
:102EF00000F07F0202212046FFF777FF02212046E3
:102F0000FFF716FF10F0800F01D10120EAE72846F5
:102F1000E8E708B50173FFF7CFFF08BD30B583B010
:102F20000446104B1B68ADF804301B0C8DF80630BE
:102F3000FFF756FE00212046FFF746FE20690A23D0
:102F4000032201A900690BF0E9FB05460121204697
:102F5000FFF73AFE4FF4FA7010F032FB284603B048
:102F600030BD00BFE0B301082DE9F04180460F46B7
:102F700016461D46002406E0395D4046FFF7D8FEA0
:102F800030550134E4B2AC42F6D3BDE8F0812DE90E
:102F9000F8430646884617461D469DF820900024B3
:102FA00007E03A5D18F804103046FFF71EFF0134C1
:102FB000E4B2AC42F5D3B9F1000F01D1BDE8F8831A
:102FC0003046FFF7ABFFF9E7704710B50446022122
:102FD000FFF7AEFE40F04002D2B202212046FFF7DA
:102FE00004FF322010F0ECFA02212046FFF7A0FE89
:102FF00010F0400F01D0012010BD0020FCE708B503
:103000007221FFF795FEC0F3011008BDF8B5044624
:103010000E461621FFF78CFE054640F00802D2B29C
:1030200016212046FFF7E1FE45F01802D2B2162124
:103030002046FFF7DAFE0A2010F0C2FA2046FFF71A
:10304000DEFF01280BD025F0100242F0080202F04A
:10305000EF0216212046FFF7C8FE0020F8BDFEF75C
:10306000A1F8074611E025F0100242F0080202F034
:10307000EF0216212046FFF7B8FE2046FFF74EFF6D
:103080000120EBE70A2010F09BFAFEF78BF8C01B3B
:103090004FF47A7306FB03F3984212D22046FFF7EF
:1030A000AEFF0328DFD00228ECD125F0100242F059
:1030B000080202F0EF0216212046FFF796FE0020DC
:1030C000CCE725F0100242F0080202F0EF021621D0
:1030D0002046FFF78AFE0020C0E700BFB5EEC00A19
:1030E000F1EE10FA09D4F7EE007AB4EEE70AF1EE49
:1030F00010FA04DDB0EE670A01E09FED030A80EDEF
:10310000000A00234360704700000000D0ED017A00
:1031100090ED007A30EE670A27EE007A37EE870AE4
:1031200080ED010A7047D0ED017A30EE670A20EE9B
:10313000200A37EE800A80ED010A704700234360C1
:10314000704700BF0000000070B5BAB08DF86C1079
:10315000002310E03AAA02EBC30202F8783C4FF0D9
:10316000010C02F877CC00EB830CDCF800C042F8CD
:1031700074CC0133DBB28B42ECD30BAE31461BA8CF
:1031800011F059FA044628220021684614F08DFEF9
:1031900002238DF8003010A3D3E90023CDE90223E8
:1031A00040F2F233ADF81030094B059310238DF83F
:1031B00018300796ADF820406946064802F084FDB5
:1031C000002801DB00F028FB3AB070BDAFF30080AF
:1031D000D4190020DC190020F33AEC386248A7D853
:1031E000F0B591B0FDF7DEFF1F4BA3FB0030800967
:1031F0000D904E230D9300248DF838408DF8394002
:103200008DF83A40ADF83C400BAF39460DA811F0AF
:10321000A3FA054628222146684614F046FE0223FA
:103220008DF800300EA3D3E90023CDE9022340F24C
:103230005513ADF810300D4B059310238DF8183051
:103240000797ADF820506946094802F03DFDA042BD
:1032500001DB00F0E1FA11B0F0BD00BFAFF3008078
:10326000F1C6A7C1D068080FD34D6210D519002050
:10327000DC19002000B587B00023009301930222DF
:10328000029201220392049305936946104807F0C5
:1032900073FEB0B94FF08043009300230193029373
:1032A0000222039204936FF0604305936946084835
:1032B00007F062FE40B9064807F091FE07B05DF8DE
:1032C00004FB04F0CBFBE5E704F0C8FBF3E700BF29
:1032D0002C35002008B5FFF7CDFF08BD70B58AB0CA
:1032E00006460D461C462422002101A814F0DDFDEF
:1032F000019694B14FF08043029308230493002475
:10330000092C0CDC2A4601A9074807F07EFE48B1CB
:10331000012010F055F90134F2E70023ECE700201A
:103320000AB070BD0120FBE72C35002010B58AB033
:10333000044640211A4807F037FF30B1231D6A4682
:103340004021174807F08AFE38B14121144807F0A0
:103350002BFF78B900200AB010BD009B2360039BAF
:103360002373019BB3F1804F14BF002301236373C8
:103370000120F0E7231D6A464121094807F06EFE4F
:1033800008B10020E7E7009B2360039B2373019BA8
:10339000B3F1804F14BF0023012363730120DAE7E8
:1033A0002C35002008B5194B9B78DBB1184B9B7866
:1033B000C3B1184B9B78ABB1174B9B7893B1174BAC
:1033C0001B8803F00F03012B0DD014490B88144AFE
:1033D000A2FB0302920A4FF47A5000FB12339BB215
:1033E00001330B8008BD04220E490F4807F0D0F8C6
:1033F0000648FDF72FFE0648FDF72CFE0548FDF7B1
:1034000029FE0548FDF726FEDFE700BF780800200B
:1034100060090020480A0020300B0020D619002047
:10342000D34D6210200C0020B02D002003681B68D3
:1034300013F0100F67D130B585B0334B0FCB04AC10
:1034400004E90F0000241FE02846FDF777FC2BE07D
:10345000632B18D12D4B5A882D4BA3FB0213DB098C
:1034600003EB8303A2EB431292B2012A0BD1294B47
:103470002B612846FDF7D0FB05E0244B5B8803F069
:103480000303012B22D00134032C2DDC04AB03EB0E
:10349000840353F8105CAB78002BF4D01B4B5B8893
:1034A00003F00303012BCFD02B78022B12D0CFD8FF
:1034B000002BE2D0012BE6D1144B5B8803F0030311
:1034C000012BE0D12846FDF72DFDDCE72846FDF76E
:1034D000A3FBD8E70D4B5B8803F00F03012BD2D180
:1034E0002846FDF734FDCEE708494B880A4AA2FB7F
:1034F0000302920A4FF47A5000FB12339BB201335D
:103500004B8005B030BD704730AA0108D6190020A5
:10351000CDCCCCCC8FC2753FD34D621010B50446D4
:103520000268D2ED0B7AF8EE677AB6EE007A67EEB3
:10353000877AFCEEE77A17EE903A9BB253630BF072
:10354000B7FE002120460CF02BFA034BC4F8843060
:10355000024BC4F89C3010BD2D340008A533000880
:10356000022B26D19DF800305B2B24D040F2F233A1
:103570009A4209D041F26F439A420CD040F255135F
:103580009A420FD0002070470DA3D3E90023C1E970
:103590000023012070470CA3D3E90023C1E90023D5
:1035A000012070470AA3D3E90023C1E900230120C9
:1035B0007047002070470020704700BFAFF30080C5
:1035C000F33AEC386248A7D825893512000000008C
:1035D000F1C6A7C1D068080F70B5C0B005460C464B
:1035E0004FF480720021684614F05FFCA28AA16843
:1035F000684614F014FD2046FFF7C6FA2146284617
:1036000002F057FD40B070BD037B082B2AD830B5BF
:103610008BB005462422002101A814F046FC2B683B
:10362000002B06DBC3F30A0301932B7B04930024D6
:103630000AE023F0604301934FF080430293F4E7E4
:1036400001200FF0BDFF0134092C08DC2A1D01A95F
:10365000054807F0DAFC0028F2D1012000E0002044
:103660000BB030BD002070472C35002010B58CB059
:1036700004464121174807F097FD30B9402115480D
:1036800007F092FD08B3402100E041216B4602AAF9
:10369000104807F0E3FCD0B9039BB3F1804F0DD085
:1036A000029BC3F30A032360059A2273D2B26946D0
:1036B000201D14F0B4FC01200CB010BD029B23F0BF
:1036C000604343F000432360EEE70020F4E700206E
:1036D000F2E700BF2C35002010B588B004A8002404
:1036E000049444608460C460124B049306238DF8F4
:1036F0001C3011238DF8143022238DF8153033231C
:103700008DF8163044238DF8173055238DF8183076
:1037100066238DF81930FFF777FF05200FF050FF73
:1037200068460094019402940394FFF79FFF08B049
:1037300010BD00BF2103008010B582B0FFF7CAFDA5
:10374000084C00230193084B0093084B4FF4805220
:103750000749204602F093FA5B21204602F0AAFABC
:1037600002B010BDDC19002061350008D935000811
:10377000141A002008B502E0064802F0FBFA0548DA
:1037800002F0F4FA034620B11846FFF73DFF012886
:10379000F2D008BDDC19002000B585B007E0FDF7C8
:1037A000F5FC02460B466946054802F003FD6846F3
:1037B000FFF75CFF0128F2D005B05DF804FB00BF05
:1037C000DC19002038B504E0124802F0D3FAFFF704
:1037D000E3FF104802F0CAFA034620B11846FFF78B
:1037E00013FF0128F0D0FFF7D7FFFDF7DBFC0446FD
:1037F000084BDB6AC31AB3F57A7F00D838BD054D94
:103800004FF47A7200FB02F20023284602F0BAFA63
:10381000EC62F3E7DC19002038B5FFF7ABFFFFF7E8
:10382000BBFFFDF7BFFC094B1B6BC31AB3F57A7FD7
:1038300000D838BD0446054D4FF47A7200FB02F201
:103840000023284602F09EFA2C63F2E7DC190020E0
:1038500030B58DB0164B0AAC93E8030084E8030042
:1038600028220021684614F020FB02238DF8003046
:103870000DA3D3E90023CDE9022341F26F43ADF854
:1038800010300C4800F13403059307940823ADF879
:103890002030694602F018FA08B90DB030BDFFF7C4
:1038A000BBFFFAE7AFF30080258935120000000066
:1038B000E4B30108DC1900202DE9F04F87B010EEC9
:1038C00090BA82460C461546D0ED007AF4EE677A3F
:1038D000F1EE10FA08D6F0EEE77A9FED637AF4EE97
:1038E000477AF1EE10FA02DD0023CAF80030DAED73
:1038F000007A70EE677A17EE900A01F0DDF858A3AF
:10390000D3E9002300F07AFF01F026FCDFED570A2F
:1039100000EE100A16F0B6FBB5EEC00AF1EE10FA92
:1039200000F1918010EE100A01F0C6F84CA3D3E923
:10393000002300F061FF01F00FFC8046D4ED007A17
:10394000F4EE677AF1EE10FA08D6F0EEE77A9FED22
:10395000467AF4EE477AF1EE10FA01DD0023236097
:10396000DAF8000001F0A8F8CDE90001206801F0C4
:10397000A3F8CDE90201D5E90067404601F09CF8C3
:1039800002460B46CDE904233046394601F0ECF8F7
:1039900002460B46DDE9020100F030FF8046894611
:1039A000584601F089F806460F4602460B46404647
:1039B000494601F0D9F802460B46DDE9000100F066
:1039C0001DFF01F0C9FBCAF8000001F075F824A33F
:1039D000D3E9002300F012FF01F0BEFBDFED230A64
:1039E00000EE100A16F04EFBB5EEC00AF1EE10FA2A
:1039F0002ED410EE100A01F05FF819A3D3E90023CA
:103A000000F0FAFE01F0A8FBCAF80000206801F0FF
:103A100053F880468946D5E90223DDE9040101F027
:103A2000A3F802460B463046394601F09DF802469F
:103A30000B464046494600F0E1FE01F08DFB206058
:103A400007B0BDE8F08FDFED097A30EE270A69E7AD
:103A5000DFED067A30EE270ACBE700BFAFF3008038
:103A6000182D4454FB210940FFFF7F7FDB0FC94025
:103A70000146002301E00133DBB2074A92F820201F
:103A80009A4206D9044A52F8230042698A42F2D186
:103A900000E00020704700BF142A002078B1022205
:103AA000027042704FF48062428082804FF48072D4
:103AB000C2800281642242818281012070470020FD
:103AC000704738B50446B0F8780003F00FFEA061E7
:103AD0002062B4F87830A3830025A577A584B4F8D4
:103AE0007A0003F003FEA0622063B4F87A30A38565
:103AF00084F82E50A586A36913B118B1012038BDF2
:103B00000020FCE70020FAE710B5044600220C2153
:103B1000B0F8800005F0E7FBA06300220C21B4F8A8
:103B2000820005F0E0FBE063A36B13B118B1012044
:103B300010BD0020FCE70020FAE710B50446032280
:103B40000021012005F0CFFB206403220021012089
:103B500005F0C9FB03466064206C68B173B10023B3
:103B60001A46194605F0E3FB00231A461946606C15
:103B700005F0DDFB012010BD0020FCE70020FAE786
:103B8000F0B583B0044600F150050346164A1321F0
:103B9000284605F041FA04F14803019318270097DD
:103BA00023464FF48072294610480FF0D4FA00F0F3
:103BB000010504F1630623460D4A1321304605F042
:103BC0002BFA04F14C030193009723464FF48072C3
:103BD000314608480FF0BFFA054202D0012003B079
:103BE000F0BD0020FBE700BFF0B30108614400080E
:103BF000F8B301088F44000838B505460C49406900
:103C00000DF093F804460B4A012168690DF016F88F
:103C10000443E4B2084A042168690DF00FF8044334
:103C200014F0FF0F01D1012038BD0020FCE700BFD8
:103C3000B73F0008134000085D400008F8B504468F
:103C40000D46B0F8920000F025FF06460F46B4F886
:103C50007A0000F01FFF10A3D3E9002300F084FFD7
:103C600002460B463046394601F00EFA70B94DB1A6
:103C7000E06B05F0E3FEB4F88230181A012807D98A
:103C80000020F8BDE06B05F0C6FEF4E70120F8E780
:103C90000120F6E7AFF300809A9999999999E93F45
:103CA000002904DDD0F888300B44C0F88830002AA1
:103CB00004DDD0F88C301344C0F88C30B0F890306C
:103CC0000B44A0F89030B0F892301344A0F8923032
:103CD000704710B5044690F87630012B03D0022BC4
:103CE00019D0002010BDB0F87C20016A40690DF0A9
:103CF000C5FF022817D16369002283F88420B4F835
:103D00007C20216A60690DF0B9FFB4F8843001337A
:103D1000A4F8843007E0B0F87C20016A40690DF017
:103D2000D4FF022803D00028DBD10120DAE7636941
:103D3000002283F88420B4F87C20216A60690DF0A9
:103D4000C4FFB4F884300133A4F88430EBE72DE9E4
:103D5000F0410646D9B114461D460F46BAB1B3B17B
:103D60002021384614F0DBF80F280BD823784BB10C
:103D700063783BB1E3882BB123891BB163890BB115
:103D8000A38943B9012373740020BDE8F0810123A6
:103D900073740020F9E7002333607360B360F3604D
:103DA000C6F87630C6F87A30C6F87E30A6F882308B
:103DB000C6F88430C6F88830C6F88C30C6F8903023
:103DC00010223946304614F097F821686268A368DB
:103DD000C6F87610C6F87A20C6F87E30A389A6F811
:103DE000823075612846FFF743FE18B101237374D2
:103DF0000020CAE71A4A92F8203042F823600133C3
:103E000082F820303046FFF75CFE10B9012373744E
:103E1000BBE73046FFF778FE10B901237374B4E7AF
:103E20003046FFF78AFE10B901237374ADE73046C0
:103E3000FFF7A6FE10B901237374A6E73046FFF71B
:103E4000DBFE10B9012373749FE73046FFF741FF93
:103E500010B10123337498E70223737495E700BF10
:103E6000142A0020F0B585B004460D461646684673
:103E7000FFF714FE33466A4629462046FFF767FFE0
:103E800005B0F0BD38B504460D4690F87730012BEB
:103E900003D0022B17D0002038BD8A8809684069FA
:103EA0000CF05CFF022815D16369002283F884209E
:103EB000AA88296860690CF051FFB4F88430013396
:103EC000A4F8843006E08A88096840690CF09CFFF9
:103ED000022803D00028DED10120DDE7636900223B
:103EE00083F88420AA88296860690CF08DFFB4F8F3
:103EF00084300133A4F88430ECE729B1C0F8941081
:103F0000C0F89820012070470020704730B585B078
:103F100004460D460023039390F87630022B07D118
:103F20004369B3F85C30B1EB530F34D00023A37472
:103F3000002229B22046FFF7B3FEFDF733F90290C5
:103F4000A38C2B449BB2A384226A0092ADF8045048
:103F5000A28BD31AB4F87C20934201DA0023A38405
:103F6000A369A28C134423622046FFF7B2FE00230C
:103F700003AA6946A06B05F0B5FA039B4BB14FF05D
:103F8000E0234FF08052C3F8042DBFF34F8FBFF3EF
:103F90006F8F05B030BD837C002BC7D101238374A4
:103FA000F7E710B514460846FFF762FD10B1214649
:103FB000FFF7ACFF10BD08B50A4601460020FFF729
:103FC000F0FF08BD10B582B004464369B3F8542031
:103FD000524212B20021FFF763FE0023019301A9B0
:103FE000206C05F0E6FA019B4BB14FF0E0234FF057
:103FF0008052C3F8042DBFF34F8FBFF36F8F02B011
:1040000010BD08B50846FFF733FD08B1FFF7DAFF2A
:1040100008BD08B501460020FFF7F3FF08BD08B54D
:104020004369D3F8902072B11B68DA6912F0040F6B
:1040300001D004221A6243691B68DA6912F0020F88
:1040400001D002221A62FFF744FE08BD08B50846F7
:10405000FFF70EFD08B1FFF7E2FF08BD08B5014606
:104060000020FFF7F3FF08BD2DE9F04784B00029D9
:1040700000F09F80044617460D460B68002B00F0A9
:104080009A808888002800F09880267C002E00F016
:10409000958000F0FFFC80468946B4F87A0000F075
:1040A000F9FC49A3D3E9002300F05EFD02460B466C
:1040B0004046494600F0E8FF08B100267EE00021B6
:1040C0002046FFF7BBFD08B1002677E04FF0FF3137
:1040D000606C05F076FB002F37D1B4F82C80B4F873
:1040E0003490A8EB0907BFB2AA88BA4231D8296830
:1040F000206B13F094FF236B0193AB88ADF808306D
:1041000000234FF0FF3201A9E06B05F010F9A38EF8
:10411000AA8813449BB2A386A28DD31AB4F87E203A
:10412000934201DA0023A386A36AA28E1344236379
:10413000B5F9042000212046FFF7B2FD00231A46FE
:104140001946606C05F0F3F838E0FDF72BF80390A2
:10415000C3E73A462968206B13F061FF236B019394
:10416000ADF808700DF1040A00234FF0FF325146FC
:10417000E06B05F0DCF8AB88A9EB080903EB090854
:104180001FFA88F8296842463944A06A13F047FFAD
:10419000A36A0193ADF8088000234FF0FF32514627
:1041A000E06B05F0C4F8A4F83480A36A43442363A9
:1041B000BEE7002602E0002600E00026304604B0FC
:1041C000BDE8F087AFF300809A9999999999E93FF2
:1041D00000B585B00191ADF808200393B3FA83F2DE
:1041E000520901A9FFF740FF05B05DF804FB2DE976
:1041F000F04F85B0002A00F09F8004460D469A4695
:104200001746067C002E00F09880104600F042FC15
:1042100080468946B4F87A0000F03CFC4AA3D3E912
:10422000002300F0A1FC02460B464046494600F040
:104230002BFF08B1002680E001212046FFF7FEFC9D
:10424000804608B1002678E06A460021606C05F0DF
:104250008BFB012875D1BAF1000F3FD0B4F82CA028
:10426000B4F83480AAEB08091FFA89F94F4539D808
:104270003A462946206B13F0D2FE236B0193ADF82A
:10428000087000236A4601A9E06B05F02BF9A38EA4
:104290003B449BB2A386A28DD31AB4F87E209342EE
:1042A00001DA0023A386A36AA28E134423633AB2E1
:1042B00000212046FFF7F4FC6946606C05F079F9AF
:1042C000009B002B39D04FF0E0234FF08052C3F811
:1042D000042DBFF34F8FBFF36F8F2EE0FCF762FF0B
:1042E0000390BBE74A462946206B13F098FE236BE8
:1042F0000193ADF8089000236A4601A9E06B05F030
:10430000F1F8A8EB0A08B8441FFA88F8424605EB12
:104310000901A06A13F083FEA36A0193ADF8088037
:1043200000236A4601A9E06B05F0DCF8A4F83480AC
:10433000A36A43442363BAE70026304605B0BDE8CC
:10434000F08F4646F9E700BF9A9999999999E93F04
:1043500010B599B10B469AB1047C94B190F87710DE
:10436000012906D002290CD1194640690CF04CFDF8
:1043700007E0194640690CF0F1FC02E0002400E07F
:104380000024204610BD0EB42DE9F04183B006464E
:10439000C82003F0ABF940B34FF0000807460AAB62
:1043A0000193099AC82104F04BFE05464446632C4C
:1043B0000DD80023AAB239463046FFF709FF8046E0
:1043C00028B901200FF0FCF80134E4B2EFE7B8F1AE
:1043D000000F01D14FF0FF35384603F009FA2846A7
:1043E00003B0BDE8F04103B070474FF0FF35F6E78A
:1043F0000EB470B583B00546C82003F077F9C8B194
:10440000064608AB0193079AC82104F019FE04463A
:10441000002382B231462846FFF7E9FE08B94FF083
:10442000FF34304603F0E4F9204603B0BDE87040A5
:1044300003B070474FF0FF34F6E700B585B004468F
:104440004FF0FF3201A9A06B05F00CF9D4F89430BD
:10445000002BF5D0D4F89820214601A89847EFE723
:1044600008B5FFF7EAFF00B585B0044601AD4FF08F
:10447000FF322946E06B05F0F5F84FF0FF31206C74
:1044800005F09FF929462046FFF7FCFCEEE708B54A
:10449000FFF7E9FF704700BF38B50546002400E08C
:1044A0000134092C14DC1C4B4C2202FB043393F81E
:1044B0004930002BF4D02946174B02FB043000F0A2
:1044C0002FF90028ECD114484C2303FB040021E011
:1044D0000023092B1DDC104A4C2101FB032292F81A
:1044E00049200AB10133F4E70B4C01FB03440F22CE
:1044F0002946204613F000FD012004F0E8FFE061AA
:10450000012384F849300023A36184F84830204611
:1045100000E0002038BD00BF382A002010B5064C4E
:104520004FF43E720021204613F0BFFC012004F03E
:10453000CEFFC4F8F80210BD382A002038B5044672
:104540000D464FF0FF31154BD3F8F80205F039F95D
:104550002046FFF7A1FFB0B1044603699BB9284686
:1045600003F0C4F8206165610C48241AA4100C4BB8
:1045700003FB04F400231A461946D0F8F80204F0AD
:10458000D6FE204638BD00231A4619460348D0F807
:10459000F80204F0CCFE4FF0FF34F2E7382A002096
:1045A0001BCA6B28092820D838B50D460F4B4C2262
:1045B00002FB003393F8493003B938BD0B4C02FBC2
:1045C00000444FF0FF31E06905F0FBF862692946CD
:1045D000206913F024FDA3690133A36100231A4667
:1045E0001946E06904F0A3FEE7E77047382A002087
:1045F00070B504464FF0FF311B4BD3F8F80205F0BD
:10460000E0F82046FFF748FF18B3044690F84850FA
:10461000042D1ED80FF082F9043544F8350094F8C3
:104620004850A2692B1D04EBC3035A606B1C84F82D
:1046300048300D4E00231A461946D6F8F80204F009
:1046400076FEA01B8010094B03FB00F040EA0540FA
:1046500070BD00231A4619460348D0F8F80204F04A
:1046600066FE4FF0FF30F3E7382A00201BCA6B28A4
:1046700083B2000C092B16D80D4A4C2101FB0322F2
:1046800092F84820824210DD094A043001FB03F30E
:1046900003EBC000104440681A44936998422CBF51
:1046A000002001207047002070470020704700BFA5
:1046B000382A00202DE9F0410E4685B2040C02E0B4
:1046C00001200EF07DFF154A231D4C2105FB01F151
:1046D00001EBC303134458680A4493699842EFD02E
:1046E000DFF838800D4617464FF0FF31D06905F0EE
:1046F00068F87A693969304613F091FCBE69002385
:104700001A461946F86904F012FE043405EBC40594
:10471000A844C8F804600120BDE8F081382A0020D0
:1047200010F8012B11F8013B012A28BF9A42F7D05B
:10473000D01A7047034613F8012B002AFBD1181A30
:104740000138704700000000000000000000000079
:1047500001F0FF01102A2BDB10F0070F08D010F832
:10476000013B013A8B422DD010F0070F42B3F6D136
:10477000F0B441EA012141EA014122F007047FF04F
:1047800000070023F0E80256083C85EA010586EAA6
:10479000010685FA47F5A3FA87F586FA47F6A5FAE2
:1047A00087F68EB9EED1F0BC01F0FF0102F00702EE
:1047B00032B110F8013B013A83EA010313B1F8D199
:1047C0000020704701387047002D06BF354603387A
:1047D000073815F0010F07D1013015F4807F02BFB3
:1047E000013015F4C03F0130F0BC0138704700BF04
:1047F00081F0004102E000BF83F0004330B54FEA92
:1048000041044FEA430594EA050F08BF90EA020FFE
:104810001FBF54EA000C55EA020C7FEA645C7FEA91
:10482000655C00F0E2804FEA5454D4EB5555B8BFB4
:104830006D420CDD2C4480EA020281EA030382EA25
:10484000000083EA010180EA020281EA0303362DB7
:1048500088BF30BD11F0004F4FEA01314FF4801C8A
:104860004CEA113102D0404261EB410113F0004F9C
:104870004FEA03334CEA133302D0524263EB430353
:1048800094EA050F00F0A780A4F10104D5F1200EF1
:104890000DDB02FA0EFC22FA05F2801841F100014C
:1048A00003FA0EF2801843FA05F359410EE0A5F120
:1048B00020050EF1200E012A03FA0EFC28BF4CF051
:1048C000020C43FA05F3C01851EBE37101F0004507
:1048D00007D54FF0000EDCF1000C7EEB00006EEB14
:1048E0000101B1F5801F1BD3B1F5001F0CD349089E
:1048F0005FEA30004FEA3C0C04F101044FEA4452F5
:1049000012F5800F80F09A80BCF1004F08BF5FEA7B
:10491000500C50F1000041EB045141EA050130BD5B
:104920005FEA4C0C404141EB0101013C28BFB1F56D
:10493000801FE9D291F0000F04BF01460020B1FAB8
:1049400081F308BF2033A3F10B03B3F120020CDA8B
:104950000C3208DD02F1140CC2F10C0201FA0CF069
:1049600021FA02F10CE002F11402D8BFC2F1200CCE
:1049700001FA02F120FA0CFCDCBF41EA0C01904084
:10498000E41AA2BF01EB0451294330BD6FEA0404CD
:104990001F3C1CDA0C340EDC04F11404C4F12002B8
:1049A00020FA04F001FA02F340EA030021FA04F3CA
:1049B00045EA030130BDC4F10C04C4F1200220FA21
:1049C00002F001FA04F340EA0300294630BD21FA5F
:1049D00004F0294630BD94F0000F83F4801306BF25
:1049E00081F480110134013D4EE77FEA645C18BF19
:1049F0007FEA655C29D094EA050F08BF90EA020FB0
:104A000005D054EA000C04BF1946104630BD91EAA7
:104A1000030F1EBF0021002030BD5FEA545C05D1AA
:104A20004000494128BF41F0004130BD14F58004E9
:104A30003CBF01F5801130BD01F0004545F0FE415D
:104A400041F470014FF0000030BD7FEA645C1ABF92
:104A5000194610467FEA655C1CBF0B46024650EAC9
:104A6000013406BF52EA033591EA030F41F40021F5
:104A700030BD00BF90F0000F04BF0021704730B57B
:104A80004FF4806404F132044FF000054FF0000150
:104A900050E700BF90F0000F04BF0021704730B511
:104AA0004FF4806404F1320410F0004548BF4042E6
:104AB0004FF000013EE700BF42004FEAE2014FEA3B
:104AC00031014FEA02701FBF12F07F4393F07F4F16
:104AD00081F06051704732F07F4208BF704793F019
:104AE0007F4F04BF41F40021704730B54FF460742C
:104AF00001F0004521F000411CE700BF50EA01022F
:104B000008BF704730B54FF000050AE050EA0102D7
:104B100008BF704730B511F0004502D5404261EB47
:104B200041014FF4806404F132045FEA915C3FF488
:104B3000D8AE4FF003025FEADC0C18BF03325FEA25
:104B4000DC0C18BF033202EBDC02C2F1200300FAD6
:104B500003FC20FA02F001FA03FE40EA0E0021FAFB
:104B600002F11444BDE600BF70B54FF0FF0C4CF4E9
:104B7000E06C1CEA11541DBF1CEA135594EA0C0F9B
:104B800095EA0C0F00F0DEF82C4481EA030621EAD6
:104B90004C5123EA4C5350EA013518BF52EA033511
:104BA00041F4801143F4801338D0A0FB02CE4FF0C3
:104BB0000005E1FB02E506F00042E0FB03E54FF0F3
:104BC0000006E1FB03569CF0000F18BF4EF0010EEB
:104BD000A4F1FF04B6F5007F64F5407404D25FEAE7
:104BE0004E0E6D4146EB060642EAC62141EA55519A
:104BF0004FEAC52040EA5E504FEACE2EB4F1FD0CDC
:104C000088BFBCF5E06F1ED8BEF1004F08BF5FEA59
:104C1000500E50F1000041EB045170BD06F000460B
:104C200046EA010140EA020081EA0301B4EB5C04B8
:104C3000C2BFD4EB0C0541EA045170BD41F48011B0
:104C40004FF0000E013C00F3AB8014F1360FDEBFD5
:104C5000002001F0004170BDC4F10004203C35DAB1
:104C60000C341BDC04F11404C4F1200500FA05F334
:104C700020FA04F001FA05F240EA020001F00042D5
:104C800021F0004110EBD37021FA04F642EB06014B
:104C90005EEA430E08BF20EAD37070BDC4F10C0475
:104CA000C4F1200500FA04F320FA05F001FA04F239
:104CB00040EA020001F0004110EBD37041F1000125
:104CC0005EEA430E08BF20EAD37070BDC4F1200530
:104CD00000FA05F24EEA020E20FA04F301FA05F298
:104CE00043EA020321FA04F001F0004121FA04F240
:104CF00020EA020000EBD3705EEA430E08BF20EA10
:104D0000D37070BD94F0000F0FD101F00046400049
:104D100041EB010111F4801F08BF013CF7D041EACB
:104D2000060195F0000F18BF704703F000465200CF
:104D300043EB030313F4801F08BF013DF7D043EAA0
:104D40000603704794EA0C0F0CEA135518BF95EA56
:104D50000C0F0CD050EA410618BF52EA4306D1D1DD
:104D600081EA030101F000414FF0000070BD50EAFC
:104D7000410606BF1046194652EA430619D094EA86
:104D80000C0F02D150EA013613D195EA0C0F05D170
:104D900052EA03361CBF104619460AD181EA0301C4
:104DA00001F0004141F0FE4141F470014FF000007C
:104DB00070BD41F0FE4141F4780170BD70B54FF017
:104DC000FF0C4CF4E06C1CEA11541DBF1CEA135597
:104DD00094EA0C0F95EA0C0F00F0A7F8A4EB050479
:104DE00081EA030E52EA03354FEA013100F0888070
:104DF0004FEA03334FF0805545EA131343EA126339
:104E00004FEA022245EA111545EA10654FEA0026ED
:104E10000EF000419D4208BF964244F1FD0404F5A6
:104E2000407402D25B084FEA3202B61A65EB030502
:104E30005B084FEA32024FF480104FF4002CB6EBBF
:104E4000020E75EB030E22BFB61A754640EA0C003F
:104E50005B084FEA3202B6EB020E75EB030E22BF7F
:104E6000B61A754640EA5C005B084FEA3202B6EBC0
:104E7000020E75EB030E22BFB61A754640EA9C007F
:104E80005B084FEA3202B6EB020E75EB030E22BF4F
:104E9000B61A754640EADC0055EA060E18D04FEA0D
:104EA000051545EA16754FEA06164FEAC30343EAAD
:104EB00052734FEAC2025FEA1C1CC0D111F4801F7A
:104EC0000BD141EA00014FF000004FF0004CB6E773
:104ED00011F4801F04BF01430020B4F1FD0C88BF12
:104EE000BCF5E06F3FF6AFAEB5EB030C04BFB6EB1D
:104EF000020C5FEA500C50F1000041EB045170BD10
:104F00000EF0004E4EEA113114EB5C04C2BFD4EB3C
:104F10000C0541EA045170BD41F480114FF0000EC0
:104F2000013C90E645EA060E8DE60CEA135594EA3C
:104F30000C0F08BF95EA0C0F3FF43BAF94EA0C0F3F
:104F40000AD150EA01347FF434AF95EA0C0F7FF4B4
:104F500025AF104619462CE795EA0C0F06D152EA08
:104F600003353FF4FDAE1046194622E750EA4106EC
:104F700018BF52EA43067FF4C5AE50EA41047FF4FD
:104F80000DAF52EA43057FF4EBAE12E74FF0FF3C62
:104F900006E000BF4FF0010C02E000BF4FF0010C33
:104FA0004DF804CD4FEA410C7FEA6C5C4FEA430CAC
:104FB00018BF7FEA6C5C1BD001B050EA410C0CBFFB
:104FC00052EA430C91EA030F02BF90EA020F00205D
:104FD000704710F1000F91EA030F58BF994208BFC4
:104FE00090422CBFD8176FEAE37040F00100704781
:104FF0004FEA410C7FEA6C5C02D150EA013C07D1D8
:105000004FEA430C7FEA6C5CD6D152EA033CD3D022
:105010005DF8040B704700BF8446104662468C461C
:105020001946634600E000BF01B5FFF7B7FF00284F
:1050300048BF10F1000F01BD4DF808EDFFF7F4FF78
:105040000CBF012000205DF808FB00BF4DF808ED03
:10505000FFF7EAFF34BF012000205DF808FB00BF26
:105060004DF808EDFFF7E0FF94BF012000205DF848
:1050700008FB00BF4DF808EDFFF7CEFF94BF0120FD
:1050800000205DF808FB00BF4DF808EDFFF7C4FFF6
:1050900034BF012000205DF808FB00BF4FEA410C3F
:1050A0007FEA6C5C02D150EA013C0AD14FEA430C22
:1050B0007FEA6C5C02D152EA033C02D14FF000005F
:1050C00070474FF0010070474FEA410212F500129D
:1050D00015D211D56FF47873B3EB625212D94FEA3F
:1050E000C12343F0004343EA505311F0004F23FA29
:1050F00002F018BF404270474FF00000704750EA7E
:10510000013005D111F0004008BF6FF0004070473A
:105110004FF00000704700BF4A0011D212F5001294
:1051200011D20DD56FF47873B3EB62520ED44FEAFF
:10513000C12343F0004343EA505323FA02F070477F
:105140004FF00000704750EA013002D14FF0FF30BD
:1051500070474FF0000070474FEA4102B2F1E04360
:1051600024BFB3F5001CDCF1FE5C0DD901F0004C4E
:105170004FEAC0024CEA5070B2F1004F40EB83009E
:1051800008BF20F00100704711F0804F21D113F1CA
:105190003872BCBF01F00040704741F480114FEA03
:1051A0005252C2F11802C2F1200C10FA0CF320FA8C
:1051B00002F018BF40F001004FEAC1234FEAD323A9
:1051C00003FA0CFC40EA0C0023FA02F34FEA430313
:1051D000CCE77FEA625307D150EA01331EBF4FF09C
:1051E000FE4040F44000704701F0004040F0FE40B7
:1051F00040F40000704700BF53B94AB9002908BF06
:1052000000281CBF4FF0FF314FF0FF3000F00CB80A
:10521000ADF1080C6DE904CE15F02EFADDF804E0CE
:10522000DDE9022304B07047704700BF0348044B18
:10523000834202D0034B03B1184770473C0600205D
:105240003C060020000000000548064B1B1AD90F41
:1052500001EBA301491002D0034B03B1184770477B
:105260003C0600203C0600200000000010B5064C63
:10527000237843B9FFF7DAFF044B13B10448AFF3C7
:1052800000800123237010BD342D00200000000099
:1052900070A9010808B5054B1BB105490548AFF3D6
:1052A0000080BDE80840FFF7CFBF00BF000000004E
:1052B000382D002070A9010800B589B020220021F6
:1052C000684612F0F2FD2F482F4B03604FF4403335
:1052D000436000238360C3600361012242610422B2
:1052E000826103774377026280F82430C3620363EC
:1052F00080F83830C36380F8403004F0F7FC0028B1
:1053000030D1224B009306230193022302937F2383
:10531000039304230493002305936946194804F07A
:105320005BFE10BB1A4B00930C23019300230293E6
:105330006946144804F050FED0B9164B009312236E
:10534000019369460F4804F047FEA0B9124B009341
:105350001823019369460B4804F03EFE70B909B06A
:105360005DF804FB02F07AFBCBE702F077FBD9E7AC
:1053700002F074FBE1E702F071FBE7E702F06EFB7D
:10538000EDE700BFB02D0020000100500020903656
:105390000800900C2000F01400106032F0B59FB0AF
:1053A0000446002119911A911B911C911D915422C0
:1053B00004A812F07AFD2268374B9A4201D01FB040
:1053C000F0BD4FF4004304934FF00053159304A82D
:1053D00008F026FE002859D1304BDA6C42F4005216
:1053E000DA64DA6C02F400520092009ADA6C42F04D
:1053F0000102DA64DA6C02F001020192019ADA6CBD
:1054000042F00402DA64DA6C02F004020292029AB8
:10541000DA6C42F00202DA64DB6C03F002030393FD
:10542000039B6023199303271A9700251B9519AE38
:1054300031464FF0904005F095FF102319931A97CD
:105440001B953146164805F08DFF042319931A97D2
:105450001B953146134805F085FF1348134B036035
:10546000242343608560C560802303614FF480730B
:1054700043614FF4806383612023C361056205F0BB
:1054800075FA30B9084B63659C6298E702F0E6FA5A
:10549000A2E702F0E3FAF5E7000100500010024035
:1054A0000008004800040048502D00208000024001
:1054B00008B5FCF7DFFD08BD084670470846704791
:1054C0000846704708467047401A83B2002800DB40
:1054D0007047203318B2FBE703780133DBB2037067
:1054E0001F2B01D90023037070470E2809D8DFE86D
:1054F00000F01515151515151515150A0C0E1012B9
:105500001400402070470C20704710207047142072
:1055100070471820704720207047302070470828B7
:1055200018D90C280BD910280BD914280BD91828F6
:105530000BD920280BD930280BD90F207047092010
:1055400070470A2070470B2070470C2070470D20D1
:1055500070470E207047034621F0604C20F06042F7
:10556000C00F91EA030F0AD4C1F38071C3F38070B6
:10557000944514D094452CBF002001207047002989
:1055800008DB002B09DB9445F8D094452CBF0020A4
:10559000012070474FEA9C4CF3E7920CF3E78142FD
:1055A000ECD1E7E72DE9F04107460D46D0F824801D
:1055B000B8F1000F0CD046464446A4B16968606853
:1055C000FFF7C9FF30B9236826465BB11C46F4E7F4
:1055D000796208E0A04502D035602C6003E02C60C1
:1055E0007D6200E02560BDE8F081C37DC3F38402E5
:1055F000013262F38603C375C38A6FF30903C38262
:10560000C37D23F08003C375704738B504460D464B
:10561000006A04E0016804F10C00FFF751FF10B1CB
:105620000369AB42F6D138BD2DE9F043079ECD08A2
:1056300003EBD60401F0070E06F0070372442AE0DC
:105640000EF0070803F00706C446B04538BFB4465D
:10565000CCF1080CA2EB0E018C4528BF8C464FF410
:105660007F4121FA0CF1C9B241FA06F74FEADE0197
:1056700000EB050919F8011001FA08F1F140C9B26F
:105680004FEAD30814F80860714039404E4004F8DE
:105690000860E64463449645D2D1BDE8F0832DE925
:1056A000F04F87B00393838AB1EBC30F80F08780FC
:1056B00082460E461546DA0069188A4203D2D3B2F2
:1056C000F2B29B1ADDB2DAF80C3043B3272E36D88B
:1056D000C6F128039D4230D35FFA86FBCBF1280B3D
:1056E0005FFA8BFB00230093039B5A463146DAF89E
:1056F0000800FFF799FF5E44A5EB0B04E4B2BAF88B
:10570000147007F10057053FFF00DAF80C902821CC
:105710004B46B946CDF810A005951F4626E0DAF8AD
:105720001030002BD2D100230093039B2A46314630
:10573000DAF80800FFF778FF35E0AB46D2E72C46F1
:105740004FF0000BDBE72546CDF800B0039B2A465F
:10575000711A381DFFF768FF2E44AB445FFA8BFBCC
:10576000651BECB2A9EB0A093F684146A7B19CB1A1
:10577000CA46B9F1E00F28BF4FF0E00A0AEB010872
:105780004645EFD2A8EB06039C42DCD35FFA88F5CE
:10579000F3B2ED1AEDB2D7E7DDF810A0059DDAF807
:1057A000100000B11CB928B207B0BDE8F08FCDF8E9
:1057B00000B0039B2246711AFFF736FFF3E7002083
:1057C000F2E7002070470139002307E0C25C10F8BF
:1057D00001C000F803C04254013301398B42F5D3B4
:1057E000704780EA0120002307E0400080B280F487
:1057F000815080F001000133DBB2072B05D810F493
:10580000004FF2D1400080B2F5E7704770B5164600
:105810001D46002411E0C4F12003A4F1200C26FA57
:1058200004F105FA03F3194325FA0CFC41EA0C01D3
:10583000C9B2FFF7D6FF0834A4B23F2CEBD970BD34
:1058400038B50C4604E014F8011BFFF7CAFF2A46DE
:10585000551E002AF7D138BD38B5058C072D0BD958
:105860000446D0E902234FF6FF70FFF7CFFF2A4628
:10587000E169FFF7E5FF38BD4FF6FF70FBE710B4B5
:10588000016100F1040C002305E001EB4314CCF8A6
:105890000040A44601339A42F7D80023CCF80030E8
:1058A00002814381838103605DF8044B70470346A6
:1058B000406848B102685A605A89013292B25A81EE
:1058C00099898A4200D99A81704708B5FFF7EFFF9E
:1058D00008B10023036008BD2DE9F84F82468946D0
:1058E00017461D46CB8AC3F30903052B32D0184651
:1058F0000024042B0AD8A54208D9395D09EB03021C
:10590000D17601339BB20134A4B2F2E7A54218D993
:10591000B9F816B0CBF3090BABF1050293083D497A
:10592000A1FB0313C3EBC303A2EB83021FFA82F8AC
:10593000D9F8041081B15046FFF7BEFD0646012399
:105940001CE02844B9F8163060F30903A9F81630B2
:10595000012054E00024DBE75046FFF7B6FF06467F
:1059600001465046FFF7AAFDC9F80400002E48D0B2
:105970004FF000082CE001339BB216463268002A33
:10598000F9D105EB0B02053A92082249A1FB02125C
:1059900092B2013292B293421AD2B8F1000F17D1EB
:1059A0005046FFF792FF306070B3064610E03A5D54
:1059B00006EB0C031A710CF1010C1FFA8CFC01347C
:1059C000A4B2BCF11B0F01D8A542F0D8A54203D860
:1059D000A5420AD9C446F4E75046FFF776FF306087
:1059E000A8B106464FF00008F2E7B9F81630C3F345
:1059F0000902154465F30903A9F816300120BDE832
:105A0000F88F6FF00200FAE76FF00200F7E76FF02F
:105A10000200F4E72549922443680B604160438902
:105A2000013B43817047F8B506460D460EE006F18E
:105A30000C042046FFF740FD014607682046FFF7AB
:105A4000EBFF39462046FFF739FD68606968002999
:105A5000EDD1EB8A6FF30903EB8200200021F8BD42
:105A600008B5FFF724FF034628B100220260426018
:105A70008260C2600261184608BD00002DE9F04F47
:105A800083B001921D465B69002B00F0998081462E
:105A90008B462B8C1BB1EA69002A00F09480072BFF
:105AA00018D902339BB206334D4A82FB03121344CA
:105AB000C3F38F03B9F81420B9F81610521A92B232
:105AC000934200F286804FF0800A4FF0000844466F
:105AD000474654E009F10C00FFF7C2FF04460028D6
