:020000040800F2
:1000000000000220196C01082B1D01082D1D01089C
:100010002F1D0108311D0108331D010800000000DB
:10002000000000000000000000000000E17B00086C
:10003000351D010800000000817C000825660008CD
:10004000696C0108696C0108696C0108696C010838
:10005000696C0108696C0108696C0108696C010828
:10006000696C0108696C0108696C0108391D010897
:10007000491D0108591D0108691D0108791D010864
:10008000891D0108991D0108696C0108A91D010855
:10009000B91D0108696C0108696C0108696C0108E7
:1000A000C91D0108696C0108696C0108696C0108C7
:1000B000696C0108D91D0108696C0108E91D010876
:1000C000F91D0108696C0108696C0108696C010877
:1000D000696C0108091E0108191E0108291E010882
:1000E000696C0108696C0108696C0108696C010898
:1000F000696C0108696C0108696C0108696C010888
:10010000696C0108696C0108391E0108491E010863
:10011000696C0108696C0108696C0108696C010867
:10012000696C0108696C0108696C0108696C010857
:10013000696C0108696C0108696C0108696C010847
:10014000696C0108696C0108696C0108696C010837
:10015000696C0108696C0108696C0108696C010827
:10016000696C0108696C0108696C0108696C010817
:10017000696C0108696C0108591E0108696C010865
:10018000696C0108696C0108696C0108696C0108F7
:10019000696C010800000000691E0108791E010851
:1001A000696C0108696C0108696C0108696C0108D7
:1001B000696C0108696C0108696C0108696C0108C7
:1001C000696C0108696C0108696C0108696C0108B7
:0801D000891E0108696C010899
:1001E000F8B50F4616461D460024632C0CD8002394
:1001F00032463946284603F0F3FF28B9012013F0B0
:10020000E7F90134E4B2F0E7F8BD08B513460A4651
:1002100001460020FFF7E4FF08BD10B50446E06A80
:1002200006F0F4FFA0894FF47A7303FB00F0034B50
:10023000A3FB0030800913F0CBF9F0E7D34D621037
:1002400000296AD02DE9F04188B004461646884658
:1002500000F10E070522384617F09EFD384604F0DF
:1002600071FA034639182F4A1068F85013790B7148
:1002700004F1180509224146284617F08DFD28464D
:1002800004F060FA034605EB000C274A03CAE85065
:10029000CCF804100A2E38BF0A26A68103A8002332
:1002A000039343608360C36003618023ADF8103023
:1002B000ADF812304FF48073ADF814302023ADF850
:1002C000163001238DF81E30039506F0FFFCE06226
:1002D00028B3164B0360E36A154A5A6004F13403ED
:1002E00001931823009323464FF4007239461148B6
:1002F00012F039FF012803D0002008B0BDE8F081DA
:10030000606B13F0D7F90C4B1A68511C196003EBA2
:1003100082035C6001202070EFE70020704700201E
:10032000EBE700BF78AA010880AA01080D040008C5
:100330002B0400081B0200084006002010B50478BA
:100340000CB9204610BD406B12F09CFFF9E719B1C3
:1003500041608260012070470020704729B101632D
:100360008160034B4360012070470020704700BF4D
:100370000B02000818B108B506F05CFC08BD704718
:100380002DE9F041A9B1064615460F46A2B190F8F5
:100390000080B8F1000F09D0002405E0395DF06A53
:1003A000FFF7E8FF0134A4B2AC42F7D34046BDE802
:1003B000F0814FF00008F9E74FF00008F6E7002859
:1003C00008DB064B1B68834206DD044B03EB80030E
:1003D0005868704700207047002070474006002092
:1003E000014680B10023084A1268934209DA064A9E
:1003F00002EB83025068C26A8A4204D00133DBB246
:10040000F1E70020704770474006002010B582B029
:100410008DF80710FFF7E4FF28B1446882680121D6
:100420000DF10700A04702B010BD70B50C46FFF7F4
:10043000D7FF48B105464668C821204617F0BFFCE3
:10044000AA6881B22046B04770BD014680B1002342
:10045000084A1268934209DA064A02EB830250689E
:10046000026B8A4204D00133DBB2F1E7002070470F
:10047000704700BF4006002038B50024012508E081
:10048000074B03EB84035868FFF758FF054001341E
:10049000E4B2034B1B689C42F2DB284638BD00BF28
:1004A000400600207047F8B505460E46084606F09F
:1004B00007FF0746094B2B60092801DC012408E0EF
:1004C0000A27FBE7A1B2304606F09CFC45F8240061
:1004D0000134A742F6DA3846F8BD00BF44AD010842
:1004E0000EB470B583B04368D3B10446C82007F09A
:1004F00005F90646B8B108AB0193079AC82108F080
:10050000A7FD05466368A26881B230469847304629
:1005100007F076F9284603B0BDE8704003B0704795
:100520004FF0FF35F6E74FF0FF35F3E784B000B545
:1005300083B0844605A880E80E009CF8000068B1EE
:1005400089B1099B8BB108AB93E803008DE80300E8
:1005500005AB0ECBDCF82C0006F07AFB03B05DF89F
:1005600004EB04B070470020F8E70020F6E784B001
:1005700070B582B006AC84E80F000024012510E0BD
:100580000D4B03EB84035E6809AB93E803008DE831
:10059000030006AB0ECB3046FFF7C8FF0540013421
:1005A000E4B2054B1B689C42EADB284602B0BDE87A
:1005B000704004B0704700BF4006002010B588B0FE
:1005C0000A9C039004918DF81420069307940094DC
:1005D00003AB0FCBFFF7CBFF08B010BD000000004E
:1005E0002DE9F041EC4B0021198000225A609A60FD
:1005F000DFF8E483C3F8108099829A61DA61E74EEC
:100600005E621985DA621A63E54D9D6399871A6403
:100610005A64E44CDC649FEDE45A83ED145AF3EE23
:10062000095AC3ED155A9FEDE16A83ED166ADFEDB5
:10063000E06AC3ED176ADFF8A4C3C3F860C0DD4801
:100640005866DA669A661A67DB4F5F679A67DA67F9
:100650009FEDDA7A83ED207ADFEDD97AC3ED217A46
:10066000DFF87CE3C3F888E0D64FC3F88C70C3F89A
:100670009020C3F89420C3F89820C3F89C20C3F8B6
:10068000A020C3F8A42083F8A810F1EE083AC3ED27
:100690002B3A9FEDCD4A83ED2C4AC3F8B4C0C3F882
:1006A000B800C3F8BC2083ED305AC3ED315A83ED56
:1006B000326AC3ED336AC3F8D0C0C3F8D400C3F8BC
:1006C000DC20C3F8D820C3F8E020DFEDC04AC3ED3A
:1006D000394AC3F8E820C3F8EC2083ED3C7AC3ED37
:1006E0003D7AC3F8F8E0C3F8FC70C3F80021C3F802
:1006F0000421C3F80821C3F80C21C3F81021C3F862
:10070000142183F81811C3ED473A83ED484AC3F822
:1007100024C1C3F82801C3F82C2183ED4C5AC3ED42
:100720004D5A83ED4E6AC3ED4F6AC3F840C1C3F81A
:100730004401C3F84C21C3F84821C3F85021C3ED4C
:10074000554AC3F85821C3F85C2183ED587AC3EDAC
:10075000597AC3F868E1C3F86C71C3F87021C3F823
:100760007421C3F87821C3F87C21C3F88021C3F831
:10077000842183F88811F0EE003AC3ED633A9FEDCF
:10078000944A83ED644AC3F894C1C3F89801C3F84E
:100790009C2183ED685AC3ED695A83ED6A6AC3ED03
:1007A0006B6AC3F8B0C1C3F8B401C3F8BC21C3F885
:1007B000B821C3F8C021C3ED714AC3F8C821C3F8FA
:1007C000CC2183ED747AC3ED757AC3F8D8E1C3F810
:1007D000DC71C3F8E021C3F8E421C3F8E821C3F8D1
:1007E000EC21C3F8F021C3F8F42183F8F811C3ED2C
:1007F0007F3A83ED804AC3F804C2C3F80802C3F805
:100800000C2283F810124FF0010C83F811C283F808
:100810001212DFED705AC3ED855AC3F81822C3F8DF
:100820001C22C3F82022C3F83C22C3F84022C3F89C
:100830004422C3F8503203F15000C3F8540203F1CC
:100840007400C3F8580203F1AC00C3F85C02FF2740
:10085000A3F86472DFF88CE1C3F868E2C3F86CE2D5
:1008600083F87012C3F8C08283F8C4C2C3F8DC22D4
:10087000C3F8E0229FED446B83EDBA6B9FED447BA0
:1008800083EDBC7B83F8F81283F8F9C283F8FA127F
:10089000C3EDBF5AC3F80023C3F80423C3F80823E9
:1008A000C3F82423C3F82823C3F82C2303F114002E
:1008B000C3F8380303F1C000C3F83C0303F1E400BC
:1008C000C3F8400303F58E70C3F84403A3F84C73D8
:1008D000C3F850E3C3F854E383F85813C3F8A8638C
:1008E00083F8ACC3C3F8C423C3F8C82383EDF46B07
:1008F00083EDF67B83F8E01383F8E1C383F8E2131A
:10090000C3EDF95AC3F8E823C3F8EC23C3F8F02386
:1009100003F20C40026003F58260026003F21440AF
:10092000026003F12800C3F8200403F59870C3F8AF
:10093000240403F5AA70C3F8280403F5C670C3F8AD
:100940002C04A3F8347403F58760C0F800E003F2C8
:100950003C40C0F800E083F84014C3F8905483F89A
:1009600094C403F2AC40026003F59660026003F5A4
:10097000986000ED026B80ED007B83F8C81483F86B
:10098000C9C431E0AFF300800000000000004E4019
:1009900075DF86D02C229C405806002088A80108CC
:1009A00064A8010840A8010852B81E3FCDCCCC3D38
:1009B0006F128339EC5178BFCDCCCC3F6F12833AA4
:1009C000F4FD143F6666E6BFCDCCCC3E9A99193F44
:1009D000CDCC4C3E00401C46ACA80108EC51783F01
:1009E0006666E63F000080BF83F8CA1403F599608D
:1009F000C0ED015A8260C2600261C262026342635A
:100A000003F13C05C3F8085503F5D075C3F80C5540
:100A100003F5E275C3F8105503F5FE75C3F81455D8
:100A2000A3F81C75C0F858E0C0F85CE083F82815FE
:100A3000C3F8784583F87CC5C0F8CC20C0F8D02036
:100A400003F59A6383ED346B83ED367BBDE8F0816B
:100A500010B50C4C22686423D362E3605363936344
:100A6000002120460FF090F8002120460FF088FA70
:100A7000042120460FF088F8042120460FF080FA68
:100A800010BD00BF3829012090F860308B4236D06D
:100A900010B5044680F86010C1B1D0F8B030996844
:100AA00018680FF071F8D4F8B030996818680FF032
:100AB00067FAD4F8B030D96818680FF065F8D4F840
:100AC000B030D96818680FF05BFA10BDD0F8B030BC
:100AD000996818680FF00EF9D4F8B0309968186862
:100AE0000FF0CCFAD4F8B030D96818680FF002F9DA
:100AF000D4F8B030D96818680FF0C0FAE5E770474D
:100B000038B50546C06903F0DFFF0FA3D3E9002322
:100B100004F032F804F028FB286368630024EC62D8
:100B20002C6100212846FFF7AFFF6B6C9C61DC61F4
:100B30001C62AB6C1C62DC611C63DC629C625C62EC
:100B400038BD00BFAFF30080F8C1631ADCA54C408C
:100B500038B52DED028B0446D0ED017AFCEEE77A34
:100B600017EE903A9DB290ED028AB5EEC08AF1EE92
:100B700010FA09D4DFED8E7AB4EEE78AF1EE10FABE
:100B800004DDB0EE678A01E09FED8A8AD4ED038A26
:100B9000F5EEC08AF1EE10FA09D4DFED857AF4EEB5
:100BA000E78AF1EE10FA04DDF0EE678A01E0DFED8E
:100BB000818AB4F85430AB4215D0A4F8545084ED77
:100BC000168AC4ED178AEDB101212046FFF75CFFBC
:100BD000636EB3FBF5F34FF6FE72934217D8012B09
:100BE00017D8012315E0D4ED167AF4EE487AF1EE29
:100BF00010FAE2D1D4ED177AF4EE687AF1EE10FA39
:100C0000DBD1D1E000212046FFF73EFFCCE04FF6DC
:100C1000FF73D4F8B02012681268002151625A1E86
:100C200092B2D4F8B01009680968CA62D4F8B0105A
:100C30000968CA60D4F8B0108A68102A4BD8DFE877
:100C400002F0094A4A4A164A4A4A234A4A4A304A5C
:100C50004A4A3D0007EE903AF8EE677A67EE887AE6
:100C60000A681268FCEEE77AC2ED0D7A3FE007EE03
:100C7000903AF8EE677A67EE887A0A681268FCEEB6
:100C8000E77AC2ED0E7A32E007EE903AF8EE677A34
:100C900067EE887A0A681268FCEEE77AC2ED0F7A8E
:100CA00025E007EE903AF8EE677A67EE887A0A68F0
:100CB0001268FCEEE77AC2ED107A18E007EE903A7F
:100CC000F8EE677A67EE887A0A681268FCEEE77ACF
:100CD000C2ED127A0BE007EE903AF8EE677A67EE13
:100CE000887A0A681268FCEEE77AC2ED137AD4F8C3
:100CF000B010CA68102A4BD8DFE802F0094A4A4A05
:100D0000164A4A4A234A4A4A304A4A4A3D0007EEAE
:100D1000903AF8EE677A67EEA87A0B681B68FCEEEB
:100D2000E77AC3ED0D7A3FE007EE903AF8EE677A86
:100D300067EEA87A0B681B68FCEEE77AC3ED0E7AC3
:100D400032E007EE903AF8EE677A67EEA87A0B6821
:100D50001B68FCEEE77AC3ED0F7A25E007EE903AC8
:100D6000F8EE677A67EEA87A0B681B68FCEEE77A04
:100D7000C3ED107A18E007EE903AF8EE677A67EE66
:100D8000A87A0B681B68FCEEE77AC3ED127A0BE0D9
:100D900007EE903AF8EE677A67EEA87A0B681B6860
:100DA000FCEEE77AC3ED137ABDEC028B38BD00BFD1
:100DB000EC51783F0000000010B50446D0ED047AF5
:100DC0009FED257AF4EEC77AF1EE10FA0CD49FED80
:100DD000237AF4EEC77AF1EE10FA1BDCF5EE407AD6
:100DE000F1EE10FA0BD001E0DFED1B7AB0EEE77AFE
:100DF000DFED1B6AB4EEE67AF1EE10FA0DD50023B2
:100E0000E360A36000212046FFF73EFE2046FFF787
:100E10009FFE10BDDFED117AE8E7F5EEC07AF1EE46
:100E200010FA0FDCF5EEC07AF1EE10FAEED50023E1
:100E3000A360F1EE677AC4ED037A01212046FFF743
:100E400023FEE3E7C4ED027A0023E360012120469C
:100E5000FFF71AFEDAE700BFEC5178BFEC51783F9C
:100E6000BD37863510B52DED028B04460CF05AFFC8
:100E7000D4F8B0301B681B689B6A0133B0FBF3F0F9
:100E800060669FED178AB0EE480A04F1680002F030
:100E900021F9B0EE480A04F1700002F01BF90521B7
:100EA00004F1780001F0C4FC642104F1940001F025
:100EB000BFFC2046FFF780FF01212046FFF7E4FD3D
:100EC000012012F085FB00212046FFF7DDFD61784F
:100ED000206C02F01AF80123A370BDEC028B10BD48
:100EE0003333333F38B50446006C01F0C7FE206C45
:100EF00001F014FF584B83ED000A94F8B430002B36
:100F000040F0848010EE100A03F0DEFD4EA3D3E91A
:100F1000002303F07BFC04F027F9DFED500A00EE1C
:100F2000100A18F0FFFFB5EEC00AF1EE10FA63D414
:100F300010EE100A03F0C8FD43A3D3E9002303F029
:100F400063FC04F011F907EE900A606194ED2E7ACB
:100F500037EEC77A424B83ED007AC4F8B80017EE3B
:100F6000100A03F0B1FD38A3D3E9002303F04EFCCF
:100F700004F0FAF8DFED390A00EE100A18F0D2FF9B
:100F8000B5EEC00AF1EE10FA3BD410EE100A03F0F1
:100F90009BFD2DA3D3E9002303F036FC04F0E4F815
:100FA00000EE100AC4F8BC0004F1700002F0AAF8C8
:100FB00084ED300ADFED2B7A20EE270A84ED060A55
:100FC00004F1780001F04EFC84ED310A04F1680070
:100FD00002F098F810EE105A84ED320A6069E06170
:100FE00003F072FD1AA3D3E9002303F0C5FD04F05A
:100FF000BBF82062656238BDDFED187A30EE270A53
:1010000096E7DFED167A30EE270ABEE784ED050A93
:1010100004F1D80204F1D00104F1CC00DFED120A92
:1010200002F052FCD4F8CC00E06103F04DFD08A3BF
:10103000D3E9002303F0A0FD04F096F82062D4F871
:10104000D0306362D7E700BF182D4454FB2109401C
:10105000F8C1631ADCA54C40080C0020DB0FC94026
:101060000C0C002000007A456F12833910B504463D
:1010700090ED0B0AD0ED097A30EE670A406C15F05E
:101080003DFCD4ED047A77EE807AC4ED047A2046F4
:10109000FFF792FE10BDD0B50446006B03F014FDBF
:1010A00032A3D3E9002303F067FD06460F46E0694B
:1010B00003F00AFD02460B463046394603F0A4FB16
:1010C00027A3D3E9002303F0A1FB04F04DF8DFEDE3
:1010D000260A00EE100A18F025FFB5EEC00AF1EE60
:1010E00010FA2BD410EE100A03F0EEFC1CA3D3E987
:1010F000002303F089FB04F037F807EE900A94ED23
:101100000B7AD4ED096A37EE667AE36CD3ED006AA8
:1011100067EEA67AD3ED016A27EE267A77EE877A14
:10112000C3ED047A93ED027AF4EEC77AF1EE10FA89
:1011300009DD83ED047A1B69E362D0BDDFED0A7A35
:1011400030EE270ACEE793ED037AF4EEC77AF1EE9C
:1011500010FAF0D583ED047AEDE700BFAFF300801D
:10116000182D4454FB210940DB0FC940399D52A280
:1011700046DF913FD0B52DED028B0446D0F8B0305C
:1011800093F82220384B03EB4203B3F8B83500EE56
:10119000103AB8EE400A943001F064FBF2EE047AA3
:1011A000B4EEE70AF1EE10FA08D4B0EE408ADFEDB3
:1011B0002F7AB4EEE70AF1EE10FA02DDBDEC028BF5
:1011C000D0BDDFED2B7A77EEC07A17EE900A03F0F0
:1011D0007BFC0022274B03F0CFFC06460F4618EE9F
:1011E000100A03F071FC02460B463046394603F004
:1011F000EDFD03F0B9FFA06303F066FC00221D4B78
:1012000003F0E4FD41EC100B18F04AFE51EC100B1A
:101210000FA3D3E9002303F0D9FD0FA3D3E90023E3
:1012200003F0F4FA03F0A0FF07EE900AB7EE007A9D
:10123000C7EE277A17EE900A03F046FC08A3D3E91D
:10124000002303F0E1FA03F08FFFE063B6E700BF8D
:101250000000000000DCAE40AA9D755E034B6B3FB2
:1012600066666666663271405806002000607F45FB
:10127000000080450000244008B5FFF7B1F908BD23
:10128000024A536801335360704700BF280C0020A6
:1012900010B5044C20460EF013F8034BC4F884300C
:1012A00010BD00BFA027012081120008034B1B685E
:1012B000586A034B18605968704700BFA027012087
:1012C000280C002008B5FFF7F1FF4FF47A720023D5
:1012D00003F09AFF014B986008BD00BF280C002066
:1012E00038B50546FFF7EEFF0446FFF7EBFF001B9E
:1012F000A842FAD338BD00BF10B504460448FFF732
:10130000A4F818B1A2882168FFF73AF810BD00BF11
:10131000340C002010B504460448FFF796F818B1C5
:10132000A2882168FFF72CF810BD00BF340C002004
:1013300010B5044C04F19C0015F01EFB204615F07E
:101340001BFB10BD340C002038B50C4C04F19C057F
:101350000B4A0C49284602F08DFD00220A49284616
:1013600002F0D3FD094A0A49204602F083FD00221B
:101370000849204602F0C9FD38BD00BF340C0020EA
:101380003C2E012088AA010815130008082F01200F
:1013900090AA0108F91200080FB4F0B583B0C82074
:1013A00006F0ACF928B30027064609AB0193089A6A
:1013B000C82107F04DFE05463C46632C0DD800239E
:1013C000AAB231460C4802F00BFF074628B90120AB
:1013D00012F0FEF80134E4B2EFE70FB94FF0FF3539
:1013E000304606F00DFA284603B0BDE8F04004B0E0
:1013F00070474FF0FF35F6E7340C00200FB4F0B51E
:1014000083B0C82006F07AF970B30027064609AB0E
:101410000193089AC82107F01BFE05463C46632C41
:101420000DD80023AAB23146114802F0D9FE074672
:1014300028B9012012F0CCF80134E4B2EFE7002320
:1014400002220C490A4802F0CBFE02354FB140B1EE
:10145000304606F0D5F9284603B0BDE8F04004B0A8
:1014600070474FF0FF35F3E74FF0FF35F3E700BF6C
:10147000340C0020B0B0010808B5FFF759FF08BDD3
:101480000138800180B2203080B2704701380328D3
:1014900009D8DFE800F0020A04060548704705484D
:1014A000704705487047002070470448704700BFE8
:1014B00068080020380A0020200B00205009002076
:1014C000013803280CD8DFE800F0020D050841F2CE
:1014D0001110704743F23330704744F24440704774
:1014E0000020704742F2222070470138400080B24D
:1014F000704710B58AB00446FFF7C8FF48B3426C86
:10150000116802915168039192680492826C11688B
:1015100005915168069192680792826A0892436821
:1015200009932046FFF7ACFF202202A901F04AF9F7
:1015300008B90AB010BD2046FFF7C2FFADF806009B
:101540002046FFF7D2FF02220DF1060101F03AF921
:10155000EFE70020EDE730B58BB00446FFF796FFCC
:10156000002834D005460023ADF826302046FFF78A
:10157000BCFF02220DF1260101F0CEF840B3204657
:10158000FFF79EFFBDF82630984201D000201FE0F3
:101590002046FFF775FF202201A901F0BDF8B8B180
:1015A0006B6C019A1A606B6C029A5A606B6C039AAE
:1015B0009A60AB6C049A1A60AB6C059A5A60AB6C7B
:1015C000069A9A60079BAB62089B6B6000E0002064
:1015D0000BB030BD30B583B00023ADF806306428C1
:1015E00017D0431EDBB2032B16D90025284603B0C3
:1015F00030BD0134E4B2042CF8D82046FFF775FF63
:1016000002220DF1060101F0DDF80028F1D10546B6
:10161000EFE701242546EEE7FFF767FF02220DF111
:10162000060101F0CFF80546E0E700BF38B5002914
:101630000FDD1546406815F01BFB0446431E032BC7
:101640000CD82C60013C032C13D8DFE804F00C14F8
:101650000E100A48FFF7A0FE002005E001460848EA
:10166000FFF79AFEEDE7074838BD0748FCE7074853
:10167000FAE70020F8E70648F6E700BF98AA010855
:10168000B4AA010868080020380A0020200B0020B6
:101690005009002030B58DB00C4600230B93FEF7A7
:1016A0009FFE88B101AD21462846FEF7FCFE0146AB
:1016B0000BAA2846FFF7BAFF30B10121FFF7E4F982
:1016C0000B990248FFF768FE0DB030BDCCAA0108A7
:1016D00030B58DB00C4600230B93FEF781FE88B128
:1016E00001AD21462846FEF7DEFE01460BAA28463C
:1016F000FFF79CFF30B10021FFF7C6F90B990248B4
:10170000FFF74AFE0DB030BDE0AA010810B58AB05F
:101710000C46FEF765FE40B121466846FEF7C3FE63
:1017200009F0C6F80248FFF737FE0AB010BD00BF47
:10173000F4AA010830B58DB00C4600230B93FEF7D8
:101740004FFE90B101AD21462846FEF7ACFE0146A2
:101750000BAA2846FFF76AFF9DF82C00FFF73AFF17
:1017600028B10B990448FFF717FE0DB030BD0B9957
:101770000248FFF711FEF8E708AB01082CAB01089F
:1017800030B58DB00C4600230B93FEF729FE98B1BF
:1017900001AD21462846FEF786FE01460BAA2846E3
:1017A000FFF744FF40B19DF82C00FFF7A2FE28B1DF
:1017B0000B990548FFF7F0FD0DB030BD0B990348BC
:1017C000FFF7EAFDF8E700BF50AB010870AB010876
:1017D00030B58DB00C4600230B93FEF701FEF0B13F
:1017E00021466846FEF75FFE01460BAA6846FFF7F2
:1017F0001DFF044698B10AA9029816F045F810EEAC
:10180000100A029A0A9B9A420BD084ED010A03F057
:101810005BF902460B460B990448FFF7BDFD0DB07E
:1018200030BD0348FFF7B8FDF9E700BFA8AB0108DA
:1018300090AB010830B58DB00C4600230B93FEF73A
:10184000CFFDF0B121466846FEF72DFE01460BAAFA
:101850006846FFF7EBFE044698B10AA9029816F015
:1018600013F810EE100A029A0A9B9A420BD084EDEC
:10187000040A03F029F902460B460B990448FFF7C6
:101880008BFD0DB030BD0348FFF786FDF9E700BFC3
:10189000C8AB010890AB010830B58DB00C460023F1
:1018A0000B93FEF79DFDF0B121466846FEF7FBFD68
:1018B00001460BAA6846FFF7B9FE044698B10AA98B
:1018C000029815F0E1FF10EE100A029A0A9B9A4264
:1018D0000BD084ED0D0A03F0F7F802460B460B9986
:1018E0000448FFF759FD0DB030BD0348FFF754FD24
:1018F000F9E700BFE8AB010890AB010830B58DB047
:101900000C4600230B93FEF76BFDF0B121466846B1
:10191000FEF7C9FD01460BAA6846FFF787FE04469D
:1019200098B10AA9029815F0AFFF10EE100A029ABA
:101930000A9B9A420BD084ED0B0A03F0C5F80246CD
:101940000B460B990448FFF727FD0DB030BD034847
:10195000FFF722FDF9E700BFE8AB010890AB0108F3
:1019600070B58CB00C4600230B93FEF739FDA0B385
:1019700001AD21462846FEF796FD01460BAA2846F2
:10198000FFF754FE044640B3039D2949284602F060
:10199000CFFEA0B12749284602F0CAFE88B12649E9
:1019A000284602F0C5FED0B12449284602F0C0FE08
:1019B00008B9632506E02248FFF7EEFC0DE001259B
:1019C00000E0022525702046FFF79AF8039A0B994C
:1019D0001C48FFF7E1FC632D03D00CB070BD00255F
:1019E000F0E70B991848FFF7D7FC4FF4FA6011F0B5
:1019F000EFFD0B991548FFF7CFFC3C21206C01F05F
:101A000001FB0546002626700A2011F0E1FD314653
:101A10002046FFF739F80023236125B10B990C48C4
:101A2000FFF7BAFCD9E70B990A48FFF7B5FCD4E7F2
:101A300040AF010810AF01080CAC010818AC010858
:101A400020AC010830AC010854AC010884AC01089A
:101A5000B8AC0108F0AC0108F0B593B00C46002317
:101A60001193FEF7BDFC002849D004AD214628465D
:101A7000FEF719FD014611AA2846FFF7D7FD0746D4
:101A800000283CD010A9069815F0FEFE10EE106A52
:101A90000FA9079815F0F8FE10EE104A0EA9089845
:101AA00015F0F2FE10EE105A069A109B9A4228D0BA
:101AB000079A0F9B9A4224D0089A0E9B9A4220D0F4
:101AC0007B6C1E607B6C5C607B6C83ED020A38462D
:101AD000FFF716F8304602F0F7FF06460F46284695
:101AE00002F0F2FFCDE90201204602F0EDFFCDE960
:101AF000000132463B4611990448FFF74DFC13B0F4
:101B0000F0BD0348FFF748FCF9E700BF10AD01083E
:101B100090AB0108F0B593B00C4600231193FEF78B
:101B20005FFC002849D004AD21462846FEF7BBFCE7
:101B3000014611AA2846FFF779FD074600283CD048
:101B400010A9069815F0A0FE10EE106A0FA90798CC
:101B500015F09AFE10EE104A0EA9089815F094FEA2
:101B600010EE105A069A109B9A4228D0079A0F9BA3
:101B70009A4224D0089A0E9B9A4220D0BB6C1E60D9
:101B8000BB6C5C60BB6C83ED020A3846FEF7B8FFA5
:101B9000304602F099FF06460F46284602F094FFB1
:101BA000CDE90201204602F08FFFCDE90001324667
:101BB0003B4611990448FFF7EFFB13B0F0BD034813
:101BC000FFF7EAFBF9E700BF48AD010890AB010859
:101BD00030B58DB00C4600230B93FEF701FCA0B18D
:101BE00001AD21462846FEF75EFC01460BAA2846B9
:101BF000FFF71CFD48B10378012B08D0022B0BD056
:101C00007BB90B990948FFF7C7FB0DB030BD0B99A5
:101C10000748FFF7C1FBF8E70B990648FFF7BCFB45
:101C2000F3E70B990448FFF7B7FBEEE780AD010837
:101C3000B0AD0108E0AD010810AE0108014B18601D
:101C4000704700BF6C0D002008B5024B1B6803B144
:101C5000984708BD6C0D002008B58AB201460248BD
:101C600014F0A8FE08BD00BF700D0020F9B170B5DA
:101C70008C00A4B2261DB6B20D4B93F8B835A3B9AB
:101C80000C4DB3FA83F35B09094A82F8B835224652
:101C90000146284616F013F9074B186828513246BA
:101CA0002946002013F056FB70BD044DE9E770474C
:101CB000700D0020301200203CA80108AC1200205A
:101CC0000FB430B5A1B0BDF890501E2D00D91E251F
:101CD00025AB0193002411E0019B073323F0070398
:101CE00003F108020192D3E9000103F03DFA20ABB1
:101CF00003EB840343F8780C0134A4B2A542EBD87B
:101D00000022294602A8FFF7B1FF21B0BDE830400C
:101D100004B0704708B50248FFF790FF08BD00BF48
:101D2000591C0008034B00221A705A609A60DA624C
:101D30001A6370472C13002010B582B03F4C0A2262
:101D40003F492046FEF77CFA3E492046FEF706FB57
:101D50003D4B0093002301223C493D48FEF72EFCF9
:101D60003C4B0093002301223B493C48FEF726FCF4
:101D70003B483C4B0093002301220146FEF71EFC2A
:101D8000394B00930023012238493948FEF716FCED
:101D9000384B00930023012237493848FEF70EFCE8
:101DA000374B00930023012236493748FEF706FCE3
:101DB000364B00930023012235493648FEF7FEFBDF
:101DC000354B00930023012234493548FEF7F6FBDA
:101DD000344B00930023012233493448FEF7EEFBD5
:101DE000334B00930023012232493348FEF7E6FBD0
:101DF000324B00930023012231493248FEF7DEFBCB
:101E0000314B00930023012230493148FEF7D6FBC5
:101E1000304B0093002301222F493048FEF7CEFBC0
:101E2000FEF72AFB002011F075FD01462C48FFF754
:101E3000B3FA002011F0CAF902B010BD2C13002033
:101E40002CAE0108340C00209516000834AE0108B1
:101E500040AE0108D116000848AE010854AE010892
:101E60005CAE01080D1700083517000864AE0108C4
:101E700078AE01088117000888AE010894AE010809
:101E8000D11700089CAE0108B0AE01083518000853
:101E9000B8AE0108E0AE010899180008ECAE0108E0
:101EA0000CAF0108FD18000814AF01083CAF010891
:101EB0006119000848AF010878AF0108591A0008F5
:101EC00084AF0108A4AF0108151B0008B0AF0108DA
:101ED000D0AF0108D11B0008DCAF0108ECAF01084E
:101EE000F8AF010808B5FFF71DFF08BD30B583B096
:101EF000322011F06DFB2EE01E48FFF74DFA002452
:101F00000EE01D4B03EBC4031D79986802F0DCFD65
:101F100002460B4629461948FFF73EFA0134A4B29F
:101F2000154B1B78A342ECD81548FFF735FA124B36
:101F3000002283F87C2018E0124C22890193009241
:101F40006379227921681048FFF726FA0023A372EB
:101F5000012011F03DFB0D4810F8041B01F0F0F8D2
:101F6000054B93F87C30002BC6D1064B9B7A002B97
:101F7000E2D1EDE70CB00108F81800201CB0010810
:101F8000B0B00108A41900202CB001080000002006
:101F900030B583B000228221082007F0ACF92A4C2A
:101FA000234643F8040B01932823009300234FF4A6
:101FB00080722649264811F0D6F804F108030193EF
:101FC0001825009500234FF480722249224811F011
:101FD000CAF804F10C030193009500234FF48072BA
:101FE0001E491F4811F0BFF804F11003019300953A
:101FF00000234FF480721B491B4811F0B4F804F120
:10200000140301930C25009500234FF480721749A7
:10201000174811F0A8F804F1180301930095002364
:102020004FF480721349144811F09DF81C34019448
:102030000823009300234FF480721049104811F0D8
:1020400092F803B030BD00BF6413002040B0010817
:102050001D2100084CB001080D24000858B00108EB
:10206000391D000864B00108ED1E000874B00108B5
:10207000B720000880B001083D26000888B001089C
:102080002D22000808B5FFF783FF08BD4B690360E8
:102090008B6943600B6A8360CB69C3604B6A0361E1
:1020A0000B6B43614B6B8361CB6AC361CB6B036288
:1020B0000B694362704730B5A9B0A021124802F005
:1020C00045FA054603226B4604E000211962596275
:1020D000013A2833002AF8DA0C496846FFF7D6FFA0
:1020E0000B490AA8FFF7D2FF0A4914A8FFF7CEFF51
:1020F00009491EA8FFF7CAFF6946284602F05AFAA6
:102100000A2011F065FAE7E790B00108680800209E
:1021100050090020380A0020200B002008B512F0DA
:10212000A1FD02F003FA01F00FFBFFF7B1F8FFF792
:102130000BF9FFF7EFFD0D490D4801F0F5F90D48DA
:10214000FEF790FE0C48FEF78DFE0C48FEF78AFE67
:102150000B48FEF787FE002011F0DCFB0146094822
:10216000FFF71AF9002011F031F808BDA02D00206A
:102170006C2801206808002050090020380A00203F
:10218000200B00209CB00108014B024A1A607047E6
:10219000F4180020002001202DE9F04786B01C4BE8
:1021A000186811F0B7FB04461A4B186811F0B2FB1F
:1021B0000546194B186811F0ADFB0646174B186819
:1021C00011F0A8FB0746164B186811F0A3FB8046D8
:1021D000144B186811F09EFB8146002011F09AFB09
:1021E000824605F04BFB4EF6602305930490CDF834
:1021F0000CA0CDF80890CDF80480009733462A460D
:1022000021460948FFF7C8F806B0BDE8F08700BFCF
:10221000681300206C13002070130020741300203A
:10222000781300207C130020B4B0010808B50648DC
:10223000FFF7B2F84FF47A7011F0CAF94FF4FA7060
:1022400011F0C6F9FAE700BF18B1010808B5FFF7A9
:102250009BFF08BD0000000000230DE000EB83029F
:10226000516803F11E0200EB82025160C218002186
:1022700082F8F4100133DBB202789A42EED870474C
:102280002DE9F04782B02E4C04222270032384F8FB
:102290001431052184F8281284F83C3384F8503432
:1022A000284E294D0092A31832462946284614F09C
:1022B000D3FB04F58A7A94F81431009304F58C73F7
:1022C00006F110022946284614F0C6FB04F50A79E7
:1022D00094F82832009304F50B7306F11C0229468A
:1022E000284614F0B9FB04F54F7894F83C3300937A
:1022F00004F5507306F130022946284614F0ACFB71
:1023000004F58A6794F85034009304F2544306F1BC
:102310003C022946284614F09FFB2046FFF79CFF0D
:102320005046FFF799FF4846FFF796FF4046FFF7F4
:1023300093FF3846FFF790FF02B0BDE8F08700BF7B
:102340008413002048000020700D002030B583B0B9
:10235000054600EE101A1446B8EE400A0C490D4826
:1023600014F04CFBFDEEC07ACDED017A9DF80430FF
:10237000094A92F864259A4207D02B70064A82F8DF
:10238000643514B12046FEF7BBFB03B030BD00BF7F
:102390002CB10108700D00208413002008B584467C
:1023A00018460CEB010393F8F43093B10CEB810366
:1023B000D3F804E0C2F800E001F11E030CEB830344
:1023C000C3F804E08C4400238CF8F43008B1FEF725
:1023D00097FB08BD002315E000EB830292ED017A24
:1023E00003F11E0200EB8202D2ED017AB4EE677AAD
:1023F000F1EE10FA14BF01210021C21882F8F41086
:102400000133DBB202789A42E6D870472DE9F047F3
:10241000A6B0FFF735FF7AE02046FFF71DFF5046D4
:10242000FFF71AFF4846FFF717FF4046FFF714FF74
:102430003846FFF711FF84F86C55E2E0013D032DAB
:1024400003D8DFE805F01E041A1C002400E0714CDC
:102450002378012B17D0022B35D0002B52D16E4D93
:10246000221D01212846FFF799FF002304F11002E5
:1024700002212846FFF792FF44E0684CE8E7684CE9
:10248000E6E7684CE4E7684E06F58A752346626C19
:1024900000212846FFF782FF626C234604320121A7
:1024A0002846FFF77BFF626C23460832022128464C
:1024B000FFF774FF002304F12C02022106F50A70D5
:1024C000FFF76CFF1EE0584E06F54F752346A26CD1
:1024D00000212846FFF762FFA26C23460432012147
:1024E0002846FFF75BFFA26C2346083202212846EC
:1024F000FFF754FF002304F13002042106F50A70AF
:10250000FFF74CFF224600212046FFF71FFF4FF048
:10251000FF3205A9454B186807F0ACF8BDF8144028
:10252000434D22460DF11601284615F0C8FCA5F8CA
:102530008040284614F00CFB3B4C23463D4E13F8DC
:10254000042B009232462946284614F085FA04F5F9
:102550008A7A94F81431009304F58C7306F1100212
:102560002946284614F078FA04F50A7994F82832B6
:10257000009304F50B7306F11C022946284614F05B
:102580006BFA04F54F7894F83C33009304F55073DC
:1025900006F130022946284614F05EFA04F58A67EF
:1025A00094F85034009304F2544306F13C02294657
:1025B000284614F051FA2046FFF70CFF5046FFF76B
:1025C00009FF4846FFF706FF4046FFF703FF38467E
:1025D000FFF700FF04F5AD6500232A46194638468B
:1025E000FFF7DCFED5ED007AFCEEE77ACDED037A5D
:1025F0009DF80C50104B1D7094F86C35AB427FF475
:102600000BAF6B1EDBB2032B7FF618AF0A2010F066
:10261000DFFF7CE750090020D4170020380A002093
:10262000200B002068080020841300206413002081
:10263000700D002048000020200C00202DE9F04102
:10264000AEB01D4801F0DCFF8046032206AB04E07B
:10265000002119625962013A2833002AF8DA06A9E2
:10266000404602F02FF8139802F02EFA06460F4665
:10267000179802F029FA04460D460DA3D3E900236A
:102680003046394602F078FACDE90401159802F097
:102690001BFACDE90201149802F016FACDE9000107
:1026A00022462B460420FFF70BFBD8E7AFF3008050
:1026B000F8C1631ADCA54C4090B0010808B564234A
:1026C0000322A0210448006809F05EFB08B1002045
:1026D00008BD0120FCE700BFF418002000B587B05A
:1026E0000246FF238DF817306423029301230193E0
:1026F0000DF1170300930223A0210648006809F09A
:102700006DFA20B99DF8170007B05DF804FBFF20B3
:10271000FAE700BFF4180020C9B10B46CAB181180E
:10272000B1F5005F01DD0020704700B585B0642180
:1027300002910192009302230246A02107480068FB
:1027400009F04CFA38B9012005B05DF804FB00200F
:102750007047002070470020F6E700BFF418002003
:1027600038B5FEF7AFFD054601231A46A021054CFA
:10277000206809F009FB20B1FEF7A4FD401B0428E6
:10278000F2D938BDF418002000B587B002468DF8A4
:10279000171064230293012301930DF11703009393
:1027A0000223A0210648006809F045F918B100206D
:1027B00007B05DF804FBFFF7D3FF0120F8E700BF87
:1027C000F418002041B3F0B585B0054616460F4613
:1027D00022B38318B3F5005F23DCDEB105F01F04DC
:1027E000C4F12004E4B2B44228BF34466423029307
:1027F0000194009702232A46A0210C48006809F0A2
:102800001AF980B9FFF7ACFF2544ADB22744341B59
:10281000A6B2E2E7012002E000207047002005B0E8
:10282000F0BD0020FBE70020F9E700BFF41800200E
:10283000012913D910B504460023C3600170002399
:1028400003724372880004F059FF606040B122783F
:102850009200002115F079FA012010BD0020704788
:102860000020FAE7427A03789A4201D20132D3B2C9
:102870004372D0ED037A4368027A03EB820393ED4F
:10288000007A77EEC77A77EE807AC0ED037A83ED2F
:10289000000A037A0133017893FBF1F201FB123352
:1028A000037280ED060A80ED050A437A994229D029
:1028B000D0ED036A07EE903AF8EEE77A86EEA77A53
:1028C00080ED047A90ED040A7047013291421BDDDD
:1028D000436803EB8203D3ED007A90ED057AF4EEC2
:1028E000C77AF1EE10FA01DDC0ED057AD3ED007A7A
:1028F00090ED067AF4EEC77AF1EE10FAE5D5C0ED68
:10290000067AE2E70022E1E790ED037AD0ED057A5E
:1029100037EE677AD0ED067A37EE677A023907EE3E
:10292000901AF8EEE77AC7EE276AC0ED046AC9E7A5
:102930000023037243720023C360436183617047C5
:1029400030B5A1B0044601AD7C220021284615F027
:10295000FCF92946204611F08BFEE8B99DF804C029
:102960000E4B83F800C0002310E020AA02EBC30145
:1029700011F8780C094A02EBC302107111F8770CB8
:10298000507151F8741C91600133DBB29C45ECD856
:10299000024B012283F87C2021B030BDF8180020C2
:1029A000838A9B00114AA2FB0323C3F387030B70A6
:1029B000142B18D8F0B583B007460E4600242546E0
:1029C0000BE006EB44030233009301230E22294659
:1029D000384603F027FA0E3501343378A342F0D895
:1029E000002003B0F0BD0120704700BF932449923E
:1029F00030B58DB0044601AD2A220021284615F0DD
:102A0000A4F929462046FFF7CBFFC0B99DF8040082
:102A10000C4B83F8800000230BE00CAA02EB43026E
:102A200032F92A1C074A02EB4302A2F88210013352
:102A3000DBB29842F1D8034B012283F8AA200DB0F3
:102A400030BD00BFF818002000B585B001A90023F3
:102A500001934B608B6011F09AFE90B90A4B019A7A
:102A6000C3F8AC209DF8082083F8B0209DF8092019
:102A700083F8B120BDF80C20A3F8B420012283F81C
:102A8000B62005B05DF804FBF818002070B584B0DE
:102A900005460C46009100232022194603F0C2F996
:102AA0000DF10E060096012310222021284603F086
:102AB000B9F9BDF80E0003F045FB84ED010A00965C
:102AC000012310223021284603F0ACF9BDF80E0096
:102AD00003F038FB84ED020A009601231022402106
:102AE000284603F09FF9BDF80E0003F02BFB84EDA0
:102AF000030A04F1100300930123122250212846F7
:102B000003F090F904F114030093002307226221DB
:102B1000284603F087F91534009400230522692123
:102B2000284603F07FF9002004B070BD00B587B0DF
:102B30006946002300930193029303930493059342
:102B4000FFF7A4FFB8B90D4B019AC3F8B820029A59
:102B5000C3F8BC20039AC3F8C020049AC3F8C42069
:102B60009DF8142083F8C8209DF8152083F8C9200B
:102B7000012283F8CA2007B05DF804FBF818002092
:102B800008B5C38A40F20642934212D00AD840F2F6
:102B90005512934210D040F2F232934201D1FFF726
:102BA000CFFE08BD40F20A429342FAD1FFF7BEFFC2
:102BB000F7E7FFF71DFFF4E7FFF746FFF1E700BF78
:102BC00008B5036958691B8B21B10122194608F029
:102BD000C1FC08BD0022F9E703691B691A68136884
:102BE00023F04003136003691B691A68136843F4F8
:102BF0008043136003691B691A68136843F040033C
:102C00001360704703691B691A68136823F0400357
:102C1000136003691B691A68136823F48043136007
:102C200003691B691A68136843F040031360704717
:102C300000B54FF0000E704615E04FEA4C0C8CF0DA
:102C4000070C5FFA8CF00133DBB2072B07D84FFA81
:102C500080FCBCF1000FF0DB4000C0B2F3E70EF1E6
:102C6000010E5FFA8EFE964504D211F80E305840E0
:102C70000023EAE780F055005DF804FB10B582B050
:102C8000044600218DF80710ADF804108DF80610E9
:102C9000FFF796FF206901231A460DF1070100692D
:102CA0000BF044FD08B102B010BD2046FFF7AAFFAB
:102CB00020690123032201A900690BF0BAFF002853
:102CC000F1D12046FFF788FF01212046FFF778FF6A
:102CD000022201A92046FFF7ABFF9DF80630834290
:102CE000E1D19DF804209DF8053043EA02232380BA
:102CF00007EE903AF8EEE77A9FED067A67EE877A6C
:102D0000C4ED017A9FED047A67EE877AC4ED027A0A
:102D1000C9E700BFA410C938E02E654290ED010A52
:102D2000704790ED020A704770B584B004460023E6
:102D3000ADF80C3011228DF80C208DF80D10ADF887
:102D400008301946FFF73CFF20690A23022203A935
:102D500000690BF0EBFC30B906462046FFF752FF46
:102D6000002300930BE001212046FFF729FF0025F7
:102D7000284604B070BD00BF009B01330093009B48
:102D8000092BF8D920690A23022202A900690BF055
:102D900050FF054610B9002301930CE001212046A5
:102DA000FFF70EFF2046FFF717FF3546E0E700BFAD
:102DB000019B01330193019B092BF8D92046FFF7B2
:102DC0000BFF01212046FFF7FBFE012202A920464E
:102DD000FFF72EFF9DF809308342C9D19DF80850B6
:102DE000C6E770B586B004461546304B05930026FD
:102DF000ADF810608DF8126033238DF810308DF827
:102E000011108DF812208DF80F603146FFF7D8FEB3
:102E100020690A23042205A900690BF087FC01211F
:102E20002046FFF7CDFE31462046FFF7C9FE00964B
:102E300003E000BF009B01330093009B092BF8D9EE
:102E400020690A23032204A900690BF06FFC002308
:102E5000019303E000BF019B01330193019B092B08
:102E6000F8D92046FFF7CEFE20690A2301220DF192
:102E70000F0100690BF0DDFE0023029303E000BFA9
:102E8000029B01330293029B092BF8D92046FFF7DE
:102E9000A3FE01212046FFF793FE9DF80F00A842F4
:102EA00014BF0020012006B070BD00BF2024010126
:102EB00038B504460D46A1B10221FFF735FF60F099
:102EC0007F02D2B202212046FFF78BFF022120466B
:102ED000FFF72AFF10F0800F01D1002038BD2846EF
:102EE000FCE70221FFF720FF00F07F0202212046CD
:102EF000FFF777FF02212046FFF716FF10F0800F43
:102F000001D10120EAE72846E8E708B50173FFF799
:102F1000CFFF08BD30B583B00446104B1B68ADF839
:102F200004301B0C8DF80630FFF756FE00212046BA
:102F3000FFF746FE20690A23032201A900690BF06E
:102F4000F5FB054601212046FFF73AFE4FF4FA70E3
:102F500010F03EFB284603B030BD00BF0CB20108A4
:102F60002DE9F04180460F4616461D46002406E036
:102F7000395D4046FFF7D8FE30550134E4B2AC422B
:102F8000F6D3BDE8F0812DE9F8430646884617469A
:102F90001D469DF82090002407E03A5D18F80410C3
:102FA0003046FFF71EFF0134E4B2AC42F5D3B9F16D
:102FB000000F01D1BDE8F8833046FFF7ABFFF9E71A
:102FC000704710B504460221FFF7AEFE40F0400204
:102FD000D2B202212046FFF704FF322010F0F8FAA7
:102FE00002212046FFF7A0FE10F0400F01D0012083
:102FF00010BD0020FCE708B57221FFF795FEC0F375
:10300000011008BDF8B504460E461621FFF78CFEE8
:10301000054640F00802D2B216212046FFF7E1FE35
:1030200045F01802D2B216212046FFF7DAFE0A2038
:1030300010F0CEFA2046FFF7DEFF01280BD025F076
:10304000100242F0080202F0EF0216212046FFF7BC
:10305000C8FE0020F8BDFEF735F9074611E025F05F
:10306000100242F0080202F0EF0216212046FFF79C
:10307000B8FE2046FFF74EFF0120EBE70A2010F0D4
:10308000A7FAFEF71FF9C01B4FF47A7306FB03F390
:10309000984212D22046FFF7AEFF0328DFD0022865
:1030A000ECD125F0100242F0080202F0EF021621E6
:1030B0002046FFF796FE0020CCE725F0100242F0F4
:1030C000080202F0EF0216212046FFF78AFE0020D8
:1030D000C0E700BFB5EEC00AF1EE10FA09D4F7EE72
:1030E000007AB4EEE70AF1EE10FA04DDB0EE670AFA
:1030F00001E09FED030A80ED000A00234360704762
:1031000000000000D0ED017A90ED007A30EE670A01
:1031100027EE007A37EE870A80ED010A7047D0ED7E
:10312000017A30EE670A20EE200A37EE800A80ED41
:10313000010A704700234360704700BF0000000091
:1031400070B5BAB08DF86C10002310E03AAA02EB0B
:10315000C30202F8783C4FF0010C02F877CC00EB88
:10316000830CDCF800C042F874CC0133DBB28B4234
:10317000ECD30BAE31461BA811F065FA04462822A9
:103180000021684614F0E1FD02238DF8003010A301
:10319000D3E90023CDE9022340F2F233ADF8103039
:1031A000094B059310238DF818300796ADF8204091
:1031B0006946064802F090FD002801DB00F034FB70
:1031C0003AB070BDAFF30080C4190020CC190020C4
:1031D000F33AEC386248A7D8F0B591B0FEF772F830
:1031E0001F4BA3FB003080090D904E230D9300244C
:1031F0008DF838408DF839408DF83A40ADF83C40B4
:103200000BAF39460DA811F0AFFA0546282221462A
:10321000684614F09AFD02238DF800300EA3D3E91E
:103220000023CDE9022340F25513ADF810300D4BC9
:10323000059310238DF818300797ADF82050694694
:10324000094802F049FDA04201DB00F0EDFA11B09F
:10325000F0BD00BFAFF30080F1C6A7C1D068080F72
:10326000D34D6210C5190020CC19002000B587B0DD
:1032700000230093019302220292012203920493FD
:1032800005936946104807F07FFEB0B94FF08043C0
:1032900000930023019302930222039204936FF0A0
:1032A000604305936946084807F06EFE40B906483A
:1032B00007F09DFE07B05DF804FB04F0D7FBE5E7DF
:1032C00004F0D4FBF3E700BF1C35002008B5FFF77E
:1032D000CDFF08BD70B58AB006460D461C462422B7
:1032E000002101A814F031FD019694B14FF0804304
:1032F0000293082304930024092C0CDC2A4601A91C
:10330000074807F08AFE48B1012010F061F9013446
:10331000F2E70023ECE700200AB070BD0120FBE7D4
:103320001C35002010B58AB0044640211A4807F029
:1033300043FF30B1231D6A464021174807F096FE2F
:1033400038B14121144807F037FF78B900200AB09E
:1033500010BD009B2360039B2373019BB3F1804F3F
:1033600014BF0023012363730120F0E7231D6A4685
:103370004121094807F07AFE08B10020E7E7009BE9
:103380002360039B2373019BB3F1804F14BF002381
:10339000012363730120DAE71C35002008B5194BBF
:1033A0009B78DBB1184B9B78C3B1184B9B78ABB1C2
:1033B000174B9B7893B1174B1B8803F00F03012B1E
:1033C0000DD014490B88144AA2FB0302920A4FF451
:1033D0007A5000FB12339BB201330B8008BD0422EC
:1033E0000E490F4807F0DCF80648FDF7C3FE064813
:1033F000FDF7C0FE0548FDF7BDFE0548FDF7BAFE26
:10340000DFE700BF6808002050090020380A0020CC
:10341000200B0020C6190020D34D6210100C002094
:10342000A02D002003681B6813F0100F71D130B578
:1034300085B0384B0FCB04AC04E90F0000241FE02B
:103440002846FDF74FFD2BE0632B18D1324B5A88ED
:10345000324BA3FB0213DB0903EB8303A2EB431202
:1034600092B2012A0BD12E4B2B612846FDF7A4FC0A
:1034700005E0294B5B8803F00303012B22D00134C4
:10348000032C37DC04AB03EB840353F8105CAB78FC
:10349000002BF4D0204B5B8803F00303012BCFD02B
:1034A0002B78022B12D0CFD8002BE2D0012BE6D103
:1034B000194B5B8803F00303012BE0D12846FDF78D
:1034C000D5FDDCE72846FDF777FCD8E7124B5B8893
:1034D00003F00F03012B09D00F4B5B8803F00303AC
:1034E000012BCCD12846FDF7C1FDC8E72846FDF7E2
:1034F000D2FDF1E708494B880A4AA2FB0302920A6F
:103500004FF47A5000FB12339BB201334B8005B06D
:1035100030BD7047D0A80108C6190020CDCCCCCC56
:103520008FC2753FD34D621010B504460268D2EDCC
:103530000B7AF8EE677AB6EE007A67EE877AFCEEE1
:10354000E77A17EE903A9BB253630BF0B9FE002175
:1035500020460CF02DFA034BC4F88430024BC4F81B
:10356000A03010BD253400089D3300080000000085
:10357000022B26D19DF800305B2B24D040F2F23391
:103580009A4209D041F26F439A420CD040F255134F
:103590009A420FD0002070470DA3D3E90023C1E960
:1035A0000023012070470CA3D3E90023C1E90023C5
:1035B000012070470AA3D3E90023C1E900230120B9
:1035C0007047002070470020704700BFAFF30080B5
:1035D000F33AEC386248A7D825893512000000007C
:1035E000F1C6A7C1D068080F70B5C0B005460C463B
:1035F0004FF480720021684614F0A7FBA28AA168EC
:10360000684614F05CFC2046FFF7BAFA21462846CB
:1036100002F057FD40B070BD037B082B2AD830B5AF
:103620008BB005462422002101A814F08EFB2B68E4
:10363000002B06DBC3F30A0301932B7B04930024C6
:103640000AE023F0604301934FF080430293F4E7D4
:1036500001200FF0BDFF0134092C08DC2A1D01A94F
:10366000054807F0DAFC0028F2D1012000E0002034
:103670000BB030BD002070471C35002010B58CB059
:1036800004464121174807F097FD30B940211548FD
:1036900007F092FD08B3402100E041216B4602AAE9
:1036A000104807F0E3FCD0B9039BB3F1804F0DD075
:1036B000029BC3F30A032360059A2273D2B26946C0
:1036C000201D14F0FCFB01200CB010BD029B23F068
:1036D000604343F000432360EEE70020F4E700205E
:1036E000F2E700BF1C35002010B588B004A8002404
:1036F000049444608460C460124B049306238DF8E4
:103700001C3011238DF8143022238DF8153033230B
:103710008DF8163044238DF8173055238DF8183066
:1037200066238DF81930FFF777FF05200FF050FF63
:1037300068460094019402940394FFF79FFF08B039
:1037400010BD00BF2103008010B582B0FFF7BEFDA1
:10375000084C00230193084B0093084B4FF4805210
:103760000749204602F093FA5B21204602F0AAFAAC
:1037700002B010BDCC19002071350008E9350008F1
:10378000041A002008B502E0064802F0FBFA0548DA
:1037900002F0F4FA034620B11846FFF73DFF012876
:1037A000F2D008BDCC19002000B585B007E0FDF7C8
:1037B0007DFD02460B466946054802F003FD68465A
:1037C000FFF75CFF0128F2D005B05DF804FB00BFF5
:1037D000CC19002038B504E0124802F0D3FAFFF704
:1037E000E3FF104802F0CAFA034620B11846FFF77B
:1037F00013FF0128F0D0FFF7D7FFFDF763FD044664
:10380000084BDB6AC31AB3F57A7F00D838BD054D83
:103810004FF47A7200FB02F20023284602F0BAFA53
:10382000EC62F3E7CC19002038B5FFF7ABFFFFF7E8
:10383000BBFFFDF747FD094B1B6BC31AB3F57A7F3E
:1038400000D838BD0446054D4FF47A7200FB02F2F1
:103850000023284602F09EFA2C63F2E7CC190020E0
:1038600030B58DB0164B0AAC93E8030084E8030032
:1038700028220021684614F068FA02238DF80030EF
:103880000DA3D3E90023CDE9022341F26F43ADF844
:1038900010300C4800F13403059307940823ADF869
:1038A0002030694602F018FA08B90DB030BDFFF7B4
:1038B000BBFFFAE7AFF30080258935120000000056
:1038C00010B20108CC1900202DE9F04F87B010EE9E
:1038D00090BA82460C461546D0ED007AF4EE677A2F
:1038E000F1EE10FA08D6F0EEE77A9FED637AF4EE87
:1038F000477AF1EE10FA02DD0023CAF80030DAED63
:10390000007A70EE677A17EE900A01F0DDF858A39E
:10391000D3E9002300F07AFF01F026FCDFED570A1F
:1039200000EE100A16F0FEFAB5EEC00AF1EE10FA3B
:1039300000F1918010EE100A01F0C6F84CA3D3E913
:10394000002300F061FF01F00FFC8046D4ED007A07
:10395000F4EE677AF1EE10FA08D6F0EEE77A9FED12
:10396000467AF4EE477AF1EE10FA01DD0023236087
:10397000DAF8000001F0A8F8CDE90001206801F0B4
:10398000A3F8CDE90201D5E90067404601F09CF8B3
:1039900002460B46CDE904233046394601F0ECF8E7
:1039A00002460B46DDE9020100F030FF8046894601
:1039B000584601F089F806460F4602460B46404637
:1039C000494601F0D9F802460B46DDE9000100F056
:1039D0001DFF01F0C9FBCAF8000001F075F824A32F
:1039E000D3E9002300F012FF01F0BEFBDFED230A54
:1039F00000EE100A16F096FAB5EEC00AF1EE10FAD3
:103A00002ED410EE100A01F05FF819A3D3E90023B9
:103A100000F0FAFE01F0A8FBCAF80000206801F0EF
:103A200053F880468946D5E90223DDE9040101F017
:103A3000A3F802460B463046394601F09DF802468F
:103A40000B464046494600F0E1FE01F08DFB206048
:103A500007B0BDE8F08FDFED097A30EE270A69E79D
:103A6000DFED067A30EE270ACBE700BFAFF3008028
:103A7000182D4454FB210940FFFF7F7FDB0FC94015
:103A80000146002301E00133DBB2074A92F820200F
:103A90009A4206D9044A52F8230042698A42F2D176
:103AA00000E00020704700BF042A002078B1022205
:103AB000027042704FF48062428082804FF48072C4
:103AC000C2800281642242818281012070470020ED
:103AD000704738B50446B0F8780003F00FFEA061D7
:103AE0002062B4F87830A3830025A577A584B4F8C4
:103AF0007A0003F003FEA0622063B4F87A30A38555
:103B000084F82E50A586A36913B118B1012038BDE1
:103B10000020FCE70020FAE710B5044600220C2143
:103B2000B0F8800005F0E7FBA06300220C21B4F898
:103B3000820005F0E0FBE063A36B13B118B1012034
:103B400010BD0020FCE70020FAE710B50446032270
:103B50000021012005F0CFFB206403220021012079
:103B600005F0C9FB03466064206C68B173B10023A3
:103B70001A46194605F0E3FB00231A461946606C05
:103B800005F0DDFB012010BD0020FCE70020FAE776
:103B9000F0B583B0044600F150050346164A1321E0
:103BA000284605F041FA04F14803019318270097CD
:103BB00023464FF48072294610480FF0D4FA00F0E3
:103BC000010504F1630623460D4A1321304605F032
:103BD0002BFA04F14C030193009723464FF48072B3
:103BE000314608480FF0BFFA054202D0012003B069
:103BF000F0BD0020FBE700BF1CB2010871440008C3
:103C000024B201089F44000838B505460C494069B4
:103C10000DF093F804460B4A012168690DF016F87F
:103C20000443E4B2084A042168690DF00FF8044324
:103C300014F0FF0F01D1012038BD0020FCE700BFC8
:103C4000C73F0008234000086D400008F8B504464F
:103C50000D46B0F8920000F025FF06460F46B4F876
:103C60007A0000F01FFF10A3D3E9002300F084FFC7
:103C700002460B463046394601F00EFA70B94DB196
:103C8000E06B05F0E3FEB4F88230181A012807D97A
:103C90000020F8BDE06B05F0C6FEF4E70120F8E770
:103CA0000120F6E7AFF300809A9999999999E93F35
:103CB000002904DDD0F888300B44C0F88830002A91
:103CC00004DDD0F88C301344C0F88C30B0F890305C
:103CD0000B44A0F89030B0F892301344A0F8923022
:103CE000704710B5044690F87630012B03D0022BB4
:103CF00019D0002010BDB0F87C20016A40690DF099
:103D0000C5FF022817D16369002283F88420B4F824
:103D10007C20216A60690DF0B9FFB4F8843001336A
:103D2000A4F8843007E0B0F87C20016A40690DF007
:103D3000D4FF022803D00028DBD10120DAE7636931
:103D4000002283F88420B4F87C20216A60690DF099
:103D5000C4FFB4F884300133A4F88430EBE72DE9D4
:103D6000F0410646D9B114461D460F46BAB1B3B16B
:103D70002021384614F023F80F280BD823784BB1B4
:103D800063783BB1E3882BB123891BB163890BB105
:103D9000A38943B9012373740020BDE8F081012396
:103DA00073740020F9E7002333607360B360F3603D
:103DB000C6F87630C6F87A30C6F87E30A6F882307B
:103DC000C6F88430C6F88830C6F88C30C6F8903013
:103DD00010223946304613F0DFFF21686268A3687D
:103DE000C6F87610C6F87A20C6F87E30A389A6F801
:103DF000823075612846FFF743FE18B101237374C2
:103E00000020CAE71A4A92F8203042F823600133B2
:103E100082F820303046FFF75CFE10B9012373743E
:103E2000BBE73046FFF778FE10B901237374B4E79F
:103E30003046FFF78AFE10B901237374ADE73046B0
:103E4000FFF7A6FE10B901237374A6E73046FFF70B
:103E5000DBFE10B9012373749FE73046FFF741FF83
:103E600010B10123337498E70223737495E700BF00
:103E7000042A0020F0B585B004460D461646684673
:103E8000FFF714FE33466A4629462046FFF767FFD0
:103E900005B0F0BD38B504460D4690F87730012BDB
:103EA00003D0022B17D0002038BD8A8809684069EA
:103EB0000CF05CFF022815D16369002283F884208E
:103EC000AA88296860690CF051FFB4F88430013386
:103ED000A4F8843006E08A88096840690CF09CFFE9
:103EE000022803D00028DED10120DDE7636900222B
:103EF00083F88420AA88296860690CF08DFFB4F8E3
:103F000084300133A4F88430ECE729B1C0F8941070
:103F1000C0F89820012070470020704730B585B068
:103F200004460D460023039390F87630022B07D108
:103F30004369B3F85C30B1EB530F34D00023A37462
:103F4000002229B22046FFF7B3FEFDF7BBF902902D
:103F5000A38C2B449BB2A384226A0092ADF8045038
:103F6000A28BD31AB4F87C20934201DA0023A384F5
:103F7000A369A28C134423622046FFF7B2FE0023FC
:103F800003AA6946A06B05F0B5FA039B4BB14FF04D
:103F9000E0234FF08052C3F8042DBFF34F8FBFF3DF
:103FA0006F8F05B030BD837C002BC7D10123837494
:103FB000F7E710B514460846FFF762FD10B1214639
:103FC000FFF7ACFF10BD08B50A4601460020FFF719
:103FD000F0FF08BD10B582B004464369B3F8542021
:103FE000524212B20021FFF763FE0023019301A9A0
:103FF000206C05F0E6FA019B4BB14FF0E0234FF047
:104000008052C3F8042DBFF34F8FBFF36F8F02B000
:1040100010BD08B50846FFF733FD08B1FFF7DAFF1A
:1040200008BD08B501460020FFF7F3FF08BD08B53D
:104030004369D3F8902072B11B68DA6912F0040F5B
:1040400001D004221A6243691B68DA6912F0020F78
:1040500001D002221A62FFF744FE08BD08B50846E7
:10406000FFF70EFD08B1FFF7E2FF08BD08B50146F6
:104070000020FFF7F3FF08BD2DE9F04784B00029C9
:1040800000F09F80044617460D460B68002B00F099
:104090009A808888002800F09880267C002E00F006
:1040A000958000F0FFFC80468946B4F87A0000F065
:1040B000F9FC49A3D3E9002300F05EFD02460B465C
:1040C0004046494600F0E8FF08B100267EE00021A6
:1040D0002046FFF7BBFD08B1002677E04FF0FF3127
:1040E000606C05F076FB002F37D1B4F82C80B4F863
:1040F0003490A8EB0907BFB2AA88BA4231D8296820
:10410000206B13F0DCFE236B0193AB88ADF8083015
:1041100000234FF0FF3201A9E06B05F010F9A38EE8
:10412000AA8813449BB2A386A28DD31AB4F87E202A
:10413000934201DA0023A386A36AA28E1344236369
:10414000B5F9042000212046FFF7B2FD00231A46EE
:104150001946606C05F0F3F838E0FDF7B3F803900A
:10416000C3E73A462968206B13F0A9FE236B01933D
:10417000ADF808700DF1040A00234FF0FF325146EC
:10418000E06B05F0DCF8AB88A9EB080903EB090844
:104190001FFA88F8296842463944A06A13F08FFE56
:1041A000A36A0193ADF8088000234FF0FF32514617
:1041B000E06B05F0C4F8A4F83480A36A4344236399
:1041C000BEE7002602E0002600E00026304604B0EC
:1041D000BDE8F087AFF300809A9999999999E93FE2
:1041E00000B585B00191ADF808200393B3FA83F2CE
:1041F000520901A9FFF740FF05B05DF804FB2DE966
:10420000F04F85B0002A00F09F8004460D469A4684
:104210001746067C002E00F09880104600F042FC05
:1042200080468946B4F87A0000F03CFC4AA3D3E902
:10423000002300F0A1FC02460B464046494600F030
:104240002BFF08B1002680E001212046FFF7FEFC8D
:10425000804608B1002678E06A460021606C05F0CF
:104260008BFB012875D1BAF1000F3FD0B4F82CA018
:10427000B4F83480AAEB08091FFA89F94F4539D8F8
:104280003A462946206B13F01AFE236B0193ADF8D2
:10429000087000236A4601A9E06B05F02BF9A38E94
:1042A0003B449BB2A386A28DD31AB4F87E209342DE
:1042B00001DA0023A386A36AA28E134423633AB2D1
:1042C00000212046FFF7F4FC6946606C05F079F99F
:1042D000009B002B39D04FF0E0234FF08052C3F801
:1042E000042DBFF34F8FBFF36F8F2EE0FCF7EAFF73
:1042F0000390BBE74A462946206B13F0E0FD236B91
:104300000193ADF8089000236A4601A9E06B05F01F
:10431000F1F8A8EB0A08B8441FFA88F8424605EB02
:104320000901A06A13F0CBFDA36A0193ADF80880E0
:1043300000236A4601A9E06B05F0DCF8A4F834809C
:10434000A36A43442363BAE70026304605B0BDE8BC
:10435000F08F4646F9E700BF9A9999999999E93FF4
:1043600010B599B10B469AB1047C94B190F87710CE
:10437000012906D002290CD1194640690CF04CFDE8
:1043800007E0194640690CF0F1FC02E0002400E06F
:104390000024204610BD0EB42DE9F04183B006463E
:1043A000C82003F0ABF940B34FF0000807460AAB52
:1043B0000193099AC82104F04BFE05464446632C3C
:1043C0000DD80023AAB239463046FFF709FF8046D0
:1043D00028B901200FF0FCF80134E4B2EFE7B8F19E
:1043E000000F01D14FF0FF35384603F009FA284697
:1043F00003B0BDE8F04103B070474FF0FF35F6E77A
:104400000EB470B583B00546C82003F077F9C8B183
:10441000064608AB0193079AC82104F019FE04462A
:10442000002382B231462846FFF7E9FE08B94FF073
:10443000FF34304603F0E4F9204603B0BDE8704095
:1044400003B070474FF0FF34F6E700B585B004467F
:104450004FF0FF3201A9A06B05F00CF9D4F89430AD
:10446000002BF5D0D4F89820214601A89847EFE713
:1044700008B5FFF7EAFF00B585B0044601AD4FF07F
:10448000FF322946E06B05F0F5F84FF0FF31206C64
:1044900005F09FF929462046FFF7FCFCEEE708B53A
:1044A000FFF7E9FF704700BF38B50546002400E07C
:1044B0000134092C14DC1C4B4C2202FB043393F80E
:1044C0004930002BF4D02946174B02FB043000F092
:1044D0002FF90028ECD114484C2303FB040021E001
:1044E0000023092B1DDC104A4C2101FB032292F80A
:1044F00049200AB10133F4E70B4C01FB03440F22BE
:104500002946204613F048FC012004F0E8FFE06152
:10451000012384F849300023A36184F84830204601
:1045200000E0002038BD00BF282A002010B5064C4E
:104530004FF43E720021204613F007FC012004F0E6
:10454000CEFFC4F8F80210BD282A002038B5044672
:104550000D464FF0FF31154BD3F8F80205F039F94D
:104560002046FFF7A1FFB0B1044603699BB9284676
:1045700003F0C4F8206165610C48241AA4100C4BA8
:1045800003FB04F400231A461946D0F8F80204F09D
:10459000D6FE204638BD00231A4619460348D0F8F7
:1045A000F80204F0CCFE4FF0FF34F2E7282A002096
:1045B0001BCA6B28092820D838B50D460F4B4C2252
:1045C00002FB003393F8493003B938BD0B4C02FBB2
:1045D00000444FF0FF31E06905F0FBF862692946BD
:1045E000206913F06CFCA3690133A36100231A4610
:1045F0001946E06904F0A3FEE7E77047282A002087
:1046000070B504464FF0FF311B4BD3F8F80205F0AC
:10461000E0F82046FFF748FF18B3044690F84850EA
:10462000042D1ED80FF082F9043544F8350094F8B3
:104630004850A2692B1D04EBC3035A606B1C84F81D
:1046400048300D4E00231A461946D6F8F80204F0F9
:1046500076FEA01B8010094B03FB00F040EA0540EA
:1046600070BD00231A4619460348D0F8F80204F03A
:1046700066FE4FF0FF30F3E7282A00201BCA6B28A4
:1046800083B2000C092B16D80D4A4C2101FB0322E2
:1046900092F84820824210DD094A043001FB03F3FE
:1046A00003EBC000104440681A44936998422CBF41
:1046B000002001207047002070470020704700BF95
:1046C000282A00202DE9F0410E4685B2040C02E0B4
:1046D00001200EF07DFF154A231D4C2105FB01F141
:1046E00001EBC303134458680A4493699842EFD01E
:1046F000DFF838800D4617464FF0FF31D06905F0DE
:1047000068F87A693969304613F0D9FBBE6900232D
:104710001A461946F86904F012FE043405EBC40584
:10472000A844C8F804600120BDE8F081282A0020D0
:1047300010F8012B11F8013B012A28BF9A42F7D04B
:10474000D01A7047034613F8012B002AFBD1181A20
:104750000138704700000000000000000000000069
:1047600001F0FF01102A2BDB10F0070F08D010F822
:10477000013B013A8B422DD010F0070F42B3F6D126
:10478000F0B441EA012141EA014122F007047FF03F
:1047900000070023F0E80256083C85EA010586EA96
:1047A000010685FA47F5A3FA87F586FA47F6A5FAD2
:1047B00087F68EB9EED1F0BC01F0FF0102F00702DE
:1047C00032B110F8013B013A83EA010313B1F8D189
:1047D0000020704701387047002D06BF354603386A
:1047E000073815F0010F07D1013015F4807F02BFA3
:1047F000013015F4C03F0130F0BC0138704700BFF4
:1048000081F0004102E000BF83F0004330B54FEA81
:1048100041044FEA430594EA050F08BF90EA020FEE
:104820001FBF54EA000C55EA020C7FEA645C7FEA81
:10483000655C00F0E2804FEA5454D4EB5555B8BFA4
:104840006D420CDD2C4480EA020281EA030382EA15
:10485000000083EA010180EA020281EA0303362DA7
:1048600088BF30BD11F0004F4FEA01314FF4801C7A
:104870004CEA113102D0404261EB410113F0004F8C
:104880004FEA03334CEA133302D0524263EB430343
:1048900094EA050F00F0A780A4F10104D5F1200EE1
:1048A0000DDB02FA0EFC22FA05F2801841F100013C
:1048B00003FA0EF2801843FA05F359410EE0A5F110
:1048C00020050EF1200E012A03FA0EFC28BF4CF041
:1048D000020C43FA05F3C01851EBE37101F00045F7
:1048E00007D54FF0000EDCF1000C7EEB00006EEB04
:1048F0000101B1F5801F1BD3B1F5001F0CD349088E
:104900005FEA30004FEA3C0C04F101044FEA4452E4
:1049100012F5800F80F09A80BCF1004F08BF5FEA6B
:10492000500C50F1000041EB045141EA050130BD4B
:104930005FEA4C0C404141EB0101013C28BFB1F55D
:10494000801FE9D291F0000F04BF01460020B1FAA8
:1049500081F308BF2033A3F10B03B3F120020CDA7B
:104960000C3208DD02F1140CC2F10C0201FA0CF059
:1049700021FA02F10CE002F11402D8BFC2F1200CBE
:1049800001FA02F120FA0CFCDCBF41EA0C01904074
:10499000E41AA2BF01EB0451294330BD6FEA0404BD
:1049A0001F3C1CDA0C340EDC04F11404C4F12002A8
:1049B00020FA04F001FA02F340EA030021FA04F3BA
:1049C00045EA030130BDC4F10C04C4F1200220FA11
:1049D00002F001FA04F340EA0300294630BD21FA4F
:1049E00004F0294630BD94F0000F83F4801306BF15
:1049F00081F480110134013D4EE77FEA645C18BF09
:104A00007FEA655C29D094EA050F08BF90EA020F9F
:104A100005D054EA000C04BF1946104630BD91EA97
:104A2000030F1EBF0021002030BD5FEA545C05D19A
:104A30004000494128BF41F0004130BD14F58004D9
:104A40003CBF01F5801130BD01F0004545F0FE414D
:104A500041F470014FF0000030BD7FEA645C1ABF82
:104A6000194610467FEA655C1CBF0B46024650EAB9
:104A7000013406BF52EA033591EA030F41F40021E5
:104A800030BD00BF90F0000F04BF0021704730B56B
:104A90004FF4806404F132044FF000054FF0000140
:104AA00050E700BF90F0000F04BF0021704730B501
:104AB0004FF4806404F1320410F0004548BF4042D6
:104AC0004FF000013EE700BF42004FEAE2014FEA2B
:104AD00031014FEA02701FBF12F07F4393F07F4F06
:104AE00081F06051704732F07F4208BF704793F009
:104AF0007F4F04BF41F40021704730B54FF460741C
:104B000001F0004521F000411CE700BF50EA01021E
:104B100008BF704730B54FF000050AE050EA0102C7
:104B200008BF704730B511F0004502D5404261EB37
:104B300041014FF4806404F132045FEA915C3FF478
:104B4000D8AE4FF003025FEADC0C18BF03325FEA15
:104B5000DC0C18BF033202EBDC02C2F1200300FAC6
:104B600003FC20FA02F001FA03FE40EA0E0021FAEB
:104B700002F11444BDE600BF70B54FF0FF0C4CF4D9
:104B8000E06C1CEA11541DBF1CEA135594EA0C0F8B
:104B900095EA0C0F00F0DEF82C4481EA030621EAC6
:104BA0004C5123EA4C5350EA013518BF52EA033501
:104BB00041F4801143F4801338D0A0FB02CE4FF0B3
:104BC0000005E1FB02E506F00042E0FB03E54FF0E3
:104BD0000006E1FB03569CF0000F18BF4EF0010EDB
:104BE000A4F1FF04B6F5007F64F5407404D25FEAD7
:104BF0004E0E6D4146EB060642EAC62141EA55518A
:104C00004FEAC52040EA5E504FEACE2EB4F1FD0CCB
:104C100088BFBCF5E06F1ED8BEF1004F08BF5FEA49
:104C2000500E50F1000041EB045170BD06F00046FB
:104C300046EA010140EA020081EA0301B4EB5C04A8
:104C4000C2BFD4EB0C0541EA045170BD41F48011A0
:104C50004FF0000E013C00F3AB8014F1360FDEBFC5
:104C6000002001F0004170BDC4F10004203C35DAA1
:104C70000C341BDC04F11404C4F1200500FA05F324
:104C800020FA04F001FA05F240EA020001F00042C5
:104C900021F0004110EBD37021FA04F642EB06013B
:104CA0005EEA430E08BF20EAD37070BDC4F10C0465
:104CB000C4F1200500FA04F320FA05F001FA04F229
:104CC00040EA020001F0004110EBD37041F1000115
:104CD0005EEA430E08BF20EAD37070BDC4F1200520
:104CE00000FA05F24EEA020E20FA04F301FA05F288
:104CF00043EA020321FA04F001F0004121FA04F230
:104D000020EA020000EBD3705EEA430E08BF20EAFF
:104D1000D37070BD94F0000F0FD101F00046400039
:104D200041EB010111F4801F08BF013CF7D041EABB
:104D3000060195F0000F18BF704703F000465200BF
:104D400043EB030313F4801F08BF013DF7D043EA90
:104D50000603704794EA0C0F0CEA135518BF95EA46
:104D60000C0F0CD050EA410618BF52EA4306D1D1CD
:104D700081EA030101F000414FF0000070BD50EAEC
:104D8000410606BF1046194652EA430619D094EA76
:104D90000C0F02D150EA013613D195EA0C0F05D160
:104DA00052EA03361CBF104619460AD181EA0301B4
:104DB00001F0004141F0FE4141F470014FF000006C
:104DC00070BD41F0FE4141F4780170BD70B54FF007
:104DD000FF0C4CF4E06C1CEA11541DBF1CEA135587
:104DE00094EA0C0F95EA0C0F00F0A7F8A4EB050469
:104DF00081EA030E52EA03354FEA013100F0888060
:104E00004FEA03334FF0805545EA131343EA126328
:104E10004FEA022245EA111545EA10654FEA0026DD
:104E20000EF000419D4208BF964244F1FD0404F596
:104E3000407402D25B084FEA3202B61A65EB0305F2
:104E40005B084FEA32024FF480104FF4002CB6EBAF
:104E5000020E75EB030E22BFB61A754640EA0C002F
:104E60005B084FEA3202B6EB020E75EB030E22BF6F
:104E7000B61A754640EA5C005B084FEA3202B6EBB0
:104E8000020E75EB030E22BFB61A754640EA9C006F
:104E90005B084FEA3202B6EB020E75EB030E22BF3F
:104EA000B61A754640EADC0055EA060E18D04FEAFD
:104EB000051545EA16754FEA06164FEAC30343EA9D
:104EC00052734FEAC2025FEA1C1CC0D111F4801F6A
:104ED0000BD141EA00014FF000004FF0004CB6E763
:104EE00011F4801F04BF01430020B4F1FD0C88BF02
:104EF000BCF5E06F3FF6AFAEB5EB030C04BFB6EB0D
:104F0000020C5FEA500C50F1000041EB045170BDFF
:104F10000EF0004E4EEA113114EB5C04C2BFD4EB2C
:104F20000C0541EA045170BD41F480114FF0000EB0
:104F3000013C90E645EA060E8DE60CEA135594EA2C
:104F40000C0F08BF95EA0C0F3FF43BAF94EA0C0F2F
:104F50000AD150EA01347FF434AF95EA0C0F7FF4A4
:104F600025AF104619462CE795EA0C0F06D152EAF8
:104F700003353FF4FDAE1046194622E750EA4106DC
:104F800018BF52EA43067FF4C5AE50EA41047FF4ED
:104F90000DAF52EA43057FF4EBAE12E74FF0FF3C52
:104FA00006E000BF4FF0010C02E000BF4FF0010C23
:104FB0004DF804CD4FEA410C7FEA6C5C4FEA430C9C
:104FC00018BF7FEA6C5C1BD001B050EA410C0CBFEB
:104FD00052EA430C91EA030F02BF90EA020F00204D
:104FE000704710F1000F91EA030F58BF994208BFB4
:104FF00090422CBFD8176FEAE37040F00100704771
:105000004FEA410C7FEA6C5C02D150EA013C07D1C7
:105010004FEA430C7FEA6C5CD6D152EA033CD3D012
:105020005DF8040B704700BF8446104662468C460C
:105030001946634600E000BF01B5FFF7B7FF00283F
:1050400048BF10F1000F01BD4DF808EDFFF7F4FF68
:105050000CBF012000205DF808FB00BF4DF808EDF3
:10506000FFF7EAFF34BF012000205DF808FB00BF16
:105070004DF808EDFFF7E0FF94BF012000205DF838
:1050800008FB00BF4DF808EDFFF7CEFF94BF0120ED
:1050900000205DF808FB00BF4DF808EDFFF7C4FFE6
:1050A00034BF012000205DF808FB00BF4FEA410C2F
:1050B0007FEA6C5C02D150EA013C0AD14FEA430C12
:1050C0007FEA6C5C02D152EA033C02D14FF000004F
:1050D00070474FF0010070474FEA410212F500128D
:1050E00015D211D56FF47873B3EB625212D94FEA2F
:1050F000C12343F0004343EA505311F0004F23FA19
:1051000002F018BF404270474FF00000704750EA6D
:10511000013005D111F0004008BF6FF0004070472A
:105120004FF00000704700BF4A0011D212F5001284
:1051300011D20DD56FF47873B3EB62520ED44FEAEF
:10514000C12343F0004343EA505323FA02F070476F
:105150004FF00000704750EA013002D14FF0FF30AD
:1051600070474FF0000070474FEA4102B2F1E04350
:1051700024BFB3F5001CDCF1FE5C0DD901F0004C3E
:105180004FEAC0024CEA5070B2F1004F40EB83008E
:1051900008BF20F00100704711F0804F21D113F1BA
:1051A0003872BCBF01F00040704741F480114FEAF3
:1051B0005252C2F11802C2F1200C10FA0CF320FA7C
:1051C00002F018BF40F001004FEAC1234FEAD32399
:1051D00003FA0CFC40EA0C0023FA02F34FEA430303
:1051E000CCE77FEA625307D150EA01331EBF4FF08C
:1051F000FE4040F44000704701F0004040F0FE40A7
:1052000040F40000704700BF53B94AB9002908BFF5
:1052100000281CBF4FF0FF314FF0FF3000F00CB8FA
:10522000ADF1080C6DE904CE15F076F9DDF804E077
:10523000DDE9022304B07047704700BF0348044B08
:10524000834202D0034B03B1184770473C0600204D
:105250003C060020000000000548064B1B1AD90F31
:1052600001EBA301491002D0034B03B1184770476B
:105270003C0600203C0600200000000010B5064C53
:10528000237843B9FFF7DAFF044B13B10448AFF3B7
:1052900000800123237010BD242D00200000000099
:1052A00010A8010808B5054B1BB105490548AFF327
:1052B0000080BDE80840FFF7CFBF00BF000000003E
:1052C000282D002010A8010800B589B02022002157
:1052D000684612F03AFD2F482F4B03604FF44033DD
:1052E000436000238360C3600361012242610422A2
:1052F000826103774377026280F82430C3620363DC
:1053000080F83830C36380F8403004F0F7FC0028A0
:1053100030D1224B009306230193022302937F2373
:10532000039304230493002305936946194804F06A
:105330005BFE10BB1A4B00930C23019300230293D6
:105340006946144804F050FED0B9164B009312235E
:10535000019369460F4804F047FEA0B9124B009331
:105360001823019369460B4804F03EFE70B909B05A
:105370005DF804FB02F07AFBCBE702F077FBD9E79C
:1053800002F074FBE1E702F071FBE7E702F06EFB6D
:10539000EDE700BFA02D0020000100500020903656
:1053A0000800900C2000F01400106032F0B59FB09F
:1053B0000446002119911A911B911C911D915422B0
:1053C00004A812F0C2FC2268374B9A4201D01FB0E9
:1053D000F0BD4FF4004304934FF00053159304A81D
:1053E00008F026FE002859D1304BDA6C42F4005206
:1053F000DA64DA6C02F400520092009ADA6C42F03D
:105400000102DA64DA6C02F001020192019ADA6CAC
:1054100042F00402DA64DA6C02F004020292029AA8
:10542000DA6C42F00202DA64DB6C03F002030393ED
:10543000039B6023199303271A9700251B9519AE28
:1054400031464FF0904005F095FF102319931A97BD
:105450001B953146164805F08DFF042319931A97C2
:105460001B953146134805F085FF1348134B036025
:10547000242343608560C560802303614FF48073FB
:1054800043614FF4806383612023C361056205F0AB
:1054900075FA30B9084B63659C6298E702F0E6FA4A
:1054A000A2E702F0E3FAF5E7000100500010024025
:1054B0000008004800040048402D00208000024001
:1054C00008B5FCF7DFFD08BD084670470846704781
:1054D0000846704708467047401A83B2002800DB30
:1054E0007047203318B2FBE703780133DBB2037057
:1054F0001F2B01D90023037070470E2809D8DFE85D
:1055000000F01515151515151515150A0C0E1012A8
:105510001400402070470C20704710207047142062
:1055200070471820704720207047302070470828A7
:1055300018D90C280BD910280BD914280BD91828E6
:105540000BD920280BD930280BD90F207047092000
:1055500070470A2070470B2070470C2070470D20C1
:1055600070470E207047034621F0604C20F06042E7
:10557000C00F91EA030F0AD4C1F38071C3F38070A6
:10558000944514D094452CBF002001207047002979
:1055900008DB002B09DB9445F8D094452CBF002094
:1055A000012070474FEA9C4CF3E7920CF3E78142ED
:1055B000ECD1E7E72DE9F04107460D46D0F824800D
:1055C000B8F1000F0CD046464446A4B16968606843
:1055D000FFF7C9FF30B9236826465BB11C46F4E7E4
:1055E000796208E0A04502D035602C6003E02C60B1
:1055F0007D6200E02560BDE8F081C37DC3F38402D5
:10560000013262F38603C375C38A6FF30903C38251
:10561000C37D23F08003C375704738B504460D463B
:10562000006A04E0016804F10C00FFF751FF10B1BB
:105630000369AB42F6D138BD2DE9F043079ECD0892
:1056400003EBD60401F0070E06F0070372442AE0CC
:105650000EF0070803F00706C446B04538BFB4464D
:10566000CCF1080CA2EB0E018C4528BF8C464FF400
:105670007F4121FA0CF1C9B241FA06F74FEADE0187
:1056800000EB050919F8011001FA08F1F140C9B25F
:105690004FEAD30814F80860714039404E4004F8CE
:1056A0000860E64463449645D2D1BDE8F0832DE915
:1056B000F04F87B00393838AB1EBC30F80F08780EC
:1056C00082460E461546DA0069188A4203D2D3B2E2
:1056D000F2B29B1ADDB2DAF80C3043B3272E36D87B
:1056E000C6F128039D4230D35FFA86FBCBF1280B2D
:1056F0005FFA8BFB00230093039B5A463146DAF88E
:105700000800FFF799FF5E44A5EB0B04E4B2BAF87A
:10571000147007F10057053FFF00DAF80C902821BC
:105720004B46B946CDF810A005951F4626E0DAF89D
:105730001030002BD2D100230093039B2A46314620
:10574000DAF80800FFF778FF35E0AB46D2E72C46E1
:105750004FF0000BDBE72546CDF800B0039B2A464F
:10576000711A381DFFF768FF2E44AB445FFA8BFBBC
:10577000651BECB2A9EB0A093F684146A7B19CB191
:10578000CA46B9F1E00F28BF4FF0E00A0AEB010862
:105790004645EFD2A8EB06039C42DCD35FFA88F5BE
:1057A000F3B2ED1AEDB2D7E7DDF810A0059DDAF8F7
:1057B000100000B11CB928B207B0BDE8F08FCDF8D9
:1057C00000B0039B2246711AFFF736FFF3E7002073
:1057D000F2E7002070470139002307E0C25C10F8AF
:1057E00001C000F803C04254013301398B42F5D3A4
:1057F000704780EA0120002307E0400080B280F477
:10580000815080F001000133DBB2072B05D810F482
:10581000004FF2D1400080B2F5E7704770B51646F0
:105820001D46002411E0C4F12003A4F1200C26FA47
:1058300004F105FA03F3194325FA0CFC41EA0C01C3
:10584000C9B2FFF7D6FF0834A4B23F2CEBD970BD24
:1058500038B50C4604E014F8011BFFF7CAFF2A46CE
:10586000551E002AF7D138BD38B5058C072D0BD948
:105870000446D0E902234FF6FF70FFF7CFFF2A4618
:10588000E169FFF7E5FF38BD4FF6FF70FBE710B4A5
:10589000016100F1040C002305E001EB4314CCF896
:1058A0000040A44601339A42F7D80023CCF80030D8
:1058B00002814381838103605DF8044B7047034696
:1058C000406848B102685A605A89013292B25A81DE
:1058D00099898A4200D99A81704708B5FFF7EFFF8E
:1058E00008B10023036008BD2DE9F84F82468946C0
:1058F00017461D46CB8AC3F30903052B32D0184641
:105900000024042B0AD8A54208D9395D09EB03020B
:10591000D17601339BB20134A4B2F2E7A54218D983
:10592000B9F816B0CBF3090BABF1050293083D496A
:10593000A1FB0313C3EBC303A2EB83021FFA82F89C
:10594000D9F8041081B15046FFF7BEFD0646012389
:105950001CE02844B9F8163060F30903A9F81630A2
:10596000012054E00024DBE75046FFF7B6FF06466F
:1059700001465046FFF7AAFDC9F80400002E48D0A2
:105980004FF000082CE001339BB216463268002A23
:10599000F9D105EB0B02053A92082249A1FB02124C
:1059A00092B2013292B293421AD2B8F1000F17D1DB
:1059B0005046FFF792FF306070B3064610E03A5D44
:1059C00006EB0C031A710CF1010C1FFA8CFC01346C
:1059D000A4B2BCF11B0F01D8A542F0D8A54203D850
:1059E000A5420AD9C446F4E75046FFF776FF306077
:1059F000A8B106464FF00008F2E7B9F81630C3F335
:105A00000902154465F30903A9F816300120BDE821
:105A1000F88F6FF00200FAE76FF00200F7E76FF01F
:105A20000200F4E72549922443680B6041604389F2
:105A3000013B43817047F8B506460D460EE006F17E
:105A40000C042046FFF740FD014607682046FFF79B
:105A5000EBFF39462046FFF739FD68606968002989
:105A6000EDD1EB8A6FF30903EB8200200021F8BD32
:105A700008B5FFF724FF034628B100220260426008
:105A80008260C2600261184608BD00002DE9F04F37
:105A900083B001921D465B69002B00F0998081461E
:105AA0008B462B8C1BB1EA69002A00F09480072BEF
:105AB00018D902339BB206334D4A82FB03121344BA
:105AC000C3F38F03B9F81420B9F81610521A92B222
:105AD000934200F286804FF0800A4FF0000844465F
