:020000040800F2
:1000000000000220556C0108DB1C0108DD1C010802
:10001000DF1C0108E11C0108E31C010800000000CE
:10002000000000000000000000000000917B0008BC
:10003000E51C010800000000317C0008D5650008BF
:10004000A56C0108A56C0108A56C0108A56C010848
:10005000A56C0108A56C0108A56C0108A56C010838
:10006000A56C0108A56C0108A56C0108E91C010834
:10007000F91C0108091D0108191D0108291D0108A5
:10008000391D0108491D0108A56C0108591D010809
:10009000691D0108A56C0108A56C0108A56C010883
:1000A000791D0108A56C0108A56C0108A56C010863
:1000B000A56C0108891D0108A56C0108991D01089E
:1000C000A91D0108A56C0108A56C0108A56C010813
:1000D000A56C0108B91D0108C91D0108D91D010839
:1000E000A56C0108A56C0108A56C0108A56C0108A8
:1000F000A56C0108A56C0108A56C0108A56C010898
:10010000A56C0108A56C0108E91D0108F91D01088D
:10011000A56C0108A56C0108A56C0108A56C010877
:10012000A56C0108A56C0108A56C0108A56C010867
:10013000A56C0108A56C0108A56C0108A56C010857
:10014000A56C0108A56C0108A56C0108A56C010847
:10015000A56C0108A56C0108A56C0108A56C010837
:10016000A56C0108A56C0108A56C0108A56C010827
:10017000A56C0108A56C0108091E0108A56C010801
:10018000A56C0108A56C0108A56C0108A56C010807
:10019000A56C010800000000191E0108291E0108B5
:1001A000A56C0108A56C0108A56C0108A56C0108E7
:1001B000A56C0108A56C0108A56C0108A56C0108D7
:1001C000A56C0108A56C0108A56C0108A56C0108C7
:0801D000391E0108A56C0108AD
:1001E000F8B50F4616461D460024632C0CD8002394
:1001F00032463946284603F0CBFF28B9012013F0D8
:10020000BFF90134E4B2F0E7F8BD08B513460A4679
:1002100001460020FFF7E4FF08BD10B50446E06A80
:1002200006F0CCFFA0894FF47A7303FB00F0034B78
:10023000A3FB0030800913F0A3F9F0E7D34D62105F
:1002400000296AD02DE9F04188B004461646884658
:1002500000F10E070522384617F0BAFD384604F0C3
:1002600049FA034639182F4A1068F85013790B7170
:1002700004F1180509224146284617F0A9FD284631
:1002800004F038FA034605EB000C274A03CAE8508D
:10029000CCF804100A2E38BF0A26A68103A8002332
:1002A000039343608360C36003618023ADF8103023
:1002B000ADF812304FF48073ADF814302023ADF850
:1002C000163001238DF81E30039506F0D7FCE0624E
:1002D00028B3164B0360E36A154A5A6004F13403ED
:1002E00001931823009323464FF4007239461148B6
:1002F00012F011FF012803D0002008B0BDE8F08102
:10030000606B13F0AFF90C4B1A68511C196003EBCA
:1003100082035C6001202070EFE70020704700201E
:10032000EBE700BFB0AA0108B8AA01080D04000855
:100330002B0400081B0200084006002010B50478BA
:100340000CB9204610BD406B12F074FFF9E719B1EB
:1003500041608260012070470020704729B101632D
:100360008160034B4360012070470020704700BF4D
:100370000B02000818B108B506F034FC08BD704740
:100380002DE9F041A9B1064615460F46A2B190F8F5
:100390000080B8F1000F09D0002405E0395DF06A53
:1003A000FFF7E8FF0134A4B2AC42F7D34046BDE802
:1003B000F0814FF00008F9E74FF00008F6E7002859
:1003C00008DB064B1B68834206DD044B03EB80030E
:1003D0005868704700207047002070474006002092
:1003E000014680B10023084A1268934209DA064A9E
:1003F00002EB83025068C26A8A4204D00133DBB246
:10040000F1E70020704770474006002010B582B029
:100410008DF80710FFF7E4FF28B1446882680121D6
:100420000DF10700A04702B010BD70B50C46FFF7F4
:10043000D7FF48B105464668C821204617F0DBFCC7
:10044000AA6881B22046B04770BD014680B1002342
:10045000084A1268934209DA064A02EB830250689E
:10046000026B8A4204D00133DBB2F1E7002070470F
:10047000704700BF4006002038B50024012508E081
:10048000074B03EB84035868FFF758FF054001341E
:10049000E4B2034B1B689C42F2DB284638BD00BF28
:1004A000400600207047F8B505460E46084606F09F
:1004B000DFFE0746094B2B60092801DC012408E018
:1004C0000A27FBE7A1B2304606F074FC45F8240089
:1004D0000134A742F6DA3846F8BD00BFA0AD0108E6
:1004E0000EB470B583B04368D3B10446C82007F09A
:1004F000DDF80646B8B108AB0193079AC82108F0A9
:100500007FFD05466368A26881B230469847304651
:1005100007F04EF9284603B0BDE8704003B07047BD
:100520004FF0FF35F6E74FF0FF35F3E784B000B545
:1005300083B0844605A880E80E009CF8000068B1EE
:1005400089B1099B8BB108AB93E803008DE80300E8
:1005500005AB0ECBDCF82C0006F052FB03B05DF8C7
:1005600004EB04B070470020F8E70020F6E784B001
:1005700070B582B006AC84E80F000024012510E0BD
:100580000D4B03EB84035E6809AB93E803008DE831
:10059000030006AB0ECB3046FFF7C8FF0540013421
:1005A000E4B2054B1B689C42EADB284602B0BDE87A
:1005B000704004B0704700BF4006002010B588B0FE
:1005C0000A9C039004918DF81420069307940094DC
:1005D00003AB0FCBFFF7CBFF08B010BD000000004E
:1005E000F0B583B0A54C0022228000236360A36095
:1005F000A3492161A282A361E361A24F67622285C0
:10060000E3622363A04EA663A287236463649F4DC5
:10061000E5649FED9F2A84ED142AF3EE092AC4EDC8
:10062000152A9FED9C3A84ED163ADFED9B3AC4ED16
:10063000173A9FED9A4A84ED184ADFED994AC4EDC6
:10064000194AE366A36623679FED965A84ED1D5A07
:10065000A367E367DFED945AC4ED205A9FED936AD8
:1006600084ED216ADFED926AC4ED226A9FED917AF2
:1006700084ED237AC4F89030C4F89430C4F89830EC
:10068000C4F89C30C4F8A030C4F8A43084F8A82082
:10069000F1EE067AC4ED2B7ADFF820E2C4F8B0E080
:1006A000DFF81CC2C4F8B4C08348C4F8B800C4F86A
:1006B000BC3084ED302AC4ED312A84ED323AC4EDE9
:1006C000333A84ED344AC4ED354AC4F8DC30C4F81A
:1006D000D830C4F8E03084ED395AC4F8E830C4F8B2
:1006E000EC30C4ED3C5A84ED3D6AC4ED3E6A84EDC5
:1006F0003F7AC4F80031C4F80431C4F80831C4F8B2
:100700000C31C4F81031C4F8143184F81821C4ED48
:10071000477AC4F820E1C4F824C1C4F82801C4F819
:100720002C3184ED4C2AC4ED4D2A84ED4E3AC4EDB3
:100730004F3A84ED504AC4ED514AC4F84C31C4F8E4
:100740004831C4F8503184ED555AC4F85831C4F8D2
:100750005C31C4ED585A84ED596AC4ED5A6A84ED8F
:100760005B7AC4F87031C4F87431C4F87831C4F8D5
:100770007C31C4F88031C4F8843184F88821C4ED18
:10078000637AC4F890E1C4F894C1C4F89801C4F83D
:100790009C3184ED682AC4ED692A84ED6A3AC4ED7F
:1007A0006B3A84ED6C4AC4ED6D4AC4F8BC31C4F8B0
:1007B000B831C4F8C03184ED715AC4F8C831C4F8F6
:1007C000CC31C4ED745A84ED756AC4ED766A84ED5B
:1007D000777AC4F8E031C4F8E431C4F8E831C4F8F9
:1007E000EC31C4F8F031C4F8F43184F8F821C4EDE8
:1007F0007F7AC4F800E2C4F804C2C4F80802C4F85E
:100800000C3204F1AC03019304F17403009304F17E
:100810005003224604F5047016F086F804F58E7332
:10082000019304F1E403009304F1C00304F1140202
:10083000394604F53E7016F077F804F5C673019357
:1008400004F5AA73009304F5987304F12802314665
:1008500004F5787016F068F804F5FE73019304F55A
:10086000E273009304F5D07304F13C02294604F5C9
:10087000996016F059F803B0F0BD00BF580600208B
:10088000E4A80108C0A801089CA8010878A80108EC
:1008900052B81E3FCDCCCC3D6F128339EC51783F1E
:1008A000EC5178BF9A99193F6F12833AF4FD143FC7
:1008B0006666E63F6666E6BF3333B3BF6666663F8D
:1008C0003333B33F10B50C4C22686423D362E3602A
:1008D00053639363002120460FF02EF90021204638
:1008E0000FF026FB042120460FF026F904212046B4
:1008F0000FF01EFB10BD00BF3829012090F85C30BE
:100900008B4236D010B5044680F85C10C1B1D0F8E7
:10091000B030996818680FF00FF9D4F8B0309968C2
:1009200018680FF005FBD4F8B030D96818680FF0DC
:1009300003F9D4F8B030D96818680FF0F9FA10BD8F
:10094000D0F8B030996818680FF0ACF9D4F8B0302E
:10095000996818680FF06AFBD4F8B030D968186845
:100960000FF0A0F9D4F8B030D96818680FF05EFB2A
:10097000E5E7704738B50546C06904F07DF80EA379
:10098000D3E9002304F0D0F804F0C6FB2863002468
:10099000EC622C6100212846FFF7B0FF2B6C9C61B4
:1009A000DC611C626B6C1C62DC611C63DC629C623F
:1009B0005C6238BDAFF30080F8C1631ADCA54C401F
:1009C00038B52DED028B0446D0ED017AFCEEE77AC6
:1009D00017EE903A9DB290ED028AB5EEC08AF1EE24
:1009E00010FA09D4DFED8E7AB4EEE78AF1EE10FA50
:1009F00004DDB0EE678A01E09FED8A8AD4ED038AB8
:100A0000F5EEC08AF1EE10FA09D4DFED857AF4EE46
:100A1000E78AF1EE10FA04DDF0EE678A01E0DFED1F
:100A2000818AB4F85030AB4215D0A4F8505084ED10
:100A3000158AC4ED168AEDB101212046FFF75EFF4D
:100A4000636EB3FBF5F34FF6FE72934217D8012B9A
:100A500017D8012315E0D4ED157AF4EE487AF1EEBB
:100A600010FAE2D1D4ED167AF4EE687AF1EE10FACB
:100A7000DBD1D1E000212046FFF740FFCCE04FF66C
:100A8000FF73D4F8B02012681268002151625A1E18
:100A900092B2D4F8B01009680968CA62D4F8B010EC
:100AA0000968CA60D4F8B0108A68102A4BD8DFE809
:100AB00002F0094A4A4A164A4A4A234A4A4A304AEE
:100AC0004A4A3D0007EE903AF8EE677A67EE887A78
:100AD0000A681268FCEEE77AC2ED0D7A3FE007EE95
:100AE000903AF8EE677A67EE887A0A681268FCEE48
:100AF000E77AC2ED0E7A32E007EE903AF8EE677AC6
:100B000067EE887A0A681268FCEEE77AC2ED0F7A1F
:100B100025E007EE903AF8EE677A67EE887A0A6881
:100B20001268FCEEE77AC2ED107A18E007EE903A10
:100B3000F8EE677A67EE887A0A681268FCEEE77A60
:100B4000C2ED127A0BE007EE903AF8EE677A67EEA4
:100B5000887A0A681268FCEEE77AC2ED137AD4F854
:100B6000B010CA68102A4BD8DFE802F0094A4A4A96
:100B7000164A4A4A234A4A4A304A4A4A3D0007EE40
:100B8000903AF8EE677A67EEA87A0B681B68FCEE7D
:100B9000E77AC3ED0D7A3FE007EE903AF8EE677A18
:100BA00067EEA87A0B681B68FCEEE77AC3ED0E7A55
:100BB00032E007EE903AF8EE677A67EEA87A0B68B3
:100BC0001B68FCEEE77AC3ED0F7A25E007EE903A5A
:100BD000F8EE677A67EEA87A0B681B68FCEEE77A96
:100BE000C3ED107A18E007EE903AF8EE677A67EEF8
:100BF000A87A0B681B68FCEEE77AC3ED127A0BE06B
:100C000007EE903AF8EE677A67EEA87A0B681B68F1
:100C1000FCEEE77AC3ED137ABDEC028B38BD00BF62
:100C2000EC51783F0000000010B50446D0ED047A86
:100C30009FED257AF4EEC77AF1EE10FA0CD49FED11
:100C4000237AF4EEC77AF1EE10FA1BDCF5EE407A67
:100C5000F1EE10FA0BD001E0DFED1B7AB0EEE77A8F
:100C6000DFED1B6AB4EEE67AF1EE10FA0DD5002343
:100C7000E360A36000212046FFF740FE2046FFF717
:100C80009FFE10BDDFED117AE8E7F5EEC07AF1EED8
:100C900010FA0FDCF5EEC07AF1EE10FAEED5002373
:100CA000A360F1EE677AC4ED037A01212046FFF7D5
:100CB00025FEE3E7C4ED027A0023E360012120462C
:100CC000FFF71CFEDAE700BFEC5178BFEC51783F2C
:100CD000BD37863510B52DED028B04460CF0FAFFBA
:100CE000D4F8B0301B681B689B6A0133B0FBF3F08B
:100CF00060669FED178AB0EE480A04F1680002F0C2
:100D0000C1F9B0EE480A04F1700002F0BBF9052108
:100D100004F1780001F064FD642104F1940001F015
:100D20005FFD2046FFF780FF01212046FFF7E6FD2B
:100D3000012012F025FC00212046FFF7DFFD61783D
:100D4000E06B02F0BAF80123A370BDEC028B10BD7A
:100D50003333333F38B50446C06B01F067FFE06BB7
:100D600001F0B4FF584B83ED000A94F8B430002B27
:100D700040F0848010EE100A03F07EFE4EA3D3E90B
:100D8000002303F01BFD04F0C7F9DFED500A00EE6D
:100D9000100A19F0E3F8B5EEC00AF1EE10FA63D4C8
:100DA00010EE100A03F068FE43A3D3E9002303F01A
:100DB00003FD04F0B1F907EE900A606194ED2E7A1C
:100DC00037EEC77A424B83ED007AC4F8B80017EECD
:100DD000100A03F051FE38A3D3E9002303F0EEFC20
:100DE00004F09AF9DFED390A00EE100A19F0B6F8AE
:100DF000B5EEC00AF1EE10FA3BD410EE100A03F083
:100E00003BFE2DA3D3E9002303F0D6FC04F084F9C4
:100E100000EE100AC4F8BC0004F1700002F04AF9B8
:100E200084ED300ADFED2B7A20EE270A84ED060AE6
:100E300004F1780001F0EEFC84ED310A04F1680061
:100E400002F038F910EE105A84ED320A6069E06160
:100E500003F012FE1AA3D3E9002303F065FE04F0A9
:100E60005BF92062656238BDDFED187A30EE270A43
:100E700096E7DFED167A30EE270ABEE784ED050A25
:100E800004F1D80204F1D00104F1CC00DFED120A24
:100E900002F0F2FCD4F8CC00E06103F0EDFD08A311
:100EA000D3E9002303F040FE04F036F92062D4F8C1
:100EB000D0306362D7E700BF182D4454FB210940AE
:100EC000F8C1631ADCA54C40080C0020DB0FC940B8
:100ED0000C0C002000007A456F12833910B50446CF
:100EE00090ED0B0AD0ED097A30EE670A006C15F030
:100EF000DDFCD4ED047A77EE807AC4ED047A2046E6
:100F0000FFF792FE10BDD0B52DED048B0446006BAB
:100F100003F0B2FD79A3D3E9002303F005FE0646F2
:100F20000F46E06903F0A8FD02460B4630463946FD
:100F300003F042FC66A3D3E9002303F03FFC04F076
:100F4000EBF8DFED6B0A00EE100A19F007F8B5EECA
:100F5000C00AF1EE10FA23D410EE100A03F08CFD53
:100F60005BA3D3E9002303F027FC04F0D5F808EED7
:100F7000100AF0EEC87AD4ED098AB0EEE89A94F837
:100F80005D3093B117EE900A03F076FD52A3D3E9DA
:100F9000002304F059F858B3002384F85D3027E0AB
:100FA000DFED537A30EE270AD6E717EE900A03F00A
:100FB00063FD4BA3D3E9002304F028F8A8B119EE90
:100FC000100A03F059FD48A3D3E9002304F01EF8EA
:100FD00058B1B4F85E3001339BB2A4F85E30092BEF
:100FE00006D9012384F85D3002E00023A4F85E30C6
:100FF00094F85D30002B46D1B1EE687AA36CD3ED46
:10100000007A68EE277AD3ED016A68EEE68A77EE19
:10101000A87AC3ED047AD3ED026AF4EEE67AF1EE33
:1010200010FA34DDC3ED046A1B69E362A36CD3EDEF
:10103000007A28EE278AD3ED017A67EE277A38EE18
:10104000278A83ED048AD3ED027AB4EEE78AF1EEC3
:1010500010FA26DDC3ED047AD3ED047A94ED187A04
:1010600077EEC77ADFED236AF4EEE67AF1EE10FA56
:1010700021DCDFED216AF4EEE67AF1EE10FA1CD500
:10108000DFED1D7A19E00023E36223661BE0D3ED58
:10109000036AF4EEE67AF1EE10FAC5D5C3ED046A00
:1010A000C2E7D3ED037AB4EEE78AF1EE10FAD3D5B6
:1010B000C3ED047AD0E7DFED0F7A77EE277AC4ED3F
:1010C000187AC4ED0B7ABDEC048BD0BDAFF3008071
:1010D000182D4454FB210940F9C115D15472853FA4
:1010E000F9C115D15472753F399D52A246DFB13F07
:1010F000DB0FC9406F12033B6F1203BB399D52A235
:1011000046DF913FD0B52DED028B0446D0F8B030CC
:1011100093F82220384B03EB4203B3F8B83500EEC6
:10112000103AB8EE400A943001F074FBF2EE047A03
:10113000B4EEE70AF1EE10FA08D4B0EE408ADFED23
:101140002F7AB4EEE70AF1EE10FA02DDBDEC028B65
:10115000D0BDDFED2B7A77EEC07A17EE900A03F060
:101160008BFC0022274B03F0DFFC06460F4618EEEF
:10117000100A03F081FC02460B463046394603F064
:10118000FDFD03F0C9FF606303F076FC00221D4BF8
:1011900003F0F4FD41EC100B18F09EFE51EC100B27
:1011A0000FA3D3E9002303F0E9FD0FA3D3E9002344
:1011B00003F004FB03F0B0FF07EE900AB7EE007AED
:1011C000C7EE277A17EE900A03F056FC08A3D3E97E
:1011D000002303F0F1FA03F09FFFA063B6E700BF1E
:1011E0000000000000DCAE40AA9D755E034B6B3F23
:1011F00066666666663271405806002000607F456C
:10120000000080450000244008B5FFF7E9F908BD5B
:10121000024A536801335360704700BF280C002016
:1012200010B5044C20460EF023F8034BC4F884306C
:1012300010BD00BFA027012011120008034B1B683E
:10124000586A034B18605968704700BFA0270120F7
:10125000280C002008B5FFF7F1FF4FF47A72002345
:1012600003F0AAFF014B986008BD00BF280C0020C6
:1012700038B50546FFF7EEFF0446FFF7EBFF001B0E
:10128000A842FAD338BD00BF10B504460448FFF7A2
:10129000DCF818B1A2882168FFF772F810BD00BF12
:1012A000340C002010B504460448FFF7CEF818B1FE
:1012B000A2882168FFF764F810BD00BF340C00203D
:1012C00010B5044C04F19C0015F074FB204615F099
:1012D00071FB10BD340C002038B50C4C04F19C059A
:1012E0000B4A0C49284602F09DFD00220A49284677
:1012F00002F0E3FD094A0A49204602F093FD00226C
:101300000849204602F0D9FD38BD00BF340C00204A
:101310003C2E0120C0AA0108A5120008082F0120B8
:10132000C8AA0108891200080FB4F0B583B0C8201C
:1013300006F0BCF928B30027064609AB0193089ACA
:10134000C82107F05DFE05463C46632C0DD80023FE
:10135000AAB231460C4802F01BFF074628B901200B
:1013600012F00EF90134E4B2EFE70FB94FF0FF3598
:10137000304606F01DFA284603B0BDE8F04004B040
:1013800070474FF0FF35F6E7340C00200FB4F0B58E
:1013900083B0C82006F08AF970B30027064609AB6F
:1013A0000193089AC82107F02BFE05463C46632CA2
:1013B0000DD80023AAB23146114802F0E9FE0746D3
:1013C00028B9012012F0DCF80134E4B2EFE7002381
:1013D00002220C490A4802F0DBFE02354FB140B14F
:1013E000304606F0E5F9284603B0BDE8F04004B009
:1013F00070474FF0FF35F3E74FF0FF35F3E700BFDD
:10140000340C00200CB1010808B5FFF759FF08BDE6
:101410000138800180B2203080B270470138032843
:1014200009D8DFE800F0020A0406054870470548BD
:10143000704705487047002070470448704700BF58
:1014400068080020380A0020200B002050090020E6
:10145000013803280CD8DFE800F0020D050841F23E
:101460001110704743F23330704744F244407047E4
:101470000020704742F2222070470138400080B2BD
:10148000704710B58AB00446FFF7C8FF48B3026C36
:10149000116802915168039192680492426C11683C
:1014A00005915168069192680792826A0892436892
:1014B00009932046FFF7ACFF202202A901F05AF958
:1014C00008B90AB010BD2046FFF7C2FFADF806000C
:1014D0002046FFF7D2FF02220DF1060101F04AF982
:1014E000EFE70020EDE730B58BB00446FFF796FF3D
:1014F000002834D005460023ADF826302046FFF7FB
:10150000BCFF02220DF1260101F0DEF840B32046B7
:10151000FFF79EFFBDF82630984201D000201FE063
:101520002046FFF775FF202201A901F0CDF8B8B1E0
:101530002B6C019A1A602B6C029A5A602B6C039ADE
:101540009A606B6C049A1A606B6C059A5A606B6CAB
:10155000069A9A60079BAB62089B6B6000E00020D4
:101560000BB030BD30B583B00023ADF80630642831
:1015700017D0431EDBB2032B16D90025284603B033
:1015800030BD0134E4B2042CF8D82046FFF775FFD3
:1015900002220DF1060101F0EDF80028F1D1054617
:1015A000EFE701242546EEE7FFF767FF02220DF182
:1015B000060101F0DFF80546E0E700BF38B5002975
:1015C0000FDD1546406815F071FB0446431E032BE2
:1015D0000CD82C60013C032C13D8DFE804F00C1469
:1015E0000E100A48FFF7A0FE002005E0014608485B
:1015F000FFF79AFEEDE7074838BD0748FCE70748C4
:10160000FAE70020F8E70648F6E700BFD0AA01088D
:10161000ECAA010868080020380A0020200B0020EE
:101620005009002030B58DB00C4600230B93FEF717
:10163000D7FE88B101AD21462846FEF734FF0146AA
:101640000BAA2846FFF7BAFF30B10121FFF756F980
:101650000B990248FFF768FE0DB030BD04AB0108DE
:1016600030B58DB00C4600230B93FEF7B9FE88B160
:1016700001AD21462846FEF716FF01460BAA284673
:10168000FFF79CFF30B10021FFF738F90B990248B2
:10169000FFF74AFE0DB030BD18AB010810B58AB097
:1016A0000C46FEF79DFE40B121466846FEF7FBFE64
:1016B00009F0D6F80248FFF737FE0AB010BD00BFA8
:1016C0002CAB010830B58DB00C4600230B93FEF710
:1016D00087FE90B101AD21462846FEF7E4FE0146A3
:1016E0000BAA2846FFF76AFF9DF82C00FFF73AFF88
:1016F00028B10B990448FFF717FE0DB030BD0B99C8
:101700000248FFF711FEF8E740AB010864AB01089F
:1017100030B58DB00C4600230B93FEF761FE98B1F7
:1017200001AD21462846FEF7BEFE01460BAA28461B
:10173000FFF744FF40B19DF82C00FFF7A2FE28B14F
:101740000B990548FFF7F0FD0DB030BD0B9903482C
:10175000FFF7EAFDF8E700BF88AB0108A8AB010876
:1017600030B58DB00C4600230B93FEF739FEF0B177
:1017700021466846FEF797FE01460BAA6846FFF72A
:101780001DFF044698B10AA9029816F099F810EEC8
:10179000100A029A0A9B9A420BD084ED010A03F0C8
:1017A0006BF902460B460B990448FFF7BDFD0DB0DF
:1017B00030BD0348FFF7B8FDF9E700BFE0AB010813
:1017C000C8AB010830B58DB00C4600230B93FEF773
:1017D00007FEF0B121466846FEF765FE01460BAAFA
:1017E0006846FFF7EBFE044698B10AA9029816F086
:1017F00067F810EE100A029A0A9B9A420BD084ED09
:10180000040A03F039F902460B460B990448FFF726
:101810008BFD0DB030BD0348FFF786FDF9E700BF33
:1018200000AC0108C8AB010830B58DB00C460023F0
:101830000B93FEF7D5FDF0B121466846FEF733FE67
:1018400001460BAA6846FFF7B9FE044698B10AA9FB
:10185000029816F035F810EE100A029A0A9B9A4286
:101860000BD084ED0C0A03F007F902460B460B99E6
:101870000448FFF759FD0DB030BD0348FFF754FD94
:10188000F9E700BF20AC0108C8AB010830B58DB046
:101890000C4600230B93FEF7A3FDF0B121466846EA
:1018A000FEF701FE01460BAA6846FFF787FE0446D5
:1018B00098B10AA9029816F003F810EE100A029ADD
:1018C0000A9B9A420BD084ED0B0A03F0D5F802462E
:1018D0000B460B990448FFF727FD0DB030BD0348B8
:1018E000FFF722FDF9E700BF44AC0108C8AB0108CF
:1018F00070B58CB00C4600230B93FEF771FDA0B3BE
:1019000001AD21462846FEF7CEFD01460BAA28462A
:10191000FFF754FE044640B3039D2949284602F0D0
:10192000DFFEA0B12749284602F0DAFE88B1264939
:10193000284602F0D5FED0B12449284602F0D0FE58
:1019400008B9632506E02248FFF7EEFC0DE001250B
:1019500000E0022525702046FFF70CF8039A0B994A
:101960001C48FFF7E1FC632D03D00CB070BD0025CF
:10197000F0E70B991848FFF7D7FC4FF4FA6011F025
:10198000FFFD0B991548FFF7CFFC3C21E06B01F000
:1019900011FB0546002626700A2011F0F1FD3146A4
:1019A0002046FEF7ABFF0023236125B10B990C48BD
:1019B000FFF7BAFCD9E70B990A48FFF7B5FCD4E763
:1019C0009CAF01086CAF010868AC010874AC010859
:1019D0007CAC01088CAC0108B0AC0108E0AC01089B
:1019E00014AD01084CAD0108F0B593B00C460023CE
:1019F0001193FEF7F5FC002849D004AD2146284696
:101A0000FEF751FD014611AA2846FFF7D7FD07460C
:101A100000283CD010A9069815F052FF10EE106A6D
:101A20000FA9079815F04CFF10EE104A0EA9089860
:101A300015F046FF10EE105A069A109B9A4228D0D5
:101A4000079A0F9B9A4224D0089A0E9B9A4220D064
:101A50003B6C1E603B6C5C603B6C83ED020A38465D
:101A6000FEF788FF304603F007F806460F46284683
:101A700003F002F8CDE90201204602F0FDFFCDE9B6
:101A8000000132463B4611990448FFF74DFC13B064
:101A9000F0BD0348FFF748FCF9E700BF6CAD010853
:101AA000C8AB0108F0B593B00C4600231193FEF7C4
:101AB00097FC002849D004AD21462846FEF7F3FCE8
:101AC000014611AA2846FFF779FD074600283CD0B9
:101AD00010A9069815F0F4FE10EE106A0FA90798E9
:101AE00015F0EEFE10EE104A0EA9089815F0E8FE6B
:101AF00010EE105A069A109B9A4228D0079A0F9B14
:101B00009A4224D0089A0E9B9A4220D07B6C1E6089
:101B10007B6C5C607B6C83ED020A3846FEF72AFF23
:101B2000304602F0A9FF06460F46284602F0A4FF01
:101B3000CDE90201204602F09FFFCDE900013246C7
:101B40003B4611990448FFF7EFFB13B0F0BD034883
:101B5000FFF7EAFBF9E700BFA4AD0108C8AB010835
:101B600030B58DB00C4600230B93FEF739FCA0B1C5
:101B700001AD21462846FEF796FC01460BAA2846F1
:101B8000FFF71CFD48B10378012B08D0022B0BD0C6
:101B90007BB90B990948FFF7C7FB0DB030BD0B9916
:101BA0000748FFF7C1FBF8E70B990648FFF7BCFBB6
:101BB000F3E70B990448FFF7B7FBEEE7DCAD01084C
:101BC0000CAE01083CAE01086CAE0108014B186078
:101BD000704700BF6C0D002008B5024B1B6803B1B5
:101BE000984708BD6C0D002008B58AB2014602482E
:101BF00014F0FEFE08BD00BF700D0020F9B170B5F5
:101C00008C00A4B2261DB6B20D4B93F8B835A3B91B
:101C10000C4DB3FA83F35B09094A82F8B8352246C2
:101C20000146284616F067F9074B186828513246D6
:101C30002946002013F066FB70BD044DE9E77047AC
:101C4000700D00203012002074A80108AC12002092
:101C50000FB430B5A1B0BDF890501E2D00D91E258F
:101C600025AB0193002411E0019B073323F0070308
:101C700003F108020192D3E9000103F04DFA20AB11
:101C800003EB840343F8780C0134A4B2A542EBD8EB
:101C90000022294602A8FFF7B1FF21B0BDE830407D
:101CA00004B0704708B50248FFF790FF08BD00BFB9
:101CB000E91B0008034B00221A705A609A60DA622E
:101CC0001A6370472C13002010B582B03F4C0A22D3
:101CD0003F492046FEF7B4FA3E492046FEF73EFB58
:101CE0003D4B0093002301223C493D48FEF766FC32
:101CF0003C4B0093002301223B493C48FEF75EFC2D
:101D00003B483C4B0093002301220146FEF756FC62
:101D1000394B00930023012238493948FEF74EFC25
:101D2000384B00930023012237493848FEF746FC20
:101D3000374B00930023012236493748FEF73EFC1B
:101D4000364B00930023012235493648FEF736FC16
:101D5000354B00930023012234493548FEF72EFC11
:101D6000344B00930023012233493448FEF726FC0C
:101D7000334B00930023012232493348FEF71EFC07
:101D8000324B00930023012231493248FEF716FC02
:101D9000314B00930023012230493148FEF70EFCFD
:101DA000304B0093002301222F493048FEF706FCF8
:101DB000FEF762FB002011F085FD01462C48FFF77D
:101DC000B3FA002011F0DAF902B010BD2C13002094
:101DD00088AE0108340C00202516000890AE0108DA
:101DE0009CAE010861160008A4AE0108B0AE01085F
:101DF000B8AE01089D160008C5160008C0AE01085F
:101E0000D4AE010811170008E4AE0108F0AE0108D5
:101E100061170008F8AE01080CAF0108C5170008EB
:101E200014AF01083CAF01082918000848AF0108A9
:101E300068AF01088D18000870AF010898AF01085D
:101E4000F1180008A4AF0108D4AF0108E91900088F
:101E5000E0AF010800B00108A51A00080CB00108A5
:101E60002CB00108611B000838B0010848B0010817
:101E700054B0010808B5FFF71DFF08BD30B583B0A9
:101E8000322011F07DFB2EE01E48FFF74DFA0024B2
:101E90000EE01D4B03EBC4031D79986802F0ECFDC6
:101EA00002460B4629461948FFF73EFA0134A4B210
:101EB000154B1B78A342ECD81548FFF735FA124BA7
:101EC000002283F87C2018E0124C228901930092B2
:101ED0006379227921681048FFF726FA0023A3725C
:101EE000012011F04DFB0D4810F8041B01F000F922
:101EF000054B93F87C30002BC6D1064B9B7A002B08
:101F0000E2D1EDE768B00108F818002078B00108C8
:101F10000CB10108A419002088B0010800000020BD
:101F200030B583B000228221082007F0BCF92A4C8A
:101F3000234643F8040B01932823009300234FF416
:101F400080722649264811F0E6F804F1080301934F
:101F50001825009500234FF480722249224811F081
:101F6000DAF804F10C030193009500234FF480721A
:101F70001E491F4811F0CFF804F11003019300959A
:101F800000234FF480721B491B4811F0C4F804F180
:101F9000140301930C25009500234FF48072174918
:101FA000174811F0B8F804F11803019300950023C5
:101FB0004FF480721349144811F0ADF81C340194A9
:101FC0000823009300234FF480721049104811F049
:101FD000A2F803B030BD00BF641300209CB001081C
:101FE000A9200008A8B0010895230008B4B0010892
:101FF000C91C0008C0B001087D1E0008D0B001084F
:1020000043200008DCB00108F1250008E4B0010815
:10201000B921000808B5FFF783FF08BD4B690360CD
:102020008B6943600B6A8360CB69C3604B6A036151
:102030000B6B4361CB6A83618B6BC3610B6903627A
:10204000704730B5A5B09021124802F057FA054606
:1020500003226B4604E00021D9611962013A24335E
:10206000002AF8DA0C496846FFF7D8FF0B4909A89F
:10207000FFF7D4FF0A4912A8FFF7D0FF09491BA8B0
:10208000FFF7CCFF6946284602F06CFA0A2011F0EF
:1020900077FAE7E7ECB00108680800205009002053
:1020A000380A0020200B002008B512F0B3FD02F022
:1020B00015FA01F021FBFFF7B3F8FFF70DF9FFF771
:1020C000F1FD0D490D4801F007FA0D48FEF702FE3B
:1020D0000C48FEF7FFFD0C48FEF7FCFD0B48FEF731
:1020E000F9FD002011F0EEFB01460948FFF71CF94D
:1020F000002011F043F808BDA02D00206C2801201D
:102100006808002050090020380A0020200B002019
:10211000F8B00108014B024A1A607047F418002019
:10212000002001202DE9F04786B01C4B186811F003
:10213000C9FB04461A4B186811F0C4FB0546194B3D
:10214000186811F0BFFB0646174B186811F0BAFB70
:102150000746164B186811F0B5FB8046144B1868FB
:1021600011F0B0FB8146002011F0ACFB824605F077
:102170005DFB4EF6602305930490CDF80CA0CDF8DE
:102180000890CDF80480009733462A462146094836
:10219000FFF7CAF806B0BDE8F08700BF681300205B
:1021A0006C1300207013002074130020781300209B
:1021B0007C13002010B1010808B50648FFF7B4F8F9
:1021C0004FF47A7011F0DCF94FF47A7011F0D8F90D
:1021D000FAE700BF74B1010808B5FFF79BFF08BD1F
:1021E00000230DE000EB8302516803F11E0200EBB7
:1021F00082025160C218002182F8F4100133DBB270
:1022000002789A42EED870472DE9F04782B02E4C02
:1022100004222270032384F81431052184F8281243
:1022200084F83C3384F85034284E294D0092A3188A
:1022300032462946284614F02DFC04F58A7A94F893
:102240001431009304F58C7306F1100229462846D8
:1022500014F020FC04F50A7994F82832009304F570
:102260000B7306F11C022946284614F013FC04F5F2
:102270004F7894F83C33009304F5507306F1300224
:102280002946284614F006FC04F58A6794F8503471
:10229000009304F2544306F13C022946284614F008
:1022A000F9FB2046FFF79CFF5046FFF799FF484691
:1022B000FFF796FF4046FFF793FF3846FFF790FF82
:1022C00002B0BDE8F08700BF841300204800002062
:1022D000700D002030B583B0054600EE101A14468C
:1022E000B8EE400A0C490D4814F0A6FBFDEEC07A8A
:1022F000CDED017A9DF80430094A92F864259A429E
:1023000007D02B70064A82F8643514B12046FEF7D8
:1023100031FB03B030BD00BF88B10108700D002053
:102320008413002008B5844618460CEB010393F88B
:10233000F43093B10CEB8103D3F804E0C2F800E071
:1023400001F11E030CEB8303C3F804E08C4400236B
:102350008CF8F43008B1FEF70DFB08BD002315E042
:1023600000EB830292ED017A03F11E0200EB820280
:10237000D2ED017AB4EE677AF1EE10FA14BF0121C2
:102380000021C21882F8F4100133DBB202789A42BD
:10239000E6D870472DE9F047A6B0FFF735FF90E08B
:1023A0002046FFF71DFF5046FFF71AFF4846FFF78C
:1023B00017FF4046FFF714FF3846FFF711FF84F878
:1023C0006C55F8E0013D032D03D8DFE805F01E044D
:1023D0001A1C002400E07C4C2378012B17D0022B20
:1023E00035D0002B68D1794D221D01212846FFF7F9
:1023F00099FF002304F1100202212846FFF792FF03
:102400005AE0734CE8E7734CE6E7734CE4E7734E2D
:1024100006F58A752346226C00212846FFF782FFC5
:10242000226C2346043201212846FFF77BFF226CF1
:102430002346083202212846FFF774FF002304F1E7
:102440002C02022106F50A70FFF76CFF34E0634DA1
:1024500005F54F762346626C00213046FFF762FF98
:10246000626C2346043201213046FFF75BFF626C49
:102470002346083202213046FFF754FF002304F1BF
:102480003002042105F50A70FFF74CFF05F58A7547
:102490002346226C00212846FFF744FF226C234686
:1024A000043201212846FFF73DFF226C2346083203
:1024B00002212846FFF736FF224600212046FFF77B
:1024C00009FF4FF0FF3205A9454B186807F0AAF83D
:1024D000BDF81440434D22460DF11601284615F073
:1024E0000AFDA5F88040284614F050FB3B4C2346DB
:1024F0003D4E13F8042B009232462946284614F02C
:10250000C9FA04F58A7A94F81431009304F58C73AF
:1025100006F110022946284614F0BCFA04F50A799F
:1025200094F82832009304F50B7306F11C02294637
:10253000284614F0AFFA04F54F7894F83C33009332
:1025400004F5507306F130022946284614F0A2FA29
:1025500004F58A6794F85034009304F2544306F16A
:102560003C022946284614F095FA2046FFF7F6FE6D
:102570005046FFF7F3FE4846FFF7F0FE4046FFF7F0
:10258000EDFE3846FFF7EAFE04F5AD6500232A4666
:1025900019463846FFF7C6FED5ED007AFCEEE77A1D
:1025A000CDED037A9DF80C50104B1D7094F86C35EE
:1025B000AB427FF4F5AE6B1EDBB2032B7FF602AFAE
:1025C0000A2010F0DDFF7CE750090020D41700201E
:1025D000380A0020200B0020680800208413002007
:1025E00064130020700D002048000020200C002003
:1025F0002DE9F041AAB01C4801F0DAFF8046032221
:1026000006AB04E00021D9611962013A2433002AA3
:10261000F8DA06A9404602F02DF8129802F02CFADA
:1026200006460F46159802F027FA04460D460CA3FD
:10263000D3E900233046394602F076FACDE90401A9
:10264000149802F019FACDE90201139802F014FA75
:10265000CDE9000122462B460420FFF7F9FAD8E71E
:10266000F8C1631ADCA54C40ECB0010808B564233E
:102670000322A0210448006809F05EFB08B1002095
:1026800008BD0120FCE700BFF418002000B587B0AA
:102690000246FF238DF81730642302930123019330
:1026A0000DF1170300930223A0210648006809F0EA
:1026B0006DFA20B99DF8170007B05DF804FBFF2004
:1026C000FAE700BFF4180020C9B10B46CAB181185F
:1026D000B1F5005F01DD0020704700B585B06421D1
:1026E00002910192009302230246A021074800684C
:1026F00009F04CFA38B9012005B05DF804FB002060
:102700007047002070470020F6E700BFF418002053
:1027100038B5FEF79FFD054601231A46A021054C5A
:10272000206809F009FB20B1FEF794FD401B042846
:10273000F2D938BDF418002000B587B002468DF8F4
:10274000171064230293012301930DF117030093E3
:102750000223A0210648006809F045F918B10020BD
:1027600007B05DF804FBFFF7D3FF0120F8E700BFD7
:10277000F418002041B3F0B585B0054616460F4663
:1027800022B38318B3F5005F23DCDEB105F01F042C
:10279000C4F12004E4B2B44228BF34466423029357
:1027A0000194009702232A46A0210C48006809F0F2
:1027B0001AF980B9FFF7ACFF2544ADB22744341BAA
:1027C000A6B2E2E7012002E000207047002005B039
:1027D000F0BD0020FBE70020F9E700BFF41800205F
:1027E000012913D910B504460023C36001700023EA
:1027F00003724372880004F059FF606040B1227890
:102800009200002115F0BDFA012010BD0020704794
:102810000020FAE7427A03789A4201D20132D3B219
:102820004372D0ED037A4368027A03EB820393ED9F
:10283000007A77EEC77A77EE807AC0ED037A83ED7F
:10284000000A037A0133017893FBF1F201FB1233A2
:10285000037280ED060A80ED050A437A994229D079
:10286000D0ED036A07EE903AF8EEE77A86EEA77AA3
:1028700080ED047A90ED040A7047013291421BDD2D
:10288000436803EB8203D3ED007A90ED057AF4EE12
:10289000C77AF1EE10FA01DDC0ED057AD3ED007ACA
:1028A00090ED067AF4EEC77AF1EE10FAE5D5C0EDB8
:1028B000067AE2E70022E1E790ED037AD0ED057AAF
:1028C00037EE677AD0ED067A37EE677A023907EE8F
:1028D000901AF8EEE77AC7EE276AC0ED046AC9E7F6
:1028E0000023037243720023C36043618361704716
:1028F00030B5A1B0044601AD7C220021284615F078
:1029000040FA2946204611F08BFEE8B99DF804C034
:102910000E4B83F800C0002310E020AA02EBC30195
:1029200011F8780C094A02EBC302107111F8770C08
:10293000507151F8741C91600133DBB29C45ECD8A6
:10294000024B012283F87C2021B030BDF818002012
:10295000838A9B00114AA2FB0323C3F387030B70F6
:10296000142B18D8F0B583B007460E460024254630
:102970000BE006EB44030233009301230E222946A9
:10298000384603F027FA0E3501343378A342F0D8E5
:10299000002003B0F0BD0120704700BF932449928E
:1029A00030B58DB0044601AD2A220021284615F02D
:1029B000E8F929462046FFF7CBFFC0B99DF804008F
:1029C0000C4B83F8800000230BE00CAA02EB4302BF
:1029D00032F92A1C074A02EB4302A2F882100133A3
:1029E000DBB29842F1D8034B012283F8AA200DB044
:1029F00030BD00BFF818002000B585B001A9002344
:102A000001934B608B6011F09AFE90B90A4B019ACA
:102A1000C3F8AC209DF8082083F8B0209DF8092069
:102A200083F8B120BDF80C20A3F8B420012283F86C
:102A3000B62005B05DF804FBF818002070B584B02E
:102A400005460C46009100232022194603F0C2F9E6
:102A50000DF10E060096012310222021284603F0D6
:102A6000B9F9BDF80E0003F045FB84ED010A0096AC
:102A7000012310223021284603F0ACF9BDF80E00E6
:102A800003F038FB84ED020A009601231022402156
:102A9000284603F09FF9BDF80E0003F02BFB84EDF0
:102AA000030A04F110030093012312225021284647
:102AB00003F090F904F1140300930023072262212C
:102AC000284603F087F91534009400230522692174
:102AD000284603F07FF9002004B070BD00B587B030
:102AE0006946002300930193029303930493059393
:102AF000FFF7A4FFB8B90D4B019AC3F8B820029AAA
:102B0000C3F8BC20039AC3F8C020049AC3F8C420B9
:102B10009DF8142083F8C8209DF8152083F8C9205B
:102B2000012283F8CA2007B05DF804FBF8180020E2
:102B300008B5C38A40F20642934212D00AD840F246
:102B40005512934210D040F2F232934201D1FFF776
:102B5000CFFE08BD40F20A429342FAD1FFF7BEFF12
:102B6000F7E7FFF71DFFF4E7FFF746FFF1E700BFC8
:102B700008B5036958691B8B21B10122194608F079
:102B8000C1FC08BD0022F9E703691B691A681368D4
:102B900023F04003136003691B691A68136843F448
:102BA0008043136003691B691A68136843F040038C
:102BB0001360704703691B691A68136823F04003A8
:102BC000136003691B691A68136823F48043136058
:102BD00003691B691A68136843F040031360704768
:102BE00000B54FF0000E704615E04FEA4C0C8CF02B
:102BF000070C5FFA8CF00133DBB2072B07D84FFAD2
:102C000080FCBCF1000FF0DB4000C0B2F3E70EF136
:102C1000010E5FFA8EFE964504D211F80E30584030
:102C20000023EAE780F055005DF804FB10B582B0A0
:102C3000044600218DF80710ADF804108DF8061039
:102C4000FFF796FF206901231A460DF1070100697D
:102C50000BF044FD08B102B010BD2046FFF7AAFFFB
:102C600020690123032201A900690BF0BAFF0028A3
:102C7000F1D12046FFF788FF01212046FFF778FFBA
:102C8000022201A92046FFF7ABFF9DF806308342E0
:102C9000E1D19DF804209DF8053043EA022323800A
:102CA00007EE903AF8EEE77A9FED067A67EE877ABC
:102CB000C4ED017A9FED047A67EE877AC4ED027A5B
:102CC000C9E700BFA410C938E02E654290ED010AA3
:102CD000704790ED020A704770B584B00446002337
:102CE000ADF80C3011228DF80C208DF80D10ADF8D8
:102CF00008301946FFF73CFF20690A23022203A986
:102D000000690BF0EBFC30B906462046FFF752FF96
:102D1000002300930BE001212046FFF729FF002547
:102D2000284604B070BD00BF009B01330093009B98
:102D3000092BF8D920690A23022202A900690BF0A5
:102D400050FF054610B9002301930CE001212046F5
:102D5000FFF70EFF2046FFF717FF3546E0E700BFFD
:102D6000019B01330193019B092BF8D92046FFF702
:102D70000BFF01212046FFF7FBFE012202A920469E
:102D8000FFF72EFF9DF809308342C9D19DF8085006
:102D9000C6E770B586B004461546304B059300264D
:102DA000ADF810608DF8126033238DF810308DF877
:102DB00011108DF812208DF80F603146FFF7D8FE04
:102DC00020690A23042205A900690BF087FC012170
:102DD0002046FFF7CDFE31462046FFF7C9FE00969C
:102DE00003E000BF009B01330093009B092BF8D93F
:102DF00020690A23032204A900690BF06FFC002359
:102E0000019303E000BF019B01330193019B092B58
:102E1000F8D92046FFF7CEFE20690A2301220DF1E2
:102E20000F0100690BF0DDFE0023029303E000BFF9
:102E3000029B01330293029B092BF8D92046FFF72E
:102E4000A3FE01212046FFF793FE9DF80F00A84244
:102E500014BF0020012006B070BD00BF2024010176
:102E600038B504460D46A1B10221FFF735FF60F0E9
:102E70007F02D2B202212046FFF78BFF02212046BB
:102E8000FFF72AFF10F0800F01D1002038BD28463F
:102E9000FCE70221FFF720FF00F07F02022120461D
:102EA000FFF777FF02212046FFF716FF10F0800F93
:102EB00001D10120EAE72846E8E708B50173FFF7EA
:102EC000CFFF08BD30B583B00446104B1B68ADF88A
:102ED00004301B0C8DF80630FFF756FE002120460B
:102EE000FFF746FE20690A23032201A900690BF0BF
:102EF000F5FB054601212046FFF73AFE4FF4FA7034
:102F000010F03EFB284603B030BD00BF68B2010898
:102F10002DE9F04180460F4616461D46002406E086
:102F2000395D4046FFF7D8FE30550134E4B2AC427B
:102F3000F6D3BDE8F0812DE9F843064688461746EA
:102F40001D469DF82090002407E03A5D18F8041013
:102F50003046FFF71EFF0134E4B2AC42F5D3B9F1BD
:102F6000000F01D1BDE8F8833046FFF7ABFFF9E76A
:102F7000704710B504460221FFF7AEFE40F0400254
:102F8000D2B202212046FFF704FF322010F0F8FAF7
:102F900002212046FFF7A0FE10F0400F01D00120D3
:102FA00010BD0020FCE708B57221FFF795FEC0F3C5
:102FB000011008BDF8B504460E461621FFF78CFE39
:102FC000054640F00802D2B216212046FFF7E1FE86
:102FD00045F01802D2B216212046FFF7DAFE0A2089
:102FE00010F0CEFA2046FFF7DEFF01280BD025F0C7
:102FF000100242F0080202F0EF0216212046FFF70D
:10300000C8FE0020F8BDFEF725F9074611E025F0BF
:10301000100242F0080202F0EF0216212046FFF7EC
:10302000B8FE2046FFF74EFF0120EBE70A2010F024
:10303000A7FAFEF70FF9C01B4FF47A7306FB03F3F0
:10304000984212D22046FFF7AEFF0328DFD00228B5
:10305000ECD125F0100242F0080202F0EF02162136
:103060002046FFF796FE0020CCE725F0100242F044
:10307000080202F0EF0216212046FFF78AFE002028
:10308000C0E700BFB5EEC00AF1EE10FA09D4F7EEC2
:10309000007AB4EEE70AF1EE10FA04DDB0EE670A4A
:1030A00001E09FED030A80ED000A002343607047B2
:1030B00000000000D0ED017A90ED007A30EE670A52
:1030C00027EE007A37EE870A80ED010A7047D0EDCF
:1030D000017A30EE670A20EE200A37EE800A80ED92
:1030E000010A704700234360704700BF00000000E2
:1030F00070B5BAB08DF86C10002310E03AAA02EB5C
:10310000C30202F8783C4FF0010C02F877CC00EBD8
:10311000830CDCF800C042F874CC0133DBB28B4284
:10312000ECD30BAE31461BA811F065FA04462822F9
:103130000021684614F025FE02238DF8003010A30C
:10314000D3E90023CDE9022340F2F233ADF8103089
:10315000094B059310238DF818300796ADF82040E1
:103160006946064802F090FD002801DB00F034FBC0
:103170003AB070BDAFF30080C4190020CC19002014
:10318000F33AEC386248A7D8F0B591B0FEF762F890
:103190001F4BA3FB003080090D904E230D9300249C
:1031A0008DF838408DF839408DF83A40ADF83C4004
:1031B0000BAF39460DA811F0AFFA0546282221467B
:1031C000684614F0DEFD02238DF800300EA3D3E92B
:1031D0000023CDE9022340F25513ADF810300D4B1A
:1031E000059310238DF818300797ADF820506946E5
:1031F000094802F049FDA04201DB00F0EDFA11B0F0
:10320000F0BD00BFAFF30080F1C6A7C1D068080FC2
:10321000D34D6210C5190020CC19002000B587B02D
:10322000002300930193022202920122039204934D
:1032300005936946104807F07FFEB0B94FF0804310
:1032400000930023019302930222039204936FF0F0
:10325000604305936946084807F06EFE40B906488A
:1032600007F09DFE07B05DF804FB04F0D7FBE5E72F
:1032700004F0D4FBF3E700BF1C35002008B5FFF7CE
:10328000CDFF08BD70B58AB006460D461C46242207
:10329000002101A814F075FD019694B14FF0804310
:1032A0000293082304930024092C0CDC2A4601A96C
:1032B000074807F08AFE48B1012010F061F9013497
:1032C000F2E70023ECE700200AB070BD0120FBE725
:1032D0001C35002010B58AB0044640211A4807F07A
:1032E00043FF30B1231D6A464021174807F096FE80
:1032F00038B14121144807F037FF78B900200AB0EF
:1033000010BD009B2360039B2373019BB3F1804F8F
:1033100014BF0023012363730120F0E7231D6A46D5
:103320004121094807F07AFE08B10020E7E7009B39
:103330002360039B2373019BB3F1804F14BF0023D1
:10334000012363730120DAE71C35002008B5194B0F
:103350009B78DBB1184B9B78C3B1184B9B78ABB112
:10336000174B9B7893B1174B1B8803F00F03012B6E
:103370000DD014490B88144AA2FB0302920A4FF4A1
:103380007A5000FB12339BB201330B8008BD04223C
:103390000E490F4807F0DCF80648FDF7B3FE064873
:1033A000FDF7B0FE0548FDF7ADFE0548FDF7AAFEA6
:1033B000DFE700BF6808002050090020380A00201D
:1033C000200B0020C6190020D34D6210100C0020E5
:1033D000A02D002003681B6813F0100F71D130B5C9
:1033E00085B0384B0FCB04AC04E90F0000241FE07C
:1033F0002846FDF7AFFC2BE0632B18D1324B5A88DF
:10340000324BA3FB0213DB0903EB8303A2EB431252
:1034100092B2012A0BD12E4B2B612846FDF704FCFA
:1034200005E0294B5B8803F00303012B22D0013414
:10343000032C37DC04AB03EB840353F8105CAB784C
:10344000002BF4D0204B5B8803F00303012BCFD07B
:103450002B78022B12D0CFD8002BE2D0012BE6D153
:10346000194B5B8803F00303012BE0D12846FDF7DD
:1034700035FDDCE72846FDF7D7FBD8E7124B5B8824
:1034800003F00F03012B09D00F4B5B8803F00303FC
:10349000012BCCD12846FDF721FDC8E72846FDF7D2
:1034A00032FDF1E708494B880A4AA2FB0302920A5F
:1034B0004FF47A5000FB12339BB201334B8005B0BE
:1034C00030BD704708A90108C6190020CDCCCCCC6E
:1034D0008FC2753FD34D621010B504460268D2ED1D
:1034E0000B7AF8EE677AB6EE007A67EE877AFCEE32
:1034F000E77A17EE903A9BB253630BF0B9FE0021C6
:1035000020460CF02DFA034BC4F88430024BC4F86B
:10351000A03010BDD53300084D3300080000000076
:10352000022B26D19DF800305B2B24D040F2F233E1
:103530009A4209D041F26F439A420CD040F255139F
:103540009A420FD0002070470DA3D3E90023C1E9B0
:103550000023012070470CA3D3E90023C1E9002315
:10356000012070470AA3D3E90023C1E90023012009
:103570007047002070470020704700BFAFF3008005
:10358000F33AEC386248A7D82589351200000000CC
:10359000F1C6A7C1D068080F70B5C0B005460C468B
:1035A0004FF480720021684614F0EBFBA28AA168F8
:1035B000684614F0A0FC2046FFF7BAFA21462846D8
:1035C00002F057FD40B070BD037B082B2AD830B500
:1035D0008BB005462422002101A814F0D2FB2B68F1
:1035E000002B06DBC3F30A0301932B7B0493002417
:1035F0000AE023F0604301934FF080430293F4E725
:1036000001200FF0BDFF0134092C08DC2A1D01A99F
:10361000054807F0DAFC0028F2D1012000E0002084
:103620000BB030BD002070471C35002010B58CB0A9
:1036300004464121174807F097FD30B9402115484D
:1036400007F092FD08B3402100E041216B4602AA39
:10365000104807F0E3FCD0B9039BB3F1804F0DD0C5
:10366000029BC3F30A032360059A2273D2B2694610
:10367000201D14F040FC01200CB010BD029B23F073
:10368000604343F000432360EEE70020F4E70020AE
:10369000F2E700BF1C35002010B588B004A8002454
:1036A000049444608460C460124B049306238DF834
:1036B0001C3011238DF8143022238DF8153033235C
:1036C0008DF8163044238DF8173055238DF81830B7
:1036D00066238DF81930FFF777FF05200FF050FFB4
:1036E00068460094019402940394FFF79FFF08B08A
:1036F00010BD00BF2103008010B582B0FFF7BEFDF2
:10370000084C00230193084B0093084B4FF4805260
:103710000749204602F093FA5B21204602F0AAFAFC
:1037200002B010BDCC1900202135000899350008E1
:10373000041A002008B502E0064802F0FBFA05482A
:1037400002F0F4FA034620B11846FFF73DFF0128C6
:10375000F2D008BDCC19002000B585B007E0FDF718
:103760006DFD02460B466946054802F003FD6846BA
:10377000FFF75CFF0128F2D005B05DF804FB00BF45
:10378000CC19002038B504E0124802F0D3FAFFF754
:10379000E3FF104802F0CAFA034620B11846FFF7CB
:1037A00013FF0128F0D0FFF7D7FFFDF753FD0446C4
:1037B000084BDB6AC31AB3F57A7F00D838BD054DD4
:1037C0004FF47A7200FB02F20023284602F0BAFAA4
:1037D000EC62F3E7CC19002038B5FFF7ABFFFFF739
:1037E000BBFFFDF737FD094B1B6BC31AB3F57A7F9F
:1037F00000D838BD0446054D4FF47A7200FB02F242
:103800000023284602F09EFA2C63F2E7CC19002030
:1038100030B58DB0164B0AAC93E8030084E8030082
:1038200028220021684614F0ACFA02238DF80030FB
:103830000DA3D3E90023CDE9022341F26F43ADF894
:1038400010300C4800F13403059307940823ADF8B9
:103850002030694602F018FA08B90DB030BDFFF704
:10386000BBFFFAE7AFF300802589351200000000A6
:103870006CB20108CC1900202DE9F04F87B010EE92
:1038800090BA82460C461546D0ED007AF4EE677A7F
:10389000F1EE10FA08D6F0EEE77A9FED637AF4EED7
:1038A000477AF1EE10FA02DD0023CAF80030DAEDB3
:1038B000007A70EE677A17EE900A01F0DDF858A3EF
:1038C000D3E9002300F07AFF01F026FCDFED570A70
:1038D00000EE100A16F042FBB5EEC00AF1EE10FA47
:1038E00000F1918010EE100A01F0C6F84CA3D3E964
:1038F000002300F061FF01F00FFC8046D4ED007A58
:10390000F4EE677AF1EE10FA08D6F0EEE77A9FED62
:10391000467AF4EE477AF1EE10FA01DD00232360D7
:10392000DAF8000001F0A8F8CDE90001206801F004
:10393000A3F8CDE90201D5E90067404601F09CF803
:1039400002460B46CDE904233046394601F0ECF837
:1039500002460B46DDE9020100F030FF8046894651
:10396000584601F089F806460F4602460B46404687
:10397000494601F0D9F802460B46DDE9000100F0A6
:103980001DFF01F0C9FBCAF8000001F075F824A37F
:10399000D3E9002300F012FF01F0BEFBDFED230AA4
:1039A00000EE100A16F0DAFAB5EEC00AF1EE10FADF
:1039B0002ED410EE100A01F05FF819A3D3E900230A
:1039C00000F0FAFE01F0A8FBCAF80000206801F040
:1039D00053F880468946D5E90223DDE9040101F068
:1039E000A3F802460B463046394601F09DF80246E0
:1039F0000B464046494600F0E1FE01F08DFB206099
:103A000007B0BDE8F08FDFED097A30EE270A69E7ED
:103A1000DFED067A30EE270ACBE700BFAFF3008078
:103A2000182D4454FB210940FFFF7F7FDB0FC94065
:103A30000146002301E00133DBB2074A92F820205F
:103A40009A4206D9044A52F8230042698A42F2D1C6
:103A500000E00020704700BF042A002078B1022255
:103A6000027042704FF48062428082804FF4807214
:103A7000C28002816422428182810120704700203D
:103A8000704738B50446B0F8780003F00FFEA06127
:103A90002062B4F87830A3830025A577A584B4F814
:103AA0007A0003F003FEA0622063B4F87A30A385A5
:103AB00084F82E50A586A36913B118B1012038BD32
:103AC0000020FCE70020FAE710B5044600220C2194
:103AD000B0F8800005F0E7FBA06300220C21B4F8E9
:103AE000820005F0E0FBE063A36B13B118B1012085
:103AF00010BD0020FCE70020FAE710B504460322C1
:103B00000021012005F0CFFB2064032200210120C9
:103B100005F0C9FB03466064206C68B173B10023F3
:103B20001A46194605F0E3FB00231A461946606C55
:103B300005F0DDFB012010BD0020FCE70020FAE7C6
:103B4000F0B583B0044600F150050346164A132130
:103B5000284605F041FA04F148030193182700971D
:103B600023464FF48072294610480FF0D4FA00F033
:103B7000010504F1630623460D4A1321304605F082
:103B80002BFA04F14C030193009723464FF4807203
:103B9000314608480FF0BFFA054202D0012003B0B9
:103BA000F0BD0020FBE700BF78B201082144000807
:103BB00080B201084F44000838B505460C494069F9
:103BC0000DF093F804460B4A012168690DF016F8D0
:103BD0000443E4B2084A042168690DF00FF8044375
:103BE00014F0FF0F01D1012038BD0020FCE700BF19
:103BF000773F0008D33F00081D400008F8B5044691
:103C00000D46B0F8920000F025FF06460F46B4F8C6
:103C10007A0000F01FFF10A3D3E9002300F084FF17
:103C200002460B463046394601F00EFA70B94DB1E6
:103C3000E06B05F0E3FEB4F88230181A012807D9CA
:103C40000020F8BDE06B05F0C6FEF4E70120F8E7C0
:103C50000120F6E7AFF300809A9999999999E93F85
:103C6000002904DDD0F888300B44C0F88830002AE1
:103C700004DDD0F88C301344C0F88C30B0F89030AC
:103C80000B44A0F89030B0F892301344A0F8923072
:103C9000704710B5044690F87630012B03D0022B04
:103CA00019D0002010BDB0F87C20016A40690DF0E9
:103CB000C5FF022817D16369002283F88420B4F875
:103CC0007C20216A60690DF0B9FFB4F884300133BB
:103CD000A4F8843007E0B0F87C20016A40690DF058
:103CE000D4FF022803D00028DBD10120DAE7636982
:103CF000002283F88420B4F87C20216A60690DF0EA
:103D0000C4FFB4F884300133A4F88430EBE72DE924
:103D1000F0410646D9B114461D460F46BAB1B3B1BB
:103D20002021384614F067F80F280BD823784BB1C0
:103D300063783BB1E3882BB123891BB163890BB155
:103D4000A38943B9012373740020BDE8F0810123E6
:103D500073740020F9E7002333607360B360F3608D
:103D6000C6F87630C6F87A30C6F87E30A6F88230CB
:103D7000C6F88430C6F88830C6F88C30C6F8903063
:103D800010223946304614F023F821686268A3688F
:103D9000C6F87610C6F87A20C6F87E30A389A6F851
:103DA000823075612846FFF743FE18B10123737412
:103DB0000020CAE71A4A92F8203042F82360013303
:103DC00082F820303046FFF75CFE10B9012373748F
:103DD000BBE73046FFF778FE10B901237374B4E7F0
:103DE0003046FFF78AFE10B901237374ADE7304601
:103DF000FFF7A6FE10B901237374A6E73046FFF75C
:103E0000DBFE10B9012373749FE73046FFF741FFD3
:103E100010B10123337498E70223737495E700BF50
:103E2000042A0020F0B585B004460D4616466846C3
:103E3000FFF714FE33466A4629462046FFF767FF20
:103E400005B0F0BD38B504460D4690F87730012B2B
:103E500003D0022B17D0002038BD8A88096840693A
:103E60000CF05CFF022815D16369002283F88420DE
:103E7000AA88296860690CF051FFB4F884300133D6
:103E8000A4F8843006E08A88096840690CF09CFF39
:103E9000022803D00028DED10120DDE7636900227B
:103EA00083F88420AA88296860690CF08DFFB4F833
:103EB00084300133A4F88430ECE729B1C0F89410C1
:103EC000C0F89820012070470020704730B585B0B9
:103ED00004460D460023039390F87630022B07D159
:103EE0004369B3F85C30B1EB530F34D00023A374B3
:103EF000002229B22046FFF7B3FEFDF7ABF902908E
:103F0000A38C2B449BB2A384226A0092ADF8045088
:103F1000A28BD31AB4F87C20934201DA0023A38445
:103F2000A369A28C134423622046FFF7B2FE00234C
:103F300003AA6946A06B05F0B5FA039B4BB14FF09D
:103F4000E0234FF08052C3F8042DBFF34F8FBFF32F
:103F50006F8F05B030BD837C002BC7D101238374E4
:103F6000F7E710B514460846FFF762FD10B1214689
:103F7000FFF7ACFF10BD08B50A4601460020FFF769
:103F8000F0FF08BD10B582B004464369B3F8542071
:103F9000524212B20021FFF763FE0023019301A9F0
:103FA000206C05F0E6FA019B4BB14FF0E0234FF097
:103FB0008052C3F8042DBFF34F8FBFF36F8F02B051
:103FC00010BD08B50846FFF733FD08B1FFF7DAFF6B
:103FD00008BD08B501460020FFF7F3FF08BD08B58E
:103FE0004369D3F8902072B11B68DA6912F0040FAC
:103FF00001D004221A6243691B68DA6912F0020FC9
:1040000001D002221A62FFF744FE08BD08B5084637
:10401000FFF70EFD08B1FFF7E2FF08BD08B5014646
:104020000020FFF7F3FF08BD2DE9F04784B0002919
:1040300000F09F80044617460D460B68002B00F0E9
:104040009A808888002800F09880267C002E00F056
:10405000958000F0FFFC80468946B4F87A0000F0B5
:10406000F9FC49A3D3E9002300F05EFD02460B46AC
:104070004046494600F0E8FF08B100267EE00021F6
:104080002046FFF7BBFD08B1002677E04FF0FF3177
:10409000606C05F076FB002F37D1B4F82C80B4F8B3
:1040A0003490A8EB0907BFB2AA88BA4231D8296870
:1040B000206B13F020FF236B0193AB88ADF8083021
:1040C00000234FF0FF3201A9E06B05F010F9A38E39
:1040D000AA8813449BB2A386A28DD31AB4F87E207B
:1040E000934201DA0023A386A36AA28E13442363BA
:1040F000B5F9042000212046FFF7B2FD00231A463F
:104100001946606C05F0F3F838E0FDF7A3F803906A
:10411000C3E73A462968206B13F0EDFE236B019349
:10412000ADF808700DF1040A00234FF0FF3251463C
:10413000E06B05F0DCF8AB88A9EB080903EB090894
:104140001FFA88F8296842463944A06A13F0D3FE62
:10415000A36A0193ADF8088000234FF0FF32514667
:10416000E06B05F0C4F8A4F83480A36A43442363E9
:10417000BEE7002602E0002600E00026304604B03C
:10418000BDE8F087AFF300809A9999999999E93F32
:1041900000B585B00191ADF808200393B3FA83F21E
:1041A000520901A9FFF740FF05B05DF804FB2DE9B6
:1041B000F04F85B0002A00F09F8004460D469A46D5
:1041C0001746067C002E00F09880104600F042FC56
:1041D00080468946B4F87A0000F03CFC4AA3D3E953
:1041E000002300F0A1FC02460B464046494600F081
:1041F0002BFF08B1002680E001212046FFF7FEFCDE
:10420000804608B1002678E06A460021606C05F01F
:104210008BFB012875D1BAF1000F3FD0B4F82CA068
:10422000B4F83480AAEB08091FFA89F94F4539D848
:104230003A462946206B13F05EFE236B0193ADF8DE
:10424000087000236A4601A9E06B05F02BF9A38EE4
:104250003B449BB2A386A28DD31AB4F87E2093422E
:1042600001DA0023A386A36AA28E134423633AB221
:1042700000212046FFF7F4FC6946606C05F079F9EF
:10428000009B002B39D04FF0E0234FF08052C3F851
:10429000042DBFF34F8FBFF36F8F2EE0FCF7DAFFD3
:1042A0000390BBE74A462946206B13F024FE236B9C
:1042B0000193ADF8089000236A4601A9E06B05F070
:1042C000F1F8A8EB0A08B8441FFA88F8424605EB53
:1042D0000901A06A13F00FFEA36A0193ADF80880EC
:1042E00000236A4601A9E06B05F0DCF8A4F83480ED
:1042F000A36A43442363BAE70026304605B0BDE80D
:10430000F08F4646F9E700BF9A9999999999E93F44
:1043100010B599B10B469AB1047C94B190F877101E
:10432000012906D002290CD1194640690CF04CFD38
:1043300007E0194640690CF0F1FC02E0002400E0BF
:104340000024204610BD0EB42DE9F04183B006468E
:10435000C82003F0ABF940B34FF0000807460AABA2
:104360000193099AC82104F04BFE05464446632C8C
:104370000DD80023AAB239463046FFF709FF804620
:1043800028B901200FF0FCF80134E4B2EFE7B8F1EE
:10439000000F01D14FF0FF35384603F009FA2846E7
:1043A00003B0BDE8F04103B070474FF0FF35F6E7CA
:1043B0000EB470B583B00546C82003F077F9C8B1D4
:1043C000064608AB0193079AC82104F019FE04467B
:1043D000002382B231462846FFF7E9FE08B94FF0C4
:1043E000FF34304603F0E4F9204603B0BDE87040E6
:1043F00003B070474FF0FF34F6E700B585B00446D0
:104400004FF0FF3201A9A06B05F00CF9D4F89430FD
:10441000002BF5D0D4F89820214601A89847EFE763
:1044200008B5FFF7EAFF00B585B0044601AD4FF0CF
:10443000FF322946E06B05F0F5F84FF0FF31206CB4
:1044400005F09FF929462046FFF7FCFCEEE708B58A
:10445000FFF7E9FF704700BF38B50546002400E0CC
:104460000134092C14DC1C4B4C2202FB043393F85E
:104470004930002BF4D02946174B02FB043000F0E2
:104480002FF90028ECD114484C2303FB040021E051
:104490000023092B1DDC104A4C2101FB032292F85A
:1044A00049200AB10133F4E70B4C01FB03440F220E
:1044B0002946204613F08CFC012004F0E8FFE0615F
:1044C000012384F849300023A36184F84830204652
:1044D00000E0002038BD00BF282A002010B5064C9F
:1044E0004FF43E720021204613F04BFC012004F0F3
:1044F000CEFFC4F8F80210BD282A002038B50446C3
:104500000D464FF0FF31154BD3F8F80205F039F99D
:104510002046FFF7A1FFB0B1044603699BB92846C6
:1045200003F0C4F8206165610C48241AA4100C4BF8
:1045300003FB04F400231A461946D0F8F80204F0ED
:10454000D6FE204638BD00231A4619460348D0F847
:10455000F80204F0CCFE4FF0FF34F2E7282A0020E6
:104560001BCA6B28092820D838B50D460F4B4C22A2
:1045700002FB003393F8493003B938BD0B4C02FB02
:1045800000444FF0FF31E06905F0FBF8626929460D
:10459000206913F0B0FCA3690133A36100231A461C
:1045A0001946E06904F0A3FEE7E77047282A0020D7
:1045B00070B504464FF0FF311B4BD3F8F80205F0FD
:1045C000E0F82046FFF748FF18B3044690F848503B
:1045D000042D1ED80FF082F9043544F8350094F804
:1045E0004850A2692B1D04EBC3035A606B1C84F86E
:1045F00048300D4E00231A461946D6F8F80204F04A
:1046000076FEA01B8010094B03FB00F040EA05403A
:1046100070BD00231A4619460348D0F8F80204F08A
:1046200066FE4FF0FF30F3E7282A00201BCA6B28F4
:1046300083B2000C092B16D80D4A4C2101FB032232
:1046400092F84820824210DD094A043001FB03F34E
:1046500003EBC000104440681A44936998422CBF91
:10466000002001207047002070470020704700BFE5
:10467000282A00202DE9F0410E4685B2040C02E004
:1046800001200EF07DFF154A231D4C2105FB01F191
:1046900001EBC303134458680A4493699842EFD06E
:1046A000DFF838800D4617464FF0FF31D06905F02E
:1046B00068F87A693969304613F01DFCBE69002339
:1046C0001A461946F86904F012FE043405EBC405D5
:1046D000A844C8F804600120BDE8F081282A002021
:1046E00010F8012B11F8013B012A28BF9A42F7D09C
:1046F000D01A7047034613F8012B002AFBD1181A71
:1047000001387047000000000000000000000000B9
:1047100001F0FF01102A2BDB10F0070F08D010F872
:10472000013B013A8B422DD010F0070F42B3F6D176
:10473000F0B441EA012141EA014122F007047FF08F
:1047400000070023F0E80256083C85EA010586EAE6
:10475000010685FA47F5A3FA87F586FA47F6A5FA22
:1047600087F68EB9EED1F0BC01F0FF0102F007022E
:1047700032B110F8013B013A83EA010313B1F8D1D9
:104780000020704701387047002D06BF35460338BA
:10479000073815F0010F07D1013015F4807F02BFF3
:1047A000013015F4C03F0130F0BC0138704700BF44
:1047B00081F0004102E000BF83F0004330B54FEAD2
:1047C00041044FEA430594EA050F08BF90EA020F3F
:1047D0001FBF54EA000C55EA020C7FEA645C7FEAD2
:1047E000655C00F0E2804FEA5454D4EB5555B8BFF5
:1047F0006D420CDD2C4480EA020281EA030382EA66
:10480000000083EA010180EA020281EA0303362DF7
:1048100088BF30BD11F0004F4FEA01314FF4801CCA
:104820004CEA113102D0404261EB410113F0004FDC
:104830004FEA03334CEA133302D0524263EB430393
:1048400094EA050F00F0A780A4F10104D5F1200E31
:104850000DDB02FA0EFC22FA05F2801841F100018C
:1048600003FA0EF2801843FA05F359410EE0A5F160
:1048700020050EF1200E012A03FA0EFC28BF4CF091
:10488000020C43FA05F3C01851EBE37101F0004547
:1048900007D54FF0000EDCF1000C7EEB00006EEB54
:1048A0000101B1F5801F1BD3B1F5001F0CD34908DE
:1048B0005FEA30004FEA3C0C04F101044FEA445235
:1048C00012F5800F80F09A80BCF1004F08BF5FEABC
:1048D000500C50F1000041EB045141EA050130BD9C
:1048E0005FEA4C0C404141EB0101013C28BFB1F5AE
:1048F000801FE9D291F0000F04BF01460020B1FAF9
:1049000081F308BF2033A3F10B03B3F120020CDACB
:104910000C3208DD02F1140CC2F10C0201FA0CF0A9
:1049200021FA02F10CE002F11402D8BFC2F1200C0E
:1049300001FA02F120FA0CFCDCBF41EA0C019040C4
:10494000E41AA2BF01EB0451294330BD6FEA04040D
:104950001F3C1CDA0C340EDC04F11404C4F12002F8
:1049600020FA04F001FA02F340EA030021FA04F30A
:1049700045EA030130BDC4F10C04C4F1200220FA61
:1049800002F001FA04F340EA0300294630BD21FA9F
:1049900004F0294630BD94F0000F83F4801306BF65
:1049A00081F480110134013D4EE77FEA645C18BF59
:1049B0007FEA655C29D094EA050F08BF90EA020FF0
:1049C00005D054EA000C04BF1946104630BD91EAE8
:1049D000030F1EBF0021002030BD5FEA545C05D1EB
:1049E0004000494128BF41F0004130BD14F580042A
:1049F0003CBF01F5801130BD01F0004545F0FE419E
:104A000041F470014FF0000030BD7FEA645C1ABFD2
:104A1000194610467FEA655C1CBF0B46024650EA09
:104A2000013406BF52EA033591EA030F41F4002135
:104A300030BD00BF90F0000F04BF0021704730B5BB
:104A40004FF4806404F132044FF000054FF0000190
:104A500050E700BF90F0000F04BF0021704730B551
:104A60004FF4806404F1320410F0004548BF404226
:104A70004FF000013EE700BF42004FEAE2014FEA7B
:104A800031014FEA02701FBF12F07F4393F07F4F56
:104A900081F06051704732F07F4208BF704793F059
:104AA0007F4F04BF41F40021704730B54FF460746C
:104AB00001F0004521F000411CE700BF50EA01026F
:104AC00008BF704730B54FF000050AE050EA010218
:104AD00008BF704730B511F0004502D5404261EB88
:104AE00041014FF4806404F132045FEA915C3FF4C9
:104AF000D8AE4FF003025FEADC0C18BF03325FEA66
:104B0000DC0C18BF033202EBDC02C2F1200300FA16
:104B100003FC20FA02F001FA03FE40EA0E0021FA3B
:104B200002F11444BDE600BF70B54FF0FF0C4CF429
:104B3000E06C1CEA11541DBF1CEA135594EA0C0FDB
:104B400095EA0C0F00F0DEF82C4481EA030621EA16
:104B50004C5123EA4C5350EA013518BF52EA033551
:104B600041F4801143F4801338D0A0FB02CE4FF003
:104B70000005E1FB02E506F00042E0FB03E54FF033
:104B80000006E1FB03569CF0000F18BF4EF0010E2B
:104B9000A4F1FF04B6F5007F64F5407404D25FEA27
:104BA0004E0E6D4146EB060642EAC62141EA5551DA
:104BB0004FEAC52040EA5E504FEACE2EB4F1FD0C1C
:104BC00088BFBCF5E06F1ED8BEF1004F08BF5FEA9A
:104BD000500E50F1000041EB045170BD06F000464C
:104BE00046EA010140EA020081EA0301B4EB5C04F9
:104BF000C2BFD4EB0C0541EA045170BD41F48011F1
:104C00004FF0000E013C00F3AB8014F1360FDEBF15
:104C1000002001F0004170BDC4F10004203C35DAF1
:104C20000C341BDC04F11404C4F1200500FA05F374
:104C300020FA04F001FA05F240EA020001F0004215
:104C400021F0004110EBD37021FA04F642EB06018B
:104C50005EEA430E08BF20EAD37070BDC4F10C04B5
:104C6000C4F1200500FA04F320FA05F001FA04F279
:104C700040EA020001F0004110EBD37041F1000165
:104C80005EEA430E08BF20EAD37070BDC4F1200570
:104C900000FA05F24EEA020E20FA04F301FA05F2D8
:104CA00043EA020321FA04F001F0004121FA04F280
:104CB00020EA020000EBD3705EEA430E08BF20EA50
:104CC000D37070BD94F0000F0FD101F0004640008A
:104CD00041EB010111F4801F08BF013CF7D041EA0C
:104CE000060195F0000F18BF704703F00046520010
:104CF00043EB030313F4801F08BF013DF7D043EAE1
:104D00000603704794EA0C0F0CEA135518BF95EA96
:104D10000C0F0CD050EA410618BF52EA4306D1D11D
:104D200081EA030101F000414FF0000070BD50EA3C
:104D3000410606BF1046194652EA430619D094EAC6
:104D40000C0F02D150EA013613D195EA0C0F05D1B0
:104D500052EA03361CBF104619460AD181EA030104
:104D600001F0004141F0FE4141F470014FF00000BC
:104D700070BD41F0FE4141F4780170BD70B54FF057
:104D8000FF0C4CF4E06C1CEA11541DBF1CEA1355D7
:104D900094EA0C0F95EA0C0F00F0A7F8A4EB0504B9
:104DA00081EA030E52EA03354FEA013100F08880B0
:104DB0004FEA03334FF0805545EA131343EA126379
:104DC0004FEA022245EA111545EA10654FEA00262E
:104DD0000EF000419D4208BF964244F1FD0404F5E7
:104DE000407402D25B084FEA3202B61A65EB030543
:104DF0005B084FEA32024FF480104FF4002CB6EB00
:104E0000020E75EB030E22BFB61A754640EA0C007F
:104E10005B084FEA3202B6EB020E75EB030E22BFBF
:104E2000B61A754640EA5C005B084FEA3202B6EB00
:104E3000020E75EB030E22BFB61A754640EA9C00BF
:104E40005B084FEA3202B6EB020E75EB030E22BF8F
:104E5000B61A754640EADC0055EA060E18D04FEA4D
:104E6000051545EA16754FEA06164FEAC30343EAED
:104E700052734FEAC2025FEA1C1CC0D111F4801FBA
:104E80000BD141EA00014FF000004FF0004CB6E7B3
:104E900011F4801F04BF01430020B4F1FD0C88BF52
:104EA000BCF5E06F3FF6AFAEB5EB030C04BFB6EB5D
:104EB000020C5FEA500C50F1000041EB045170BD50
:104EC0000EF0004E4EEA113114EB5C04C2BFD4EB7D
:104ED0000C0541EA045170BD41F480114FF0000E01
:104EE000013C90E645EA060E8DE60CEA135594EA7D
:104EF0000C0F08BF95EA0C0F3FF43BAF94EA0C0F80
:104F00000AD150EA01347FF434AF95EA0C0F7FF4F4
:104F100025AF104619462CE795EA0C0F06D152EA48
:104F200003353FF4FDAE1046194622E750EA41062C
:104F300018BF52EA43067FF4C5AE50EA41047FF43D
:104F40000DAF52EA43057FF4EBAE12E74FF0FF3CA2
:104F500006E000BF4FF0010C02E000BF4FF0010C73
:104F60004DF804CD4FEA410C7FEA6C5C4FEA430CEC
:104F700018BF7FEA6C5C1BD001B050EA410C0CBF3B
:104F800052EA430C91EA030F02BF90EA020F00209D
:104F9000704710F1000F91EA030F58BF994208BF04
:104FA00090422CBFD8176FEAE37040F001007047C1
:104FB0004FEA410C7FEA6C5C02D150EA013C07D118
:104FC0004FEA430C7FEA6C5CD6D152EA033CD3D063
:104FD0005DF8040B704700BF8446104662468C465D
:104FE0001946634600E000BF01B5FFF7B7FF002890
:104FF00048BF10F1000F01BD4DF808EDFFF7F4FFB9
:105000000CBF012000205DF808FB00BF4DF808ED43
:10501000FFF7EAFF34BF012000205DF808FB00BF66
:105020004DF808EDFFF7E0FF94BF012000205DF888
:1050300008FB00BF4DF808EDFFF7CEFF94BF01203D
:1050400000205DF808FB00BF4DF808EDFFF7C4FF36
:1050500034BF012000205DF808FB00BF4FEA410C7F
:105060007FEA6C5C02D150EA013C0AD14FEA430C62
:105070007FEA6C5C02D152EA033C02D14FF000009F
:1050800070474FF0010070474FEA410212F50012DD
:1050900015D211D56FF47873B3EB625212D94FEA7F
:1050A000C12343F0004343EA505311F0004F23FA69
:1050B00002F018BF404270474FF00000704750EABE
:1050C000013005D111F0004008BF6FF0004070477B
:1050D0004FF00000704700BF4A0011D212F50012D5
:1050E00011D20DD56FF47873B3EB62520ED44FEA40
:1050F000C12343F0004343EA505323FA02F07047C0
:105100004FF00000704750EA013002D14FF0FF30FD
:1051100070474FF0000070474FEA4102B2F1E043A0
:1051200024BFB3F5001CDCF1FE5C0DD901F0004C8E
:105130004FEAC0024CEA5070B2F1004F40EB8300DE
:1051400008BF20F00100704711F0804F21D113F10A
:105150003872BCBF01F00040704741F480114FEA43
:105160005252C2F11802C2F1200C10FA0CF320FACC
:1051700002F018BF40F001004FEAC1234FEAD323E9
:1051800003FA0CFC40EA0C0023FA02F34FEA430353
:10519000CCE77FEA625307D150EA01331EBF4FF0DC
:1051A000FE4040F44000704701F0004040F0FE40F7
:1051B00040F40000704700BF53B94AB9002908BF46
:1051C00000281CBF4FF0FF314FF0FF3000F00CB84B
:1051D000ADF1080C6DE904CE15F0BAF9DDF804E084
:1051E000DDE9022304B07047704700BF0348044B59
:1051F000834202D0034B03B1184770473C0600209E
:105200003C060020000000000548064B1B1AD90F81
:1052100001EBA301491002D0034B03B118477047BB
:105220003C0600203C0600200000000010B5064CA3
:10523000237843B9FFF7DAFF044B13B10448AFF307
:1052400000800123237010BD242D002000000000E9
:1052500048A8010808B5054B1BB105490548AFF33F
:105260000080BDE80840FFF7CFBF00BF000000008E
:10527000282D002048A8010800B589B0202200216F
:10528000684612F07EFD2F482F4B03604FF44033E9
:10529000436000238360C3600361012242610422F2
:1052A000826103774377026280F82430C36203632C
:1052B00080F83830C36380F8403004F0F7FC0028F1
:1052C00030D1224B009306230193022302937F23C4
:1052D000039304230493002305936946194804F0BB
:1052E0005BFE10BB1A4B00930C2301930023029327
:1052F0006946144804F050FED0B9164B00931223AF
:10530000019369460F4804F047FEA0B9124B009381
:105310001823019369460B4804F03EFE70B909B0AA
:105320005DF804FB02F07AFBCBE702F077FBD9E7EC
:1053300002F074FBE1E702F071FBE7E702F06EFBBD
:10534000EDE700BFA02D00200001005000209036A6
:105350000800900C2000F01400106032F0B59FB0EF
:105360000446002119911A911B911C911D91542200
:1053700004A812F006FD2268374B9A4201D01FB0F4
:10538000F0BD4FF4004304934FF00053159304A86D
:1053900008F026FE002859D1304BDA6C42F4005256
:1053A000DA64DA6C02F400520092009ADA6C42F08D
:1053B0000102DA64DA6C02F001020192019ADA6CFD
:1053C00042F00402DA64DA6C02F004020292029AF9
:1053D000DA6C42F00202DA64DB6C03F0020303933E
:1053E000039B6023199303271A9700251B9519AE79
:1053F00031464FF0904005F095FF102319931A970E
:105400001B953146164805F08DFF042319931A9712
:105410001B953146134805F085FF1348134B036075
:10542000242343608560C560802303614FF480734B
:1054300043614FF4806383612023C361056205F0FB
:1054400075FA30B9084B63659C6298E702F0E6FA9A
:10545000A2E702F0E3FAF5E7000100500010024075
:105460000008004800040048402D00208000024051
:1054700008B5FCF7CFFD08BD0846704708467047E1
:105480000846704708467047401A83B2002800DB80
:105490007047203318B2FBE703780133DBB20370A7
:1054A0001F2B01D90023037070470E2809D8DFE8AD
:1054B00000F01515151515151515150A0C0E1012F9
:1054C0001400402070470C207047102070471420B3
:1054D00070471820704720207047302070470828F8
:1054E00018D90C280BD910280BD914280BD9182837
:1054F0000BD920280BD930280BD90F207047092051
:1055000070470A2070470B2070470C2070470D2011
:1055100070470E207047034621F0604C20F0604237
:10552000C00F91EA030F0AD4C1F38071C3F38070F6
:10553000944514D094452CBF0020012070470029C9
:1055400008DB002B09DB9445F8D094452CBF0020E4
:10555000012070474FEA9C4CF3E7920CF3E781423D
:10556000ECD1E7E72DE9F04107460D46D0F824805D
:10557000B8F1000F0CD046464446A4B16968606893
:10558000FFF7C9FF30B9236826465BB11C46F4E734
:10559000796208E0A04502D035602C6003E02C6001
:1055A0007D6200E02560BDE8F081C37DC3F3840225
:1055B000013262F38603C375C38A6FF30903C382A2
:1055C000C37D23F08003C375704738B504460D468C
:1055D000006A04E0016804F10C00FFF751FF10B10C
:1055E0000369AB42F6D138BD2DE9F043079ECD08E3
:1055F00003EBD60401F0070E06F0070372442AE01D
:105600000EF0070803F00706C446B04538BFB4469D
:10561000CCF1080CA2EB0E018C4528BF8C464FF450
:105620007F4121FA0CF1C9B241FA06F74FEADE01D7
:1056300000EB050919F8011001FA08F1F140C9B2AF
:105640004FEAD30814F80860714039404E4004F81E
:105650000860E64463449645D2D1BDE8F0832DE965
:10566000F04F87B00393838AB1EBC30F80F087803C
:1056700082460E461546DA0069188A4203D2D3B232
:10568000F2B29B1ADDB2DAF80C3043B3272E36D8CB
:10569000C6F128039D4230D35FFA86FBCBF1280B7D
:1056A0005FFA8BFB00230093039B5A463146DAF8DE
:1056B0000800FFF799FF5E44A5EB0B04E4B2BAF8CB
:1056C000147007F10057053FFF00DAF80C9028210D
:1056D0004B46B946CDF810A005951F4626E0DAF8EE
:1056E0001030002BD2D100230093039B2A46314671
:1056F000DAF80800FFF778FF35E0AB46D2E72C4632
:105700004FF0000BDBE72546CDF800B0039B2A469F
:10571000711A381DFFF768FF2E44AB445FFA8BFB0C
:10572000651BECB2A9EB0A093F684146A7B19CB1E1
:10573000CA46B9F1E00F28BF4FF0E00A0AEB0108B2
:105740004645EFD2A8EB06039C42DCD35FFA88F50E
:10575000F3B2ED1AEDB2D7E7DDF810A0059DDAF847
:10576000100000B11CB928B207B0BDE8F08FCDF829
:1057700000B0039B2246711AFFF736FFF3E70020C3
:10578000F2E7002070470139002307E0C25C10F8FF
:1057900001C000F803C04254013301398B42F5D3F4
:1057A000704780EA0120002307E0400080B280F4C7
:1057B000815080F001000133DBB2072B05D810F4D3
:1057C000004FF2D1400080B2F5E7704770B5164641
:1057D0001D46002411E0C4F12003A4F1200C26FA98
:1057E00004F105FA03F3194325FA0CFC41EA0C0114
:1057F000C9B2FFF7D6FF0834A4B23F2CEBD970BD75
:1058000038B50C4604E014F8011BFFF7CAFF2A461E
:10581000551E002AF7D138BD38B5058C072D0BD998
:105820000446D0E902234FF6FF70FFF7CFFF2A4668
:10583000E169FFF7E5FF38BD4FF6FF70FBE710B4F5
:10584000016100F1040C002305E001EB4314CCF8E6
:105850000040A44601339A42F7D80023CCF8003028
:1058600002814381838103605DF8044B70470346E6
:10587000406848B102685A605A89013292B25A812E
:1058800099898A4200D99A81704708B5FFF7EFFFDE
:1058900008B10023036008BD2DE9F84F8246894610
:1058A00017461D46CB8AC3F30903052B32D0184691
:1058B0000024042B0AD8A54208D9395D09EB03025C
:1058C000D17601339BB20134A4B2F2E7A54218D9D4
:1058D000B9F816B0CBF3090BABF1050293083D49BB
:1058E000A1FB0313C3EBC303A2EB83021FFA82F8ED
:1058F000D9F8041081B15046FFF7BEFD06460123DA
:105900001CE02844B9F8163060F30903A9F81630F2
:10591000012054E00024DBE75046FFF7B6FF0646BF
:1059200001465046FFF7AAFDC9F80400002E48D0F2
:105930004FF000082CE001339BB216463268002A73
:10594000F9D105EB0B02053A92082249A1FB02129C
:1059500092B2013292B293421AD2B8F1000F17D12B
:105960005046FFF792FF306070B3064610E03A5D94
:1059700006EB0C031A710CF1010C1FFA8CFC0134BC
:10598000A4B2BCF11B0F01D8A542F0D8A54203D8A0
:10599000A5420AD9C446F4E75046FFF776FF3060C7
:1059A000A8B106464FF00008F2E7B9F81630C3F385
:1059B0000902154465F30903A9F816300120BDE872
:1059C000F88F6FF00200FAE76FF00200F7E76FF070
:1059D0000200F4E72549922443680B604160438943
:1059E000013B43817047F8B506460D460EE006F1CF
:1059F0000C042046FFF740FD014607682046FFF7EC
:105A0000EBFF39462046FFF739FD686069680029D9
:105A1000EDD1EB8A6FF30903EB8200200021F8BD82
:105A200008B5FFF724FF034628B100220260426058
:105A30008260C2600261184608BD00002DE9F04F87
:105A400083B001921D465B69002B00F0998081466E
:105A50008B462B8C1BB1EA69002A00F09480072B3F
:105A600018D902339BB206334D4A82FB031213440A
:105A7000C3F38F03B9F81420B9F81610521A92B272
:105A8000934200F286804FF0800A4FF000084446AF
:105A9000474654E009F10C00FFF7C2FF0446002816
:105AA00074D02A8CE969083012F025FA288C01306C
:105AB00080B2FFF714FDFFF7F8FC431E9BB22B8466
:105AC000013323746B691B7803F01F032A8C43F0A6
:105AD000C003224413724BF00043636021464846E2
